ARM GAS  C:\Users\diego\AppData\Local\Temp\cc9XeVuu.s 			page 1


   1              		.syntax unified
   2              		.cpu cortex-m0
   3              		.fpu softvfp
   4              		.eabi_attribute 20, 1
   5              		.eabi_attribute 21, 1
   6              		.eabi_attribute 23, 3
   7              		.eabi_attribute 24, 1
   8              		.eabi_attribute 25, 1
   9              		.eabi_attribute 26, 1
  10              		.eabi_attribute 30, 2
  11              		.eabi_attribute 34, 0
  12              		.eabi_attribute 18, 4
  13              		.thumb
  14              		.syntax unified
  15              		.file	"BLE_bless_isr.c"
  16              		.text
  17              	.Ltext0:
  18              		.cfi_sections	.debug_frame
  19              		.section	.text.BLE_bless_isr_Interrupt,"ax",%progbits
  20              		.align	2
  21              		.global	BLE_bless_isr_Interrupt
  22              		.code	16
  23              		.thumb_func
  24              		.type	BLE_bless_isr_Interrupt, %function
  25              	BLE_bless_isr_Interrupt:
  26              	.LFB5:
  27              		.file 1 "Generated_Source\\PSoC4\\BLE_bless_isr.c"
   1:Generated_Source\PSoC4/BLE_bless_isr.c **** /*******************************************************************************
   2:Generated_Source\PSoC4/BLE_bless_isr.c **** * File Name: BLE_bless_isr.c  
   3:Generated_Source\PSoC4/BLE_bless_isr.c **** * Version 1.70
   4:Generated_Source\PSoC4/BLE_bless_isr.c **** *
   5:Generated_Source\PSoC4/BLE_bless_isr.c **** *  Description:
   6:Generated_Source\PSoC4/BLE_bless_isr.c **** *   API for controlling the state of an interrupt.
   7:Generated_Source\PSoC4/BLE_bless_isr.c **** *
   8:Generated_Source\PSoC4/BLE_bless_isr.c **** *
   9:Generated_Source\PSoC4/BLE_bless_isr.c **** *  Note:
  10:Generated_Source\PSoC4/BLE_bless_isr.c **** *
  11:Generated_Source\PSoC4/BLE_bless_isr.c **** ********************************************************************************
  12:Generated_Source\PSoC4/BLE_bless_isr.c **** * Copyright 2008-2015, Cypress Semiconductor Corporation.  All rights reserved.
  13:Generated_Source\PSoC4/BLE_bless_isr.c **** * You may use this file only in accordance with the license, terms, conditions, 
  14:Generated_Source\PSoC4/BLE_bless_isr.c **** * disclaimers, and limitations in the end user license agreement accompanying 
  15:Generated_Source\PSoC4/BLE_bless_isr.c **** * the software package with which this file was provided.
  16:Generated_Source\PSoC4/BLE_bless_isr.c **** *******************************************************************************/
  17:Generated_Source\PSoC4/BLE_bless_isr.c **** 
  18:Generated_Source\PSoC4/BLE_bless_isr.c **** 
  19:Generated_Source\PSoC4/BLE_bless_isr.c **** #include <cydevice_trm.h>
  20:Generated_Source\PSoC4/BLE_bless_isr.c **** #include <CyLib.h>
  21:Generated_Source\PSoC4/BLE_bless_isr.c **** #include <BLE_bless_isr.h>
  22:Generated_Source\PSoC4/BLE_bless_isr.c **** 
  23:Generated_Source\PSoC4/BLE_bless_isr.c **** 
  24:Generated_Source\PSoC4/BLE_bless_isr.c **** #if !defined(BLE_bless_isr__REMOVED) /* Check for removal by optimization */
  25:Generated_Source\PSoC4/BLE_bless_isr.c **** 
  26:Generated_Source\PSoC4/BLE_bless_isr.c **** /*******************************************************************************
  27:Generated_Source\PSoC4/BLE_bless_isr.c **** *  Place your includes, defines and code here 
  28:Generated_Source\PSoC4/BLE_bless_isr.c **** ********************************************************************************/
  29:Generated_Source\PSoC4/BLE_bless_isr.c **** /* `#START BLE_bless_isr_intc` */
  30:Generated_Source\PSoC4/BLE_bless_isr.c **** 
ARM GAS  C:\Users\diego\AppData\Local\Temp\cc9XeVuu.s 			page 2


  31:Generated_Source\PSoC4/BLE_bless_isr.c **** /* `#END` */
  32:Generated_Source\PSoC4/BLE_bless_isr.c **** 
  33:Generated_Source\PSoC4/BLE_bless_isr.c **** extern cyisraddress CyRamVectors[CYINT_IRQ_BASE + CY_NUM_INTERRUPTS];
  34:Generated_Source\PSoC4/BLE_bless_isr.c **** 
  35:Generated_Source\PSoC4/BLE_bless_isr.c **** /* Declared in startup, used to set unused interrupts to. */
  36:Generated_Source\PSoC4/BLE_bless_isr.c **** CY_ISR_PROTO(IntDefaultHandler);
  37:Generated_Source\PSoC4/BLE_bless_isr.c **** 
  38:Generated_Source\PSoC4/BLE_bless_isr.c **** 
  39:Generated_Source\PSoC4/BLE_bless_isr.c **** /*******************************************************************************
  40:Generated_Source\PSoC4/BLE_bless_isr.c **** * Function Name: BLE_bless_isr_Start
  41:Generated_Source\PSoC4/BLE_bless_isr.c **** ********************************************************************************
  42:Generated_Source\PSoC4/BLE_bless_isr.c **** *
  43:Generated_Source\PSoC4/BLE_bless_isr.c **** * Summary:
  44:Generated_Source\PSoC4/BLE_bless_isr.c **** *  Set up the interrupt and enable it. This function disables the interrupt, 
  45:Generated_Source\PSoC4/BLE_bless_isr.c **** *  sets the default interrupt vector, sets the priority from the value in the
  46:Generated_Source\PSoC4/BLE_bless_isr.c **** *  Design Wide Resources Interrupt Editor, then enables the interrupt to the 
  47:Generated_Source\PSoC4/BLE_bless_isr.c **** *  interrupt controller.
  48:Generated_Source\PSoC4/BLE_bless_isr.c **** *
  49:Generated_Source\PSoC4/BLE_bless_isr.c **** * Parameters:  
  50:Generated_Source\PSoC4/BLE_bless_isr.c **** *   None
  51:Generated_Source\PSoC4/BLE_bless_isr.c **** *
  52:Generated_Source\PSoC4/BLE_bless_isr.c **** * Return:
  53:Generated_Source\PSoC4/BLE_bless_isr.c **** *   None
  54:Generated_Source\PSoC4/BLE_bless_isr.c **** *
  55:Generated_Source\PSoC4/BLE_bless_isr.c **** *******************************************************************************/
  56:Generated_Source\PSoC4/BLE_bless_isr.c **** void BLE_bless_isr_Start(void)
  57:Generated_Source\PSoC4/BLE_bless_isr.c **** {
  58:Generated_Source\PSoC4/BLE_bless_isr.c ****     /* For all we know the interrupt is active. */
  59:Generated_Source\PSoC4/BLE_bless_isr.c ****     BLE_bless_isr_Disable();
  60:Generated_Source\PSoC4/BLE_bless_isr.c **** 
  61:Generated_Source\PSoC4/BLE_bless_isr.c ****     /* Set the ISR to point to the BLE_bless_isr Interrupt. */
  62:Generated_Source\PSoC4/BLE_bless_isr.c ****     BLE_bless_isr_SetVector(&BLE_bless_isr_Interrupt);
  63:Generated_Source\PSoC4/BLE_bless_isr.c **** 
  64:Generated_Source\PSoC4/BLE_bless_isr.c ****     /* Set the priority. */
  65:Generated_Source\PSoC4/BLE_bless_isr.c ****     BLE_bless_isr_SetPriority((uint8)BLE_bless_isr_INTC_PRIOR_NUMBER);
  66:Generated_Source\PSoC4/BLE_bless_isr.c **** 
  67:Generated_Source\PSoC4/BLE_bless_isr.c ****     /* Enable it. */
  68:Generated_Source\PSoC4/BLE_bless_isr.c ****     BLE_bless_isr_Enable();
  69:Generated_Source\PSoC4/BLE_bless_isr.c **** }
  70:Generated_Source\PSoC4/BLE_bless_isr.c **** 
  71:Generated_Source\PSoC4/BLE_bless_isr.c **** 
  72:Generated_Source\PSoC4/BLE_bless_isr.c **** /*******************************************************************************
  73:Generated_Source\PSoC4/BLE_bless_isr.c **** * Function Name: BLE_bless_isr_StartEx
  74:Generated_Source\PSoC4/BLE_bless_isr.c **** ********************************************************************************
  75:Generated_Source\PSoC4/BLE_bless_isr.c **** *
  76:Generated_Source\PSoC4/BLE_bless_isr.c **** * Summary:
  77:Generated_Source\PSoC4/BLE_bless_isr.c **** *  Sets up the interrupt and enables it. This function disables the interrupt,
  78:Generated_Source\PSoC4/BLE_bless_isr.c **** *  sets the interrupt vector based on the address passed in, sets the priority 
  79:Generated_Source\PSoC4/BLE_bless_isr.c **** *  from the value in the Design Wide Resources Interrupt Editor, then enables 
  80:Generated_Source\PSoC4/BLE_bless_isr.c **** *  the interrupt to the interrupt controller.
  81:Generated_Source\PSoC4/BLE_bless_isr.c **** *  
  82:Generated_Source\PSoC4/BLE_bless_isr.c **** *  When defining ISR functions, the CY_ISR and CY_ISR_PROTO macros should be 
  83:Generated_Source\PSoC4/BLE_bless_isr.c **** *  used to provide consistent definition across compilers:
  84:Generated_Source\PSoC4/BLE_bless_isr.c **** *  
  85:Generated_Source\PSoC4/BLE_bless_isr.c **** *  Function definition example:
  86:Generated_Source\PSoC4/BLE_bless_isr.c **** *   CY_ISR(MyISR)
  87:Generated_Source\PSoC4/BLE_bless_isr.c **** *   {
ARM GAS  C:\Users\diego\AppData\Local\Temp\cc9XeVuu.s 			page 3


  88:Generated_Source\PSoC4/BLE_bless_isr.c **** *   }
  89:Generated_Source\PSoC4/BLE_bless_isr.c **** *   Function prototype example:
  90:Generated_Source\PSoC4/BLE_bless_isr.c **** *   CY_ISR_PROTO(MyISR);
  91:Generated_Source\PSoC4/BLE_bless_isr.c **** *
  92:Generated_Source\PSoC4/BLE_bless_isr.c **** * Parameters:  
  93:Generated_Source\PSoC4/BLE_bless_isr.c **** *   address: Address of the ISR to set in the interrupt vector table.
  94:Generated_Source\PSoC4/BLE_bless_isr.c **** *
  95:Generated_Source\PSoC4/BLE_bless_isr.c **** * Return:
  96:Generated_Source\PSoC4/BLE_bless_isr.c **** *   None
  97:Generated_Source\PSoC4/BLE_bless_isr.c **** *
  98:Generated_Source\PSoC4/BLE_bless_isr.c **** *******************************************************************************/
  99:Generated_Source\PSoC4/BLE_bless_isr.c **** void BLE_bless_isr_StartEx(cyisraddress address)
 100:Generated_Source\PSoC4/BLE_bless_isr.c **** {
 101:Generated_Source\PSoC4/BLE_bless_isr.c ****     /* For all we know the interrupt is active. */
 102:Generated_Source\PSoC4/BLE_bless_isr.c ****     BLE_bless_isr_Disable();
 103:Generated_Source\PSoC4/BLE_bless_isr.c **** 
 104:Generated_Source\PSoC4/BLE_bless_isr.c ****     /* Set the ISR to point to the BLE_bless_isr Interrupt. */
 105:Generated_Source\PSoC4/BLE_bless_isr.c ****     BLE_bless_isr_SetVector(address);
 106:Generated_Source\PSoC4/BLE_bless_isr.c **** 
 107:Generated_Source\PSoC4/BLE_bless_isr.c ****     /* Set the priority. */
 108:Generated_Source\PSoC4/BLE_bless_isr.c ****     BLE_bless_isr_SetPriority((uint8)BLE_bless_isr_INTC_PRIOR_NUMBER);
 109:Generated_Source\PSoC4/BLE_bless_isr.c **** 
 110:Generated_Source\PSoC4/BLE_bless_isr.c ****     /* Enable it. */
 111:Generated_Source\PSoC4/BLE_bless_isr.c ****     BLE_bless_isr_Enable();
 112:Generated_Source\PSoC4/BLE_bless_isr.c **** }
 113:Generated_Source\PSoC4/BLE_bless_isr.c **** 
 114:Generated_Source\PSoC4/BLE_bless_isr.c **** 
 115:Generated_Source\PSoC4/BLE_bless_isr.c **** /*******************************************************************************
 116:Generated_Source\PSoC4/BLE_bless_isr.c **** * Function Name: BLE_bless_isr_Stop
 117:Generated_Source\PSoC4/BLE_bless_isr.c **** ********************************************************************************
 118:Generated_Source\PSoC4/BLE_bless_isr.c **** *
 119:Generated_Source\PSoC4/BLE_bless_isr.c **** * Summary:
 120:Generated_Source\PSoC4/BLE_bless_isr.c **** *   Disables and removes the interrupt.
 121:Generated_Source\PSoC4/BLE_bless_isr.c **** *
 122:Generated_Source\PSoC4/BLE_bless_isr.c **** * Parameters:  
 123:Generated_Source\PSoC4/BLE_bless_isr.c **** *   None
 124:Generated_Source\PSoC4/BLE_bless_isr.c **** *
 125:Generated_Source\PSoC4/BLE_bless_isr.c **** * Return:
 126:Generated_Source\PSoC4/BLE_bless_isr.c **** *   None
 127:Generated_Source\PSoC4/BLE_bless_isr.c **** *
 128:Generated_Source\PSoC4/BLE_bless_isr.c **** *******************************************************************************/
 129:Generated_Source\PSoC4/BLE_bless_isr.c **** void BLE_bless_isr_Stop(void)
 130:Generated_Source\PSoC4/BLE_bless_isr.c **** {
 131:Generated_Source\PSoC4/BLE_bless_isr.c ****     /* Disable this interrupt. */
 132:Generated_Source\PSoC4/BLE_bless_isr.c ****     BLE_bless_isr_Disable();
 133:Generated_Source\PSoC4/BLE_bless_isr.c **** 
 134:Generated_Source\PSoC4/BLE_bless_isr.c ****     /* Set the ISR to point to the passive one. */
 135:Generated_Source\PSoC4/BLE_bless_isr.c ****     BLE_bless_isr_SetVector(&IntDefaultHandler);
 136:Generated_Source\PSoC4/BLE_bless_isr.c **** }
 137:Generated_Source\PSoC4/BLE_bless_isr.c **** 
 138:Generated_Source\PSoC4/BLE_bless_isr.c **** 
 139:Generated_Source\PSoC4/BLE_bless_isr.c **** /*******************************************************************************
 140:Generated_Source\PSoC4/BLE_bless_isr.c **** * Function Name: BLE_bless_isr_Interrupt
 141:Generated_Source\PSoC4/BLE_bless_isr.c **** ********************************************************************************
 142:Generated_Source\PSoC4/BLE_bless_isr.c **** *
 143:Generated_Source\PSoC4/BLE_bless_isr.c **** * Summary:
 144:Generated_Source\PSoC4/BLE_bless_isr.c **** *   The default Interrupt Service Routine for BLE_bless_isr.
ARM GAS  C:\Users\diego\AppData\Local\Temp\cc9XeVuu.s 			page 4


 145:Generated_Source\PSoC4/BLE_bless_isr.c **** *
 146:Generated_Source\PSoC4/BLE_bless_isr.c **** *   Add custom code between the START and END comments to keep the next version
 147:Generated_Source\PSoC4/BLE_bless_isr.c **** *   of this file from over-writing your code.
 148:Generated_Source\PSoC4/BLE_bless_isr.c **** *
 149:Generated_Source\PSoC4/BLE_bless_isr.c **** *   Note You may use either the default ISR by using this API, or you may define
 150:Generated_Source\PSoC4/BLE_bless_isr.c **** *   your own separate ISR through ISR_StartEx().
 151:Generated_Source\PSoC4/BLE_bless_isr.c **** *
 152:Generated_Source\PSoC4/BLE_bless_isr.c **** * Parameters:  
 153:Generated_Source\PSoC4/BLE_bless_isr.c **** *   None
 154:Generated_Source\PSoC4/BLE_bless_isr.c **** *
 155:Generated_Source\PSoC4/BLE_bless_isr.c **** * Return:
 156:Generated_Source\PSoC4/BLE_bless_isr.c **** *   None
 157:Generated_Source\PSoC4/BLE_bless_isr.c **** *
 158:Generated_Source\PSoC4/BLE_bless_isr.c **** *******************************************************************************/
 159:Generated_Source\PSoC4/BLE_bless_isr.c **** CY_ISR(BLE_bless_isr_Interrupt)
 160:Generated_Source\PSoC4/BLE_bless_isr.c **** {
  28              		.loc 1 160 0
  29              		.cfi_startproc
  30              		@ args = 0, pretend = 0, frame = 0
  31              		@ frame_needed = 0, uses_anonymous_args = 0
  32              		@ link register save eliminated.
 161:Generated_Source\PSoC4/BLE_bless_isr.c ****     #ifdef BLE_bless_isr_INTERRUPT_INTERRUPT_CALLBACK
 162:Generated_Source\PSoC4/BLE_bless_isr.c ****         BLE_bless_isr_Interrupt_InterruptCallback();
 163:Generated_Source\PSoC4/BLE_bless_isr.c ****     #endif /* BLE_bless_isr_INTERRUPT_INTERRUPT_CALLBACK */ 
 164:Generated_Source\PSoC4/BLE_bless_isr.c **** 
 165:Generated_Source\PSoC4/BLE_bless_isr.c ****     /*  Place your Interrupt code here. */
 166:Generated_Source\PSoC4/BLE_bless_isr.c ****     /* `#START BLE_bless_isr_Interrupt` */
 167:Generated_Source\PSoC4/BLE_bless_isr.c **** 
 168:Generated_Source\PSoC4/BLE_bless_isr.c ****     /* `#END` */
 169:Generated_Source\PSoC4/BLE_bless_isr.c **** }
  33              		.loc 1 169 0
  34              		@ sp needed
  35 0000 7047     		bx	lr
  36              		.cfi_endproc
  37              	.LFE5:
  38              		.size	BLE_bless_isr_Interrupt, .-BLE_bless_isr_Interrupt
  39 0002 C046     		.section	.text.BLE_bless_isr_Start,"ax",%progbits
  40              		.align	2
  41              		.global	BLE_bless_isr_Start
  42              		.code	16
  43              		.thumb_func
  44              		.type	BLE_bless_isr_Start, %function
  45              	BLE_bless_isr_Start:
  46              	.LFB2:
  57:Generated_Source\PSoC4/BLE_bless_isr.c ****     /* For all we know the interrupt is active. */
  47              		.loc 1 57 0
  48              		.cfi_startproc
  49              		@ args = 0, pretend = 0, frame = 0
  50              		@ frame_needed = 0, uses_anonymous_args = 0
  51 0000 10B5     		push	{r4, lr}
  52              		.cfi_def_cfa_offset 8
  53              		.cfi_offset 4, -8
  54              		.cfi_offset 14, -4
  55              	.LBB26:
  56              	.LBB27:
 170:Generated_Source\PSoC4/BLE_bless_isr.c **** 
 171:Generated_Source\PSoC4/BLE_bless_isr.c **** 
ARM GAS  C:\Users\diego\AppData\Local\Temp\cc9XeVuu.s 			page 5


 172:Generated_Source\PSoC4/BLE_bless_isr.c **** /*******************************************************************************
 173:Generated_Source\PSoC4/BLE_bless_isr.c **** * Function Name: BLE_bless_isr_SetVector
 174:Generated_Source\PSoC4/BLE_bless_isr.c **** ********************************************************************************
 175:Generated_Source\PSoC4/BLE_bless_isr.c **** *
 176:Generated_Source\PSoC4/BLE_bless_isr.c **** * Summary:
 177:Generated_Source\PSoC4/BLE_bless_isr.c **** *   Change the ISR vector for the Interrupt. Note calling BLE_bless_isr_Start
 178:Generated_Source\PSoC4/BLE_bless_isr.c **** *   will override any effect this method would have had. To set the vector 
 179:Generated_Source\PSoC4/BLE_bless_isr.c **** *   before the component has been started use BLE_bless_isr_StartEx instead.
 180:Generated_Source\PSoC4/BLE_bless_isr.c **** * 
 181:Generated_Source\PSoC4/BLE_bless_isr.c **** *   When defining ISR functions, the CY_ISR and CY_ISR_PROTO macros should be 
 182:Generated_Source\PSoC4/BLE_bless_isr.c **** *   used to provide consistent definition across compilers:
 183:Generated_Source\PSoC4/BLE_bless_isr.c **** *
 184:Generated_Source\PSoC4/BLE_bless_isr.c **** *   Function definition example:
 185:Generated_Source\PSoC4/BLE_bless_isr.c **** *   CY_ISR(MyISR)
 186:Generated_Source\PSoC4/BLE_bless_isr.c **** *   {
 187:Generated_Source\PSoC4/BLE_bless_isr.c **** *   }
 188:Generated_Source\PSoC4/BLE_bless_isr.c **** *
 189:Generated_Source\PSoC4/BLE_bless_isr.c **** *   Function prototype example:
 190:Generated_Source\PSoC4/BLE_bless_isr.c **** *     CY_ISR_PROTO(MyISR);
 191:Generated_Source\PSoC4/BLE_bless_isr.c **** *
 192:Generated_Source\PSoC4/BLE_bless_isr.c **** * Parameters:
 193:Generated_Source\PSoC4/BLE_bless_isr.c **** *   address: Address of the ISR to set in the interrupt vector table.
 194:Generated_Source\PSoC4/BLE_bless_isr.c **** *
 195:Generated_Source\PSoC4/BLE_bless_isr.c **** * Return:
 196:Generated_Source\PSoC4/BLE_bless_isr.c **** *   None
 197:Generated_Source\PSoC4/BLE_bless_isr.c **** *
 198:Generated_Source\PSoC4/BLE_bless_isr.c **** *******************************************************************************/
 199:Generated_Source\PSoC4/BLE_bless_isr.c **** void BLE_bless_isr_SetVector(cyisraddress address)
 200:Generated_Source\PSoC4/BLE_bless_isr.c **** {
 201:Generated_Source\PSoC4/BLE_bless_isr.c ****     CyRamVectors[CYINT_IRQ_BASE + BLE_bless_isr__INTC_NUMBER] = address;
 202:Generated_Source\PSoC4/BLE_bless_isr.c **** }
 203:Generated_Source\PSoC4/BLE_bless_isr.c **** 
 204:Generated_Source\PSoC4/BLE_bless_isr.c **** 
 205:Generated_Source\PSoC4/BLE_bless_isr.c **** /*******************************************************************************
 206:Generated_Source\PSoC4/BLE_bless_isr.c **** * Function Name: BLE_bless_isr_GetVector
 207:Generated_Source\PSoC4/BLE_bless_isr.c **** ********************************************************************************
 208:Generated_Source\PSoC4/BLE_bless_isr.c **** *
 209:Generated_Source\PSoC4/BLE_bless_isr.c **** * Summary:
 210:Generated_Source\PSoC4/BLE_bless_isr.c **** *   Gets the "address" of the current ISR vector for the Interrupt.
 211:Generated_Source\PSoC4/BLE_bless_isr.c **** *
 212:Generated_Source\PSoC4/BLE_bless_isr.c **** * Parameters:
 213:Generated_Source\PSoC4/BLE_bless_isr.c **** *   None
 214:Generated_Source\PSoC4/BLE_bless_isr.c **** *
 215:Generated_Source\PSoC4/BLE_bless_isr.c **** * Return:
 216:Generated_Source\PSoC4/BLE_bless_isr.c **** *   Address of the ISR in the interrupt vector table.
 217:Generated_Source\PSoC4/BLE_bless_isr.c **** *
 218:Generated_Source\PSoC4/BLE_bless_isr.c **** *******************************************************************************/
 219:Generated_Source\PSoC4/BLE_bless_isr.c **** cyisraddress BLE_bless_isr_GetVector(void)
 220:Generated_Source\PSoC4/BLE_bless_isr.c **** {
 221:Generated_Source\PSoC4/BLE_bless_isr.c ****     return CyRamVectors[CYINT_IRQ_BASE + BLE_bless_isr__INTC_NUMBER];
 222:Generated_Source\PSoC4/BLE_bless_isr.c **** }
 223:Generated_Source\PSoC4/BLE_bless_isr.c **** 
 224:Generated_Source\PSoC4/BLE_bless_isr.c **** 
 225:Generated_Source\PSoC4/BLE_bless_isr.c **** /*******************************************************************************
 226:Generated_Source\PSoC4/BLE_bless_isr.c **** * Function Name: BLE_bless_isr_SetPriority
 227:Generated_Source\PSoC4/BLE_bless_isr.c **** ********************************************************************************
 228:Generated_Source\PSoC4/BLE_bless_isr.c **** *
ARM GAS  C:\Users\diego\AppData\Local\Temp\cc9XeVuu.s 			page 6


 229:Generated_Source\PSoC4/BLE_bless_isr.c **** * Summary:
 230:Generated_Source\PSoC4/BLE_bless_isr.c **** *   Sets the Priority of the Interrupt. 
 231:Generated_Source\PSoC4/BLE_bless_isr.c **** *
 232:Generated_Source\PSoC4/BLE_bless_isr.c **** *   Note calling BLE_bless_isr_Start or BLE_bless_isr_StartEx will 
 233:Generated_Source\PSoC4/BLE_bless_isr.c **** *   override any effect this API would have had. This API should only be called
 234:Generated_Source\PSoC4/BLE_bless_isr.c **** *   after BLE_bless_isr_Start or BLE_bless_isr_StartEx has been called. 
 235:Generated_Source\PSoC4/BLE_bless_isr.c **** *   To set the initial priority for the component, use the Design-Wide Resources
 236:Generated_Source\PSoC4/BLE_bless_isr.c **** *   Interrupt Editor.
 237:Generated_Source\PSoC4/BLE_bless_isr.c **** *
 238:Generated_Source\PSoC4/BLE_bless_isr.c **** *   Note This API has no effect on Non-maskable interrupt NMI).
 239:Generated_Source\PSoC4/BLE_bless_isr.c **** *
 240:Generated_Source\PSoC4/BLE_bless_isr.c **** * Parameters:
 241:Generated_Source\PSoC4/BLE_bless_isr.c **** *   priority: Priority of the interrupt, 0 being the highest priority
 242:Generated_Source\PSoC4/BLE_bless_isr.c **** *             PSoC 3 and PSoC 5LP: Priority is from 0 to 7.
 243:Generated_Source\PSoC4/BLE_bless_isr.c **** *             PSoC 4: Priority is from 0 to 3.
 244:Generated_Source\PSoC4/BLE_bless_isr.c **** *
 245:Generated_Source\PSoC4/BLE_bless_isr.c **** * Return:
 246:Generated_Source\PSoC4/BLE_bless_isr.c **** *   None
 247:Generated_Source\PSoC4/BLE_bless_isr.c **** *
 248:Generated_Source\PSoC4/BLE_bless_isr.c **** *******************************************************************************/
 249:Generated_Source\PSoC4/BLE_bless_isr.c **** void BLE_bless_isr_SetPriority(uint8 priority)
 250:Generated_Source\PSoC4/BLE_bless_isr.c **** {
 251:Generated_Source\PSoC4/BLE_bless_isr.c **** 	uint8 interruptState;
 252:Generated_Source\PSoC4/BLE_bless_isr.c ****     uint32 priorityOffset = ((BLE_bless_isr__INTC_NUMBER % 4u) * 8u) + 6u;
 253:Generated_Source\PSoC4/BLE_bless_isr.c ****     
 254:Generated_Source\PSoC4/BLE_bless_isr.c **** 	interruptState = CyEnterCriticalSection();
 255:Generated_Source\PSoC4/BLE_bless_isr.c ****     *BLE_bless_isr_INTC_PRIOR = (*BLE_bless_isr_INTC_PRIOR & (uint32)(~BLE_bless_isr__INTC_PRIOR_MA
 256:Generated_Source\PSoC4/BLE_bless_isr.c ****                                     ((uint32)priority << priorityOffset);
 257:Generated_Source\PSoC4/BLE_bless_isr.c **** 	CyExitCriticalSection(interruptState);
 258:Generated_Source\PSoC4/BLE_bless_isr.c **** }
 259:Generated_Source\PSoC4/BLE_bless_isr.c **** 
 260:Generated_Source\PSoC4/BLE_bless_isr.c **** 
 261:Generated_Source\PSoC4/BLE_bless_isr.c **** /*******************************************************************************
 262:Generated_Source\PSoC4/BLE_bless_isr.c **** * Function Name: BLE_bless_isr_GetPriority
 263:Generated_Source\PSoC4/BLE_bless_isr.c **** ********************************************************************************
 264:Generated_Source\PSoC4/BLE_bless_isr.c **** *
 265:Generated_Source\PSoC4/BLE_bless_isr.c **** * Summary:
 266:Generated_Source\PSoC4/BLE_bless_isr.c **** *   Gets the Priority of the Interrupt.
 267:Generated_Source\PSoC4/BLE_bless_isr.c **** *
 268:Generated_Source\PSoC4/BLE_bless_isr.c **** * Parameters:
 269:Generated_Source\PSoC4/BLE_bless_isr.c **** *   None
 270:Generated_Source\PSoC4/BLE_bless_isr.c **** *
 271:Generated_Source\PSoC4/BLE_bless_isr.c **** * Return:
 272:Generated_Source\PSoC4/BLE_bless_isr.c **** *   Priority of the interrupt, 0 being the highest priority
 273:Generated_Source\PSoC4/BLE_bless_isr.c **** *    PSoC 3 and PSoC 5LP: Priority is from 0 to 7.
 274:Generated_Source\PSoC4/BLE_bless_isr.c **** *    PSoC 4: Priority is from 0 to 3.
 275:Generated_Source\PSoC4/BLE_bless_isr.c **** *
 276:Generated_Source\PSoC4/BLE_bless_isr.c **** *******************************************************************************/
 277:Generated_Source\PSoC4/BLE_bless_isr.c **** uint8 BLE_bless_isr_GetPriority(void)
 278:Generated_Source\PSoC4/BLE_bless_isr.c **** {
 279:Generated_Source\PSoC4/BLE_bless_isr.c ****     uint32 priority;
 280:Generated_Source\PSoC4/BLE_bless_isr.c **** 	uint32 priorityOffset = ((BLE_bless_isr__INTC_NUMBER % 4u) * 8u) + 6u;
 281:Generated_Source\PSoC4/BLE_bless_isr.c **** 
 282:Generated_Source\PSoC4/BLE_bless_isr.c ****     priority = (*BLE_bless_isr_INTC_PRIOR & BLE_bless_isr__INTC_PRIOR_MASK) >> priorityOffset;
 283:Generated_Source\PSoC4/BLE_bless_isr.c **** 
 284:Generated_Source\PSoC4/BLE_bless_isr.c ****     return (uint8)priority;
 285:Generated_Source\PSoC4/BLE_bless_isr.c **** }
ARM GAS  C:\Users\diego\AppData\Local\Temp\cc9XeVuu.s 			page 7


 286:Generated_Source\PSoC4/BLE_bless_isr.c **** 
 287:Generated_Source\PSoC4/BLE_bless_isr.c **** 
 288:Generated_Source\PSoC4/BLE_bless_isr.c **** /*******************************************************************************
 289:Generated_Source\PSoC4/BLE_bless_isr.c **** * Function Name: BLE_bless_isr_Enable
 290:Generated_Source\PSoC4/BLE_bless_isr.c **** ********************************************************************************
 291:Generated_Source\PSoC4/BLE_bless_isr.c **** *
 292:Generated_Source\PSoC4/BLE_bless_isr.c **** * Summary:
 293:Generated_Source\PSoC4/BLE_bless_isr.c **** *   Enables the interrupt to the interrupt controller. Do not call this function
 294:Generated_Source\PSoC4/BLE_bless_isr.c **** *   unless ISR_Start() has been called or the functionality of the ISR_Start() 
 295:Generated_Source\PSoC4/BLE_bless_isr.c **** *   function, which sets the vector and the priority, has been called.
 296:Generated_Source\PSoC4/BLE_bless_isr.c **** *
 297:Generated_Source\PSoC4/BLE_bless_isr.c **** * Parameters:
 298:Generated_Source\PSoC4/BLE_bless_isr.c **** *   None
 299:Generated_Source\PSoC4/BLE_bless_isr.c **** *
 300:Generated_Source\PSoC4/BLE_bless_isr.c **** * Return:
 301:Generated_Source\PSoC4/BLE_bless_isr.c **** *   None
 302:Generated_Source\PSoC4/BLE_bless_isr.c **** *
 303:Generated_Source\PSoC4/BLE_bless_isr.c **** *******************************************************************************/
 304:Generated_Source\PSoC4/BLE_bless_isr.c **** void BLE_bless_isr_Enable(void)
 305:Generated_Source\PSoC4/BLE_bless_isr.c **** {
 306:Generated_Source\PSoC4/BLE_bless_isr.c ****     /* Enable the general interrupt. */
 307:Generated_Source\PSoC4/BLE_bless_isr.c ****     *BLE_bless_isr_INTC_SET_EN = BLE_bless_isr__INTC_MASK;
 308:Generated_Source\PSoC4/BLE_bless_isr.c **** }
 309:Generated_Source\PSoC4/BLE_bless_isr.c **** 
 310:Generated_Source\PSoC4/BLE_bless_isr.c **** 
 311:Generated_Source\PSoC4/BLE_bless_isr.c **** /*******************************************************************************
 312:Generated_Source\PSoC4/BLE_bless_isr.c **** * Function Name: BLE_bless_isr_GetState
 313:Generated_Source\PSoC4/BLE_bless_isr.c **** ********************************************************************************
 314:Generated_Source\PSoC4/BLE_bless_isr.c **** *
 315:Generated_Source\PSoC4/BLE_bless_isr.c **** * Summary:
 316:Generated_Source\PSoC4/BLE_bless_isr.c **** *   Gets the state (enabled, disabled) of the Interrupt.
 317:Generated_Source\PSoC4/BLE_bless_isr.c **** *
 318:Generated_Source\PSoC4/BLE_bless_isr.c **** * Parameters:
 319:Generated_Source\PSoC4/BLE_bless_isr.c **** *   None
 320:Generated_Source\PSoC4/BLE_bless_isr.c **** *
 321:Generated_Source\PSoC4/BLE_bless_isr.c **** * Return:
 322:Generated_Source\PSoC4/BLE_bless_isr.c **** *   1 if enabled, 0 if disabled.
 323:Generated_Source\PSoC4/BLE_bless_isr.c **** *
 324:Generated_Source\PSoC4/BLE_bless_isr.c **** *******************************************************************************/
 325:Generated_Source\PSoC4/BLE_bless_isr.c **** uint8 BLE_bless_isr_GetState(void)
 326:Generated_Source\PSoC4/BLE_bless_isr.c **** {
 327:Generated_Source\PSoC4/BLE_bless_isr.c ****     /* Get the state of the general interrupt. */
 328:Generated_Source\PSoC4/BLE_bless_isr.c ****     return ((*BLE_bless_isr_INTC_SET_EN & (uint32)BLE_bless_isr__INTC_MASK) != 0u) ? 1u:0u;
 329:Generated_Source\PSoC4/BLE_bless_isr.c **** }
 330:Generated_Source\PSoC4/BLE_bless_isr.c **** 
 331:Generated_Source\PSoC4/BLE_bless_isr.c **** 
 332:Generated_Source\PSoC4/BLE_bless_isr.c **** /*******************************************************************************
 333:Generated_Source\PSoC4/BLE_bless_isr.c **** * Function Name: BLE_bless_isr_Disable
 334:Generated_Source\PSoC4/BLE_bless_isr.c **** ********************************************************************************
 335:Generated_Source\PSoC4/BLE_bless_isr.c **** *
 336:Generated_Source\PSoC4/BLE_bless_isr.c **** * Summary:
 337:Generated_Source\PSoC4/BLE_bless_isr.c **** *   Disables the Interrupt in the interrupt controller.
 338:Generated_Source\PSoC4/BLE_bless_isr.c **** *
 339:Generated_Source\PSoC4/BLE_bless_isr.c **** * Parameters:
 340:Generated_Source\PSoC4/BLE_bless_isr.c **** *   None
 341:Generated_Source\PSoC4/BLE_bless_isr.c **** *
 342:Generated_Source\PSoC4/BLE_bless_isr.c **** * Return:
ARM GAS  C:\Users\diego\AppData\Local\Temp\cc9XeVuu.s 			page 8


 343:Generated_Source\PSoC4/BLE_bless_isr.c **** *   None
 344:Generated_Source\PSoC4/BLE_bless_isr.c **** *
 345:Generated_Source\PSoC4/BLE_bless_isr.c **** *******************************************************************************/
 346:Generated_Source\PSoC4/BLE_bless_isr.c **** void BLE_bless_isr_Disable(void)
 347:Generated_Source\PSoC4/BLE_bless_isr.c **** {
 348:Generated_Source\PSoC4/BLE_bless_isr.c ****     /* Disable the general interrupt. */
 349:Generated_Source\PSoC4/BLE_bless_isr.c ****     *BLE_bless_isr_INTC_CLR_EN = BLE_bless_isr__INTC_MASK;
  57              		.loc 1 349 0
  58 0002 8024     		movs	r4, #128
  59 0004 084B     		ldr	r3, .L3
  60 0006 6401     		lsls	r4, r4, #5
  61 0008 1C60     		str	r4, [r3]
  62              	.LVL0:
  63              	.LBE27:
  64              	.LBE26:
  65              	.LBB28:
  66              	.LBB29:
 201:Generated_Source\PSoC4/BLE_bless_isr.c **** }
  67              		.loc 1 201 0
  68 000a 084A     		ldr	r2, .L3+4
  69 000c 084B     		ldr	r3, .L3+8
  70              	.LBE29:
  71              	.LBE28:
  69:Generated_Source\PSoC4/BLE_bless_isr.c **** 
  72              		.loc 1 69 0
  73              		@ sp needed
  74              	.LBB31:
  75              	.LBB30:
 201:Generated_Source\PSoC4/BLE_bless_isr.c **** }
  76              		.loc 1 201 0
  77 000e 1A67     		str	r2, [r3, #112]
  78              	.LVL1:
  79              	.LBE30:
  80              	.LBE31:
  81              	.LBB32:
  82              	.LBB33:
 254:Generated_Source\PSoC4/BLE_bless_isr.c ****     *BLE_bless_isr_INTC_PRIOR = (*BLE_bless_isr_INTC_PRIOR & (uint32)(~BLE_bless_isr__INTC_PRIOR_MA
  83              		.loc 1 254 0
  84 0010 FFF7FEFF 		bl	CyEnterCriticalSection
  85              	.LVL2:
 255:Generated_Source\PSoC4/BLE_bless_isr.c ****                                     ((uint32)priority << priorityOffset);
  86              		.loc 1 255 0
  87 0014 C021     		movs	r1, #192
  88 0016 074A     		ldr	r2, .L3+12
  89 0018 1368     		ldr	r3, [r2]
  90 001a 8B43     		bics	r3, r1
  91 001c 1360     		str	r3, [r2]
 257:Generated_Source\PSoC4/BLE_bless_isr.c **** }
  92              		.loc 1 257 0
  93 001e FFF7FEFF 		bl	CyExitCriticalSection
  94              	.LVL3:
  95              	.LBE33:
  96              	.LBE32:
  97              	.LBB34:
  98              	.LBB35:
 307:Generated_Source\PSoC4/BLE_bless_isr.c **** }
  99              		.loc 1 307 0
ARM GAS  C:\Users\diego\AppData\Local\Temp\cc9XeVuu.s 			page 9


 100 0022 054B     		ldr	r3, .L3+16
 101 0024 1C60     		str	r4, [r3]
 102              	.LBE35:
 103              	.LBE34:
  69:Generated_Source\PSoC4/BLE_bless_isr.c **** 
 104              		.loc 1 69 0
 105 0026 10BD     		pop	{r4, pc}
 106              	.L4:
 107              		.align	2
 108              	.L3:
 109 0028 80E100E0 		.word	-536813184
 110 002c 00000000 		.word	BLE_bless_isr_Interrupt
 111 0030 00000000 		.word	CyRamVectors
 112 0034 0CE400E0 		.word	-536812532
 113 0038 00E100E0 		.word	-536813312
 114              		.cfi_endproc
 115              	.LFE2:
 116              		.size	BLE_bless_isr_Start, .-BLE_bless_isr_Start
 117              		.section	.text.BLE_bless_isr_StartEx,"ax",%progbits
 118              		.align	2
 119              		.global	BLE_bless_isr_StartEx
 120              		.code	16
 121              		.thumb_func
 122              		.type	BLE_bless_isr_StartEx, %function
 123              	BLE_bless_isr_StartEx:
 124              	.LFB3:
 100:Generated_Source\PSoC4/BLE_bless_isr.c ****     /* For all we know the interrupt is active. */
 125              		.loc 1 100 0
 126              		.cfi_startproc
 127              		@ args = 0, pretend = 0, frame = 0
 128              		@ frame_needed = 0, uses_anonymous_args = 0
 129              	.LVL4:
 130 0000 10B5     		push	{r4, lr}
 131              		.cfi_def_cfa_offset 8
 132              		.cfi_offset 4, -8
 133              		.cfi_offset 14, -4
 134              	.LBB44:
 135              	.LBB45:
 136              		.loc 1 349 0
 137 0002 8024     		movs	r4, #128
 138 0004 084B     		ldr	r3, .L6
 139 0006 6401     		lsls	r4, r4, #5
 140 0008 1C60     		str	r4, [r3]
 141              	.LVL5:
 142              	.LBE45:
 143              	.LBE44:
 144              	.LBB46:
 145              	.LBB47:
 201:Generated_Source\PSoC4/BLE_bless_isr.c **** }
 146              		.loc 1 201 0
 147 000a 084B     		ldr	r3, .L6+4
 148              	.LBE47:
 149              	.LBE46:
 112:Generated_Source\PSoC4/BLE_bless_isr.c **** 
 150              		.loc 1 112 0
 151              		@ sp needed
 152              	.LBB49:
ARM GAS  C:\Users\diego\AppData\Local\Temp\cc9XeVuu.s 			page 10


 153              	.LBB48:
 201:Generated_Source\PSoC4/BLE_bless_isr.c **** }
 154              		.loc 1 201 0
 155 000c 1867     		str	r0, [r3, #112]
 156              	.LVL6:
 157              	.LBE48:
 158              	.LBE49:
 159              	.LBB50:
 160              	.LBB51:
 254:Generated_Source\PSoC4/BLE_bless_isr.c ****     *BLE_bless_isr_INTC_PRIOR = (*BLE_bless_isr_INTC_PRIOR & (uint32)(~BLE_bless_isr__INTC_PRIOR_MA
 161              		.loc 1 254 0
 162 000e FFF7FEFF 		bl	CyEnterCriticalSection
 163              	.LVL7:
 255:Generated_Source\PSoC4/BLE_bless_isr.c ****                                     ((uint32)priority << priorityOffset);
 164              		.loc 1 255 0
 165 0012 C021     		movs	r1, #192
 166 0014 064A     		ldr	r2, .L6+8
 167 0016 1368     		ldr	r3, [r2]
 168 0018 8B43     		bics	r3, r1
 169 001a 1360     		str	r3, [r2]
 257:Generated_Source\PSoC4/BLE_bless_isr.c **** }
 170              		.loc 1 257 0
 171 001c FFF7FEFF 		bl	CyExitCriticalSection
 172              	.LVL8:
 173              	.LBE51:
 174              	.LBE50:
 175              	.LBB52:
 176              	.LBB53:
 307:Generated_Source\PSoC4/BLE_bless_isr.c **** }
 177              		.loc 1 307 0
 178 0020 044B     		ldr	r3, .L6+12
 179 0022 1C60     		str	r4, [r3]
 180              	.LBE53:
 181              	.LBE52:
 112:Generated_Source\PSoC4/BLE_bless_isr.c **** 
 182              		.loc 1 112 0
 183 0024 10BD     		pop	{r4, pc}
 184              	.L7:
 185 0026 C046     		.align	2
 186              	.L6:
 187 0028 80E100E0 		.word	-536813184
 188 002c 00000000 		.word	CyRamVectors
 189 0030 0CE400E0 		.word	-536812532
 190 0034 00E100E0 		.word	-536813312
 191              		.cfi_endproc
 192              	.LFE3:
 193              		.size	BLE_bless_isr_StartEx, .-BLE_bless_isr_StartEx
 194              		.section	.text.BLE_bless_isr_Stop,"ax",%progbits
 195              		.align	2
 196              		.global	BLE_bless_isr_Stop
 197              		.code	16
 198              		.thumb_func
 199              		.type	BLE_bless_isr_Stop, %function
 200              	BLE_bless_isr_Stop:
 201              	.LFB4:
 130:Generated_Source\PSoC4/BLE_bless_isr.c ****     /* Disable this interrupt. */
 202              		.loc 1 130 0
ARM GAS  C:\Users\diego\AppData\Local\Temp\cc9XeVuu.s 			page 11


 203              		.cfi_startproc
 204              		@ args = 0, pretend = 0, frame = 0
 205              		@ frame_needed = 0, uses_anonymous_args = 0
 206              		@ link register save eliminated.
 207              	.LBB54:
 208              	.LBB55:
 209              		.loc 1 349 0
 210 0000 8022     		movs	r2, #128
 211 0002 034B     		ldr	r3, .L9
 212 0004 5201     		lsls	r2, r2, #5
 213 0006 1A60     		str	r2, [r3]
 214              	.LVL9:
 215              	.LBE55:
 216              	.LBE54:
 217              	.LBB56:
 218              	.LBB57:
 201:Generated_Source\PSoC4/BLE_bless_isr.c **** }
 219              		.loc 1 201 0
 220 0008 024A     		ldr	r2, .L9+4
 221 000a 034B     		ldr	r3, .L9+8
 222              	.LBE57:
 223              	.LBE56:
 136:Generated_Source\PSoC4/BLE_bless_isr.c **** 
 224              		.loc 1 136 0
 225              		@ sp needed
 226              	.LBB59:
 227              	.LBB58:
 201:Generated_Source\PSoC4/BLE_bless_isr.c **** }
 228              		.loc 1 201 0
 229 000c 1A67     		str	r2, [r3, #112]
 230              	.LVL10:
 231              	.LBE58:
 232              	.LBE59:
 136:Generated_Source\PSoC4/BLE_bless_isr.c **** 
 233              		.loc 1 136 0
 234 000e 7047     		bx	lr
 235              	.L10:
 236              		.align	2
 237              	.L9:
 238 0010 80E100E0 		.word	-536813184
 239 0014 00000000 		.word	IntDefaultHandler
 240 0018 00000000 		.word	CyRamVectors
 241              		.cfi_endproc
 242              	.LFE4:
 243              		.size	BLE_bless_isr_Stop, .-BLE_bless_isr_Stop
 244              		.section	.text.BLE_bless_isr_SetVector,"ax",%progbits
 245              		.align	2
 246              		.global	BLE_bless_isr_SetVector
 247              		.code	16
 248              		.thumb_func
 249              		.type	BLE_bless_isr_SetVector, %function
 250              	BLE_bless_isr_SetVector:
 251              	.LFB6:
 200:Generated_Source\PSoC4/BLE_bless_isr.c ****     CyRamVectors[CYINT_IRQ_BASE + BLE_bless_isr__INTC_NUMBER] = address;
 252              		.loc 1 200 0
 253              		.cfi_startproc
 254              		@ args = 0, pretend = 0, frame = 0
ARM GAS  C:\Users\diego\AppData\Local\Temp\cc9XeVuu.s 			page 12


 255              		@ frame_needed = 0, uses_anonymous_args = 0
 256              		@ link register save eliminated.
 257              	.LVL11:
 201:Generated_Source\PSoC4/BLE_bless_isr.c **** }
 258              		.loc 1 201 0
 259 0000 014B     		ldr	r3, .L12
 202:Generated_Source\PSoC4/BLE_bless_isr.c **** 
 260              		.loc 1 202 0
 261              		@ sp needed
 201:Generated_Source\PSoC4/BLE_bless_isr.c **** }
 262              		.loc 1 201 0
 263 0002 1867     		str	r0, [r3, #112]
 202:Generated_Source\PSoC4/BLE_bless_isr.c **** 
 264              		.loc 1 202 0
 265 0004 7047     		bx	lr
 266              	.L13:
 267 0006 C046     		.align	2
 268              	.L12:
 269 0008 00000000 		.word	CyRamVectors
 270              		.cfi_endproc
 271              	.LFE6:
 272              		.size	BLE_bless_isr_SetVector, .-BLE_bless_isr_SetVector
 273              		.section	.text.BLE_bless_isr_GetVector,"ax",%progbits
 274              		.align	2
 275              		.global	BLE_bless_isr_GetVector
 276              		.code	16
 277              		.thumb_func
 278              		.type	BLE_bless_isr_GetVector, %function
 279              	BLE_bless_isr_GetVector:
 280              	.LFB7:
 220:Generated_Source\PSoC4/BLE_bless_isr.c ****     return CyRamVectors[CYINT_IRQ_BASE + BLE_bless_isr__INTC_NUMBER];
 281              		.loc 1 220 0
 282              		.cfi_startproc
 283              		@ args = 0, pretend = 0, frame = 0
 284              		@ frame_needed = 0, uses_anonymous_args = 0
 285              		@ link register save eliminated.
 221:Generated_Source\PSoC4/BLE_bless_isr.c **** }
 286              		.loc 1 221 0
 287 0000 014B     		ldr	r3, .L15
 222:Generated_Source\PSoC4/BLE_bless_isr.c **** 
 288              		.loc 1 222 0
 289              		@ sp needed
 221:Generated_Source\PSoC4/BLE_bless_isr.c **** }
 290              		.loc 1 221 0
 291 0002 186F     		ldr	r0, [r3, #112]
 222:Generated_Source\PSoC4/BLE_bless_isr.c **** 
 292              		.loc 1 222 0
 293 0004 7047     		bx	lr
 294              	.L16:
 295 0006 C046     		.align	2
 296              	.L15:
 297 0008 00000000 		.word	CyRamVectors
 298              		.cfi_endproc
 299              	.LFE7:
 300              		.size	BLE_bless_isr_GetVector, .-BLE_bless_isr_GetVector
 301              		.section	.text.BLE_bless_isr_SetPriority,"ax",%progbits
 302              		.align	2
ARM GAS  C:\Users\diego\AppData\Local\Temp\cc9XeVuu.s 			page 13


 303              		.global	BLE_bless_isr_SetPriority
 304              		.code	16
 305              		.thumb_func
 306              		.type	BLE_bless_isr_SetPriority, %function
 307              	BLE_bless_isr_SetPriority:
 308              	.LFB8:
 250:Generated_Source\PSoC4/BLE_bless_isr.c **** 	uint8 interruptState;
 309              		.loc 1 250 0
 310              		.cfi_startproc
 311              		@ args = 0, pretend = 0, frame = 0
 312              		@ frame_needed = 0, uses_anonymous_args = 0
 313              	.LVL12:
 314 0000 10B5     		push	{r4, lr}
 315              		.cfi_def_cfa_offset 8
 316              		.cfi_offset 4, -8
 317              		.cfi_offset 14, -4
 250:Generated_Source\PSoC4/BLE_bless_isr.c **** 	uint8 interruptState;
 318              		.loc 1 250 0
 319 0002 0400     		movs	r4, r0
 254:Generated_Source\PSoC4/BLE_bless_isr.c ****     *BLE_bless_isr_INTC_PRIOR = (*BLE_bless_isr_INTC_PRIOR & (uint32)(~BLE_bless_isr__INTC_PRIOR_MA
 320              		.loc 1 254 0
 321 0004 FFF7FEFF 		bl	CyEnterCriticalSection
 322              	.LVL13:
 255:Generated_Source\PSoC4/BLE_bless_isr.c ****                                     ((uint32)priority << priorityOffset);
 323              		.loc 1 255 0
 324 0008 C021     		movs	r1, #192
 325 000a 044A     		ldr	r2, .L18
 326 000c A401     		lsls	r4, r4, #6
 327 000e 1368     		ldr	r3, [r2]
 258:Generated_Source\PSoC4/BLE_bless_isr.c **** 
 328              		.loc 1 258 0
 329              		@ sp needed
 255:Generated_Source\PSoC4/BLE_bless_isr.c ****                                     ((uint32)priority << priorityOffset);
 330              		.loc 1 255 0
 331 0010 8B43     		bics	r3, r1
 332 0012 1C43     		orrs	r4, r3
 333 0014 1460     		str	r4, [r2]
 257:Generated_Source\PSoC4/BLE_bless_isr.c **** }
 334              		.loc 1 257 0
 335 0016 FFF7FEFF 		bl	CyExitCriticalSection
 336              	.LVL14:
 258:Generated_Source\PSoC4/BLE_bless_isr.c **** 
 337              		.loc 1 258 0
 338 001a 10BD     		pop	{r4, pc}
 339              	.L19:
 340              		.align	2
 341              	.L18:
 342 001c 0CE400E0 		.word	-536812532
 343              		.cfi_endproc
 344              	.LFE8:
 345              		.size	BLE_bless_isr_SetPriority, .-BLE_bless_isr_SetPriority
 346              		.section	.text.BLE_bless_isr_GetPriority,"ax",%progbits
 347              		.align	2
 348              		.global	BLE_bless_isr_GetPriority
 349              		.code	16
 350              		.thumb_func
 351              		.type	BLE_bless_isr_GetPriority, %function
ARM GAS  C:\Users\diego\AppData\Local\Temp\cc9XeVuu.s 			page 14


 352              	BLE_bless_isr_GetPriority:
 353              	.LFB9:
 278:Generated_Source\PSoC4/BLE_bless_isr.c ****     uint32 priority;
 354              		.loc 1 278 0
 355              		.cfi_startproc
 356              		@ args = 0, pretend = 0, frame = 0
 357              		@ frame_needed = 0, uses_anonymous_args = 0
 358              		@ link register save eliminated.
 359              	.LVL15:
 282:Generated_Source\PSoC4/BLE_bless_isr.c **** 
 360              		.loc 1 282 0
 361 0000 024B     		ldr	r3, .L21
 285:Generated_Source\PSoC4/BLE_bless_isr.c **** 
 362              		.loc 1 285 0
 363              		@ sp needed
 282:Generated_Source\PSoC4/BLE_bless_isr.c **** 
 364              		.loc 1 282 0
 365 0002 1868     		ldr	r0, [r3]
 366              	.LVL16:
 284:Generated_Source\PSoC4/BLE_bless_isr.c **** }
 367              		.loc 1 284 0
 368 0004 0006     		lsls	r0, r0, #24
 369              	.LVL17:
 370 0006 800F     		lsrs	r0, r0, #30
 285:Generated_Source\PSoC4/BLE_bless_isr.c **** 
 371              		.loc 1 285 0
 372 0008 7047     		bx	lr
 373              	.L22:
 374 000a C046     		.align	2
 375              	.L21:
 376 000c 0CE400E0 		.word	-536812532
 377              		.cfi_endproc
 378              	.LFE9:
 379              		.size	BLE_bless_isr_GetPriority, .-BLE_bless_isr_GetPriority
 380              		.section	.text.BLE_bless_isr_Enable,"ax",%progbits
 381              		.align	2
 382              		.global	BLE_bless_isr_Enable
 383              		.code	16
 384              		.thumb_func
 385              		.type	BLE_bless_isr_Enable, %function
 386              	BLE_bless_isr_Enable:
 387              	.LFB10:
 305:Generated_Source\PSoC4/BLE_bless_isr.c ****     /* Enable the general interrupt. */
 388              		.loc 1 305 0
 389              		.cfi_startproc
 390              		@ args = 0, pretend = 0, frame = 0
 391              		@ frame_needed = 0, uses_anonymous_args = 0
 392              		@ link register save eliminated.
 307:Generated_Source\PSoC4/BLE_bless_isr.c **** }
 393              		.loc 1 307 0
 394 0000 8022     		movs	r2, #128
 395 0002 024B     		ldr	r3, .L24
 396 0004 5201     		lsls	r2, r2, #5
 397 0006 1A60     		str	r2, [r3]
 308:Generated_Source\PSoC4/BLE_bless_isr.c **** 
 398              		.loc 1 308 0
 399              		@ sp needed
ARM GAS  C:\Users\diego\AppData\Local\Temp\cc9XeVuu.s 			page 15


 400 0008 7047     		bx	lr
 401              	.L25:
 402 000a C046     		.align	2
 403              	.L24:
 404 000c 00E100E0 		.word	-536813312
 405              		.cfi_endproc
 406              	.LFE10:
 407              		.size	BLE_bless_isr_Enable, .-BLE_bless_isr_Enable
 408              		.section	.text.BLE_bless_isr_GetState,"ax",%progbits
 409              		.align	2
 410              		.global	BLE_bless_isr_GetState
 411              		.code	16
 412              		.thumb_func
 413              		.type	BLE_bless_isr_GetState, %function
 414              	BLE_bless_isr_GetState:
 415              	.LFB11:
 326:Generated_Source\PSoC4/BLE_bless_isr.c ****     /* Get the state of the general interrupt. */
 416              		.loc 1 326 0
 417              		.cfi_startproc
 418              		@ args = 0, pretend = 0, frame = 0
 419              		@ frame_needed = 0, uses_anonymous_args = 0
 420              		@ link register save eliminated.
 328:Generated_Source\PSoC4/BLE_bless_isr.c **** }
 421              		.loc 1 328 0
 422 0000 024B     		ldr	r3, .L27
 329:Generated_Source\PSoC4/BLE_bless_isr.c **** 
 423              		.loc 1 329 0
 424              		@ sp needed
 328:Generated_Source\PSoC4/BLE_bless_isr.c **** }
 425              		.loc 1 328 0
 426 0002 1868     		ldr	r0, [r3]
 427 0004 C004     		lsls	r0, r0, #19
 428 0006 C00F     		lsrs	r0, r0, #31
 329:Generated_Source\PSoC4/BLE_bless_isr.c **** 
 429              		.loc 1 329 0
 430 0008 7047     		bx	lr
 431              	.L28:
 432 000a C046     		.align	2
 433              	.L27:
 434 000c 00E100E0 		.word	-536813312
 435              		.cfi_endproc
 436              	.LFE11:
 437              		.size	BLE_bless_isr_GetState, .-BLE_bless_isr_GetState
 438              		.section	.text.BLE_bless_isr_Disable,"ax",%progbits
 439              		.align	2
 440              		.global	BLE_bless_isr_Disable
 441              		.code	16
 442              		.thumb_func
 443              		.type	BLE_bless_isr_Disable, %function
 444              	BLE_bless_isr_Disable:
 445              	.LFB12:
 347:Generated_Source\PSoC4/BLE_bless_isr.c ****     /* Disable the general interrupt. */
 446              		.loc 1 347 0
 447              		.cfi_startproc
 448              		@ args = 0, pretend = 0, frame = 0
 449              		@ frame_needed = 0, uses_anonymous_args = 0
 450              		@ link register save eliminated.
ARM GAS  C:\Users\diego\AppData\Local\Temp\cc9XeVuu.s 			page 16


 451              		.loc 1 349 0
 452 0000 8022     		movs	r2, #128
 453 0002 024B     		ldr	r3, .L30
 454 0004 5201     		lsls	r2, r2, #5
 455 0006 1A60     		str	r2, [r3]
 350:Generated_Source\PSoC4/BLE_bless_isr.c **** }
 456              		.loc 1 350 0
 457              		@ sp needed
 458 0008 7047     		bx	lr
 459              	.L31:
 460 000a C046     		.align	2
 461              	.L30:
 462 000c 80E100E0 		.word	-536813184
 463              		.cfi_endproc
 464              	.LFE12:
 465              		.size	BLE_bless_isr_Disable, .-BLE_bless_isr_Disable
 466              		.section	.text.BLE_bless_isr_SetPending,"ax",%progbits
 467              		.align	2
 468              		.global	BLE_bless_isr_SetPending
 469              		.code	16
 470              		.thumb_func
 471              		.type	BLE_bless_isr_SetPending, %function
 472              	BLE_bless_isr_SetPending:
 473              	.LFB13:
 351:Generated_Source\PSoC4/BLE_bless_isr.c **** 
 352:Generated_Source\PSoC4/BLE_bless_isr.c **** 
 353:Generated_Source\PSoC4/BLE_bless_isr.c **** /*******************************************************************************
 354:Generated_Source\PSoC4/BLE_bless_isr.c **** * Function Name: BLE_bless_isr_SetPending
 355:Generated_Source\PSoC4/BLE_bless_isr.c **** ********************************************************************************
 356:Generated_Source\PSoC4/BLE_bless_isr.c **** *
 357:Generated_Source\PSoC4/BLE_bless_isr.c **** * Summary:
 358:Generated_Source\PSoC4/BLE_bless_isr.c **** *   Causes the Interrupt to enter the pending state, a software method of
 359:Generated_Source\PSoC4/BLE_bless_isr.c **** *   generating the interrupt.
 360:Generated_Source\PSoC4/BLE_bless_isr.c **** *
 361:Generated_Source\PSoC4/BLE_bless_isr.c **** * Parameters:
 362:Generated_Source\PSoC4/BLE_bless_isr.c **** *   None
 363:Generated_Source\PSoC4/BLE_bless_isr.c **** *
 364:Generated_Source\PSoC4/BLE_bless_isr.c **** * Return:
 365:Generated_Source\PSoC4/BLE_bless_isr.c **** *   None
 366:Generated_Source\PSoC4/BLE_bless_isr.c **** *
 367:Generated_Source\PSoC4/BLE_bless_isr.c **** * Side Effects:
 368:Generated_Source\PSoC4/BLE_bless_isr.c **** *   If interrupts are enabled and the interrupt is set up properly, the ISR is
 369:Generated_Source\PSoC4/BLE_bless_isr.c **** *   entered (depending on the priority of this interrupt and other pending 
 370:Generated_Source\PSoC4/BLE_bless_isr.c **** *   interrupts).
 371:Generated_Source\PSoC4/BLE_bless_isr.c **** *
 372:Generated_Source\PSoC4/BLE_bless_isr.c **** *******************************************************************************/
 373:Generated_Source\PSoC4/BLE_bless_isr.c **** void BLE_bless_isr_SetPending(void)
 374:Generated_Source\PSoC4/BLE_bless_isr.c **** {
 474              		.loc 1 374 0
 475              		.cfi_startproc
 476              		@ args = 0, pretend = 0, frame = 0
 477              		@ frame_needed = 0, uses_anonymous_args = 0
 478              		@ link register save eliminated.
 375:Generated_Source\PSoC4/BLE_bless_isr.c ****     *BLE_bless_isr_INTC_SET_PD = BLE_bless_isr__INTC_MASK;
 479              		.loc 1 375 0
 480 0000 8022     		movs	r2, #128
 481 0002 024B     		ldr	r3, .L33
ARM GAS  C:\Users\diego\AppData\Local\Temp\cc9XeVuu.s 			page 17


 482 0004 5201     		lsls	r2, r2, #5
 483 0006 1A60     		str	r2, [r3]
 376:Generated_Source\PSoC4/BLE_bless_isr.c **** }
 484              		.loc 1 376 0
 485              		@ sp needed
 486 0008 7047     		bx	lr
 487              	.L34:
 488 000a C046     		.align	2
 489              	.L33:
 490 000c 00E200E0 		.word	-536813056
 491              		.cfi_endproc
 492              	.LFE13:
 493              		.size	BLE_bless_isr_SetPending, .-BLE_bless_isr_SetPending
 494              		.section	.text.BLE_bless_isr_ClearPending,"ax",%progbits
 495              		.align	2
 496              		.global	BLE_bless_isr_ClearPending
 497              		.code	16
 498              		.thumb_func
 499              		.type	BLE_bless_isr_ClearPending, %function
 500              	BLE_bless_isr_ClearPending:
 501              	.LFB14:
 377:Generated_Source\PSoC4/BLE_bless_isr.c **** 
 378:Generated_Source\PSoC4/BLE_bless_isr.c **** 
 379:Generated_Source\PSoC4/BLE_bless_isr.c **** /*******************************************************************************
 380:Generated_Source\PSoC4/BLE_bless_isr.c **** * Function Name: BLE_bless_isr_ClearPending
 381:Generated_Source\PSoC4/BLE_bless_isr.c **** ********************************************************************************
 382:Generated_Source\PSoC4/BLE_bless_isr.c **** *
 383:Generated_Source\PSoC4/BLE_bless_isr.c **** * Summary:
 384:Generated_Source\PSoC4/BLE_bless_isr.c **** *   Clears a pending interrupt in the interrupt controller.
 385:Generated_Source\PSoC4/BLE_bless_isr.c **** *
 386:Generated_Source\PSoC4/BLE_bless_isr.c **** *   Note Some interrupt sources are clear-on-read and require the block 
 387:Generated_Source\PSoC4/BLE_bless_isr.c **** *   interrupt/status register to be read/cleared with the appropriate block API 
 388:Generated_Source\PSoC4/BLE_bless_isr.c **** *   (GPIO, UART, and so on). Otherwise the ISR will continue to remain in 
 389:Generated_Source\PSoC4/BLE_bless_isr.c **** *   pending state even though the interrupt itself is cleared using this API.
 390:Generated_Source\PSoC4/BLE_bless_isr.c **** *
 391:Generated_Source\PSoC4/BLE_bless_isr.c **** * Parameters:
 392:Generated_Source\PSoC4/BLE_bless_isr.c **** *   None
 393:Generated_Source\PSoC4/BLE_bless_isr.c **** *
 394:Generated_Source\PSoC4/BLE_bless_isr.c **** * Return:
 395:Generated_Source\PSoC4/BLE_bless_isr.c **** *   None
 396:Generated_Source\PSoC4/BLE_bless_isr.c **** *
 397:Generated_Source\PSoC4/BLE_bless_isr.c **** *******************************************************************************/
 398:Generated_Source\PSoC4/BLE_bless_isr.c **** void BLE_bless_isr_ClearPending(void)
 399:Generated_Source\PSoC4/BLE_bless_isr.c **** {
 502              		.loc 1 399 0
 503              		.cfi_startproc
 504              		@ args = 0, pretend = 0, frame = 0
 505              		@ frame_needed = 0, uses_anonymous_args = 0
 506              		@ link register save eliminated.
 400:Generated_Source\PSoC4/BLE_bless_isr.c ****     *BLE_bless_isr_INTC_CLR_PD = BLE_bless_isr__INTC_MASK;
 507              		.loc 1 400 0
 508 0000 8022     		movs	r2, #128
 509 0002 024B     		ldr	r3, .L36
 510 0004 5201     		lsls	r2, r2, #5
 511 0006 1A60     		str	r2, [r3]
 401:Generated_Source\PSoC4/BLE_bless_isr.c **** }
 512              		.loc 1 401 0
ARM GAS  C:\Users\diego\AppData\Local\Temp\cc9XeVuu.s 			page 18


 513              		@ sp needed
 514 0008 7047     		bx	lr
 515              	.L37:
 516 000a C046     		.align	2
 517              	.L36:
 518 000c 80E200E0 		.word	-536812928
 519              		.cfi_endproc
 520              	.LFE14:
 521              		.size	BLE_bless_isr_ClearPending, .-BLE_bless_isr_ClearPending
 522              		.text
 523              	.Letext0:
 524              		.file 2 "Generated_Source\\PSoC4/cytypes.h"
 525              		.file 3 "Generated_Source\\PSoC4/CyLib.h"
