ARM GAS  C:\Users\diego\AppData\Local\Temp\ccad7oEH.s 			page 1


   1              		.syntax unified
   2              		.cpu cortex-m0
   3              		.fpu softvfp
   4              		.eabi_attribute 20, 1
   5              		.eabi_attribute 21, 1
   6              		.eabi_attribute 23, 3
   7              		.eabi_attribute 24, 1
   8              		.eabi_attribute 25, 1
   9              		.eabi_attribute 26, 1
  10              		.eabi_attribute 30, 2
  11              		.eabi_attribute 34, 0
  12              		.eabi_attribute 18, 4
  13              		.thumb
  14              		.syntax unified
  15              		.file	"BLE_HAL_PVT.c"
  16              		.text
  17              	.Ltext0:
  18              		.cfi_sections	.debug_frame
  19              		.section	.text.CyBLE_Nvram_Write,"ax",%progbits
  20              		.align	2
  21              		.global	CyBLE_Nvram_Write
  22              		.code	16
  23              		.thumb_func
  24              		.type	CyBLE_Nvram_Write, %function
  25              	CyBLE_Nvram_Write:
  26              	.LFB2:
  27              		.file 1 "Generated_Source\\PSoC4\\BLE_HAL_PVT.c"
   1:Generated_Source\PSoC4/BLE_HAL_PVT.c **** /***************************************************************************//**
   2:Generated_Source\PSoC4/BLE_HAL_PVT.c **** * \file CYBLE_HAL_PVT.c
   3:Generated_Source\PSoC4/BLE_HAL_PVT.c **** * \version 3.10
   4:Generated_Source\PSoC4/BLE_HAL_PVT.c **** *
   5:Generated_Source\PSoC4/BLE_HAL_PVT.c **** * \brief
   6:Generated_Source\PSoC4/BLE_HAL_PVT.c **** *  This file contains the source code for the HAL section of the BLE component
   7:Generated_Source\PSoC4/BLE_HAL_PVT.c **** *
   8:Generated_Source\PSoC4/BLE_HAL_PVT.c **** ********************************************************************************
   9:Generated_Source\PSoC4/BLE_HAL_PVT.c **** * \copyright
  10:Generated_Source\PSoC4/BLE_HAL_PVT.c **** * Copyright 2014-2016, Cypress Semiconductor Corporation.  All rights reserved.
  11:Generated_Source\PSoC4/BLE_HAL_PVT.c **** * You may use this file only in accordance with the license, terms, conditions,
  12:Generated_Source\PSoC4/BLE_HAL_PVT.c **** * disclaimers, and limitations in the end user license agreement accompanying
  13:Generated_Source\PSoC4/BLE_HAL_PVT.c **** * the software package with which this file was provided.
  14:Generated_Source\PSoC4/BLE_HAL_PVT.c **** *******************************************************************************/
  15:Generated_Source\PSoC4/BLE_HAL_PVT.c **** 
  16:Generated_Source\PSoC4/BLE_HAL_PVT.c **** #include "BLE_HAL_PVT.h"
  17:Generated_Source\PSoC4/BLE_HAL_PVT.c **** 
  18:Generated_Source\PSoC4/BLE_HAL_PVT.c **** 
  19:Generated_Source\PSoC4/BLE_HAL_PVT.c **** #if(CYBLE_MODE == CYBLE_HCI)
  20:Generated_Source\PSoC4/BLE_HAL_PVT.c **** 
  21:Generated_Source\PSoC4/BLE_HAL_PVT.c **** 
  22:Generated_Source\PSoC4/BLE_HAL_PVT.c **** /*******************************************************************************
  23:Generated_Source\PSoC4/BLE_HAL_PVT.c **** * Function Name: CyBLE_Uart_Start
  24:Generated_Source\PSoC4/BLE_HAL_PVT.c **** ****************************************************************************//**
  25:Generated_Source\PSoC4/BLE_HAL_PVT.c **** *
  26:Generated_Source\PSoC4/BLE_HAL_PVT.c **** *  Enables the platform UART Tx and RX interrupts and then enables the UART
  27:Generated_Source\PSoC4/BLE_HAL_PVT.c **** *  component.
  28:Generated_Source\PSoC4/BLE_HAL_PVT.c **** *
  29:Generated_Source\PSoC4/BLE_HAL_PVT.c **** * \return
  30:Generated_Source\PSoC4/BLE_HAL_PVT.c **** *  None
ARM GAS  C:\Users\diego\AppData\Local\Temp\ccad7oEH.s 			page 2


  31:Generated_Source\PSoC4/BLE_HAL_PVT.c **** *
  32:Generated_Source\PSoC4/BLE_HAL_PVT.c **** *******************************************************************************/
  33:Generated_Source\PSoC4/BLE_HAL_PVT.c **** void CyBLE_Uart_Start (void)
  34:Generated_Source\PSoC4/BLE_HAL_PVT.c **** {
  35:Generated_Source\PSoC4/BLE_HAL_PVT.c ****     /* Setup ISR */
  36:Generated_Source\PSoC4/BLE_HAL_PVT.c ****     BLE_uart_isr_StartEx(&CyBLE_Uart_Interrupt);
  37:Generated_Source\PSoC4/BLE_HAL_PVT.c **** 
  38:Generated_Source\PSoC4/BLE_HAL_PVT.c ****     BLE_HAL_Uart_Start();
  39:Generated_Source\PSoC4/BLE_HAL_PVT.c **** }
  40:Generated_Source\PSoC4/BLE_HAL_PVT.c **** 
  41:Generated_Source\PSoC4/BLE_HAL_PVT.c **** 
  42:Generated_Source\PSoC4/BLE_HAL_PVT.c **** /*******************************************************************************
  43:Generated_Source\PSoC4/BLE_HAL_PVT.c **** * Function Name: CyBLE_Uart_Stop
  44:Generated_Source\PSoC4/BLE_HAL_PVT.c **** ****************************************************************************//**
  45:Generated_Source\PSoC4/BLE_HAL_PVT.c **** *
  46:Generated_Source\PSoC4/BLE_HAL_PVT.c **** *  Disables the UART, clears all pending interrupts and disables the UART Tx
  47:Generated_Source\PSoC4/BLE_HAL_PVT.c **** *  and RX interrupts. This will also empty out the FIFOs.
  48:Generated_Source\PSoC4/BLE_HAL_PVT.c **** *
  49:Generated_Source\PSoC4/BLE_HAL_PVT.c **** * \return
  50:Generated_Source\PSoC4/BLE_HAL_PVT.c **** *  None
  51:Generated_Source\PSoC4/BLE_HAL_PVT.c **** *
  52:Generated_Source\PSoC4/BLE_HAL_PVT.c **** *******************************************************************************/
  53:Generated_Source\PSoC4/BLE_HAL_PVT.c **** void CyBLE_Uart_Stop (void)
  54:Generated_Source\PSoC4/BLE_HAL_PVT.c **** {
  55:Generated_Source\PSoC4/BLE_HAL_PVT.c ****     /* Stop interrupt and UART */
  56:Generated_Source\PSoC4/BLE_HAL_PVT.c ****     BLE_uart_isr_Stop();
  57:Generated_Source\PSoC4/BLE_HAL_PVT.c **** 
  58:Generated_Source\PSoC4/BLE_HAL_PVT.c ****     BLE_HAL_Uart_Stop();
  59:Generated_Source\PSoC4/BLE_HAL_PVT.c **** }
  60:Generated_Source\PSoC4/BLE_HAL_PVT.c **** 
  61:Generated_Source\PSoC4/BLE_HAL_PVT.c **** 
  62:Generated_Source\PSoC4/BLE_HAL_PVT.c **** /*******************************************************************************
  63:Generated_Source\PSoC4/BLE_HAL_PVT.c **** * Function Name: CyBLE_Uart_Transmit
  64:Generated_Source\PSoC4/BLE_HAL_PVT.c **** ****************************************************************************//**
  65:Generated_Source\PSoC4/BLE_HAL_PVT.c **** *
  66:Generated_Source\PSoC4/BLE_HAL_PVT.c **** *  Sends the data to Uart Tx FIFO. The API handles data length up to the 
  67:Generated_Source\PSoC4/BLE_HAL_PVT.c **** *  supported Tx FIFO length of the uart hardware module.
  68:Generated_Source\PSoC4/BLE_HAL_PVT.c **** *
  69:Generated_Source\PSoC4/BLE_HAL_PVT.c **** *  \param data: Pointer to the data to send through the UART
  70:Generated_Source\PSoC4/BLE_HAL_PVT.c **** *  \param length: the length of data to transmit in bytes
  71:Generated_Source\PSoC4/BLE_HAL_PVT.c **** *
  72:Generated_Source\PSoC4/BLE_HAL_PVT.c **** * \return
  73:Generated_Source\PSoC4/BLE_HAL_PVT.c **** *  None
  74:Generated_Source\PSoC4/BLE_HAL_PVT.c **** *
  75:Generated_Source\PSoC4/BLE_HAL_PVT.c **** *******************************************************************************/
  76:Generated_Source\PSoC4/BLE_HAL_PVT.c **** void CyBLE_Uart_Transmit (const uint8 *dataBuf, uint8 length)
  77:Generated_Source\PSoC4/BLE_HAL_PVT.c **** {
  78:Generated_Source\PSoC4/BLE_HAL_PVT.c ****     BLE_HAL_Uart_SpiUartPutArray(dataBuf, (uint32)length);
  79:Generated_Source\PSoC4/BLE_HAL_PVT.c **** }
  80:Generated_Source\PSoC4/BLE_HAL_PVT.c **** 
  81:Generated_Source\PSoC4/BLE_HAL_PVT.c **** #endif /* (CYBLE_MODE == CYBLE_HCI) */
  82:Generated_Source\PSoC4/BLE_HAL_PVT.c **** 
  83:Generated_Source\PSoC4/BLE_HAL_PVT.c **** 
  84:Generated_Source\PSoC4/BLE_HAL_PVT.c **** /*******************************************************************************
  85:Generated_Source\PSoC4/BLE_HAL_PVT.c **** * Function Name: CyBLE_Nvram_Write
  86:Generated_Source\PSoC4/BLE_HAL_PVT.c **** ****************************************************************************//**
  87:Generated_Source\PSoC4/BLE_HAL_PVT.c **** *
ARM GAS  C:\Users\diego\AppData\Local\Temp\ccad7oEH.s 			page 3


  88:Generated_Source\PSoC4/BLE_HAL_PVT.c **** *  This API writes the data to the NVRAM store. It will check the appropriate
  89:Generated_Source\PSoC4/BLE_HAL_PVT.c **** *  alignment of a start address and also perform an address range check based
  90:Generated_Source\PSoC4/BLE_HAL_PVT.c **** *  on the length before performing the write operation.
  91:Generated_Source\PSoC4/BLE_HAL_PVT.c **** *  This function performs memory compare and writes only row where there are new
  92:Generated_Source\PSoC4/BLE_HAL_PVT.c **** *  data to write.
  93:Generated_Source\PSoC4/BLE_HAL_PVT.c **** *
  94:Generated_Source\PSoC4/BLE_HAL_PVT.c **** *  \param buffer:   Pointer to the buffer containing the data to be stored.
  95:Generated_Source\PSoC4/BLE_HAL_PVT.c **** *  \param varFlash: Pointer to the array or variable in the flash.
  96:Generated_Source\PSoC4/BLE_HAL_PVT.c **** *  \param length:    The length of the data in bytes.
  97:Generated_Source\PSoC4/BLE_HAL_PVT.c **** *
  98:Generated_Source\PSoC4/BLE_HAL_PVT.c **** * \return
  99:Generated_Source\PSoC4/BLE_HAL_PVT.c **** *  CYRET_SUCCESS    a successful write
 100:Generated_Source\PSoC4/BLE_HAL_PVT.c **** *  CYRET_BAD_PARAM  A request to write outside the flash boundary.
 101:Generated_Source\PSoC4/BLE_HAL_PVT.c **** *  CYRET_UNKNOWN    Other errors in writing the flash
 102:Generated_Source\PSoC4/BLE_HAL_PVT.c **** *
 103:Generated_Source\PSoC4/BLE_HAL_PVT.c **** * \sideeffect
 104:Generated_Source\PSoC4/BLE_HAL_PVT.c **** *  For BLE devices with 128K of Flash memory this API will automatically 
 105:Generated_Source\PSoC4/BLE_HAL_PVT.c **** *  modify the clock settings for the device.
 106:Generated_Source\PSoC4/BLE_HAL_PVT.c **** *  Writing to flash requires changes to be done to the IMO (set to 48 MHz)
 107:Generated_Source\PSoC4/BLE_HAL_PVT.c **** *  and HFCLK (source set to IMO) settings. The configuration is restored before
 108:Generated_Source\PSoC4/BLE_HAL_PVT.c **** *  returning. This will impact the operation of most of the hardware in the
 109:Generated_Source\PSoC4/BLE_HAL_PVT.c **** *  device.
 110:Generated_Source\PSoC4/BLE_HAL_PVT.c **** *
 111:Generated_Source\PSoC4/BLE_HAL_PVT.c **** *******************************************************************************/
 112:Generated_Source\PSoC4/BLE_HAL_PVT.c **** cystatus CyBLE_Nvram_Write (const uint8 buffer[], const uint8 varFlash[], uint16 length)
 113:Generated_Source\PSoC4/BLE_HAL_PVT.c **** {
  28              		.loc 1 113 0
  29              		.cfi_startproc
  30              		@ args = 0, pretend = 0, frame = 128
  31              		@ frame_needed = 0, uses_anonymous_args = 0
  32              	.LVL0:
  33 0000 F0B5     		push	{r4, r5, r6, r7, lr}
  34              		.cfi_def_cfa_offset 20
  35              		.cfi_offset 4, -20
  36              		.cfi_offset 5, -16
  37              		.cfi_offset 6, -12
  38              		.cfi_offset 7, -8
  39              		.cfi_offset 14, -4
  40 0002 5F46     		mov	r7, fp
  41 0004 4D46     		mov	r5, r9
  42 0006 4446     		mov	r4, r8
  43 0008 5646     		mov	r6, r10
  44 000a F0B4     		push	{r4, r5, r6, r7}
  45              		.cfi_def_cfa_offset 36
  46              		.cfi_offset 8, -36
  47              		.cfi_offset 9, -32
  48              		.cfi_offset 10, -28
  49              		.cfi_offset 11, -24
 114:Generated_Source\PSoC4/BLE_HAL_PVT.c ****     uint8 writeBuffer[CY_FLASH_SIZEOF_ROW];
 115:Generated_Source\PSoC4/BLE_HAL_PVT.c ****     uint32 rowId;
 116:Generated_Source\PSoC4/BLE_HAL_PVT.c ****     uint32 dstIndex;
 117:Generated_Source\PSoC4/BLE_HAL_PVT.c ****     uint32 srcIndex = 0u;
 118:Generated_Source\PSoC4/BLE_HAL_PVT.c ****     cystatus rc = CYRET_SUCCESS;
 119:Generated_Source\PSoC4/BLE_HAL_PVT.c ****     uint32 eeOffset;
 120:Generated_Source\PSoC4/BLE_HAL_PVT.c ****     uint32 byteOffset;
 121:Generated_Source\PSoC4/BLE_HAL_PVT.c ****     uint32 rowsNotEqual;
 122:Generated_Source\PSoC4/BLE_HAL_PVT.c **** 
ARM GAS  C:\Users\diego\AppData\Local\Temp\ccad7oEH.s 			page 4


 123:Generated_Source\PSoC4/BLE_HAL_PVT.c ****     eeOffset = (uint32)varFlash;
 124:Generated_Source\PSoC4/BLE_HAL_PVT.c **** 
 125:Generated_Source\PSoC4/BLE_HAL_PVT.c ****     /* Make sure, that varFlash[] points to Flash */
 126:Generated_Source\PSoC4/BLE_HAL_PVT.c ****     if ((eeOffset + length) < CYBLE_HAL_FLASH_END_ADDR)
  50              		.loc 1 126 0
  51 000c 254B     		ldr	r3, .L24
 113:Generated_Source\PSoC4/BLE_HAL_PVT.c ****     uint8 writeBuffer[CY_FLASH_SIZEOF_ROW];
  52              		.loc 1 113 0
  53 000e 9046     		mov	r8, r2
  54              		.loc 1 126 0
  55 0010 8A18     		adds	r2, r1, r2
  56              	.LVL1:
 113:Generated_Source\PSoC4/BLE_HAL_PVT.c ****     uint8 writeBuffer[CY_FLASH_SIZEOF_ROW];
  57              		.loc 1 113 0
  58 0012 8146     		mov	r9, r0
  59 0014 A1B0     		sub	sp, sp, #132
  60              		.cfi_def_cfa_offset 168
 113:Generated_Source\PSoC4/BLE_HAL_PVT.c ****     uint8 writeBuffer[CY_FLASH_SIZEOF_ROW];
  61              		.loc 1 113 0
  62 0016 0F00     		movs	r7, r1
 127:Generated_Source\PSoC4/BLE_HAL_PVT.c ****     {
 128:Generated_Source\PSoC4/BLE_HAL_PVT.c ****         rowId = eeOffset / CY_FLASH_SIZEOF_ROW;
 129:Generated_Source\PSoC4/BLE_HAL_PVT.c ****         byteOffset = CY_FLASH_SIZEOF_ROW * rowId;
 130:Generated_Source\PSoC4/BLE_HAL_PVT.c **** 
 131:Generated_Source\PSoC4/BLE_HAL_PVT.c ****         while ((srcIndex < length) && (CYRET_SUCCESS == rc))
 132:Generated_Source\PSoC4/BLE_HAL_PVT.c ****         {
 133:Generated_Source\PSoC4/BLE_HAL_PVT.c ****             rowsNotEqual = 0u;
 134:Generated_Source\PSoC4/BLE_HAL_PVT.c ****             /* Copy data to the write buffer either from the source buffer or from the flash */
 135:Generated_Source\PSoC4/BLE_HAL_PVT.c ****             for (dstIndex = 0u; dstIndex < CY_FLASH_SIZEOF_ROW; dstIndex++)
 136:Generated_Source\PSoC4/BLE_HAL_PVT.c ****             {
 137:Generated_Source\PSoC4/BLE_HAL_PVT.c ****                 if ((byteOffset >= eeOffset) && (srcIndex < length))
 138:Generated_Source\PSoC4/BLE_HAL_PVT.c ****                 {
 139:Generated_Source\PSoC4/BLE_HAL_PVT.c ****                     writeBuffer[dstIndex] = buffer[srcIndex];
 140:Generated_Source\PSoC4/BLE_HAL_PVT.c ****                     /* Detect that row programming is required */
 141:Generated_Source\PSoC4/BLE_HAL_PVT.c ****                     if(CY_GET_XTND_REG8(CYDEV_FLASH_BASE + byteOffset) != buffer[srcIndex])
 142:Generated_Source\PSoC4/BLE_HAL_PVT.c ****                     {
 143:Generated_Source\PSoC4/BLE_HAL_PVT.c ****                         rowsNotEqual = 1u;  
 144:Generated_Source\PSoC4/BLE_HAL_PVT.c ****                     }
 145:Generated_Source\PSoC4/BLE_HAL_PVT.c ****                     srcIndex++;
 146:Generated_Source\PSoC4/BLE_HAL_PVT.c ****                 }
 147:Generated_Source\PSoC4/BLE_HAL_PVT.c ****                 else
 148:Generated_Source\PSoC4/BLE_HAL_PVT.c ****                 {
 149:Generated_Source\PSoC4/BLE_HAL_PVT.c ****                     writeBuffer[dstIndex] = CY_GET_XTND_REG8(CYDEV_FLASH_BASE + byteOffset);
 150:Generated_Source\PSoC4/BLE_HAL_PVT.c ****                 }
 151:Generated_Source\PSoC4/BLE_HAL_PVT.c ****                 byteOffset++;
 152:Generated_Source\PSoC4/BLE_HAL_PVT.c ****             }
 153:Generated_Source\PSoC4/BLE_HAL_PVT.c **** 
 154:Generated_Source\PSoC4/BLE_HAL_PVT.c ****             if(rowsNotEqual != 0u)
 155:Generated_Source\PSoC4/BLE_HAL_PVT.c ****             {
 156:Generated_Source\PSoC4/BLE_HAL_PVT.c ****                 /* Write flash row */
 157:Generated_Source\PSoC4/BLE_HAL_PVT.c ****                 rc = CySysFlashWriteRow(rowId, writeBuffer);
 158:Generated_Source\PSoC4/BLE_HAL_PVT.c ****             }
 159:Generated_Source\PSoC4/BLE_HAL_PVT.c **** 
 160:Generated_Source\PSoC4/BLE_HAL_PVT.c ****             /* Go to the next row */
 161:Generated_Source\PSoC4/BLE_HAL_PVT.c ****             rowId++;
 162:Generated_Source\PSoC4/BLE_HAL_PVT.c ****         }
 163:Generated_Source\PSoC4/BLE_HAL_PVT.c ****     }
ARM GAS  C:\Users\diego\AppData\Local\Temp\ccad7oEH.s 			page 5


 164:Generated_Source\PSoC4/BLE_HAL_PVT.c ****     else
 165:Generated_Source\PSoC4/BLE_HAL_PVT.c ****     {
 166:Generated_Source\PSoC4/BLE_HAL_PVT.c ****         rc = CYRET_BAD_PARAM;
  63              		.loc 1 166 0
  64 0018 0120     		movs	r0, #1
  65              	.LVL2:
 126:Generated_Source\PSoC4/BLE_HAL_PVT.c ****     {
  66              		.loc 1 126 0
  67 001a 9A42     		cmp	r2, r3
  68 001c 39D8     		bhi	.L18
 128:Generated_Source\PSoC4/BLE_HAL_PVT.c ****         byteOffset = CY_FLASH_SIZEOF_ROW * rowId;
  69              		.loc 1 128 0
  70 001e CA09     		lsrs	r2, r1, #7
  71              	.LVL3:
 131:Generated_Source\PSoC4/BLE_HAL_PVT.c ****         {
  72              		.loc 1 131 0
  73 0020 4146     		mov	r1, r8
  74              	.LVL4:
 129:Generated_Source\PSoC4/BLE_HAL_PVT.c **** 
  75              		.loc 1 129 0
  76 0022 D301     		lsls	r3, r2, #7
  77              	.LVL5:
 131:Generated_Source\PSoC4/BLE_HAL_PVT.c ****         {
  78              		.loc 1 131 0
  79 0024 0029     		cmp	r1, #0
  80 0026 3BD0     		beq	.L21
  81 0028 0132     		adds	r2, r2, #1
  82              	.LVL6:
  83 002a 9246     		mov	r10, r2
  84 002c 6A46     		mov	r2, sp
  85              	.LVL7:
  86 002e EB46     		mov	fp, sp
  87 0030 0024     		movs	r4, #0
  88 0032 D61A     		subs	r6, r2, r3
  89              	.LVL8:
  90              	.L3:
  91 0034 0122     		movs	r2, #1
  92 0036 5242     		rsbs	r2, r2, #0
  93 0038 5244     		add	r2, r2, r10
  94 003a 1D00     		movs	r5, r3
  95 003c 9446     		mov	ip, r2
  96              	.LVL9:
  97 003e 0021     		movs	r1, #0
  98 0040 8035     		adds	r5, r5, #128
  99              	.LVL10:
 100              	.L7:
 137:Generated_Source\PSoC4/BLE_HAL_PVT.c ****                 {
 101              		.loc 1 137 0
 102 0042 9F42     		cmp	r7, r3
 103 0044 16D8     		bhi	.L4
 137:Generated_Source\PSoC4/BLE_HAL_PVT.c ****                 {
 104              		.loc 1 137 0 is_stmt 0 discriminator 1
 105 0046 A045     		cmp	r8, r4
 106 0048 14D9     		bls	.L4
 139:Generated_Source\PSoC4/BLE_HAL_PVT.c ****                     /* Detect that row programming is required */
 107              		.loc 1 139 0 is_stmt 1
 108 004a 4A46     		mov	r2, r9
ARM GAS  C:\Users\diego\AppData\Local\Temp\ccad7oEH.s 			page 6


 141:Generated_Source\PSoC4/BLE_HAL_PVT.c ****                     {
 109              		.loc 1 141 0
 110 004c 1878     		ldrb	r0, [r3]
 139:Generated_Source\PSoC4/BLE_HAL_PVT.c ****                     /* Detect that row programming is required */
 111              		.loc 1 139 0
 112 004e 125D     		ldrb	r2, [r2, r4]
 113 0050 F254     		strb	r2, [r6, r3]
 141:Generated_Source\PSoC4/BLE_HAL_PVT.c ****                     {
 114              		.loc 1 141 0
 115 0052 8242     		cmp	r2, r0
 116 0054 00D0     		beq	.L5
 143:Generated_Source\PSoC4/BLE_HAL_PVT.c ****                     }
 117              		.loc 1 143 0
 118 0056 0121     		movs	r1, #1
 119              	.LVL11:
 120              	.L5:
 145:Generated_Source\PSoC4/BLE_HAL_PVT.c ****                 }
 121              		.loc 1 145 0
 122 0058 0134     		adds	r4, r4, #1
 123              	.LVL12:
 124              	.L6:
 151:Generated_Source\PSoC4/BLE_HAL_PVT.c ****             }
 125              		.loc 1 151 0 discriminator 2
 126 005a 0133     		adds	r3, r3, #1
 127              	.LVL13:
 135:Generated_Source\PSoC4/BLE_HAL_PVT.c ****             {
 128              		.loc 1 135 0 discriminator 2
 129 005c 9D42     		cmp	r5, r3
 130 005e F0D1     		bne	.L7
 154:Generated_Source\PSoC4/BLE_HAL_PVT.c ****             {
 131              		.loc 1 154 0
 132 0060 0029     		cmp	r1, #0
 133 0062 0AD1     		bne	.L23
 134              	.LVL14:
 131:Generated_Source\PSoC4/BLE_HAL_PVT.c ****         {
 135              		.loc 1 131 0
 136 0064 4445     		cmp	r4, r8
 137 0066 1BD2     		bcs	.L21
 138              	.LVL15:
 139              	.L10:
 140 0068 0123     		movs	r3, #1
 141 006a 9C46     		mov	ip, r3
 142 006c 803E     		subs	r6, r6, #128
 143 006e E244     		add	r10, r10, ip
 144              	.LVL16:
 145 0070 2B00     		movs	r3, r5
 146 0072 DFE7     		b	.L3
 147              	.LVL17:
 148              	.L4:
 149:Generated_Source\PSoC4/BLE_HAL_PVT.c ****                 }
 149              		.loc 1 149 0
 150 0074 1A78     		ldrb	r2, [r3]
 151 0076 F254     		strb	r2, [r6, r3]
 152 0078 EFE7     		b	.L6
 153              	.L23:
 157:Generated_Source\PSoC4/BLE_HAL_PVT.c ****             }
 154              		.loc 1 157 0
ARM GAS  C:\Users\diego\AppData\Local\Temp\ccad7oEH.s 			page 7


 155 007a 5946     		mov	r1, fp
 156              	.LVL18:
 157 007c 6046     		mov	r0, ip
 158 007e FFF7FEFF 		bl	CySysFlashWriteRow
 159              	.LVL19:
 131:Generated_Source\PSoC4/BLE_HAL_PVT.c ****         {
 160              		.loc 1 131 0
 161 0082 4445     		cmp	r4, r8
 162 0084 01D2     		bcs	.L9
 131:Generated_Source\PSoC4/BLE_HAL_PVT.c ****         {
 163              		.loc 1 131 0 is_stmt 0 discriminator 1
 164 0086 0028     		cmp	r0, #0
 165 0088 EED0     		beq	.L10
 166              	.L9:
 167:Generated_Source\PSoC4/BLE_HAL_PVT.c ****     }
 168:Generated_Source\PSoC4/BLE_HAL_PVT.c **** 
 169:Generated_Source\PSoC4/BLE_HAL_PVT.c ****     /* Mask return codes from flash, if they are not supported */
 170:Generated_Source\PSoC4/BLE_HAL_PVT.c ****     if ((CYRET_SUCCESS != rc) && (CYRET_BAD_PARAM != rc))
 167              		.loc 1 170 0 is_stmt 1
 168 008a 0128     		cmp	r0, #1
 169 008c 01D9     		bls	.L18
 171:Generated_Source\PSoC4/BLE_HAL_PVT.c ****     {
 172:Generated_Source\PSoC4/BLE_HAL_PVT.c ****         rc = CYRET_UNKNOWN;
 170              		.loc 1 172 0
 171 008e 0120     		movs	r0, #1
 172              	.LVL20:
 173 0090 4042     		rsbs	r0, r0, #0
 174              	.LVL21:
 175              	.L18:
 173:Generated_Source\PSoC4/BLE_HAL_PVT.c ****     }
 174:Generated_Source\PSoC4/BLE_HAL_PVT.c ****     
 175:Generated_Source\PSoC4/BLE_HAL_PVT.c ****     return (rc);
 176:Generated_Source\PSoC4/BLE_HAL_PVT.c **** }
 176              		.loc 1 176 0
 177 0092 21B0     		add	sp, sp, #132
 178              		@ sp needed
 179              	.LVL22:
 180              	.LVL23:
 181 0094 3CBC     		pop	{r2, r3, r4, r5}
 182 0096 9046     		mov	r8, r2
 183 0098 9946     		mov	r9, r3
 184 009a A246     		mov	r10, r4
 185 009c AB46     		mov	fp, r5
 186 009e F0BD     		pop	{r4, r5, r6, r7, pc}
 187              	.LVL24:
 188              	.L21:
 131:Generated_Source\PSoC4/BLE_HAL_PVT.c ****         {
 189              		.loc 1 131 0
 190 00a0 0020     		movs	r0, #0
 191              	.LVL25:
 175:Generated_Source\PSoC4/BLE_HAL_PVT.c **** }
 192              		.loc 1 175 0
 193 00a2 F6E7     		b	.L18
 194              	.L25:
 195              		.align	2
 196              	.L24:
 197 00a4 FFFF0100 		.word	131071
ARM GAS  C:\Users\diego\AppData\Local\Temp\ccad7oEH.s 			page 8


 198              		.cfi_endproc
 199              	.LFE2:
 200              		.size	CyBLE_Nvram_Write, .-CyBLE_Nvram_Write
 201              		.section	.text.CyBLE_Nvram_Erase,"ax",%progbits
 202              		.align	2
 203              		.global	CyBLE_Nvram_Erase
 204              		.code	16
 205              		.thumb_func
 206              		.type	CyBLE_Nvram_Erase, %function
 207              	CyBLE_Nvram_Erase:
 208              	.LFB3:
 177:Generated_Source\PSoC4/BLE_HAL_PVT.c **** 
 178:Generated_Source\PSoC4/BLE_HAL_PVT.c **** /*******************************************************************************
 179:Generated_Source\PSoC4/BLE_HAL_PVT.c **** * Function Name: CyBLE_Nvram_Erase
 180:Generated_Source\PSoC4/BLE_HAL_PVT.c **** ****************************************************************************//**
 181:Generated_Source\PSoC4/BLE_HAL_PVT.c **** *
 182:Generated_Source\PSoC4/BLE_HAL_PVT.c **** *  This API erases the data from the NVRAM store. This API will perform an 
 183:Generated_Source\PSoC4/BLE_HAL_PVT.c **** *  address range check based on the length before performing erase operation.
 184:Generated_Source\PSoC4/BLE_HAL_PVT.c **** *
 185:Generated_Source\PSoC4/BLE_HAL_PVT.c **** *  \param varFlash: the pointer to the array or variable in the flash.
 186:Generated_Source\PSoC4/BLE_HAL_PVT.c **** *  \param length:    the length of the data in bytes.
 187:Generated_Source\PSoC4/BLE_HAL_PVT.c **** *
 188:Generated_Source\PSoC4/BLE_HAL_PVT.c **** * \return
 189:Generated_Source\PSoC4/BLE_HAL_PVT.c **** *  CYRET_SUCCESS    a successful write
 190:Generated_Source\PSoC4/BLE_HAL_PVT.c **** *  CYRET_BAD_PARAM  A request to write outside the flash boundary.
 191:Generated_Source\PSoC4/BLE_HAL_PVT.c **** *  CYRET_UNKNOWN    Other errors in writing the flash
 192:Generated_Source\PSoC4/BLE_HAL_PVT.c **** *
 193:Generated_Source\PSoC4/BLE_HAL_PVT.c **** *******************************************************************************/
 194:Generated_Source\PSoC4/BLE_HAL_PVT.c **** cystatus CyBLE_Nvram_Erase (const uint8 *varFlash, uint16 length)
 195:Generated_Source\PSoC4/BLE_HAL_PVT.c **** {
 209              		.loc 1 195 0
 210              		.cfi_startproc
 211              		@ args = 0, pretend = 0, frame = 264
 212              		@ frame_needed = 0, uses_anonymous_args = 0
 213              	.LVL26:
 214 0000 F0B5     		push	{r4, r5, r6, r7, lr}
 215              		.cfi_def_cfa_offset 20
 216              		.cfi_offset 4, -20
 217              		.cfi_offset 5, -16
 218              		.cfi_offset 6, -12
 219              		.cfi_offset 7, -8
 220              		.cfi_offset 14, -4
 221 0002 5F46     		mov	r7, fp
 222 0004 5646     		mov	r6, r10
 223 0006 4D46     		mov	r5, r9
 224 0008 4446     		mov	r4, r8
 225 000a 8A46     		mov	r10, r1
 226 000c F0B4     		push	{r4, r5, r6, r7}
 227              		.cfi_def_cfa_offset 36
 228              		.cfi_offset 8, -36
 229              		.cfi_offset 9, -32
 230              		.cfi_offset 10, -28
 231              		.cfi_offset 11, -24
 232 000e C3B0     		sub	sp, sp, #268
 233              		.cfi_def_cfa_offset 304
 234              		.loc 1 195 0
 235 0010 0700     		movs	r7, r0
ARM GAS  C:\Users\diego\AppData\Local\Temp\ccad7oEH.s 			page 9


 196:Generated_Source\PSoC4/BLE_HAL_PVT.c ****     const uint8 *tempFlash;
 197:Generated_Source\PSoC4/BLE_HAL_PVT.c ****     uint8 flashBuffer[CY_FLASH_SIZEOF_ROW] = {0u};
 236              		.loc 1 197 0
 237 0012 8022     		movs	r2, #128
 238 0014 0021     		movs	r1, #0
 239              	.LVL27:
 240 0016 02A8     		add	r0, sp, #8
 241              	.LVL28:
 242 0018 FFF7FEFF 		bl	memset
 243              	.LVL29:
 198:Generated_Source\PSoC4/BLE_HAL_PVT.c ****     uint16 lengthFlash;
 199:Generated_Source\PSoC4/BLE_HAL_PVT.c ****     uint16 lengthRemaining;
 200:Generated_Source\PSoC4/BLE_HAL_PVT.c ****     cystatus rc = CYRET_UNKNOWN;
 201:Generated_Source\PSoC4/BLE_HAL_PVT.c **** 
 202:Generated_Source\PSoC4/BLE_HAL_PVT.c ****     tempFlash = varFlash;
 203:Generated_Source\PSoC4/BLE_HAL_PVT.c ****     lengthRemaining = length;
 204:Generated_Source\PSoC4/BLE_HAL_PVT.c **** 
 205:Generated_Source\PSoC4/BLE_HAL_PVT.c ****     while(lengthRemaining > 0u)
 244              		.loc 1 205 0
 245 001c 5346     		mov	r3, r10
 246 001e 002B     		cmp	r3, #0
 247 0020 47D0     		beq	.L39
 248 0022 22AB     		add	r3, sp, #136
 249 0024 9B46     		mov	fp, r3
 250              	.LVL30:
 251              	.L40:
 206:Generated_Source\PSoC4/BLE_HAL_PVT.c ****     {
 207:Generated_Source\PSoC4/BLE_HAL_PVT.c ****         if(lengthRemaining < CY_FLASH_SIZEOF_ROW)
 252              		.loc 1 207 0
 253 0026 5346     		mov	r3, r10
 254 0028 7F2B     		cmp	r3, #127
 255 002a 5BD8     		bhi	.L45
 256 002c D046     		mov	r8, r10
 257 002e 0193     		str	r3, [sp, #4]
 258              	.L28:
 259              	.LVL31:
 260              	.LBB4:
 261              	.LBB5:
 126:Generated_Source\PSoC4/BLE_HAL_PVT.c ****     {
 262              		.loc 1 126 0
 263 0030 4346     		mov	r3, r8
 264 0032 2E4A     		ldr	r2, .L59
 265 0034 FB18     		adds	r3, r7, r3
 266 0036 9342     		cmp	r3, r2
 267 0038 52D8     		bhi	.L29
 128:Generated_Source\PSoC4/BLE_HAL_PVT.c ****         byteOffset = CY_FLASH_SIZEOF_ROW * rowId;
 268              		.loc 1 128 0
 269 003a FA09     		lsrs	r2, r7, #7
 270              	.LVL32:
 129:Generated_Source\PSoC4/BLE_HAL_PVT.c **** 
 271              		.loc 1 129 0
 272 003c D301     		lsls	r3, r2, #7
 273              	.LVL33:
 274 003e 0132     		adds	r2, r2, #1
 275              	.LVL34:
 276 0040 9146     		mov	r9, r2
 277 0042 5A46     		mov	r2, fp
ARM GAS  C:\Users\diego\AppData\Local\Temp\ccad7oEH.s 			page 10


 278              	.LVL35:
 117:Generated_Source\PSoC4/BLE_HAL_PVT.c ****     cystatus rc = CYRET_SUCCESS;
 279              		.loc 1 117 0
 280 0044 0024     		movs	r4, #0
 281 0046 D61A     		subs	r6, r2, r3
 282              	.LVL36:
 283              	.L30:
 284 0048 0122     		movs	r2, #1
 285 004a 0021     		movs	r1, #0
 286 004c 5242     		rsbs	r2, r2, #0
 287 004e 4A44     		add	r2, r2, r9
 288 0050 1D00     		movs	r5, r3
 289 0052 4046     		mov	r0, r8
 290 0054 9446     		mov	ip, r2
 291              	.LVL37:
 292 0056 8846     		mov	r8, r1
 293 0058 8035     		adds	r5, r5, #128
 294              	.LVL38:
 295              	.L34:
 137:Generated_Source\PSoC4/BLE_HAL_PVT.c ****                 {
 296              		.loc 1 137 0
 297 005a 9F42     		cmp	r7, r3
 298 005c 1CD8     		bhi	.L31
 299 005e 8442     		cmp	r4, r0
 300 0060 1AD2     		bcs	.L31
 139:Generated_Source\PSoC4/BLE_HAL_PVT.c ****                     /* Detect that row programming is required */
 301              		.loc 1 139 0
 302 0062 42AA     		add	r2, sp, #264
 303 0064 1219     		adds	r2, r2, r4
 304 0066 013A     		subs	r2, r2, #1
 305 0068 FF3A     		subs	r2, r2, #255
 306 006a 1278     		ldrb	r2, [r2]
 141:Generated_Source\PSoC4/BLE_HAL_PVT.c ****                     {
 307              		.loc 1 141 0
 308 006c 1978     		ldrb	r1, [r3]
 139:Generated_Source\PSoC4/BLE_HAL_PVT.c ****                     /* Detect that row programming is required */
 309              		.loc 1 139 0
 310 006e F254     		strb	r2, [r6, r3]
 141:Generated_Source\PSoC4/BLE_HAL_PVT.c ****                     {
 311              		.loc 1 141 0
 312 0070 8A42     		cmp	r2, r1
 313 0072 01D0     		beq	.L32
 143:Generated_Source\PSoC4/BLE_HAL_PVT.c ****                     }
 314              		.loc 1 143 0
 315 0074 0122     		movs	r2, #1
 316 0076 9046     		mov	r8, r2
 317              	.LVL39:
 318              	.L32:
 145:Generated_Source\PSoC4/BLE_HAL_PVT.c ****                 }
 319              		.loc 1 145 0
 320 0078 0134     		adds	r4, r4, #1
 321              	.LVL40:
 322              	.L33:
 151:Generated_Source\PSoC4/BLE_HAL_PVT.c ****             }
 323              		.loc 1 151 0
 324 007a 0133     		adds	r3, r3, #1
 325              	.LVL41:
ARM GAS  C:\Users\diego\AppData\Local\Temp\ccad7oEH.s 			page 11


 135:Generated_Source\PSoC4/BLE_HAL_PVT.c ****             {
 326              		.loc 1 135 0
 327 007c AB42     		cmp	r3, r5
 328 007e ECD1     		bne	.L34
 329 0080 4146     		mov	r1, r8
 330 0082 8046     		mov	r8, r0
 331              	.LVL42:
 154:Generated_Source\PSoC4/BLE_HAL_PVT.c ****             {
 332              		.loc 1 154 0
 333 0084 0029     		cmp	r1, #0
 334 0086 0AD1     		bne	.L58
 335              	.LVL43:
 131:Generated_Source\PSoC4/BLE_HAL_PVT.c ****         {
 336              		.loc 1 131 0
 337 0088 8442     		cmp	r4, r0
 338 008a 1FD2     		bcs	.L43
 339              	.LVL44:
 340              	.L37:
 341 008c 0123     		movs	r3, #1
 342 008e 9C46     		mov	ip, r3
 343 0090 803E     		subs	r6, r6, #128
 344 0092 E144     		add	r9, r9, ip
 345              	.LVL45:
 346              	.LBE5:
 347              	.LBE4:
 208:Generated_Source\PSoC4/BLE_HAL_PVT.c ****         {
 209:Generated_Source\PSoC4/BLE_HAL_PVT.c ****             lengthFlash = lengthRemaining;
 210:Generated_Source\PSoC4/BLE_HAL_PVT.c ****         }
 211:Generated_Source\PSoC4/BLE_HAL_PVT.c ****         else
 212:Generated_Source\PSoC4/BLE_HAL_PVT.c ****         {
 213:Generated_Source\PSoC4/BLE_HAL_PVT.c ****             lengthFlash = CY_FLASH_SIZEOF_ROW;
 348              		.loc 1 213 0
 349 0094 2B00     		movs	r3, r5
 350 0096 D7E7     		b	.L30
 351              	.LVL46:
 352              	.L31:
 353              	.LBB9:
 354              	.LBB6:
 149:Generated_Source\PSoC4/BLE_HAL_PVT.c ****                 }
 355              		.loc 1 149 0
 356 0098 1A78     		ldrb	r2, [r3]
 357 009a F254     		strb	r2, [r6, r3]
 358 009c EDE7     		b	.L33
 359              	.LVL47:
 360              	.L58:
 157:Generated_Source\PSoC4/BLE_HAL_PVT.c ****             }
 361              		.loc 1 157 0
 362 009e 5946     		mov	r1, fp
 363              	.LVL48:
 364 00a0 6046     		mov	r0, ip
 365 00a2 FFF7FEFF 		bl	CySysFlashWriteRow
 366              	.LVL49:
 131:Generated_Source\PSoC4/BLE_HAL_PVT.c ****         {
 367              		.loc 1 131 0
 368 00a6 4445     		cmp	r4, r8
 369 00a8 0CD2     		bcs	.L36
 370 00aa 0028     		cmp	r0, #0
ARM GAS  C:\Users\diego\AppData\Local\Temp\ccad7oEH.s 			page 12


 371 00ac EED0     		beq	.L37
 170:Generated_Source\PSoC4/BLE_HAL_PVT.c ****     {
 372              		.loc 1 170 0
 373 00ae 0128     		cmp	r0, #1
 374 00b0 16D9     		bls	.L29
 375              	.LVL50:
 376              	.L39:
 172:Generated_Source\PSoC4/BLE_HAL_PVT.c ****     }
 377              		.loc 1 172 0
 378 00b2 0120     		movs	r0, #1
 379 00b4 4042     		rsbs	r0, r0, #0
 380              	.LVL51:
 381              	.L54:
 382              	.LBE6:
 383              	.LBE9:
 214:Generated_Source\PSoC4/BLE_HAL_PVT.c ****         }
 215:Generated_Source\PSoC4/BLE_HAL_PVT.c ****         rc = CyBLE_Nvram_Write(flashBuffer, tempFlash, lengthFlash);
 216:Generated_Source\PSoC4/BLE_HAL_PVT.c ****         if(rc != CYRET_SUCCESS)
 217:Generated_Source\PSoC4/BLE_HAL_PVT.c ****         {
 218:Generated_Source\PSoC4/BLE_HAL_PVT.c ****             break;
 219:Generated_Source\PSoC4/BLE_HAL_PVT.c ****         }
 220:Generated_Source\PSoC4/BLE_HAL_PVT.c ****         tempFlash += CY_FLASH_SIZEOF_ROW;
 221:Generated_Source\PSoC4/BLE_HAL_PVT.c ****         lengthRemaining -= lengthFlash;
 222:Generated_Source\PSoC4/BLE_HAL_PVT.c ****     }
 223:Generated_Source\PSoC4/BLE_HAL_PVT.c **** 
 224:Generated_Source\PSoC4/BLE_HAL_PVT.c ****     return rc;
 225:Generated_Source\PSoC4/BLE_HAL_PVT.c **** }
 384              		.loc 1 225 0
 385 00b6 43B0     		add	sp, sp, #268
 386              		@ sp needed
 387              	.LVL52:
 388 00b8 3CBC     		pop	{r2, r3, r4, r5}
 389 00ba 9046     		mov	r8, r2
 390 00bc 9946     		mov	r9, r3
 391 00be A246     		mov	r10, r4
 392 00c0 AB46     		mov	fp, r5
 393 00c2 F0BD     		pop	{r4, r5, r6, r7, pc}
 394              	.LVL53:
 395              	.L36:
 396              	.LBB10:
 397              	.LBB7:
 170:Generated_Source\PSoC4/BLE_HAL_PVT.c ****     {
 398              		.loc 1 170 0
 399 00c4 0128     		cmp	r0, #1
 400 00c6 F4D8     		bhi	.L39
 401              	.LVL54:
 402              	.LBE7:
 403              	.LBE10:
 216:Generated_Source\PSoC4/BLE_HAL_PVT.c ****         {
 404              		.loc 1 216 0
 405 00c8 0028     		cmp	r0, #0
 406 00ca 09D1     		bne	.L29
 407              	.L43:
 221:Generated_Source\PSoC4/BLE_HAL_PVT.c ****     }
 408              		.loc 1 221 0
 409 00cc 5346     		mov	r3, r10
 410 00ce 019A     		ldr	r2, [sp, #4]
ARM GAS  C:\Users\diego\AppData\Local\Temp\ccad7oEH.s 			page 13


 220:Generated_Source\PSoC4/BLE_HAL_PVT.c ****         lengthRemaining -= lengthFlash;
 411              		.loc 1 220 0
 412 00d0 8037     		adds	r7, r7, #128
 413              	.LVL55:
 221:Generated_Source\PSoC4/BLE_HAL_PVT.c ****     }
 414              		.loc 1 221 0
 415 00d2 9B1A     		subs	r3, r3, r2
 416 00d4 9BB2     		uxth	r3, r3
 417 00d6 9A46     		mov	r10, r3
 418              	.LVL56:
 205:Generated_Source\PSoC4/BLE_HAL_PVT.c ****     {
 419              		.loc 1 205 0
 420 00d8 002B     		cmp	r3, #0
 421 00da A4D1     		bne	.L40
 422 00dc 0020     		movs	r0, #0
 423 00de EAE7     		b	.L54
 424              	.LVL57:
 425              	.L29:
 426              	.LBB11:
 427              	.LBB8:
 166:Generated_Source\PSoC4/BLE_HAL_PVT.c ****     }
 428              		.loc 1 166 0
 429 00e0 0120     		movs	r0, #1
 430              	.LVL58:
 431              	.LBE8:
 432              	.LBE11:
 224:Generated_Source\PSoC4/BLE_HAL_PVT.c **** }
 433              		.loc 1 224 0
 434 00e2 E8E7     		b	.L54
 435              	.LVL59:
 436              	.L45:
 437 00e4 8023     		movs	r3, #128
 438 00e6 9846     		mov	r8, r3
 213:Generated_Source\PSoC4/BLE_HAL_PVT.c ****         }
 439              		.loc 1 213 0
 440 00e8 0193     		str	r3, [sp, #4]
 441 00ea A1E7     		b	.L28
 442              	.L60:
 443              		.align	2
 444              	.L59:
 445 00ec FFFF0100 		.word	131071
 446              		.cfi_endproc
 447              	.LFE3:
 448              		.size	CyBLE_Nvram_Erase, .-CyBLE_Nvram_Erase
 449              		.section	.text.CyBLE_Bless_LlRegRead,"ax",%progbits
 450              		.align	2
 451              		.global	CyBLE_Bless_LlRegRead
 452              		.code	16
 453              		.thumb_func
 454              		.type	CyBLE_Bless_LlRegRead, %function
 455              	CyBLE_Bless_LlRegRead:
 456              	.LFB58:
 457              		.cfi_startproc
 458              		@ args = 0, pretend = 0, frame = 0
 459              		@ frame_needed = 0, uses_anonymous_args = 0
 460              		@ link register save eliminated.
 461 0000 0368     		ldr	r3, [r0]
ARM GAS  C:\Users\diego\AppData\Local\Temp\ccad7oEH.s 			page 14


 462              		@ sp needed
 463 0002 0B80     		strh	r3, [r1]
 464 0004 7047     		bx	lr
 465              		.cfi_endproc
 466              	.LFE58:
 467              		.size	CyBLE_Bless_LlRegRead, .-CyBLE_Bless_LlRegRead
 468 0006 C046     		.section	.text.CyBLE_Bless_LlRegWrite,"ax",%progbits
 469              		.align	2
 470              		.global	CyBLE_Bless_LlRegWrite
 471              		.code	16
 472              		.thumb_func
 473              		.type	CyBLE_Bless_LlRegWrite, %function
 474              	CyBLE_Bless_LlRegWrite:
 475              	.LFB56:
 476              		.cfi_startproc
 477              		@ args = 0, pretend = 0, frame = 0
 478              		@ frame_needed = 0, uses_anonymous_args = 0
 479              		@ link register save eliminated.
 480 0000 0160     		str	r1, [r0]
 481              		@ sp needed
 482 0002 7047     		bx	lr
 483              		.cfi_endproc
 484              	.LFE56:
 485              		.size	CyBLE_Bless_LlRegWrite, .-CyBLE_Bless_LlRegWrite
 486              		.section	.text.CyBLE_Bless_RfRegRead,"ax",%progbits
 487              		.align	2
 488              		.global	CyBLE_Bless_RfRegRead
 489              		.code	16
 490              		.thumb_func
 491              		.type	CyBLE_Bless_RfRegRead, %function
 492              	CyBLE_Bless_RfRegRead:
 493              	.LFB6:
 226:Generated_Source\PSoC4/BLE_HAL_PVT.c **** 
 227:Generated_Source\PSoC4/BLE_HAL_PVT.c **** 
 228:Generated_Source\PSoC4/BLE_HAL_PVT.c **** /*******************************************************************************
 229:Generated_Source\PSoC4/BLE_HAL_PVT.c **** * Function Name: CyBLE_Bless_LlRegRead
 230:Generated_Source\PSoC4/BLE_HAL_PVT.c **** ****************************************************************************//**
 231:Generated_Source\PSoC4/BLE_HAL_PVT.c **** *
 232:Generated_Source\PSoC4/BLE_HAL_PVT.c **** *  This API reads the content of the BLESS Link Layer register from the stack.
 233:Generated_Source\PSoC4/BLE_HAL_PVT.c **** *
 234:Generated_Source\PSoC4/BLE_HAL_PVT.c **** *  \param blessAddr: the pointer to the BLESS link layer address.
 235:Generated_Source\PSoC4/BLE_HAL_PVT.c **** *  \param regValue: the pointer to the buffer space to copy the read value.
 236:Generated_Source\PSoC4/BLE_HAL_PVT.c **** *
 237:Generated_Source\PSoC4/BLE_HAL_PVT.c **** * \return
 238:Generated_Source\PSoC4/BLE_HAL_PVT.c **** *  None
 239:Generated_Source\PSoC4/BLE_HAL_PVT.c **** *
 240:Generated_Source\PSoC4/BLE_HAL_PVT.c **** *******************************************************************************/
 241:Generated_Source\PSoC4/BLE_HAL_PVT.c **** void CyBLE_Bless_LlRegRead (const reg32 *blessAddr, uint16 *regValue)
 242:Generated_Source\PSoC4/BLE_HAL_PVT.c **** {
 243:Generated_Source\PSoC4/BLE_HAL_PVT.c ****     *regValue = (uint16)CY_GET_REG32(blessAddr);
 244:Generated_Source\PSoC4/BLE_HAL_PVT.c **** }
 245:Generated_Source\PSoC4/BLE_HAL_PVT.c **** 
 246:Generated_Source\PSoC4/BLE_HAL_PVT.c **** 
 247:Generated_Source\PSoC4/BLE_HAL_PVT.c **** /*******************************************************************************
 248:Generated_Source\PSoC4/BLE_HAL_PVT.c **** * Function Name: CyBLE_Bless_LlRegWrite
 249:Generated_Source\PSoC4/BLE_HAL_PVT.c **** ****************************************************************************//**
 250:Generated_Source\PSoC4/BLE_HAL_PVT.c **** *
ARM GAS  C:\Users\diego\AppData\Local\Temp\ccad7oEH.s 			page 15


 251:Generated_Source\PSoC4/BLE_HAL_PVT.c **** *  This API writes to the BLESS Link Layer register from the stack.
 252:Generated_Source\PSoC4/BLE_HAL_PVT.c **** *
 253:Generated_Source\PSoC4/BLE_HAL_PVT.c **** *  \param blessAddr: the pointer to the BLESS link layer address.
 254:Generated_Source\PSoC4/BLE_HAL_PVT.c **** *  \param regValue: the pointer to the value to be written to the BLESS LL reg.
 255:Generated_Source\PSoC4/BLE_HAL_PVT.c **** *
 256:Generated_Source\PSoC4/BLE_HAL_PVT.c **** * \return
 257:Generated_Source\PSoC4/BLE_HAL_PVT.c **** *  None
 258:Generated_Source\PSoC4/BLE_HAL_PVT.c **** *
 259:Generated_Source\PSoC4/BLE_HAL_PVT.c **** *******************************************************************************/
 260:Generated_Source\PSoC4/BLE_HAL_PVT.c **** void CyBLE_Bless_LlRegWrite (reg32 *blessAddr, const uint16 regValue)
 261:Generated_Source\PSoC4/BLE_HAL_PVT.c **** {
 262:Generated_Source\PSoC4/BLE_HAL_PVT.c ****     CY_SET_REG32(blessAddr, regValue);
 263:Generated_Source\PSoC4/BLE_HAL_PVT.c **** }
 264:Generated_Source\PSoC4/BLE_HAL_PVT.c **** 
 265:Generated_Source\PSoC4/BLE_HAL_PVT.c **** 
 266:Generated_Source\PSoC4/BLE_HAL_PVT.c **** /*******************************************************************************
 267:Generated_Source\PSoC4/BLE_HAL_PVT.c **** * Function Name: CyBLE_Bless_RfRegRead
 268:Generated_Source\PSoC4/BLE_HAL_PVT.c **** ****************************************************************************//**
 269:Generated_Source\PSoC4/BLE_HAL_PVT.c **** *
 270:Generated_Source\PSoC4/BLE_HAL_PVT.c **** *  This API reads the content of the BLESS RF register from the stack.
 271:Generated_Source\PSoC4/BLE_HAL_PVT.c **** *
 272:Generated_Source\PSoC4/BLE_HAL_PVT.c **** *  \param blessAddr: the pointer to BLESS RF register address.
 273:Generated_Source\PSoC4/BLE_HAL_PVT.c **** *  \param regValue: the pointer to the buffer space to copy the read value.
 274:Generated_Source\PSoC4/BLE_HAL_PVT.c **** *
 275:Generated_Source\PSoC4/BLE_HAL_PVT.c **** * \return
 276:Generated_Source\PSoC4/BLE_HAL_PVT.c **** *  None
 277:Generated_Source\PSoC4/BLE_HAL_PVT.c **** *
 278:Generated_Source\PSoC4/BLE_HAL_PVT.c **** *******************************************************************************/
 279:Generated_Source\PSoC4/BLE_HAL_PVT.c **** void CyBLE_Bless_RfRegRead (const reg32 *blessAddr, uint16 *regValue)
 280:Generated_Source\PSoC4/BLE_HAL_PVT.c **** {
 494              		.loc 1 280 0
 495              		.cfi_startproc
 496              		@ args = 0, pretend = 0, frame = 0
 497              		@ frame_needed = 0, uses_anonymous_args = 0
 498              		@ link register save eliminated.
 499              	.LVL60:
 281:Generated_Source\PSoC4/BLE_HAL_PVT.c ****     *regValue = (uint16)CY_GET_REG32(blessAddr);
 500              		.loc 1 281 0
 501 0000 0368     		ldr	r3, [r0]
 282:Generated_Source\PSoC4/BLE_HAL_PVT.c **** }
 502              		.loc 1 282 0
 503              		@ sp needed
 281:Generated_Source\PSoC4/BLE_HAL_PVT.c ****     *regValue = (uint16)CY_GET_REG32(blessAddr);
 504              		.loc 1 281 0
 505 0002 0B80     		strh	r3, [r1]
 506              		.loc 1 282 0
 507 0004 7047     		bx	lr
 508              		.cfi_endproc
 509              	.LFE6:
 510              		.size	CyBLE_Bless_RfRegRead, .-CyBLE_Bless_RfRegRead
 511 0006 C046     		.section	.text.CyBLE_Bless_RfRegWrite,"ax",%progbits
 512              		.align	2
 513              		.global	CyBLE_Bless_RfRegWrite
 514              		.code	16
 515              		.thumb_func
 516              		.type	CyBLE_Bless_RfRegWrite, %function
 517              	CyBLE_Bless_RfRegWrite:
ARM GAS  C:\Users\diego\AppData\Local\Temp\ccad7oEH.s 			page 16


 518              	.LFB7:
 283:Generated_Source\PSoC4/BLE_HAL_PVT.c **** 
 284:Generated_Source\PSoC4/BLE_HAL_PVT.c **** 
 285:Generated_Source\PSoC4/BLE_HAL_PVT.c **** /*******************************************************************************
 286:Generated_Source\PSoC4/BLE_HAL_PVT.c **** * Function Name: CyBLE_Bless_RfRegWrite
 287:Generated_Source\PSoC4/BLE_HAL_PVT.c **** ****************************************************************************//**
 288:Generated_Source\PSoC4/BLE_HAL_PVT.c **** *
 289:Generated_Source\PSoC4/BLE_HAL_PVT.c **** *  This API writes to the BLESS RF register from the stack.
 290:Generated_Source\PSoC4/BLE_HAL_PVT.c **** *
 291:Generated_Source\PSoC4/BLE_HAL_PVT.c **** *  \param blessAddr: the pointer to the BLESS RF address.
 292:Generated_Source\PSoC4/BLE_HAL_PVT.c **** *  \param regValue: the pointer to the value to be written to the BLESS RF reg.
 293:Generated_Source\PSoC4/BLE_HAL_PVT.c **** *
 294:Generated_Source\PSoC4/BLE_HAL_PVT.c **** * \return
 295:Generated_Source\PSoC4/BLE_HAL_PVT.c **** *  None
 296:Generated_Source\PSoC4/BLE_HAL_PVT.c **** *
 297:Generated_Source\PSoC4/BLE_HAL_PVT.c **** *******************************************************************************/
 298:Generated_Source\PSoC4/BLE_HAL_PVT.c **** void CyBLE_Bless_RfRegWrite (reg32 *blessAddr, const uint16 regValue)
 299:Generated_Source\PSoC4/BLE_HAL_PVT.c **** {
 519              		.loc 1 299 0
 520              		.cfi_startproc
 521              		@ args = 0, pretend = 0, frame = 0
 522              		@ frame_needed = 0, uses_anonymous_args = 0
 523              		@ link register save eliminated.
 524              	.LVL61:
 300:Generated_Source\PSoC4/BLE_HAL_PVT.c ****      CY_SET_REG32(blessAddr, regValue);
 525              		.loc 1 300 0
 526 0000 0160     		str	r1, [r0]
 301:Generated_Source\PSoC4/BLE_HAL_PVT.c **** }
 527              		.loc 1 301 0
 528              		@ sp needed
 529 0002 7047     		bx	lr
 530              		.cfi_endproc
 531              	.LFE7:
 532              		.size	CyBLE_Bless_RfRegWrite, .-CyBLE_Bless_RfRegWrite
 533              		.section	.text.CyBLE_BlessDeviceConfig,"ax",%progbits
 534              		.align	2
 535              		.global	CyBLE_BlessDeviceConfig
 536              		.code	16
 537              		.thumb_func
 538              		.type	CyBLE_BlessDeviceConfig, %function
 539              	CyBLE_BlessDeviceConfig:
 540              	.LFB8:
 302:Generated_Source\PSoC4/BLE_HAL_PVT.c **** 
 303:Generated_Source\PSoC4/BLE_HAL_PVT.c **** /*******************************************************************************
 304:Generated_Source\PSoC4/BLE_HAL_PVT.c **** * Function Name: CyBLE_BlessDeviceConfig
 305:Generated_Source\PSoC4/BLE_HAL_PVT.c **** ****************************************************************************//**
 306:Generated_Source\PSoC4/BLE_HAL_PVT.c **** *
 307:Generated_Source\PSoC4/BLE_HAL_PVT.c **** *  This function configures BLESS registers by trimmed values stored in SFLASH.
 308:Generated_Source\PSoC4/BLE_HAL_PVT.c **** *
 309:Generated_Source\PSoC4/BLE_HAL_PVT.c **** * \return
 310:Generated_Source\PSoC4/BLE_HAL_PVT.c **** *  None
 311:Generated_Source\PSoC4/BLE_HAL_PVT.c **** *
 312:Generated_Source\PSoC4/BLE_HAL_PVT.c **** *******************************************************************************/
 313:Generated_Source\PSoC4/BLE_HAL_PVT.c **** void CyBLE_BlessDeviceConfig(void)
 314:Generated_Source\PSoC4/BLE_HAL_PVT.c **** {
 541              		.loc 1 314 0
 542              		.cfi_startproc
ARM GAS  C:\Users\diego\AppData\Local\Temp\ccad7oEH.s 			page 17


 543              		@ args = 0, pretend = 0, frame = 0
 544              		@ frame_needed = 0, uses_anonymous_args = 0
 545              		@ link register save eliminated.
 315:Generated_Source\PSoC4/BLE_HAL_PVT.c ****     uint32 trimRegValue;
 316:Generated_Source\PSoC4/BLE_HAL_PVT.c ****     uint32 ldo;
 317:Generated_Source\PSoC4/BLE_HAL_PVT.c ****     uint32 siliconRev;
 318:Generated_Source\PSoC4/BLE_HAL_PVT.c ****     uint16 trimRef34Val;
 319:Generated_Source\PSoC4/BLE_HAL_PVT.c ****     uint16 trimRef38Val;
 320:Generated_Source\PSoC4/BLE_HAL_PVT.c **** 
 321:Generated_Source\PSoC4/BLE_HAL_PVT.c ****     trimRegValue = ((uint32)CYBLE_SFLASH_BLESS_BB_BUMP2_HIGH_REG << 8u) | CYBLE_SFLASH_BLESS_BB_BUM
 546              		.loc 1 321 0
 547 0000 314B     		ldr	r3, .L76
 322:Generated_Source\PSoC4/BLE_HAL_PVT.c ****     ldo = ((uint32)CYBLE_SFLASH_BLESS_LDO_HIGH_REG << 8u) | CYBLE_SFLASH_BLESS_LDO_LOW_REG;
 548              		.loc 1 322 0
 549 0002 324A     		ldr	r2, .L76+4
 321:Generated_Source\PSoC4/BLE_HAL_PVT.c ****     ldo = ((uint32)CYBLE_SFLASH_BLESS_LDO_HIGH_REG << 8u) | CYBLE_SFLASH_BLESS_LDO_LOW_REG;
 550              		.loc 1 321 0
 551 0004 1978     		ldrb	r1, [r3]
 552 0006 324B     		ldr	r3, .L76+8
 553 0008 0902     		lsls	r1, r1, #8
 554 000a 1B78     		ldrb	r3, [r3]
 555 000c 1943     		orrs	r1, r3
 556              	.LVL62:
 557              		.loc 1 322 0
 558 000e 314B     		ldr	r3, .L76+12
 559 0010 1B78     		ldrb	r3, [r3]
 560 0012 1278     		ldrb	r2, [r2]
 561 0014 1B02     		lsls	r3, r3, #8
 562 0016 1343     		orrs	r3, r2
 563              	.LVL63:
 323:Generated_Source\PSoC4/BLE_HAL_PVT.c **** 
 324:Generated_Source\PSoC4/BLE_HAL_PVT.c ****     if ((ldo == CYBLE_SFLASH_BLERD_LDO_REG_VAL1) && (trimRegValue == CYBLE_SFLASH_BLERD_BB_BUMP2_RE
 564              		.loc 1 324 0
 565 0018 2F4A     		ldr	r2, .L76+16
 566 001a 9342     		cmp	r3, r2
 567 001c 4ED0     		beq	.L73
 325:Generated_Source\PSoC4/BLE_HAL_PVT.c ****     {
 326:Generated_Source\PSoC4/BLE_HAL_PVT.c ****         ldo = CYBLE_BLERD_LDO_REG_VAL_FINAL;
 327:Generated_Source\PSoC4/BLE_HAL_PVT.c ****         trimRegValue = CYBLE_BLERD_BB_BUMP2_REG_VAL_FINAL;
 328:Generated_Source\PSoC4/BLE_HAL_PVT.c ****     }
 329:Generated_Source\PSoC4/BLE_HAL_PVT.c ****     else if ((ldo == CYBLE_SFLASH_BLERD_LDO_REG_VAL2) && (trimRegValue == CYBLE_BLERD_BB_BUMP2_REG_
 568              		.loc 1 329 0
 569 001e D422     		movs	r2, #212
 570 0020 1201     		lsls	r2, r2, #4
 571 0022 9342     		cmp	r3, r2
 572 0024 46D0     		beq	.L74
 573              	.LVL64:
 574              	.L67:
 330:Generated_Source\PSoC4/BLE_HAL_PVT.c ****     {
 331:Generated_Source\PSoC4/BLE_HAL_PVT.c ****         ldo = CYBLE_BLERD_LDO_REG_VAL_FINAL;
 332:Generated_Source\PSoC4/BLE_HAL_PVT.c ****     }
 333:Generated_Source\PSoC4/BLE_HAL_PVT.c ****     else
 334:Generated_Source\PSoC4/BLE_HAL_PVT.c ****     {
 335:Generated_Source\PSoC4/BLE_HAL_PVT.c ****     }
 336:Generated_Source\PSoC4/BLE_HAL_PVT.c **** 
 337:Generated_Source\PSoC4/BLE_HAL_PVT.c ****     CYBLE_BLE_BLERD_LDO_REG = ldo;
 575              		.loc 1 337 0
ARM GAS  C:\Users\diego\AppData\Local\Temp\ccad7oEH.s 			page 18


 576 0026 2D4A     		ldr	r2, .L76+20
 577 0028 1360     		str	r3, [r2]
 338:Generated_Source\PSoC4/BLE_HAL_PVT.c ****     CYBLE_BLE_BLERD_BB_BUMP2_REG = trimRegValue;
 578              		.loc 1 338 0
 579 002a 2D4B     		ldr	r3, .L76+24
 580              	.LVL65:
 339:Generated_Source\PSoC4/BLE_HAL_PVT.c **** 
 340:Generated_Source\PSoC4/BLE_HAL_PVT.c ****     /* Edit only XTAL fast charge bit */
 341:Generated_Source\PSoC4/BLE_HAL_PVT.c ****     trimRegValue = ((uint32)CYBLE_SFLASH_BLESS_BB_XO_HIGH_REG << 8u) | CYBLE_SFLASH_BLESS_BB_XO_LOW
 581              		.loc 1 341 0
 582 002c 2D4A     		ldr	r2, .L76+28
 583              	.LVL66:
 338:Generated_Source\PSoC4/BLE_HAL_PVT.c ****     CYBLE_BLE_BLERD_BB_BUMP2_REG = trimRegValue;
 584              		.loc 1 338 0
 585 002e 1960     		str	r1, [r3]
 586              	.LVL67:
 587              		.loc 1 341 0
 588 0030 2D4B     		ldr	r3, .L76+32
 589 0032 1B78     		ldrb	r3, [r3]
 590 0034 1278     		ldrb	r2, [r2]
 591 0036 1B02     		lsls	r3, r3, #8
 592 0038 1343     		orrs	r3, r2
 593              	.LVL68:
 342:Generated_Source\PSoC4/BLE_HAL_PVT.c **** 
 343:Generated_Source\PSoC4/BLE_HAL_PVT.c ****     if ((trimRegValue == CYBLE_SFLASH_BLERD_BB_XO_REG_VAL1) || (trimRegValue == CYBLE_SFLASH_BLERD_
 594              		.loc 1 343 0
 595 003a 2C4A     		ldr	r2, .L76+36
 596 003c 1342     		tst	r3, r2
 597 003e 00D1     		bne	.L68
 344:Generated_Source\PSoC4/BLE_HAL_PVT.c ****     {
 345:Generated_Source\PSoC4/BLE_HAL_PVT.c ****         trimRegValue = CYBLE_BLERD_BB_XO_REG_VAL_FINAL;
 598              		.loc 1 345 0
 599 0040 2B4B     		ldr	r3, .L76+40
 600              	.LVL69:
 601              	.L68:
 346:Generated_Source\PSoC4/BLE_HAL_PVT.c ****     }
 347:Generated_Source\PSoC4/BLE_HAL_PVT.c ****     
 348:Generated_Source\PSoC4/BLE_HAL_PVT.c ****     CYBLE_BLE_BLERD_BB_XO_REG = trimRegValue;
 602              		.loc 1 348 0
 603 0042 2C4A     		ldr	r2, .L76+44
 604 0044 1360     		str	r3, [r2]
 349:Generated_Source\PSoC4/BLE_HAL_PVT.c ****     
 350:Generated_Source\PSoC4/BLE_HAL_PVT.c ****     trimRegValue = ((uint32)CYBLE_SFLASH_BLESS_SY_BUMP1_HIGH_REG << 8u) | CYBLE_SFLASH_BLESS_SY_BUM
 605              		.loc 1 350 0
 606 0046 2C4B     		ldr	r3, .L76+48
 607              	.LVL70:
 608 0048 2C4A     		ldr	r2, .L76+52
 609              	.LVL71:
 610 004a 1B78     		ldrb	r3, [r3]
 611 004c 1278     		ldrb	r2, [r2]
 612 004e 1B02     		lsls	r3, r3, #8
 613 0050 1343     		orrs	r3, r2
 614              	.LVL72:
 351:Generated_Source\PSoC4/BLE_HAL_PVT.c **** 
 352:Generated_Source\PSoC4/BLE_HAL_PVT.c ****     if ((trimRegValue == CYBLE_SFLASH_BLERD_SY_BUMP1_REG_VAL1) || 
 615              		.loc 1 352 0
 616 0052 2B4A     		ldr	r2, .L76+56
ARM GAS  C:\Users\diego\AppData\Local\Temp\ccad7oEH.s 			page 19


 617 0054 9342     		cmp	r3, r2
 618 0056 0DD0     		beq	.L72
 619              		.loc 1 352 0 is_stmt 0 discriminator 1
 620 0058 2A4A     		ldr	r2, .L76+60
 621 005a 9342     		cmp	r3, r2
 622 005c 0AD0     		beq	.L72
 353:Generated_Source\PSoC4/BLE_HAL_PVT.c ****         (trimRegValue == CYBLE_SFLASH_BLERD_SY_BUMP1_REG_VAL2) ||  
 623              		.loc 1 353 0 is_stmt 1
 624 005e 052B     		cmp	r3, #5
 625 0060 08D0     		beq	.L72
 354:Generated_Source\PSoC4/BLE_HAL_PVT.c ****         (trimRegValue == CYBLE_SFLASH_BLERD_SY_BUMP1_REG_VAL3))
 355:Generated_Source\PSoC4/BLE_HAL_PVT.c ****     {
 356:Generated_Source\PSoC4/BLE_HAL_PVT.c ****         trimRegValue = CYBLE_BLERD_SY_BUMP1_REG_VAL_FINAL;
 357:Generated_Source\PSoC4/BLE_HAL_PVT.c ****     }
 358:Generated_Source\PSoC4/BLE_HAL_PVT.c ****     CYBLE_BLE_BLERD_SY_BUMP1_REG = trimRegValue;
 626              		.loc 1 358 0
 627 0062 294A     		ldr	r2, .L76+64
 628 0064 1360     		str	r3, [r2]
 359:Generated_Source\PSoC4/BLE_HAL_PVT.c **** 
 360:Generated_Source\PSoC4/BLE_HAL_PVT.c ****     /* Following code is for F02FN trimming */
 361:Generated_Source\PSoC4/BLE_HAL_PVT.c ****     siliconRev = (CYBLE_BLE_SILICON_REV_REG >> 4u);
 629              		.loc 1 361 0
 630 0066 294B     		ldr	r3, .L76+68
 631              	.LVL73:
 632 0068 1A68     		ldr	r2, [r3]
 633              	.LVL74:
 362:Generated_Source\PSoC4/BLE_HAL_PVT.c ****     
 363:Generated_Source\PSoC4/BLE_HAL_PVT.c ****     if((CYBLE_BLE_FAMILY_ID_REG == CYBLE_PSOC4A_BLE256DMA_FID) && (siliconRev >= 0x02u) &&
 634              		.loc 1 363 0
 635 006a 294B     		ldr	r3, .L76+72
 636 006c 1B68     		ldr	r3, [r3]
 637 006e AA2B     		cmp	r3, #170
 638 0070 09D0     		beq	.L75
 639              	.LVL75:
 640              	.L65:
 364:Generated_Source\PSoC4/BLE_HAL_PVT.c ****         (CYBLE_SFLASH_BLESS_SY_BUMP1_HIGH_REG == 0x0Eu))
 365:Generated_Source\PSoC4/BLE_HAL_PVT.c **** 	{
 366:Generated_Source\PSoC4/BLE_HAL_PVT.c **** 		trimRef34Val = ((uint16)(((uint16) CYBLE_BLE_BLESS_REG34_TRIM_HIGH_REG) << 8u)) |
 367:Generated_Source\PSoC4/BLE_HAL_PVT.c ****                         ((uint16)CYBLE_BLE_BLESS_REG34_TRIM_LOW_REG);
 368:Generated_Source\PSoC4/BLE_HAL_PVT.c **** 		CYBLE_BLERD_SY_BUMP2_REG = trimRef34Val;
 369:Generated_Source\PSoC4/BLE_HAL_PVT.c **** 	
 370:Generated_Source\PSoC4/BLE_HAL_PVT.c **** 		trimRef38Val = ((uint16)(((uint16)CYBLE_BLE_BLESS_REG38_TRIM_HIGH_REG) << 8u)) |
 371:Generated_Source\PSoC4/BLE_HAL_PVT.c ****             ((uint16) CYBLE_BLE_BLESS_REG38_TRIM_LOW_REG);
 372:Generated_Source\PSoC4/BLE_HAL_PVT.c **** 		CYBLE_BLERD_RX_BUMP2_REG = trimRef38Val;
 373:Generated_Source\PSoC4/BLE_HAL_PVT.c **** 	}
 374:Generated_Source\PSoC4/BLE_HAL_PVT.c **** }
 641              		.loc 1 374 0
 642              		@ sp needed
 643 0072 7047     		bx	lr
 644              	.LVL76:
 645              	.L72:
 356:Generated_Source\PSoC4/BLE_HAL_PVT.c ****     }
 646              		.loc 1 356 0
 647 0074 274B     		ldr	r3, .L76+76
 648              	.LVL77:
 358:Generated_Source\PSoC4/BLE_HAL_PVT.c **** 
 649              		.loc 1 358 0
ARM GAS  C:\Users\diego\AppData\Local\Temp\ccad7oEH.s 			page 20


 650 0076 244A     		ldr	r2, .L76+64
 651 0078 1360     		str	r3, [r2]
 361:Generated_Source\PSoC4/BLE_HAL_PVT.c ****     
 652              		.loc 1 361 0
 653 007a 244B     		ldr	r3, .L76+68
 654              	.LVL78:
 655 007c 1A68     		ldr	r2, [r3]
 656              	.LVL79:
 363:Generated_Source\PSoC4/BLE_HAL_PVT.c ****         (CYBLE_SFLASH_BLESS_SY_BUMP1_HIGH_REG == 0x0Eu))
 657              		.loc 1 363 0
 658 007e 244B     		ldr	r3, .L76+72
 659 0080 1B68     		ldr	r3, [r3]
 660 0082 AA2B     		cmp	r3, #170
 661 0084 F5D1     		bne	.L65
 662              	.LVL80:
 663              	.L75:
 363:Generated_Source\PSoC4/BLE_HAL_PVT.c ****         (CYBLE_SFLASH_BLESS_SY_BUMP1_HIGH_REG == 0x0Eu))
 664              		.loc 1 363 0 is_stmt 0 discriminator 1
 665 0086 1F2A     		cmp	r2, #31
 666 0088 F3D9     		bls	.L65
 364:Generated_Source\PSoC4/BLE_HAL_PVT.c **** 	{
 667              		.loc 1 364 0 is_stmt 1 discriminator 2
 668 008a 1B4B     		ldr	r3, .L76+48
 669 008c 1B78     		ldrb	r3, [r3]
 363:Generated_Source\PSoC4/BLE_HAL_PVT.c ****         (CYBLE_SFLASH_BLESS_SY_BUMP1_HIGH_REG == 0x0Eu))
 670              		.loc 1 363 0 discriminator 2
 671 008e 0E2B     		cmp	r3, #14
 672 0090 EFD1     		bne	.L65
 366:Generated_Source\PSoC4/BLE_HAL_PVT.c ****                         ((uint16)CYBLE_BLE_BLESS_REG34_TRIM_LOW_REG);
 673              		.loc 1 366 0
 674 0092 214B     		ldr	r3, .L76+80
 367:Generated_Source\PSoC4/BLE_HAL_PVT.c **** 		CYBLE_BLERD_SY_BUMP2_REG = trimRef34Val;
 675              		.loc 1 367 0
 676 0094 214A     		ldr	r2, .L76+84
 366:Generated_Source\PSoC4/BLE_HAL_PVT.c ****                         ((uint16)CYBLE_BLE_BLESS_REG34_TRIM_LOW_REG);
 677              		.loc 1 366 0
 678 0096 1B78     		ldrb	r3, [r3]
 367:Generated_Source\PSoC4/BLE_HAL_PVT.c **** 		CYBLE_BLERD_SY_BUMP2_REG = trimRef34Val;
 679              		.loc 1 367 0
 680 0098 1278     		ldrb	r2, [r2]
 681              	.LVL81:
 368:Generated_Source\PSoC4/BLE_HAL_PVT.c **** 	
 682              		.loc 1 368 0
 683 009a 1B02     		lsls	r3, r3, #8
 684              	.LVL82:
 685 009c 1343     		orrs	r3, r2
 686 009e 204A     		ldr	r2, .L76+88
 687 00a0 1360     		str	r3, [r2]
 370:Generated_Source\PSoC4/BLE_HAL_PVT.c ****             ((uint16) CYBLE_BLE_BLESS_REG38_TRIM_LOW_REG);
 688              		.loc 1 370 0
 689 00a2 204B     		ldr	r3, .L76+92
 371:Generated_Source\PSoC4/BLE_HAL_PVT.c **** 		CYBLE_BLERD_RX_BUMP2_REG = trimRef38Val;
 690              		.loc 1 371 0
 691 00a4 204A     		ldr	r2, .L76+96
 370:Generated_Source\PSoC4/BLE_HAL_PVT.c ****             ((uint16) CYBLE_BLE_BLESS_REG38_TRIM_LOW_REG);
 692              		.loc 1 370 0
 693 00a6 1B78     		ldrb	r3, [r3]
ARM GAS  C:\Users\diego\AppData\Local\Temp\ccad7oEH.s 			page 21


 371:Generated_Source\PSoC4/BLE_HAL_PVT.c **** 		CYBLE_BLERD_RX_BUMP2_REG = trimRef38Val;
 694              		.loc 1 371 0
 695 00a8 1278     		ldrb	r2, [r2]
 696              	.LVL83:
 372:Generated_Source\PSoC4/BLE_HAL_PVT.c **** 	}
 697              		.loc 1 372 0
 698 00aa 1B02     		lsls	r3, r3, #8
 699              	.LVL84:
 700 00ac 1343     		orrs	r3, r2
 701 00ae 1F4A     		ldr	r2, .L76+100
 702 00b0 1360     		str	r3, [r2]
 703              		.loc 1 374 0
 704 00b2 DEE7     		b	.L65
 705              	.LVL85:
 706              	.L74:
 329:Generated_Source\PSoC4/BLE_HAL_PVT.c ****     {
 707              		.loc 1 329 0 discriminator 1
 708 00b4 0429     		cmp	r1, #4
 709 00b6 B6D1     		bne	.L67
 331:Generated_Source\PSoC4/BLE_HAL_PVT.c ****     }
 710              		.loc 1 331 0
 711 00b8 1D4B     		ldr	r3, .L76+104
 712              	.LVL86:
 713 00ba B4E7     		b	.L67
 714              	.LVL87:
 715              	.L73:
 324:Generated_Source\PSoC4/BLE_HAL_PVT.c ****     {
 716              		.loc 1 324 0 discriminator 1
 717 00bc 0729     		cmp	r1, #7
 718 00be B2D1     		bne	.L67
 326:Generated_Source\PSoC4/BLE_HAL_PVT.c ****         trimRegValue = CYBLE_BLERD_BB_BUMP2_REG_VAL_FINAL;
 719              		.loc 1 326 0
 720 00c0 1B4B     		ldr	r3, .L76+104
 721              	.LVL88:
 327:Generated_Source\PSoC4/BLE_HAL_PVT.c ****     }
 722              		.loc 1 327 0
 723 00c2 0339     		subs	r1, r1, #3
 724              	.LVL89:
 725 00c4 AFE7     		b	.L67
 726              	.L77:
 727 00c6 C046     		.align	2
 728              	.L76:
 729 00c8 D9F0FF0F 		.word	268431577
 730 00cc DEF0FF0F 		.word	268431582
 731 00d0 D8F0FF0F 		.word	268431576
 732 00d4 DFF0FF0F 		.word	268431583
 733 00d8 580B0000 		.word	2904
 734 00dc 6C002E40 		.word	1076756588
 735 00e0 74002E40 		.word	1076756596
 736 00e4 DAF0FF0F 		.word	268431578
 737 00e8 DBF0FF0F 		.word	268431579
 738 00ec FFDFFFFF 		.word	-8193
 739 00f0 02200000 		.word	8194
 740 00f4 78002E40 		.word	1076756600
 741 00f8 DDF0FF0F 		.word	268431581
 742 00fc DCF0FF0F 		.word	268431580
 743 0100 0F0F0000 		.word	3855
ARM GAS  C:\Users\diego\AppData\Local\Temp\ccad7oEH.s 			page 22


 744 0104 05050000 		.word	1285
 745 0108 80002E40 		.word	1076756608
 746 010c EC0F00F0 		.word	-268431380
 747 0110 E00F00F0 		.word	-268431392
 748 0114 050F0000 		.word	3845
 749 0118 6DF2FF0F 		.word	268431981
 750 011c 6CF2FF0F 		.word	268431980
 751 0120 84002E40 		.word	1076756612
 752 0124 6FF2FF0F 		.word	268431983
 753 0128 6EF2FF0F 		.word	268431982
 754 012c 94002E40 		.word	1076756628
 755 0130 580D0000 		.word	3416
 756              		.cfi_endproc
 757              	.LFE8:
 758              		.size	CyBLE_BlessDeviceConfig, .-CyBLE_BlessDeviceConfig
 759              		.section	.text.CyBleHal_DelayUs,"ax",%progbits
 760              		.align	2
 761              		.global	CyBleHal_DelayUs
 762              		.code	16
 763              		.thumb_func
 764              		.type	CyBleHal_DelayUs, %function
 765              	CyBleHal_DelayUs:
 766              	.LFB9:
 375:Generated_Source\PSoC4/BLE_HAL_PVT.c **** 
 376:Generated_Source\PSoC4/BLE_HAL_PVT.c **** /* Interface to CyDelayUs function */
 377:Generated_Source\PSoC4/BLE_HAL_PVT.c **** void CyBleHal_DelayUs(uint16 delayVal)
 378:Generated_Source\PSoC4/BLE_HAL_PVT.c **** {
 767              		.loc 1 378 0
 768              		.cfi_startproc
 769              		@ args = 0, pretend = 0, frame = 0
 770              		@ frame_needed = 0, uses_anonymous_args = 0
 771              	.LVL90:
 772 0000 10B5     		push	{r4, lr}
 773              		.cfi_def_cfa_offset 8
 774              		.cfi_offset 4, -8
 775              		.cfi_offset 14, -4
 379:Generated_Source\PSoC4/BLE_HAL_PVT.c ****     CyDelayUs(delayVal);
 776              		.loc 1 379 0
 777 0002 FFF7FEFF 		bl	CyDelayUs
 778              	.LVL91:
 380:Generated_Source\PSoC4/BLE_HAL_PVT.c **** }
 779              		.loc 1 380 0
 780              		@ sp needed
 781 0006 10BD     		pop	{r4, pc}
 782              		.cfi_endproc
 783              	.LFE9:
 784              		.size	CyBleHal_DelayUs, .-CyBleHal_DelayUs
 785              		.section	.text.CyBleHal_DelayMs,"ax",%progbits
 786              		.align	2
 787              		.global	CyBleHal_DelayMs
 788              		.code	16
 789              		.thumb_func
 790              		.type	CyBleHal_DelayMs, %function
 791              	CyBleHal_DelayMs:
 792              	.LFB10:
 381:Generated_Source\PSoC4/BLE_HAL_PVT.c **** 
 382:Generated_Source\PSoC4/BLE_HAL_PVT.c **** /* Interface to CyDelay function */
ARM GAS  C:\Users\diego\AppData\Local\Temp\ccad7oEH.s 			page 23


 383:Generated_Source\PSoC4/BLE_HAL_PVT.c **** void CyBleHal_DelayMs(uint32 delayVal)
 384:Generated_Source\PSoC4/BLE_HAL_PVT.c **** {
 793              		.loc 1 384 0
 794              		.cfi_startproc
 795              		@ args = 0, pretend = 0, frame = 0
 796              		@ frame_needed = 0, uses_anonymous_args = 0
 797              	.LVL92:
 798 0000 10B5     		push	{r4, lr}
 799              		.cfi_def_cfa_offset 8
 800              		.cfi_offset 4, -8
 801              		.cfi_offset 14, -4
 385:Generated_Source\PSoC4/BLE_HAL_PVT.c ****     CyDelay(delayVal);
 802              		.loc 1 385 0
 803 0002 FFF7FEFF 		bl	CyDelay
 804              	.LVL93:
 386:Generated_Source\PSoC4/BLE_HAL_PVT.c **** }
 805              		.loc 1 386 0
 806              		@ sp needed
 807 0006 10BD     		pop	{r4, pc}
 808              		.cfi_endproc
 809              	.LFE10:
 810              		.size	CyBleHal_DelayMs, .-CyBleHal_DelayMs
 811              		.section	.text.CyBleHal_EnableGlobalInterrupts,"ax",%progbits
 812              		.align	2
 813              		.global	CyBleHal_EnableGlobalInterrupts
 814              		.code	16
 815              		.thumb_func
 816              		.type	CyBleHal_EnableGlobalInterrupts, %function
 817              	CyBleHal_EnableGlobalInterrupts:
 818              	.LFB11:
 387:Generated_Source\PSoC4/BLE_HAL_PVT.c **** 
 388:Generated_Source\PSoC4/BLE_HAL_PVT.c **** /* Interface to BLE_bless_isr_Enable function */
 389:Generated_Source\PSoC4/BLE_HAL_PVT.c **** void CyBleHal_EnableGlobalInterrupts(void)
 390:Generated_Source\PSoC4/BLE_HAL_PVT.c **** {
 819              		.loc 1 390 0
 820              		.cfi_startproc
 821              		@ args = 0, pretend = 0, frame = 0
 822              		@ frame_needed = 0, uses_anonymous_args = 0
 823 0000 10B5     		push	{r4, lr}
 824              		.cfi_def_cfa_offset 8
 825              		.cfi_offset 4, -8
 826              		.cfi_offset 14, -4
 391:Generated_Source\PSoC4/BLE_HAL_PVT.c ****     BLE_bless_isr_Enable();
 827              		.loc 1 391 0
 828 0002 FFF7FEFF 		bl	BLE_bless_isr_Enable
 829              	.LVL94:
 392:Generated_Source\PSoC4/BLE_HAL_PVT.c **** }
 830              		.loc 1 392 0
 831              		@ sp needed
 832 0006 10BD     		pop	{r4, pc}
 833              		.cfi_endproc
 834              	.LFE11:
 835              		.size	CyBleHal_EnableGlobalInterrupts, .-CyBleHal_EnableGlobalInterrupts
 836              		.section	.text.CyBleHal_DisableGlobalInterrupts,"ax",%progbits
 837              		.align	2
 838              		.global	CyBleHal_DisableGlobalInterrupts
 839              		.code	16
ARM GAS  C:\Users\diego\AppData\Local\Temp\ccad7oEH.s 			page 24


 840              		.thumb_func
 841              		.type	CyBleHal_DisableGlobalInterrupts, %function
 842              	CyBleHal_DisableGlobalInterrupts:
 843              	.LFB12:
 393:Generated_Source\PSoC4/BLE_HAL_PVT.c **** 
 394:Generated_Source\PSoC4/BLE_HAL_PVT.c **** /* Interface to BLE_bless_isr_Disable function */
 395:Generated_Source\PSoC4/BLE_HAL_PVT.c **** void CyBleHal_DisableGlobalInterrupts(void)
 396:Generated_Source\PSoC4/BLE_HAL_PVT.c **** {
 844              		.loc 1 396 0
 845              		.cfi_startproc
 846              		@ args = 0, pretend = 0, frame = 0
 847              		@ frame_needed = 0, uses_anonymous_args = 0
 848 0000 10B5     		push	{r4, lr}
 849              		.cfi_def_cfa_offset 8
 850              		.cfi_offset 4, -8
 851              		.cfi_offset 14, -4
 397:Generated_Source\PSoC4/BLE_HAL_PVT.c ****     BLE_bless_isr_Disable();
 852              		.loc 1 397 0
 853 0002 FFF7FEFF 		bl	BLE_bless_isr_Disable
 854              	.LVL95:
 398:Generated_Source\PSoC4/BLE_HAL_PVT.c **** }
 855              		.loc 1 398 0
 856              		@ sp needed
 857 0006 10BD     		pop	{r4, pc}
 858              		.cfi_endproc
 859              	.LFE12:
 860              		.size	CyBleHal_DisableGlobalInterrupts, .-CyBleHal_DisableGlobalInterrupts
 861              		.section	.text.CyBle_HalInit,"ax",%progbits
 862              		.align	2
 863              		.global	CyBle_HalInit
 864              		.code	16
 865              		.thumb_func
 866              		.type	CyBle_HalInit, %function
 867              	CyBle_HalInit:
 868              	.LFB13:
 399:Generated_Source\PSoC4/BLE_HAL_PVT.c **** 
 400:Generated_Source\PSoC4/BLE_HAL_PVT.c **** /*******************************************************************************
 401:Generated_Source\PSoC4/BLE_HAL_PVT.c **** * Function Name: CyBle_HalInit
 402:Generated_Source\PSoC4/BLE_HAL_PVT.c **** ****************************************************************************//**
 403:Generated_Source\PSoC4/BLE_HAL_PVT.c **** *
 404:Generated_Source\PSoC4/BLE_HAL_PVT.c **** *  Initializes the BLESS interrupt.
 405:Generated_Source\PSoC4/BLE_HAL_PVT.c **** *
 406:Generated_Source\PSoC4/BLE_HAL_PVT.c **** * \return
 407:Generated_Source\PSoC4/BLE_HAL_PVT.c **** *  None
 408:Generated_Source\PSoC4/BLE_HAL_PVT.c **** *
 409:Generated_Source\PSoC4/BLE_HAL_PVT.c **** *******************************************************************************/
 410:Generated_Source\PSoC4/BLE_HAL_PVT.c **** void CyBle_HalInit(void)
 411:Generated_Source\PSoC4/BLE_HAL_PVT.c **** {
 869              		.loc 1 411 0
 870              		.cfi_startproc
 871              		@ args = 0, pretend = 0, frame = 0
 872              		@ frame_needed = 0, uses_anonymous_args = 0
 873 0000 10B5     		push	{r4, lr}
 874              		.cfi_def_cfa_offset 8
 875              		.cfi_offset 4, -8
 876              		.cfi_offset 14, -4
 412:Generated_Source\PSoC4/BLE_HAL_PVT.c ****     /* For all we know the interrupt is active. */
ARM GAS  C:\Users\diego\AppData\Local\Temp\ccad7oEH.s 			page 25


 413:Generated_Source\PSoC4/BLE_HAL_PVT.c ****     BLE_bless_isr_Disable();
 877              		.loc 1 413 0
 878 0002 FFF7FEFF 		bl	BLE_bless_isr_Disable
 879              	.LVL96:
 414:Generated_Source\PSoC4/BLE_HAL_PVT.c **** 
 415:Generated_Source\PSoC4/BLE_HAL_PVT.c ****     /* Set the ISR to point to the BLE_bless_isr Interrupt. */
 416:Generated_Source\PSoC4/BLE_HAL_PVT.c ****     BLE_bless_isr_SetVector(&CyBLE_Bless_Interrupt);
 880              		.loc 1 416 0
 881 0006 0348     		ldr	r0, .L83
 882 0008 FFF7FEFF 		bl	BLE_bless_isr_SetVector
 883              	.LVL97:
 417:Generated_Source\PSoC4/BLE_HAL_PVT.c **** 
 418:Generated_Source\PSoC4/BLE_HAL_PVT.c ****     /* Set the priority. */
 419:Generated_Source\PSoC4/BLE_HAL_PVT.c ****     BLE_bless_isr_SetPriority((uint8)BLE_bless_isr_INTC_PRIOR_NUMBER);
 884              		.loc 1 419 0
 885 000c 0020     		movs	r0, #0
 886 000e FFF7FEFF 		bl	BLE_bless_isr_SetPriority
 887              	.LVL98:
 420:Generated_Source\PSoC4/BLE_HAL_PVT.c **** }
 888              		.loc 1 420 0
 889              		@ sp needed
 890 0012 10BD     		pop	{r4, pc}
 891              	.L84:
 892              		.align	2
 893              	.L83:
 894 0014 00000000 		.word	CyBLE_Bless_Interrupt
 895              		.cfi_endproc
 896              	.LFE13:
 897              		.size	CyBle_HalInit, .-CyBle_HalInit
 898              		.section	.text.CYBLE_BlessStart,"ax",%progbits
 899              		.align	2
 900              		.global	CYBLE_BlessStart
 901              		.code	16
 902              		.thumb_func
 903              		.type	CYBLE_BlessStart, %function
 904              	CYBLE_BlessStart:
 905              	.LFB14:
 421:Generated_Source\PSoC4/BLE_HAL_PVT.c **** 
 422:Generated_Source\PSoC4/BLE_HAL_PVT.c **** 
 423:Generated_Source\PSoC4/BLE_HAL_PVT.c **** /*******************************************************************************
 424:Generated_Source\PSoC4/BLE_HAL_PVT.c **** * Function Name: CYBLE_BlessStart
 425:Generated_Source\PSoC4/BLE_HAL_PVT.c **** ****************************************************************************//**
 426:Generated_Source\PSoC4/BLE_HAL_PVT.c **** *
 427:Generated_Source\PSoC4/BLE_HAL_PVT.c **** *  Start Interrupt Controller API.
 428:Generated_Source\PSoC4/BLE_HAL_PVT.c **** *
 429:Generated_Source\PSoC4/BLE_HAL_PVT.c **** * \return
 430:Generated_Source\PSoC4/BLE_HAL_PVT.c **** *  None
 431:Generated_Source\PSoC4/BLE_HAL_PVT.c **** *
 432:Generated_Source\PSoC4/BLE_HAL_PVT.c **** *******************************************************************************/
 433:Generated_Source\PSoC4/BLE_HAL_PVT.c **** void CYBLE_BlessStart(void)
 434:Generated_Source\PSoC4/BLE_HAL_PVT.c **** {
 906              		.loc 1 434 0
 907              		.cfi_startproc
 908              		@ args = 0, pretend = 0, frame = 0
 909              		@ frame_needed = 0, uses_anonymous_args = 0
 910 0000 10B5     		push	{r4, lr}
 911              		.cfi_def_cfa_offset 8
ARM GAS  C:\Users\diego\AppData\Local\Temp\ccad7oEH.s 			page 26


 912              		.cfi_offset 4, -8
 913              		.cfi_offset 14, -4
 435:Generated_Source\PSoC4/BLE_HAL_PVT.c ****     BLE_bless_isr_StartEx(&CyBLE_Bless_Interrupt);
 914              		.loc 1 435 0
 915 0002 0248     		ldr	r0, .L86
 916 0004 FFF7FEFF 		bl	BLE_bless_isr_StartEx
 917              	.LVL99:
 436:Generated_Source\PSoC4/BLE_HAL_PVT.c **** }
 918              		.loc 1 436 0
 919              		@ sp needed
 920 0008 10BD     		pop	{r4, pc}
 921              	.L87:
 922 000a C046     		.align	2
 923              	.L86:
 924 000c 00000000 		.word	CyBLE_Bless_Interrupt
 925              		.cfi_endproc
 926              	.LFE14:
 927              		.size	CYBLE_BlessStart, .-CYBLE_BlessStart
 928              		.section	.text.CyBLE_GetIpBlockVersion,"ax",%progbits
 929              		.align	2
 930              		.global	CyBLE_GetIpBlockVersion
 931              		.code	16
 932              		.thumb_func
 933              		.type	CyBLE_GetIpBlockVersion, %function
 934              	CyBLE_GetIpBlockVersion:
 935              	.LFB15:
 437:Generated_Source\PSoC4/BLE_HAL_PVT.c **** 
 438:Generated_Source\PSoC4/BLE_HAL_PVT.c **** 
 439:Generated_Source\PSoC4/BLE_HAL_PVT.c **** /*******************************************************************************
 440:Generated_Source\PSoC4/BLE_HAL_PVT.c **** * Function Name: CyBLE_GetIpBlockVersion
 441:Generated_Source\PSoC4/BLE_HAL_PVT.c **** ****************************************************************************//**
 442:Generated_Source\PSoC4/BLE_HAL_PVT.c **** *
 443:Generated_Source\PSoC4/BLE_HAL_PVT.c **** * This API returns the version of m0s8bless ip block.
 444:Generated_Source\PSoC4/BLE_HAL_PVT.c **** *
 445:Generated_Source\PSoC4/BLE_HAL_PVT.c **** * \return
 446:Generated_Source\PSoC4/BLE_HAL_PVT.c **** * uint32 bits:
 447:Generated_Source\PSoC4/BLE_HAL_PVT.c **** * 7:0 - ip version ( 1 - BLE_ver1, 2 - BLE_ver2, 3 - BLE_ver3 )
 448:Generated_Source\PSoC4/BLE_HAL_PVT.c **** * 15:8 - flash size ( 0 - 128k, 1 - 256k )
 449:Generated_Source\PSoC4/BLE_HAL_PVT.c **** * 16 - PSVP device
 450:Generated_Source\PSoC4/BLE_HAL_PVT.c **** * 31:17 - reserved for future usage
 451:Generated_Source\PSoC4/BLE_HAL_PVT.c **** *
 452:Generated_Source\PSoC4/BLE_HAL_PVT.c **** *******************************************************************************/
 453:Generated_Source\PSoC4/BLE_HAL_PVT.c **** uint32 CyBLE_GetIpBlockVersion(void)
 454:Generated_Source\PSoC4/BLE_HAL_PVT.c **** {
 936              		.loc 1 454 0
 937              		.cfi_startproc
 938              		@ args = 0, pretend = 0, frame = 0
 939              		@ frame_needed = 0, uses_anonymous_args = 0
 940              		@ link register save eliminated.
 455:Generated_Source\PSoC4/BLE_HAL_PVT.c ****     return(((uint32)CYBLE_M0S8BLESS_VERSION) | ((uint32)((uint32)CYBLE_FLASH_SIZE) << 8u) |
 456:Generated_Source\PSoC4/BLE_HAL_PVT.c ****         ((uint32)(((uint32)CYBLE_PSVP_DEVICE)) << 16u));
 457:Generated_Source\PSoC4/BLE_HAL_PVT.c **** }
 941              		.loc 1 457 0
 942 0000 0220     		movs	r0, #2
 943              		@ sp needed
 944 0002 FF30     		adds	r0, r0, #255
 945 0004 7047     		bx	lr
ARM GAS  C:\Users\diego\AppData\Local\Temp\ccad7oEH.s 			page 27


 946              		.cfi_endproc
 947              	.LFE15:
 948              		.size	CyBLE_GetIpBlockVersion, .-CyBLE_GetIpBlockVersion
 949 0006 C046     		.section	.text.CyBle_Hal_pairing_local_public_key_handler,"ax",%progbits
 950              		.align	2
 951              		.global	CyBle_Hal_pairing_local_public_key_handler
 952              		.code	16
 953              		.thumb_func
 954              		.type	CyBle_Hal_pairing_local_public_key_handler, %function
 955              	CyBle_Hal_pairing_local_public_key_handler:
 956              	.LFB54:
 957              		.cfi_startproc
 958              		@ args = 0, pretend = 0, frame = 0
 959              		@ frame_needed = 0, uses_anonymous_args = 0
 960              		@ link register save eliminated.
 961 0000 2B20     		movs	r0, #43
 962              		@ sp needed
 963 0002 7047     		bx	lr
 964              		.cfi_endproc
 965              	.LFE54:
 966              		.size	CyBle_Hal_pairing_local_public_key_handler, .-CyBle_Hal_pairing_local_public_key_handler
 967              		.section	.text.CyBle_Hal_pairing_remote_key_handler,"ax",%progbits
 968              		.align	2
 969              		.global	CyBle_Hal_pairing_remote_key_handler
 970              		.code	16
 971              		.thumb_func
 972              		.type	CyBle_Hal_pairing_remote_key_handler, %function
 973              	CyBle_Hal_pairing_remote_key_handler:
 974              	.LFB52:
 975              		.cfi_startproc
 976              		@ args = 0, pretend = 0, frame = 0
 977              		@ frame_needed = 0, uses_anonymous_args = 0
 978              		@ link register save eliminated.
 979 0000 2B20     		movs	r0, #43
 980              		@ sp needed
 981 0002 7047     		bx	lr
 982              		.cfi_endproc
 983              	.LFE52:
 984              		.size	CyBle_Hal_pairing_remote_key_handler, .-CyBle_Hal_pairing_remote_key_handler
 985              		.section	.text.CyBle_Hal_pairing_dhkey_handler,"ax",%progbits
 986              		.align	2
 987              		.global	CyBle_Hal_pairing_dhkey_handler
 988              		.code	16
 989              		.thumb_func
 990              		.type	CyBle_Hal_pairing_dhkey_handler, %function
 991              	CyBle_Hal_pairing_dhkey_handler:
 992              	.LFB50:
 993              		.cfi_startproc
 994              		@ args = 0, pretend = 0, frame = 0
 995              		@ frame_needed = 0, uses_anonymous_args = 0
 996              		@ link register save eliminated.
 997 0000 2B20     		movs	r0, #43
 998              		@ sp needed
 999 0002 7047     		bx	lr
 1000              		.cfi_endproc
 1001              	.LFE50:
 1002              		.size	CyBle_Hal_pairing_dhkey_handler, .-CyBle_Hal_pairing_dhkey_handler
ARM GAS  C:\Users\diego\AppData\Local\Temp\ccad7oEH.s 			page 28


 1003              		.section	.text.CyBle_Hal_pairing_dhkey_check_handler,"ax",%progbits
 1004              		.align	2
 1005              		.global	CyBle_Hal_pairing_dhkey_check_handler
 1006              		.code	16
 1007              		.thumb_func
 1008              		.type	CyBle_Hal_pairing_dhkey_check_handler, %function
 1009              	CyBle_Hal_pairing_dhkey_check_handler:
 1010              	.LFB48:
 1011              		.cfi_startproc
 1012              		@ args = 0, pretend = 0, frame = 0
 1013              		@ frame_needed = 0, uses_anonymous_args = 0
 1014              		@ link register save eliminated.
 1015 0000 2B20     		movs	r0, #43
 1016              		@ sp needed
 1017 0002 7047     		bx	lr
 1018              		.cfi_endproc
 1019              	.LFE48:
 1020              		.size	CyBle_Hal_pairing_dhkey_check_handler, .-CyBle_Hal_pairing_dhkey_check_handler
 1021              		.section	.text.CyBle_Hal_pairing_keypress_notification_handler,"ax",%progbits
 1022              		.align	2
 1023              		.global	CyBle_Hal_pairing_keypress_notification_handler
 1024              		.code	16
 1025              		.thumb_func
 1026              		.type	CyBle_Hal_pairing_keypress_notification_handler, %function
 1027              	CyBle_Hal_pairing_keypress_notification_handler:
 1028              	.LFB46:
 1029              		.cfi_startproc
 1030              		@ args = 0, pretend = 0, frame = 0
 1031              		@ frame_needed = 0, uses_anonymous_args = 0
 1032              		@ link register save eliminated.
 1033 0000 2B20     		movs	r0, #43
 1034              		@ sp needed
 1035 0002 7047     		bx	lr
 1036              		.cfi_endproc
 1037              	.LFE46:
 1038              		.size	CyBle_Hal_pairing_keypress_notification_handler, .-CyBle_Hal_pairing_keypress_notification_h
 1039              		.section	.text.CyBle_Hal_pairing_rand_handler,"ax",%progbits
 1040              		.align	2
 1041              		.global	CyBle_Hal_pairing_rand_handler
 1042              		.code	16
 1043              		.thumb_func
 1044              		.type	CyBle_Hal_pairing_rand_handler, %function
 1045              	CyBle_Hal_pairing_rand_handler:
 1046              	.LFB44:
 1047              		.cfi_startproc
 1048              		@ args = 0, pretend = 0, frame = 0
 1049              		@ frame_needed = 0, uses_anonymous_args = 0
 1050              		@ link register save eliminated.
 1051 0000 2B20     		movs	r0, #43
 1052              		@ sp needed
 1053 0002 7047     		bx	lr
 1054              		.cfi_endproc
 1055              	.LFE44:
 1056              		.size	CyBle_Hal_pairing_rand_handler, .-CyBle_Hal_pairing_rand_handler
 1057              		.section	.text.CyBle_Hal_pairing_confirm_handler,"ax",%progbits
 1058              		.align	2
 1059              		.global	CyBle_Hal_pairing_confirm_handler
ARM GAS  C:\Users\diego\AppData\Local\Temp\ccad7oEH.s 			page 29


 1060              		.code	16
 1061              		.thumb_func
 1062              		.type	CyBle_Hal_pairing_confirm_handler, %function
 1063              	CyBle_Hal_pairing_confirm_handler:
 1064              	.LFB42:
 1065              		.cfi_startproc
 1066              		@ args = 0, pretend = 0, frame = 0
 1067              		@ frame_needed = 0, uses_anonymous_args = 0
 1068              		@ link register save eliminated.
 1069 0000 2B20     		movs	r0, #43
 1070              		@ sp needed
 1071 0002 7047     		bx	lr
 1072              		.cfi_endproc
 1073              	.LFE42:
 1074              		.size	CyBle_Hal_pairing_confirm_handler, .-CyBle_Hal_pairing_confirm_handler
 1075              		.section	.text.CyBle_Hal_pairing_lr_confirming_handler,"ax",%progbits
 1076              		.align	2
 1077              		.global	CyBle_Hal_pairing_lr_confirming_handler
 1078              		.code	16
 1079              		.thumb_func
 1080              		.type	CyBle_Hal_pairing_lr_confirming_handler, %function
 1081              	CyBle_Hal_pairing_lr_confirming_handler:
 1082              	.LFB40:
 1083              		.cfi_startproc
 1084              		@ args = 0, pretend = 0, frame = 0
 1085              		@ frame_needed = 0, uses_anonymous_args = 0
 1086              		@ link register save eliminated.
 1087 0000 2B20     		movs	r0, #43
 1088              		@ sp needed
 1089 0002 7047     		bx	lr
 1090              		.cfi_endproc
 1091              	.LFE40:
 1092              		.size	CyBle_Hal_pairing_lr_confirming_handler, .-CyBle_Hal_pairing_lr_confirming_handler
 1093              		.section	.text.CyBle_Hal_pairing_sc_tbx_dhkey_generate_complete,"ax",%progbits
 1094              		.align	2
 1095              		.global	CyBle_Hal_pairing_sc_tbx_dhkey_generate_complete
 1096              		.code	16
 1097              		.thumb_func
 1098              		.type	CyBle_Hal_pairing_sc_tbx_dhkey_generate_complete, %function
 1099              	CyBle_Hal_pairing_sc_tbx_dhkey_generate_complete:
 1100              	.LFB24:
 458:Generated_Source\PSoC4/BLE_HAL_PVT.c **** 
 459:Generated_Source\PSoC4/BLE_HAL_PVT.c **** /* Mapping functions for stack size optimization */
 460:Generated_Source\PSoC4/BLE_HAL_PVT.c **** #if(CYBLE_MODE_PROFILE)
 461:Generated_Source\PSoC4/BLE_HAL_PVT.c ****     
 462:Generated_Source\PSoC4/BLE_HAL_PVT.c **** #if(CYBLE_SECURE_CONN_FEATURE_ENABLED)
 463:Generated_Source\PSoC4/BLE_HAL_PVT.c ****     
 464:Generated_Source\PSoC4/BLE_HAL_PVT.c ****     CYBLE_API_RESULT_T CyBle_Hal_pairing_local_public_key_handler(void *param)
 465:Generated_Source\PSoC4/BLE_HAL_PVT.c ****     {
 466:Generated_Source\PSoC4/BLE_HAL_PVT.c ****         return (CyBle_Hal_mapping_pairing_local_public_key_handler(param));
 467:Generated_Source\PSoC4/BLE_HAL_PVT.c ****     }
 468:Generated_Source\PSoC4/BLE_HAL_PVT.c ****      
 469:Generated_Source\PSoC4/BLE_HAL_PVT.c ****     CYBLE_API_RESULT_T CyBle_Hal_pairing_remote_key_handler(void *param)
 470:Generated_Source\PSoC4/BLE_HAL_PVT.c ****     {
 471:Generated_Source\PSoC4/BLE_HAL_PVT.c ****         return (CyBle_Hal_mapping_pairing_remote_key_handler(param));
 472:Generated_Source\PSoC4/BLE_HAL_PVT.c ****     }
 473:Generated_Source\PSoC4/BLE_HAL_PVT.c ****      
ARM GAS  C:\Users\diego\AppData\Local\Temp\ccad7oEH.s 			page 30


 474:Generated_Source\PSoC4/BLE_HAL_PVT.c ****     CYBLE_API_RESULT_T CyBle_Hal_pairing_dhkey_handler(void *param)
 475:Generated_Source\PSoC4/BLE_HAL_PVT.c ****     {
 476:Generated_Source\PSoC4/BLE_HAL_PVT.c ****         return (CyBle_Hal_mapping_pairing_dhkey_handler(param));
 477:Generated_Source\PSoC4/BLE_HAL_PVT.c ****     }
 478:Generated_Source\PSoC4/BLE_HAL_PVT.c **** 
 479:Generated_Source\PSoC4/BLE_HAL_PVT.c ****     CYBLE_API_RESULT_T CyBle_Hal_pairing_dhkey_check_handler(void *param)
 480:Generated_Source\PSoC4/BLE_HAL_PVT.c ****     {
 481:Generated_Source\PSoC4/BLE_HAL_PVT.c ****         return (CyBle_Hal_mapping_pairing_dhkey_check_handler(param));
 482:Generated_Source\PSoC4/BLE_HAL_PVT.c ****     }
 483:Generated_Source\PSoC4/BLE_HAL_PVT.c **** 
 484:Generated_Source\PSoC4/BLE_HAL_PVT.c ****     CYBLE_API_RESULT_T CyBle_Hal_pairing_keypress_notification_handler(void *param)
 485:Generated_Source\PSoC4/BLE_HAL_PVT.c ****     {
 486:Generated_Source\PSoC4/BLE_HAL_PVT.c ****         return (CyBle_Hal_mapping_pairing_keypress_notification_handler(param));
 487:Generated_Source\PSoC4/BLE_HAL_PVT.c ****     }
 488:Generated_Source\PSoC4/BLE_HAL_PVT.c **** 
 489:Generated_Source\PSoC4/BLE_HAL_PVT.c ****     CYBLE_API_RESULT_T CyBle_Hal_pairing_rand_handler(void *param)
 490:Generated_Source\PSoC4/BLE_HAL_PVT.c ****     {
 491:Generated_Source\PSoC4/BLE_HAL_PVT.c ****         return (CyBle_Hal_mapping_pairing_rand_handler(param));
 492:Generated_Source\PSoC4/BLE_HAL_PVT.c ****     }
 493:Generated_Source\PSoC4/BLE_HAL_PVT.c **** 
 494:Generated_Source\PSoC4/BLE_HAL_PVT.c ****     CYBLE_API_RESULT_T CyBle_Hal_pairing_confirm_handler(void *param)
 495:Generated_Source\PSoC4/BLE_HAL_PVT.c ****     {
 496:Generated_Source\PSoC4/BLE_HAL_PVT.c ****         return (CyBle_Hal_mapping_pairing_confirm_handler(param));
 497:Generated_Source\PSoC4/BLE_HAL_PVT.c ****     }
 498:Generated_Source\PSoC4/BLE_HAL_PVT.c **** 
 499:Generated_Source\PSoC4/BLE_HAL_PVT.c ****     CYBLE_API_RESULT_T CyBle_Hal_pairing_lr_confirming_handler(void *param)
 500:Generated_Source\PSoC4/BLE_HAL_PVT.c ****     {
 501:Generated_Source\PSoC4/BLE_HAL_PVT.c ****         return (CyBle_Hal_mapping_pairing_lr_confirming_handler(param));
 502:Generated_Source\PSoC4/BLE_HAL_PVT.c ****     }
 503:Generated_Source\PSoC4/BLE_HAL_PVT.c ****     
 504:Generated_Source\PSoC4/BLE_HAL_PVT.c ****     CYBLE_API_RESULT_T CyBle_Hal_pairing_sc_tbx_dhkey_generate_complete(void* param)
 505:Generated_Source\PSoC4/BLE_HAL_PVT.c ****     {
 506:Generated_Source\PSoC4/BLE_HAL_PVT.c ****         CyBle_Hal_mapping_tbx_dhkey_generate_complete(param);
 507:Generated_Source\PSoC4/BLE_HAL_PVT.c ****         return (CYBLE_ERROR_OK);
 508:Generated_Source\PSoC4/BLE_HAL_PVT.c ****     }
 509:Generated_Source\PSoC4/BLE_HAL_PVT.c **** 
 510:Generated_Source\PSoC4/BLE_HAL_PVT.c ****     CYBLE_API_RESULT_T CyBle_Hal_pairing_sc_tbx_local_pubkey_generate_complete(void)
 511:Generated_Source\PSoC4/BLE_HAL_PVT.c ****     {
 512:Generated_Source\PSoC4/BLE_HAL_PVT.c ****         CyBle_Hal_mapping_tbx_local_pubkey_generate_complete();
 513:Generated_Source\PSoC4/BLE_HAL_PVT.c ****         return (CYBLE_ERROR_OK);
 514:Generated_Source\PSoC4/BLE_HAL_PVT.c ****     }
 515:Generated_Source\PSoC4/BLE_HAL_PVT.c **** 
 516:Generated_Source\PSoC4/BLE_HAL_PVT.c ****     CYBLE_API_RESULT_T CyBle_Hal_pairing_sc_tbx_generate_local_P256_public_key(uint8 param)
 517:Generated_Source\PSoC4/BLE_HAL_PVT.c ****     {
 518:Generated_Source\PSoC4/BLE_HAL_PVT.c ****         return (CyBle_Hal_mapping_tbx_generate_local_P256_public_key(param));
 519:Generated_Source\PSoC4/BLE_HAL_PVT.c ****     }
 520:Generated_Source\PSoC4/BLE_HAL_PVT.c **** 
 521:Generated_Source\PSoC4/BLE_HAL_PVT.c ****     CYBLE_API_RESULT_T CyBle_Hal_pairing_sc_tbx_generate_DHkey(void  * param1, void  * param2)
 522:Generated_Source\PSoC4/BLE_HAL_PVT.c ****     {
 523:Generated_Source\PSoC4/BLE_HAL_PVT.c ****         return (CyBle_Hal_mapping_tbx_generate_DHkey(param1, param2));
 524:Generated_Source\PSoC4/BLE_HAL_PVT.c ****     }
 525:Generated_Source\PSoC4/BLE_HAL_PVT.c **** 
 526:Generated_Source\PSoC4/BLE_HAL_PVT.c ****     void CyBle_Hal_smp_sc_cmac_complete(void)
 527:Generated_Source\PSoC4/BLE_HAL_PVT.c ****     {
 528:Generated_Source\PSoC4/BLE_HAL_PVT.c ****        CyBle_Hal_Mapping_smp_sc_cmac_complete();
 529:Generated_Source\PSoC4/BLE_HAL_PVT.c ****     }
 530:Generated_Source\PSoC4/BLE_HAL_PVT.c **** 
ARM GAS  C:\Users\diego\AppData\Local\Temp\ccad7oEH.s 			page 31


 531:Generated_Source\PSoC4/BLE_HAL_PVT.c ****     CYBLE_API_RESULT_T CyBle_Hal_se_smp_sc_user_passkey_handler(void *param1, void *param2)
 532:Generated_Source\PSoC4/BLE_HAL_PVT.c ****     {
 533:Generated_Source\PSoC4/BLE_HAL_PVT.c ****         return (CyBle_Hal_mapping_se_smp_sc_user_passkey_handler(param1, param2));
 534:Generated_Source\PSoC4/BLE_HAL_PVT.c ****     }
 535:Generated_Source\PSoC4/BLE_HAL_PVT.c **** 
 536:Generated_Source\PSoC4/BLE_HAL_PVT.c ****     void CyBle_Hal_EccPointMult(void)
 537:Generated_Source\PSoC4/BLE_HAL_PVT.c ****     {
 538:Generated_Source\PSoC4/BLE_HAL_PVT.c ****         CyBle_Hal_Mapping_EccPointMult();
 539:Generated_Source\PSoC4/BLE_HAL_PVT.c ****     }
 540:Generated_Source\PSoC4/BLE_HAL_PVT.c ****     
 541:Generated_Source\PSoC4/BLE_HAL_PVT.c **** #else     /* If feature is not required, return error. */
 542:Generated_Source\PSoC4/BLE_HAL_PVT.c ****     
 543:Generated_Source\PSoC4/BLE_HAL_PVT.c ****     CYBLE_API_RESULT_T CyBle_Hal_pairing_local_public_key_handler(void *param CYBLE_UNUSED_ATTR)
 544:Generated_Source\PSoC4/BLE_HAL_PVT.c ****     {
 545:Generated_Source\PSoC4/BLE_HAL_PVT.c ****         return (CYBLE_ERROR_UNSUPPORTED_FEATURE_OR_PARAMETER_VALUE);
 546:Generated_Source\PSoC4/BLE_HAL_PVT.c ****     }
 547:Generated_Source\PSoC4/BLE_HAL_PVT.c ****      
 548:Generated_Source\PSoC4/BLE_HAL_PVT.c ****     CYBLE_API_RESULT_T CyBle_Hal_pairing_remote_key_handler(void *param CYBLE_UNUSED_ATTR)
 549:Generated_Source\PSoC4/BLE_HAL_PVT.c ****     {
 550:Generated_Source\PSoC4/BLE_HAL_PVT.c ****         return (CYBLE_ERROR_UNSUPPORTED_FEATURE_OR_PARAMETER_VALUE);
 551:Generated_Source\PSoC4/BLE_HAL_PVT.c ****     }
 552:Generated_Source\PSoC4/BLE_HAL_PVT.c ****      
 553:Generated_Source\PSoC4/BLE_HAL_PVT.c ****     CYBLE_API_RESULT_T CyBle_Hal_pairing_dhkey_handler(void *param CYBLE_UNUSED_ATTR)
 554:Generated_Source\PSoC4/BLE_HAL_PVT.c ****     {
 555:Generated_Source\PSoC4/BLE_HAL_PVT.c ****         return (CYBLE_ERROR_UNSUPPORTED_FEATURE_OR_PARAMETER_VALUE);
 556:Generated_Source\PSoC4/BLE_HAL_PVT.c ****     }
 557:Generated_Source\PSoC4/BLE_HAL_PVT.c **** 
 558:Generated_Source\PSoC4/BLE_HAL_PVT.c ****     CYBLE_API_RESULT_T CyBle_Hal_pairing_dhkey_check_handler(void *param CYBLE_UNUSED_ATTR)
 559:Generated_Source\PSoC4/BLE_HAL_PVT.c ****     {
 560:Generated_Source\PSoC4/BLE_HAL_PVT.c ****         return (CYBLE_ERROR_UNSUPPORTED_FEATURE_OR_PARAMETER_VALUE);
 561:Generated_Source\PSoC4/BLE_HAL_PVT.c ****     }
 562:Generated_Source\PSoC4/BLE_HAL_PVT.c **** 
 563:Generated_Source\PSoC4/BLE_HAL_PVT.c ****     CYBLE_API_RESULT_T CyBle_Hal_pairing_keypress_notification_handler(void *param CYBLE_UNUSED_ATT
 564:Generated_Source\PSoC4/BLE_HAL_PVT.c ****     {
 565:Generated_Source\PSoC4/BLE_HAL_PVT.c ****         return (CYBLE_ERROR_UNSUPPORTED_FEATURE_OR_PARAMETER_VALUE);
 566:Generated_Source\PSoC4/BLE_HAL_PVT.c ****     }
 567:Generated_Source\PSoC4/BLE_HAL_PVT.c **** 
 568:Generated_Source\PSoC4/BLE_HAL_PVT.c ****     CYBLE_API_RESULT_T CyBle_Hal_pairing_rand_handler(void *param CYBLE_UNUSED_ATTR)
 569:Generated_Source\PSoC4/BLE_HAL_PVT.c ****     {
 570:Generated_Source\PSoC4/BLE_HAL_PVT.c ****         return (CYBLE_ERROR_UNSUPPORTED_FEATURE_OR_PARAMETER_VALUE);
 571:Generated_Source\PSoC4/BLE_HAL_PVT.c ****     }
 572:Generated_Source\PSoC4/BLE_HAL_PVT.c ****     
 573:Generated_Source\PSoC4/BLE_HAL_PVT.c ****     CYBLE_API_RESULT_T CyBle_Hal_pairing_confirm_handler(void *param CYBLE_UNUSED_ATTR)
 574:Generated_Source\PSoC4/BLE_HAL_PVT.c ****     {
 575:Generated_Source\PSoC4/BLE_HAL_PVT.c ****         return (CYBLE_ERROR_UNSUPPORTED_FEATURE_OR_PARAMETER_VALUE);
 576:Generated_Source\PSoC4/BLE_HAL_PVT.c ****     }
 577:Generated_Source\PSoC4/BLE_HAL_PVT.c **** 
 578:Generated_Source\PSoC4/BLE_HAL_PVT.c ****     CYBLE_API_RESULT_T CyBle_Hal_pairing_lr_confirming_handler(void *param CYBLE_UNUSED_ATTR)
 579:Generated_Source\PSoC4/BLE_HAL_PVT.c ****     {
 580:Generated_Source\PSoC4/BLE_HAL_PVT.c ****         return (CYBLE_ERROR_UNSUPPORTED_FEATURE_OR_PARAMETER_VALUE);
 581:Generated_Source\PSoC4/BLE_HAL_PVT.c ****     }
 582:Generated_Source\PSoC4/BLE_HAL_PVT.c ****     
 583:Generated_Source\PSoC4/BLE_HAL_PVT.c ****     CYBLE_API_RESULT_T CyBle_Hal_pairing_sc_tbx_dhkey_generate_complete(void* param CYBLE_UNUSED_AT
 584:Generated_Source\PSoC4/BLE_HAL_PVT.c ****     {
 1101              		.loc 1 584 0
 1102              		.cfi_startproc
 1103              		@ args = 0, pretend = 0, frame = 0
ARM GAS  C:\Users\diego\AppData\Local\Temp\ccad7oEH.s 			page 32


 1104              		@ frame_needed = 0, uses_anonymous_args = 0
 1105              		@ link register save eliminated.
 1106              	.LVL100:
 585:Generated_Source\PSoC4/BLE_HAL_PVT.c ****         return (CYBLE_ERROR_UNSUPPORTED_FEATURE_OR_PARAMETER_VALUE);
 586:Generated_Source\PSoC4/BLE_HAL_PVT.c ****     }
 1107              		.loc 1 586 0
 1108 0000 2B20     		movs	r0, #43
 1109              	.LVL101:
 1110              		@ sp needed
 1111 0002 7047     		bx	lr
 1112              		.cfi_endproc
 1113              	.LFE24:
 1114              		.size	CyBle_Hal_pairing_sc_tbx_dhkey_generate_complete, .-CyBle_Hal_pairing_sc_tbx_dhkey_generate_
 1115              		.section	.text.CyBle_Hal_pairing_sc_tbx_local_pubkey_generate_complete,"ax",%progbits
 1116              		.align	2
 1117              		.global	CyBle_Hal_pairing_sc_tbx_local_pubkey_generate_complete
 1118              		.code	16
 1119              		.thumb_func
 1120              		.type	CyBle_Hal_pairing_sc_tbx_local_pubkey_generate_complete, %function
 1121              	CyBle_Hal_pairing_sc_tbx_local_pubkey_generate_complete:
 1122              	.LFB25:
 587:Generated_Source\PSoC4/BLE_HAL_PVT.c **** 
 588:Generated_Source\PSoC4/BLE_HAL_PVT.c ****     CYBLE_API_RESULT_T CyBle_Hal_pairing_sc_tbx_local_pubkey_generate_complete(void)
 589:Generated_Source\PSoC4/BLE_HAL_PVT.c ****     {
 1123              		.loc 1 589 0
 1124              		.cfi_startproc
 1125              		@ args = 0, pretend = 0, frame = 0
 1126              		@ frame_needed = 0, uses_anonymous_args = 0
 1127              		@ link register save eliminated.
 590:Generated_Source\PSoC4/BLE_HAL_PVT.c ****         return (CYBLE_ERROR_UNSUPPORTED_FEATURE_OR_PARAMETER_VALUE);
 591:Generated_Source\PSoC4/BLE_HAL_PVT.c ****     }
 1128              		.loc 1 591 0
 1129 0000 2B20     		movs	r0, #43
 1130              		@ sp needed
 1131 0002 7047     		bx	lr
 1132              		.cfi_endproc
 1133              	.LFE25:
 1134              		.size	CyBle_Hal_pairing_sc_tbx_local_pubkey_generate_complete, .-CyBle_Hal_pairing_sc_tbx_local_pu
 1135              		.section	.text.CyBle_Hal_pairing_sc_tbx_generate_local_P256_public_key,"ax",%progbits
 1136              		.align	2
 1137              		.global	CyBle_Hal_pairing_sc_tbx_generate_local_P256_public_key
 1138              		.code	16
 1139              		.thumb_func
 1140              		.type	CyBle_Hal_pairing_sc_tbx_generate_local_P256_public_key, %function
 1141              	CyBle_Hal_pairing_sc_tbx_generate_local_P256_public_key:
 1142              	.LFB26:
 592:Generated_Source\PSoC4/BLE_HAL_PVT.c **** 
 593:Generated_Source\PSoC4/BLE_HAL_PVT.c ****     CYBLE_API_RESULT_T CyBle_Hal_pairing_sc_tbx_generate_local_P256_public_key(uint8 param CYBLE_UN
 594:Generated_Source\PSoC4/BLE_HAL_PVT.c ****     {
 1143              		.loc 1 594 0
 1144              		.cfi_startproc
 1145              		@ args = 0, pretend = 0, frame = 0
 1146              		@ frame_needed = 0, uses_anonymous_args = 0
 1147              		@ link register save eliminated.
 1148              	.LVL102:
 595:Generated_Source\PSoC4/BLE_HAL_PVT.c ****         return (CYBLE_ERROR_UNSUPPORTED_FEATURE_OR_PARAMETER_VALUE);
 596:Generated_Source\PSoC4/BLE_HAL_PVT.c ****     }
ARM GAS  C:\Users\diego\AppData\Local\Temp\ccad7oEH.s 			page 33


 1149              		.loc 1 596 0
 1150 0000 2B20     		movs	r0, #43
 1151              	.LVL103:
 1152              		@ sp needed
 1153 0002 7047     		bx	lr
 1154              		.cfi_endproc
 1155              	.LFE26:
 1156              		.size	CyBle_Hal_pairing_sc_tbx_generate_local_P256_public_key, .-CyBle_Hal_pairing_sc_tbx_generate
 1157              		.section	.text.CyBle_Hal_pairing_sc_tbx_generate_DHkey,"ax",%progbits
 1158              		.align	2
 1159              		.global	CyBle_Hal_pairing_sc_tbx_generate_DHkey
 1160              		.code	16
 1161              		.thumb_func
 1162              		.type	CyBle_Hal_pairing_sc_tbx_generate_DHkey, %function
 1163              	CyBle_Hal_pairing_sc_tbx_generate_DHkey:
 1164              	.LFB38:
 1165              		.cfi_startproc
 1166              		@ args = 0, pretend = 0, frame = 0
 1167              		@ frame_needed = 0, uses_anonymous_args = 0
 1168              		@ link register save eliminated.
 1169 0000 2B20     		movs	r0, #43
 1170              		@ sp needed
 1171 0002 7047     		bx	lr
 1172              		.cfi_endproc
 1173              	.LFE38:
 1174              		.size	CyBle_Hal_pairing_sc_tbx_generate_DHkey, .-CyBle_Hal_pairing_sc_tbx_generate_DHkey
 1175              		.section	.text.CyBle_Hal_smp_sc_cmac_complete,"ax",%progbits
 1176              		.align	2
 1177              		.global	CyBle_Hal_smp_sc_cmac_complete
 1178              		.code	16
 1179              		.thumb_func
 1180              		.type	CyBle_Hal_smp_sc_cmac_complete, %function
 1181              	CyBle_Hal_smp_sc_cmac_complete:
 1182              	.LFB36:
 1183              		.cfi_startproc
 1184              		@ args = 0, pretend = 0, frame = 0
 1185              		@ frame_needed = 0, uses_anonymous_args = 0
 1186              		@ link register save eliminated.
 1187              		@ sp needed
 1188 0000 7047     		bx	lr
 1189              		.cfi_endproc
 1190              	.LFE36:
 1191              		.size	CyBle_Hal_smp_sc_cmac_complete, .-CyBle_Hal_smp_sc_cmac_complete
 1192 0002 C046     		.section	.text.CyBle_Hal_se_smp_sc_user_passkey_handler,"ax",%progbits
 1193              		.align	2
 1194              		.global	CyBle_Hal_se_smp_sc_user_passkey_handler
 1195              		.code	16
 1196              		.thumb_func
 1197              		.type	CyBle_Hal_se_smp_sc_user_passkey_handler, %function
 1198              	CyBle_Hal_se_smp_sc_user_passkey_handler:
 1199              	.LFB29:
 597:Generated_Source\PSoC4/BLE_HAL_PVT.c **** 
 598:Generated_Source\PSoC4/BLE_HAL_PVT.c ****     CYBLE_API_RESULT_T CyBle_Hal_pairing_sc_tbx_generate_DHkey(void  * param1 CYBLE_UNUSED_ATTR,
 599:Generated_Source\PSoC4/BLE_HAL_PVT.c ****                                                                void  * param2 CYBLE_UNUSED_ATTR)
 600:Generated_Source\PSoC4/BLE_HAL_PVT.c ****     {
 601:Generated_Source\PSoC4/BLE_HAL_PVT.c ****         return (CYBLE_ERROR_UNSUPPORTED_FEATURE_OR_PARAMETER_VALUE);
 602:Generated_Source\PSoC4/BLE_HAL_PVT.c ****     }
ARM GAS  C:\Users\diego\AppData\Local\Temp\ccad7oEH.s 			page 34


 603:Generated_Source\PSoC4/BLE_HAL_PVT.c **** 
 604:Generated_Source\PSoC4/BLE_HAL_PVT.c ****     void CyBle_Hal_smp_sc_cmac_complete(void)
 605:Generated_Source\PSoC4/BLE_HAL_PVT.c ****     {
 606:Generated_Source\PSoC4/BLE_HAL_PVT.c ****     }
 607:Generated_Source\PSoC4/BLE_HAL_PVT.c **** 
 608:Generated_Source\PSoC4/BLE_HAL_PVT.c ****     CYBLE_API_RESULT_T CyBle_Hal_se_smp_sc_user_passkey_handler(void  * param1 CYBLE_UNUSED_ATTR,
 609:Generated_Source\PSoC4/BLE_HAL_PVT.c ****                                                                 void  * param2 CYBLE_UNUSED_ATTR)
 610:Generated_Source\PSoC4/BLE_HAL_PVT.c ****     {
 1200              		.loc 1 610 0
 1201              		.cfi_startproc
 1202              		@ args = 0, pretend = 0, frame = 0
 1203              		@ frame_needed = 0, uses_anonymous_args = 0
 1204              		@ link register save eliminated.
 1205              	.LVL104:
 611:Generated_Source\PSoC4/BLE_HAL_PVT.c ****         return (CYBLE_ERROR_UNSUPPORTED_FEATURE_OR_PARAMETER_VALUE);
 612:Generated_Source\PSoC4/BLE_HAL_PVT.c ****     }
 1206              		.loc 1 612 0
 1207 0000 2B20     		movs	r0, #43
 1208              	.LVL105:
 1209              		@ sp needed
 1210 0002 7047     		bx	lr
 1211              		.cfi_endproc
 1212              	.LFE29:
 1213              		.size	CyBle_Hal_se_smp_sc_user_passkey_handler, .-CyBle_Hal_se_smp_sc_user_passkey_handler
 1214              		.section	.text.CyBle_Hal_EccPointMult,"ax",%progbits
 1215              		.align	2
 1216              		.global	CyBle_Hal_EccPointMult
 1217              		.code	16
 1218              		.thumb_func
 1219              		.type	CyBle_Hal_EccPointMult, %function
 1220              	CyBle_Hal_EccPointMult:
 1221              	.LFB30:
 613:Generated_Source\PSoC4/BLE_HAL_PVT.c **** 
 614:Generated_Source\PSoC4/BLE_HAL_PVT.c ****     void CyBle_Hal_EccPointMult(void)
 615:Generated_Source\PSoC4/BLE_HAL_PVT.c ****     {
 1222              		.loc 1 615 0
 1223              		.cfi_startproc
 1224              		@ args = 0, pretend = 0, frame = 0
 1225              		@ frame_needed = 0, uses_anonymous_args = 0
 1226              		@ link register save eliminated.
 616:Generated_Source\PSoC4/BLE_HAL_PVT.c ****     }
 1227              		.loc 1 616 0
 1228              		@ sp needed
 1229 0000 7047     		bx	lr
 1230              		.cfi_endproc
 1231              	.LFE30:
 1232              		.size	CyBle_Hal_EccPointMult, .-CyBle_Hal_EccPointMult
 1233 0002 C046     		.section	.text.BLE_CMP_FTR_API_lec_hci_handle_read_local_P256_public_key_command,"ax",%progbits
 1234              		.align	2
 1235              		.global	BLE_CMP_FTR_API_lec_hci_handle_read_local_P256_public_key_command
 1236              		.code	16
 1237              		.thumb_func
 1238              		.type	BLE_CMP_FTR_API_lec_hci_handle_read_local_P256_public_key_command, %function
 1239              	BLE_CMP_FTR_API_lec_hci_handle_read_local_P256_public_key_command:
 1240              	.LFB34:
 1241              		.cfi_startproc
 1242              		@ args = 0, pretend = 0, frame = 0
ARM GAS  C:\Users\diego\AppData\Local\Temp\ccad7oEH.s 			page 35


 1243              		@ frame_needed = 0, uses_anonymous_args = 0
 1244              		@ link register save eliminated.
 1245 0000 0120     		movs	r0, #1
 1246              		@ sp needed
 1247 0002 7047     		bx	lr
 1248              		.cfi_endproc
 1249              	.LFE34:
 1250              		.size	BLE_CMP_FTR_API_lec_hci_handle_read_local_P256_public_key_command, .-BLE_CMP_FTR_API_lec_hci
 1251              		.section	.text.BLE_CMP_FTR_API_lec_hci_handle_generate_DHkey_command,"ax",%progbits
 1252              		.align	2
 1253              		.global	BLE_CMP_FTR_API_lec_hci_handle_generate_DHkey_command
 1254              		.code	16
 1255              		.thumb_func
 1256              		.type	BLE_CMP_FTR_API_lec_hci_handle_generate_DHkey_command, %function
 1257              	BLE_CMP_FTR_API_lec_hci_handle_generate_DHkey_command:
 1258              	.LFB32:
 617:Generated_Source\PSoC4/BLE_HAL_PVT.c ****     
 618:Generated_Source\PSoC4/BLE_HAL_PVT.c **** #endif /* (CYBLE_SECURE_CONN_FEATURE_ENABLED) */
 619:Generated_Source\PSoC4/BLE_HAL_PVT.c **** 
 620:Generated_Source\PSoC4/BLE_HAL_PVT.c **** #endif /* CYBLE_MODE_PROFILE */
 621:Generated_Source\PSoC4/BLE_HAL_PVT.c **** 
 622:Generated_Source\PSoC4/BLE_HAL_PVT.c **** #if(CYBLE_SECURE_CONN_FEATURE_ENABLED)
 623:Generated_Source\PSoC4/BLE_HAL_PVT.c ****     
 624:Generated_Source\PSoC4/BLE_HAL_PVT.c ****     uint16 BLE_CMP_FTR_API_lec_hci_handle_read_local_P256_public_key_command(void *param)
 625:Generated_Source\PSoC4/BLE_HAL_PVT.c ****     {
 626:Generated_Source\PSoC4/BLE_HAL_PVT.c ****         return (BLE_STK_FTR_API_lec_hci_handle_read_local_P256_public_key_command(param));
 627:Generated_Source\PSoC4/BLE_HAL_PVT.c ****     }
 628:Generated_Source\PSoC4/BLE_HAL_PVT.c ****     
 629:Generated_Source\PSoC4/BLE_HAL_PVT.c ****     uint16 BLE_CMP_FTR_API_lec_hci_handle_generate_DHkey_command(void *param)
 630:Generated_Source\PSoC4/BLE_HAL_PVT.c ****     {
 631:Generated_Source\PSoC4/BLE_HAL_PVT.c ****         return (BLE_STK_FTR_API_lec_hci_handle_generate_DHkey_command(param));
 632:Generated_Source\PSoC4/BLE_HAL_PVT.c ****     }
 633:Generated_Source\PSoC4/BLE_HAL_PVT.c **** 
 634:Generated_Source\PSoC4/BLE_HAL_PVT.c **** #else     /* If feature is not required, return error. */
 635:Generated_Source\PSoC4/BLE_HAL_PVT.c ****     
 636:Generated_Source\PSoC4/BLE_HAL_PVT.c ****     uint16 BLE_CMP_FTR_API_lec_hci_handle_read_local_P256_public_key_command(void *param CYBLE_UNUS
 637:Generated_Source\PSoC4/BLE_HAL_PVT.c ****     {
 638:Generated_Source\PSoC4/BLE_HAL_PVT.c ****         return (CYBLE_UNKNOWN_HCI_COMMAND_ERROR);
 639:Generated_Source\PSoC4/BLE_HAL_PVT.c ****     }
 640:Generated_Source\PSoC4/BLE_HAL_PVT.c ****     
 641:Generated_Source\PSoC4/BLE_HAL_PVT.c ****     uint16 BLE_CMP_FTR_API_lec_hci_handle_generate_DHkey_command(void *param CYBLE_UNUSED_ATTR)
 642:Generated_Source\PSoC4/BLE_HAL_PVT.c ****     {
 1259              		.loc 1 642 0
 1260              		.cfi_startproc
 1261              		@ args = 0, pretend = 0, frame = 0
 1262              		@ frame_needed = 0, uses_anonymous_args = 0
 1263              		@ link register save eliminated.
 1264              	.LVL106:
 643:Generated_Source\PSoC4/BLE_HAL_PVT.c ****         return (CYBLE_UNKNOWN_HCI_COMMAND_ERROR);
 644:Generated_Source\PSoC4/BLE_HAL_PVT.c ****     }
 1265              		.loc 1 644 0
 1266 0000 0120     		movs	r0, #1
 1267              	.LVL107:
 1268              		@ sp needed
 1269 0002 7047     		bx	lr
 1270              		.cfi_endproc
 1271              	.LFE32:
ARM GAS  C:\Users\diego\AppData\Local\Temp\ccad7oEH.s 			page 36


 1272              		.size	BLE_CMP_FTR_API_lec_hci_handle_generate_DHkey_command, .-BLE_CMP_FTR_API_lec_hci_handle_gene
 1273              		.text
 1274              	.Letext0:
 1275              		.file 2 "Generated_Source\\PSoC4\\cytypes.h"
 1276              		.file 3 "Generated_Source\\PSoC4\\BLE_Stack.h"
 1277              		.file 4 "Generated_Source\\PSoC4\\CyFlash.h"
 1278              		.file 5 "Generated_Source\\PSoC4\\CyLib.h"
 1279              		.file 6 "Generated_Source\\PSoC4\\BLE_bless_isr.h"
