ARM GAS  C:\Users\diego\AppData\Local\Temp\ccbFZ8Wv.s 			page 1


   1              		.syntax unified
   2              		.cpu cortex-m0
   3              		.fpu softvfp
   4              		.eabi_attribute 20, 1
   5              		.eabi_attribute 21, 1
   6              		.eabi_attribute 23, 3
   7              		.eabi_attribute 24, 1
   8              		.eabi_attribute 25, 1
   9              		.eabi_attribute 26, 1
  10              		.eabi_attribute 30, 2
  11              		.eabi_attribute 34, 0
  12              		.eabi_attribute 18, 4
  13              		.thumb
  14              		.syntax unified
  15              		.file	"I2CM_SCB_IRQ.c"
  16              		.text
  17              	.Ltext0:
  18              		.cfi_sections	.debug_frame
  19              		.section	.text.I2CM_SCB_IRQ_Interrupt,"ax",%progbits
  20              		.align	2
  21              		.global	I2CM_SCB_IRQ_Interrupt
  22              		.code	16
  23              		.thumb_func
  24              		.type	I2CM_SCB_IRQ_Interrupt, %function
  25              	I2CM_SCB_IRQ_Interrupt:
  26              	.LFB5:
  27              		.file 1 "Generated_Source\\PSoC4\\I2CM_SCB_IRQ.c"
   1:Generated_Source\PSoC4/I2CM_SCB_IRQ.c **** /*******************************************************************************
   2:Generated_Source\PSoC4/I2CM_SCB_IRQ.c **** * File Name: I2CM_SCB_IRQ.c  
   3:Generated_Source\PSoC4/I2CM_SCB_IRQ.c **** * Version 1.70
   4:Generated_Source\PSoC4/I2CM_SCB_IRQ.c **** *
   5:Generated_Source\PSoC4/I2CM_SCB_IRQ.c **** *  Description:
   6:Generated_Source\PSoC4/I2CM_SCB_IRQ.c **** *   API for controlling the state of an interrupt.
   7:Generated_Source\PSoC4/I2CM_SCB_IRQ.c **** *
   8:Generated_Source\PSoC4/I2CM_SCB_IRQ.c **** *
   9:Generated_Source\PSoC4/I2CM_SCB_IRQ.c **** *  Note:
  10:Generated_Source\PSoC4/I2CM_SCB_IRQ.c **** *
  11:Generated_Source\PSoC4/I2CM_SCB_IRQ.c **** ********************************************************************************
  12:Generated_Source\PSoC4/I2CM_SCB_IRQ.c **** * Copyright 2008-2015, Cypress Semiconductor Corporation.  All rights reserved.
  13:Generated_Source\PSoC4/I2CM_SCB_IRQ.c **** * You may use this file only in accordance with the license, terms, conditions, 
  14:Generated_Source\PSoC4/I2CM_SCB_IRQ.c **** * disclaimers, and limitations in the end user license agreement accompanying 
  15:Generated_Source\PSoC4/I2CM_SCB_IRQ.c **** * the software package with which this file was provided.
  16:Generated_Source\PSoC4/I2CM_SCB_IRQ.c **** *******************************************************************************/
  17:Generated_Source\PSoC4/I2CM_SCB_IRQ.c **** 
  18:Generated_Source\PSoC4/I2CM_SCB_IRQ.c **** 
  19:Generated_Source\PSoC4/I2CM_SCB_IRQ.c **** #include <cydevice_trm.h>
  20:Generated_Source\PSoC4/I2CM_SCB_IRQ.c **** #include <CyLib.h>
  21:Generated_Source\PSoC4/I2CM_SCB_IRQ.c **** #include <I2CM_SCB_IRQ.h>
  22:Generated_Source\PSoC4/I2CM_SCB_IRQ.c **** 
  23:Generated_Source\PSoC4/I2CM_SCB_IRQ.c **** 
  24:Generated_Source\PSoC4/I2CM_SCB_IRQ.c **** #if !defined(I2CM_SCB_IRQ__REMOVED) /* Check for removal by optimization */
  25:Generated_Source\PSoC4/I2CM_SCB_IRQ.c **** 
  26:Generated_Source\PSoC4/I2CM_SCB_IRQ.c **** /*******************************************************************************
  27:Generated_Source\PSoC4/I2CM_SCB_IRQ.c **** *  Place your includes, defines and code here 
  28:Generated_Source\PSoC4/I2CM_SCB_IRQ.c **** ********************************************************************************/
  29:Generated_Source\PSoC4/I2CM_SCB_IRQ.c **** /* `#START I2CM_SCB_IRQ_intc` */
  30:Generated_Source\PSoC4/I2CM_SCB_IRQ.c **** 
ARM GAS  C:\Users\diego\AppData\Local\Temp\ccbFZ8Wv.s 			page 2


  31:Generated_Source\PSoC4/I2CM_SCB_IRQ.c **** /* `#END` */
  32:Generated_Source\PSoC4/I2CM_SCB_IRQ.c **** 
  33:Generated_Source\PSoC4/I2CM_SCB_IRQ.c **** extern cyisraddress CyRamVectors[CYINT_IRQ_BASE + CY_NUM_INTERRUPTS];
  34:Generated_Source\PSoC4/I2CM_SCB_IRQ.c **** 
  35:Generated_Source\PSoC4/I2CM_SCB_IRQ.c **** /* Declared in startup, used to set unused interrupts to. */
  36:Generated_Source\PSoC4/I2CM_SCB_IRQ.c **** CY_ISR_PROTO(IntDefaultHandler);
  37:Generated_Source\PSoC4/I2CM_SCB_IRQ.c **** 
  38:Generated_Source\PSoC4/I2CM_SCB_IRQ.c **** 
  39:Generated_Source\PSoC4/I2CM_SCB_IRQ.c **** /*******************************************************************************
  40:Generated_Source\PSoC4/I2CM_SCB_IRQ.c **** * Function Name: I2CM_SCB_IRQ_Start
  41:Generated_Source\PSoC4/I2CM_SCB_IRQ.c **** ********************************************************************************
  42:Generated_Source\PSoC4/I2CM_SCB_IRQ.c **** *
  43:Generated_Source\PSoC4/I2CM_SCB_IRQ.c **** * Summary:
  44:Generated_Source\PSoC4/I2CM_SCB_IRQ.c **** *  Set up the interrupt and enable it. This function disables the interrupt, 
  45:Generated_Source\PSoC4/I2CM_SCB_IRQ.c **** *  sets the default interrupt vector, sets the priority from the value in the
  46:Generated_Source\PSoC4/I2CM_SCB_IRQ.c **** *  Design Wide Resources Interrupt Editor, then enables the interrupt to the 
  47:Generated_Source\PSoC4/I2CM_SCB_IRQ.c **** *  interrupt controller.
  48:Generated_Source\PSoC4/I2CM_SCB_IRQ.c **** *
  49:Generated_Source\PSoC4/I2CM_SCB_IRQ.c **** * Parameters:  
  50:Generated_Source\PSoC4/I2CM_SCB_IRQ.c **** *   None
  51:Generated_Source\PSoC4/I2CM_SCB_IRQ.c **** *
  52:Generated_Source\PSoC4/I2CM_SCB_IRQ.c **** * Return:
  53:Generated_Source\PSoC4/I2CM_SCB_IRQ.c **** *   None
  54:Generated_Source\PSoC4/I2CM_SCB_IRQ.c **** *
  55:Generated_Source\PSoC4/I2CM_SCB_IRQ.c **** *******************************************************************************/
  56:Generated_Source\PSoC4/I2CM_SCB_IRQ.c **** void I2CM_SCB_IRQ_Start(void)
  57:Generated_Source\PSoC4/I2CM_SCB_IRQ.c **** {
  58:Generated_Source\PSoC4/I2CM_SCB_IRQ.c ****     /* For all we know the interrupt is active. */
  59:Generated_Source\PSoC4/I2CM_SCB_IRQ.c ****     I2CM_SCB_IRQ_Disable();
  60:Generated_Source\PSoC4/I2CM_SCB_IRQ.c **** 
  61:Generated_Source\PSoC4/I2CM_SCB_IRQ.c ****     /* Set the ISR to point to the I2CM_SCB_IRQ Interrupt. */
  62:Generated_Source\PSoC4/I2CM_SCB_IRQ.c ****     I2CM_SCB_IRQ_SetVector(&I2CM_SCB_IRQ_Interrupt);
  63:Generated_Source\PSoC4/I2CM_SCB_IRQ.c **** 
  64:Generated_Source\PSoC4/I2CM_SCB_IRQ.c ****     /* Set the priority. */
  65:Generated_Source\PSoC4/I2CM_SCB_IRQ.c ****     I2CM_SCB_IRQ_SetPriority((uint8)I2CM_SCB_IRQ_INTC_PRIOR_NUMBER);
  66:Generated_Source\PSoC4/I2CM_SCB_IRQ.c **** 
  67:Generated_Source\PSoC4/I2CM_SCB_IRQ.c ****     /* Enable it. */
  68:Generated_Source\PSoC4/I2CM_SCB_IRQ.c ****     I2CM_SCB_IRQ_Enable();
  69:Generated_Source\PSoC4/I2CM_SCB_IRQ.c **** }
  70:Generated_Source\PSoC4/I2CM_SCB_IRQ.c **** 
  71:Generated_Source\PSoC4/I2CM_SCB_IRQ.c **** 
  72:Generated_Source\PSoC4/I2CM_SCB_IRQ.c **** /*******************************************************************************
  73:Generated_Source\PSoC4/I2CM_SCB_IRQ.c **** * Function Name: I2CM_SCB_IRQ_StartEx
  74:Generated_Source\PSoC4/I2CM_SCB_IRQ.c **** ********************************************************************************
  75:Generated_Source\PSoC4/I2CM_SCB_IRQ.c **** *
  76:Generated_Source\PSoC4/I2CM_SCB_IRQ.c **** * Summary:
  77:Generated_Source\PSoC4/I2CM_SCB_IRQ.c **** *  Sets up the interrupt and enables it. This function disables the interrupt,
  78:Generated_Source\PSoC4/I2CM_SCB_IRQ.c **** *  sets the interrupt vector based on the address passed in, sets the priority 
  79:Generated_Source\PSoC4/I2CM_SCB_IRQ.c **** *  from the value in the Design Wide Resources Interrupt Editor, then enables 
  80:Generated_Source\PSoC4/I2CM_SCB_IRQ.c **** *  the interrupt to the interrupt controller.
  81:Generated_Source\PSoC4/I2CM_SCB_IRQ.c **** *  
  82:Generated_Source\PSoC4/I2CM_SCB_IRQ.c **** *  When defining ISR functions, the CY_ISR and CY_ISR_PROTO macros should be 
  83:Generated_Source\PSoC4/I2CM_SCB_IRQ.c **** *  used to provide consistent definition across compilers:
  84:Generated_Source\PSoC4/I2CM_SCB_IRQ.c **** *  
  85:Generated_Source\PSoC4/I2CM_SCB_IRQ.c **** *  Function definition example:
  86:Generated_Source\PSoC4/I2CM_SCB_IRQ.c **** *   CY_ISR(MyISR)
  87:Generated_Source\PSoC4/I2CM_SCB_IRQ.c **** *   {
ARM GAS  C:\Users\diego\AppData\Local\Temp\ccbFZ8Wv.s 			page 3


  88:Generated_Source\PSoC4/I2CM_SCB_IRQ.c **** *   }
  89:Generated_Source\PSoC4/I2CM_SCB_IRQ.c **** *   Function prototype example:
  90:Generated_Source\PSoC4/I2CM_SCB_IRQ.c **** *   CY_ISR_PROTO(MyISR);
  91:Generated_Source\PSoC4/I2CM_SCB_IRQ.c **** *
  92:Generated_Source\PSoC4/I2CM_SCB_IRQ.c **** * Parameters:  
  93:Generated_Source\PSoC4/I2CM_SCB_IRQ.c **** *   address: Address of the ISR to set in the interrupt vector table.
  94:Generated_Source\PSoC4/I2CM_SCB_IRQ.c **** *
  95:Generated_Source\PSoC4/I2CM_SCB_IRQ.c **** * Return:
  96:Generated_Source\PSoC4/I2CM_SCB_IRQ.c **** *   None
  97:Generated_Source\PSoC4/I2CM_SCB_IRQ.c **** *
  98:Generated_Source\PSoC4/I2CM_SCB_IRQ.c **** *******************************************************************************/
  99:Generated_Source\PSoC4/I2CM_SCB_IRQ.c **** void I2CM_SCB_IRQ_StartEx(cyisraddress address)
 100:Generated_Source\PSoC4/I2CM_SCB_IRQ.c **** {
 101:Generated_Source\PSoC4/I2CM_SCB_IRQ.c ****     /* For all we know the interrupt is active. */
 102:Generated_Source\PSoC4/I2CM_SCB_IRQ.c ****     I2CM_SCB_IRQ_Disable();
 103:Generated_Source\PSoC4/I2CM_SCB_IRQ.c **** 
 104:Generated_Source\PSoC4/I2CM_SCB_IRQ.c ****     /* Set the ISR to point to the I2CM_SCB_IRQ Interrupt. */
 105:Generated_Source\PSoC4/I2CM_SCB_IRQ.c ****     I2CM_SCB_IRQ_SetVector(address);
 106:Generated_Source\PSoC4/I2CM_SCB_IRQ.c **** 
 107:Generated_Source\PSoC4/I2CM_SCB_IRQ.c ****     /* Set the priority. */
 108:Generated_Source\PSoC4/I2CM_SCB_IRQ.c ****     I2CM_SCB_IRQ_SetPriority((uint8)I2CM_SCB_IRQ_INTC_PRIOR_NUMBER);
 109:Generated_Source\PSoC4/I2CM_SCB_IRQ.c **** 
 110:Generated_Source\PSoC4/I2CM_SCB_IRQ.c ****     /* Enable it. */
 111:Generated_Source\PSoC4/I2CM_SCB_IRQ.c ****     I2CM_SCB_IRQ_Enable();
 112:Generated_Source\PSoC4/I2CM_SCB_IRQ.c **** }
 113:Generated_Source\PSoC4/I2CM_SCB_IRQ.c **** 
 114:Generated_Source\PSoC4/I2CM_SCB_IRQ.c **** 
 115:Generated_Source\PSoC4/I2CM_SCB_IRQ.c **** /*******************************************************************************
 116:Generated_Source\PSoC4/I2CM_SCB_IRQ.c **** * Function Name: I2CM_SCB_IRQ_Stop
 117:Generated_Source\PSoC4/I2CM_SCB_IRQ.c **** ********************************************************************************
 118:Generated_Source\PSoC4/I2CM_SCB_IRQ.c **** *
 119:Generated_Source\PSoC4/I2CM_SCB_IRQ.c **** * Summary:
 120:Generated_Source\PSoC4/I2CM_SCB_IRQ.c **** *   Disables and removes the interrupt.
 121:Generated_Source\PSoC4/I2CM_SCB_IRQ.c **** *
 122:Generated_Source\PSoC4/I2CM_SCB_IRQ.c **** * Parameters:  
 123:Generated_Source\PSoC4/I2CM_SCB_IRQ.c **** *   None
 124:Generated_Source\PSoC4/I2CM_SCB_IRQ.c **** *
 125:Generated_Source\PSoC4/I2CM_SCB_IRQ.c **** * Return:
 126:Generated_Source\PSoC4/I2CM_SCB_IRQ.c **** *   None
 127:Generated_Source\PSoC4/I2CM_SCB_IRQ.c **** *
 128:Generated_Source\PSoC4/I2CM_SCB_IRQ.c **** *******************************************************************************/
 129:Generated_Source\PSoC4/I2CM_SCB_IRQ.c **** void I2CM_SCB_IRQ_Stop(void)
 130:Generated_Source\PSoC4/I2CM_SCB_IRQ.c **** {
 131:Generated_Source\PSoC4/I2CM_SCB_IRQ.c ****     /* Disable this interrupt. */
 132:Generated_Source\PSoC4/I2CM_SCB_IRQ.c ****     I2CM_SCB_IRQ_Disable();
 133:Generated_Source\PSoC4/I2CM_SCB_IRQ.c **** 
 134:Generated_Source\PSoC4/I2CM_SCB_IRQ.c ****     /* Set the ISR to point to the passive one. */
 135:Generated_Source\PSoC4/I2CM_SCB_IRQ.c ****     I2CM_SCB_IRQ_SetVector(&IntDefaultHandler);
 136:Generated_Source\PSoC4/I2CM_SCB_IRQ.c **** }
 137:Generated_Source\PSoC4/I2CM_SCB_IRQ.c **** 
 138:Generated_Source\PSoC4/I2CM_SCB_IRQ.c **** 
 139:Generated_Source\PSoC4/I2CM_SCB_IRQ.c **** /*******************************************************************************
 140:Generated_Source\PSoC4/I2CM_SCB_IRQ.c **** * Function Name: I2CM_SCB_IRQ_Interrupt
 141:Generated_Source\PSoC4/I2CM_SCB_IRQ.c **** ********************************************************************************
 142:Generated_Source\PSoC4/I2CM_SCB_IRQ.c **** *
 143:Generated_Source\PSoC4/I2CM_SCB_IRQ.c **** * Summary:
 144:Generated_Source\PSoC4/I2CM_SCB_IRQ.c **** *   The default Interrupt Service Routine for I2CM_SCB_IRQ.
ARM GAS  C:\Users\diego\AppData\Local\Temp\ccbFZ8Wv.s 			page 4


 145:Generated_Source\PSoC4/I2CM_SCB_IRQ.c **** *
 146:Generated_Source\PSoC4/I2CM_SCB_IRQ.c **** *   Add custom code between the START and END comments to keep the next version
 147:Generated_Source\PSoC4/I2CM_SCB_IRQ.c **** *   of this file from over-writing your code.
 148:Generated_Source\PSoC4/I2CM_SCB_IRQ.c **** *
 149:Generated_Source\PSoC4/I2CM_SCB_IRQ.c **** *   Note You may use either the default ISR by using this API, or you may define
 150:Generated_Source\PSoC4/I2CM_SCB_IRQ.c **** *   your own separate ISR through ISR_StartEx().
 151:Generated_Source\PSoC4/I2CM_SCB_IRQ.c **** *
 152:Generated_Source\PSoC4/I2CM_SCB_IRQ.c **** * Parameters:  
 153:Generated_Source\PSoC4/I2CM_SCB_IRQ.c **** *   None
 154:Generated_Source\PSoC4/I2CM_SCB_IRQ.c **** *
 155:Generated_Source\PSoC4/I2CM_SCB_IRQ.c **** * Return:
 156:Generated_Source\PSoC4/I2CM_SCB_IRQ.c **** *   None
 157:Generated_Source\PSoC4/I2CM_SCB_IRQ.c **** *
 158:Generated_Source\PSoC4/I2CM_SCB_IRQ.c **** *******************************************************************************/
 159:Generated_Source\PSoC4/I2CM_SCB_IRQ.c **** CY_ISR(I2CM_SCB_IRQ_Interrupt)
 160:Generated_Source\PSoC4/I2CM_SCB_IRQ.c **** {
  28              		.loc 1 160 0
  29              		.cfi_startproc
  30              		@ args = 0, pretend = 0, frame = 0
  31              		@ frame_needed = 0, uses_anonymous_args = 0
  32              		@ link register save eliminated.
 161:Generated_Source\PSoC4/I2CM_SCB_IRQ.c ****     #ifdef I2CM_SCB_IRQ_INTERRUPT_INTERRUPT_CALLBACK
 162:Generated_Source\PSoC4/I2CM_SCB_IRQ.c ****         I2CM_SCB_IRQ_Interrupt_InterruptCallback();
 163:Generated_Source\PSoC4/I2CM_SCB_IRQ.c ****     #endif /* I2CM_SCB_IRQ_INTERRUPT_INTERRUPT_CALLBACK */ 
 164:Generated_Source\PSoC4/I2CM_SCB_IRQ.c **** 
 165:Generated_Source\PSoC4/I2CM_SCB_IRQ.c ****     /*  Place your Interrupt code here. */
 166:Generated_Source\PSoC4/I2CM_SCB_IRQ.c ****     /* `#START I2CM_SCB_IRQ_Interrupt` */
 167:Generated_Source\PSoC4/I2CM_SCB_IRQ.c **** 
 168:Generated_Source\PSoC4/I2CM_SCB_IRQ.c ****     /* `#END` */
 169:Generated_Source\PSoC4/I2CM_SCB_IRQ.c **** }
  33              		.loc 1 169 0
  34              		@ sp needed
  35 0000 7047     		bx	lr
  36              		.cfi_endproc
  37              	.LFE5:
  38              		.size	I2CM_SCB_IRQ_Interrupt, .-I2CM_SCB_IRQ_Interrupt
  39 0002 C046     		.section	.text.I2CM_SCB_IRQ_Start,"ax",%progbits
  40              		.align	2
  41              		.global	I2CM_SCB_IRQ_Start
  42              		.code	16
  43              		.thumb_func
  44              		.type	I2CM_SCB_IRQ_Start, %function
  45              	I2CM_SCB_IRQ_Start:
  46              	.LFB2:
  57:Generated_Source\PSoC4/I2CM_SCB_IRQ.c ****     /* For all we know the interrupt is active. */
  47              		.loc 1 57 0
  48              		.cfi_startproc
  49              		@ args = 0, pretend = 0, frame = 0
  50              		@ frame_needed = 0, uses_anonymous_args = 0
  51 0000 10B5     		push	{r4, lr}
  52              		.cfi_def_cfa_offset 8
  53              		.cfi_offset 4, -8
  54              		.cfi_offset 14, -4
  55              	.LBB26:
  56              	.LBB27:
 170:Generated_Source\PSoC4/I2CM_SCB_IRQ.c **** 
 171:Generated_Source\PSoC4/I2CM_SCB_IRQ.c **** 
ARM GAS  C:\Users\diego\AppData\Local\Temp\ccbFZ8Wv.s 			page 5


 172:Generated_Source\PSoC4/I2CM_SCB_IRQ.c **** /*******************************************************************************
 173:Generated_Source\PSoC4/I2CM_SCB_IRQ.c **** * Function Name: I2CM_SCB_IRQ_SetVector
 174:Generated_Source\PSoC4/I2CM_SCB_IRQ.c **** ********************************************************************************
 175:Generated_Source\PSoC4/I2CM_SCB_IRQ.c **** *
 176:Generated_Source\PSoC4/I2CM_SCB_IRQ.c **** * Summary:
 177:Generated_Source\PSoC4/I2CM_SCB_IRQ.c **** *   Change the ISR vector for the Interrupt. Note calling I2CM_SCB_IRQ_Start
 178:Generated_Source\PSoC4/I2CM_SCB_IRQ.c **** *   will override any effect this method would have had. To set the vector 
 179:Generated_Source\PSoC4/I2CM_SCB_IRQ.c **** *   before the component has been started use I2CM_SCB_IRQ_StartEx instead.
 180:Generated_Source\PSoC4/I2CM_SCB_IRQ.c **** * 
 181:Generated_Source\PSoC4/I2CM_SCB_IRQ.c **** *   When defining ISR functions, the CY_ISR and CY_ISR_PROTO macros should be 
 182:Generated_Source\PSoC4/I2CM_SCB_IRQ.c **** *   used to provide consistent definition across compilers:
 183:Generated_Source\PSoC4/I2CM_SCB_IRQ.c **** *
 184:Generated_Source\PSoC4/I2CM_SCB_IRQ.c **** *   Function definition example:
 185:Generated_Source\PSoC4/I2CM_SCB_IRQ.c **** *   CY_ISR(MyISR)
 186:Generated_Source\PSoC4/I2CM_SCB_IRQ.c **** *   {
 187:Generated_Source\PSoC4/I2CM_SCB_IRQ.c **** *   }
 188:Generated_Source\PSoC4/I2CM_SCB_IRQ.c **** *
 189:Generated_Source\PSoC4/I2CM_SCB_IRQ.c **** *   Function prototype example:
 190:Generated_Source\PSoC4/I2CM_SCB_IRQ.c **** *     CY_ISR_PROTO(MyISR);
 191:Generated_Source\PSoC4/I2CM_SCB_IRQ.c **** *
 192:Generated_Source\PSoC4/I2CM_SCB_IRQ.c **** * Parameters:
 193:Generated_Source\PSoC4/I2CM_SCB_IRQ.c **** *   address: Address of the ISR to set in the interrupt vector table.
 194:Generated_Source\PSoC4/I2CM_SCB_IRQ.c **** *
 195:Generated_Source\PSoC4/I2CM_SCB_IRQ.c **** * Return:
 196:Generated_Source\PSoC4/I2CM_SCB_IRQ.c **** *   None
 197:Generated_Source\PSoC4/I2CM_SCB_IRQ.c **** *
 198:Generated_Source\PSoC4/I2CM_SCB_IRQ.c **** *******************************************************************************/
 199:Generated_Source\PSoC4/I2CM_SCB_IRQ.c **** void I2CM_SCB_IRQ_SetVector(cyisraddress address)
 200:Generated_Source\PSoC4/I2CM_SCB_IRQ.c **** {
 201:Generated_Source\PSoC4/I2CM_SCB_IRQ.c ****     CyRamVectors[CYINT_IRQ_BASE + I2CM_SCB_IRQ__INTC_NUMBER] = address;
 202:Generated_Source\PSoC4/I2CM_SCB_IRQ.c **** }
 203:Generated_Source\PSoC4/I2CM_SCB_IRQ.c **** 
 204:Generated_Source\PSoC4/I2CM_SCB_IRQ.c **** 
 205:Generated_Source\PSoC4/I2CM_SCB_IRQ.c **** /*******************************************************************************
 206:Generated_Source\PSoC4/I2CM_SCB_IRQ.c **** * Function Name: I2CM_SCB_IRQ_GetVector
 207:Generated_Source\PSoC4/I2CM_SCB_IRQ.c **** ********************************************************************************
 208:Generated_Source\PSoC4/I2CM_SCB_IRQ.c **** *
 209:Generated_Source\PSoC4/I2CM_SCB_IRQ.c **** * Summary:
 210:Generated_Source\PSoC4/I2CM_SCB_IRQ.c **** *   Gets the "address" of the current ISR vector for the Interrupt.
 211:Generated_Source\PSoC4/I2CM_SCB_IRQ.c **** *
 212:Generated_Source\PSoC4/I2CM_SCB_IRQ.c **** * Parameters:
 213:Generated_Source\PSoC4/I2CM_SCB_IRQ.c **** *   None
 214:Generated_Source\PSoC4/I2CM_SCB_IRQ.c **** *
 215:Generated_Source\PSoC4/I2CM_SCB_IRQ.c **** * Return:
 216:Generated_Source\PSoC4/I2CM_SCB_IRQ.c **** *   Address of the ISR in the interrupt vector table.
 217:Generated_Source\PSoC4/I2CM_SCB_IRQ.c **** *
 218:Generated_Source\PSoC4/I2CM_SCB_IRQ.c **** *******************************************************************************/
 219:Generated_Source\PSoC4/I2CM_SCB_IRQ.c **** cyisraddress I2CM_SCB_IRQ_GetVector(void)
 220:Generated_Source\PSoC4/I2CM_SCB_IRQ.c **** {
 221:Generated_Source\PSoC4/I2CM_SCB_IRQ.c ****     return CyRamVectors[CYINT_IRQ_BASE + I2CM_SCB_IRQ__INTC_NUMBER];
 222:Generated_Source\PSoC4/I2CM_SCB_IRQ.c **** }
 223:Generated_Source\PSoC4/I2CM_SCB_IRQ.c **** 
 224:Generated_Source\PSoC4/I2CM_SCB_IRQ.c **** 
 225:Generated_Source\PSoC4/I2CM_SCB_IRQ.c **** /*******************************************************************************
 226:Generated_Source\PSoC4/I2CM_SCB_IRQ.c **** * Function Name: I2CM_SCB_IRQ_SetPriority
 227:Generated_Source\PSoC4/I2CM_SCB_IRQ.c **** ********************************************************************************
 228:Generated_Source\PSoC4/I2CM_SCB_IRQ.c **** *
ARM GAS  C:\Users\diego\AppData\Local\Temp\ccbFZ8Wv.s 			page 6


 229:Generated_Source\PSoC4/I2CM_SCB_IRQ.c **** * Summary:
 230:Generated_Source\PSoC4/I2CM_SCB_IRQ.c **** *   Sets the Priority of the Interrupt. 
 231:Generated_Source\PSoC4/I2CM_SCB_IRQ.c **** *
 232:Generated_Source\PSoC4/I2CM_SCB_IRQ.c **** *   Note calling I2CM_SCB_IRQ_Start or I2CM_SCB_IRQ_StartEx will 
 233:Generated_Source\PSoC4/I2CM_SCB_IRQ.c **** *   override any effect this API would have had. This API should only be called
 234:Generated_Source\PSoC4/I2CM_SCB_IRQ.c **** *   after I2CM_SCB_IRQ_Start or I2CM_SCB_IRQ_StartEx has been called. 
 235:Generated_Source\PSoC4/I2CM_SCB_IRQ.c **** *   To set the initial priority for the component, use the Design-Wide Resources
 236:Generated_Source\PSoC4/I2CM_SCB_IRQ.c **** *   Interrupt Editor.
 237:Generated_Source\PSoC4/I2CM_SCB_IRQ.c **** *
 238:Generated_Source\PSoC4/I2CM_SCB_IRQ.c **** *   Note This API has no effect on Non-maskable interrupt NMI).
 239:Generated_Source\PSoC4/I2CM_SCB_IRQ.c **** *
 240:Generated_Source\PSoC4/I2CM_SCB_IRQ.c **** * Parameters:
 241:Generated_Source\PSoC4/I2CM_SCB_IRQ.c **** *   priority: Priority of the interrupt, 0 being the highest priority
 242:Generated_Source\PSoC4/I2CM_SCB_IRQ.c **** *             PSoC 3 and PSoC 5LP: Priority is from 0 to 7.
 243:Generated_Source\PSoC4/I2CM_SCB_IRQ.c **** *             PSoC 4: Priority is from 0 to 3.
 244:Generated_Source\PSoC4/I2CM_SCB_IRQ.c **** *
 245:Generated_Source\PSoC4/I2CM_SCB_IRQ.c **** * Return:
 246:Generated_Source\PSoC4/I2CM_SCB_IRQ.c **** *   None
 247:Generated_Source\PSoC4/I2CM_SCB_IRQ.c **** *
 248:Generated_Source\PSoC4/I2CM_SCB_IRQ.c **** *******************************************************************************/
 249:Generated_Source\PSoC4/I2CM_SCB_IRQ.c **** void I2CM_SCB_IRQ_SetPriority(uint8 priority)
 250:Generated_Source\PSoC4/I2CM_SCB_IRQ.c **** {
 251:Generated_Source\PSoC4/I2CM_SCB_IRQ.c **** 	uint8 interruptState;
 252:Generated_Source\PSoC4/I2CM_SCB_IRQ.c ****     uint32 priorityOffset = ((I2CM_SCB_IRQ__INTC_NUMBER % 4u) * 8u) + 6u;
 253:Generated_Source\PSoC4/I2CM_SCB_IRQ.c ****     
 254:Generated_Source\PSoC4/I2CM_SCB_IRQ.c **** 	interruptState = CyEnterCriticalSection();
 255:Generated_Source\PSoC4/I2CM_SCB_IRQ.c ****     *I2CM_SCB_IRQ_INTC_PRIOR = (*I2CM_SCB_IRQ_INTC_PRIOR & (uint32)(~I2CM_SCB_IRQ__INTC_PRIOR_MASK)
 256:Generated_Source\PSoC4/I2CM_SCB_IRQ.c ****                                     ((uint32)priority << priorityOffset);
 257:Generated_Source\PSoC4/I2CM_SCB_IRQ.c **** 	CyExitCriticalSection(interruptState);
 258:Generated_Source\PSoC4/I2CM_SCB_IRQ.c **** }
 259:Generated_Source\PSoC4/I2CM_SCB_IRQ.c **** 
 260:Generated_Source\PSoC4/I2CM_SCB_IRQ.c **** 
 261:Generated_Source\PSoC4/I2CM_SCB_IRQ.c **** /*******************************************************************************
 262:Generated_Source\PSoC4/I2CM_SCB_IRQ.c **** * Function Name: I2CM_SCB_IRQ_GetPriority
 263:Generated_Source\PSoC4/I2CM_SCB_IRQ.c **** ********************************************************************************
 264:Generated_Source\PSoC4/I2CM_SCB_IRQ.c **** *
 265:Generated_Source\PSoC4/I2CM_SCB_IRQ.c **** * Summary:
 266:Generated_Source\PSoC4/I2CM_SCB_IRQ.c **** *   Gets the Priority of the Interrupt.
 267:Generated_Source\PSoC4/I2CM_SCB_IRQ.c **** *
 268:Generated_Source\PSoC4/I2CM_SCB_IRQ.c **** * Parameters:
 269:Generated_Source\PSoC4/I2CM_SCB_IRQ.c **** *   None
 270:Generated_Source\PSoC4/I2CM_SCB_IRQ.c **** *
 271:Generated_Source\PSoC4/I2CM_SCB_IRQ.c **** * Return:
 272:Generated_Source\PSoC4/I2CM_SCB_IRQ.c **** *   Priority of the interrupt, 0 being the highest priority
 273:Generated_Source\PSoC4/I2CM_SCB_IRQ.c **** *    PSoC 3 and PSoC 5LP: Priority is from 0 to 7.
 274:Generated_Source\PSoC4/I2CM_SCB_IRQ.c **** *    PSoC 4: Priority is from 0 to 3.
 275:Generated_Source\PSoC4/I2CM_SCB_IRQ.c **** *
 276:Generated_Source\PSoC4/I2CM_SCB_IRQ.c **** *******************************************************************************/
 277:Generated_Source\PSoC4/I2CM_SCB_IRQ.c **** uint8 I2CM_SCB_IRQ_GetPriority(void)
 278:Generated_Source\PSoC4/I2CM_SCB_IRQ.c **** {
 279:Generated_Source\PSoC4/I2CM_SCB_IRQ.c ****     uint32 priority;
 280:Generated_Source\PSoC4/I2CM_SCB_IRQ.c **** 	uint32 priorityOffset = ((I2CM_SCB_IRQ__INTC_NUMBER % 4u) * 8u) + 6u;
 281:Generated_Source\PSoC4/I2CM_SCB_IRQ.c **** 
 282:Generated_Source\PSoC4/I2CM_SCB_IRQ.c ****     priority = (*I2CM_SCB_IRQ_INTC_PRIOR & I2CM_SCB_IRQ__INTC_PRIOR_MASK) >> priorityOffset;
 283:Generated_Source\PSoC4/I2CM_SCB_IRQ.c **** 
 284:Generated_Source\PSoC4/I2CM_SCB_IRQ.c ****     return (uint8)priority;
 285:Generated_Source\PSoC4/I2CM_SCB_IRQ.c **** }
ARM GAS  C:\Users\diego\AppData\Local\Temp\ccbFZ8Wv.s 			page 7


 286:Generated_Source\PSoC4/I2CM_SCB_IRQ.c **** 
 287:Generated_Source\PSoC4/I2CM_SCB_IRQ.c **** 
 288:Generated_Source\PSoC4/I2CM_SCB_IRQ.c **** /*******************************************************************************
 289:Generated_Source\PSoC4/I2CM_SCB_IRQ.c **** * Function Name: I2CM_SCB_IRQ_Enable
 290:Generated_Source\PSoC4/I2CM_SCB_IRQ.c **** ********************************************************************************
 291:Generated_Source\PSoC4/I2CM_SCB_IRQ.c **** *
 292:Generated_Source\PSoC4/I2CM_SCB_IRQ.c **** * Summary:
 293:Generated_Source\PSoC4/I2CM_SCB_IRQ.c **** *   Enables the interrupt to the interrupt controller. Do not call this function
 294:Generated_Source\PSoC4/I2CM_SCB_IRQ.c **** *   unless ISR_Start() has been called or the functionality of the ISR_Start() 
 295:Generated_Source\PSoC4/I2CM_SCB_IRQ.c **** *   function, which sets the vector and the priority, has been called.
 296:Generated_Source\PSoC4/I2CM_SCB_IRQ.c **** *
 297:Generated_Source\PSoC4/I2CM_SCB_IRQ.c **** * Parameters:
 298:Generated_Source\PSoC4/I2CM_SCB_IRQ.c **** *   None
 299:Generated_Source\PSoC4/I2CM_SCB_IRQ.c **** *
 300:Generated_Source\PSoC4/I2CM_SCB_IRQ.c **** * Return:
 301:Generated_Source\PSoC4/I2CM_SCB_IRQ.c **** *   None
 302:Generated_Source\PSoC4/I2CM_SCB_IRQ.c **** *
 303:Generated_Source\PSoC4/I2CM_SCB_IRQ.c **** *******************************************************************************/
 304:Generated_Source\PSoC4/I2CM_SCB_IRQ.c **** void I2CM_SCB_IRQ_Enable(void)
 305:Generated_Source\PSoC4/I2CM_SCB_IRQ.c **** {
 306:Generated_Source\PSoC4/I2CM_SCB_IRQ.c ****     /* Enable the general interrupt. */
 307:Generated_Source\PSoC4/I2CM_SCB_IRQ.c ****     *I2CM_SCB_IRQ_INTC_SET_EN = I2CM_SCB_IRQ__INTC_MASK;
 308:Generated_Source\PSoC4/I2CM_SCB_IRQ.c **** }
 309:Generated_Source\PSoC4/I2CM_SCB_IRQ.c **** 
 310:Generated_Source\PSoC4/I2CM_SCB_IRQ.c **** 
 311:Generated_Source\PSoC4/I2CM_SCB_IRQ.c **** /*******************************************************************************
 312:Generated_Source\PSoC4/I2CM_SCB_IRQ.c **** * Function Name: I2CM_SCB_IRQ_GetState
 313:Generated_Source\PSoC4/I2CM_SCB_IRQ.c **** ********************************************************************************
 314:Generated_Source\PSoC4/I2CM_SCB_IRQ.c **** *
 315:Generated_Source\PSoC4/I2CM_SCB_IRQ.c **** * Summary:
 316:Generated_Source\PSoC4/I2CM_SCB_IRQ.c **** *   Gets the state (enabled, disabled) of the Interrupt.
 317:Generated_Source\PSoC4/I2CM_SCB_IRQ.c **** *
 318:Generated_Source\PSoC4/I2CM_SCB_IRQ.c **** * Parameters:
 319:Generated_Source\PSoC4/I2CM_SCB_IRQ.c **** *   None
 320:Generated_Source\PSoC4/I2CM_SCB_IRQ.c **** *
 321:Generated_Source\PSoC4/I2CM_SCB_IRQ.c **** * Return:
 322:Generated_Source\PSoC4/I2CM_SCB_IRQ.c **** *   1 if enabled, 0 if disabled.
 323:Generated_Source\PSoC4/I2CM_SCB_IRQ.c **** *
 324:Generated_Source\PSoC4/I2CM_SCB_IRQ.c **** *******************************************************************************/
 325:Generated_Source\PSoC4/I2CM_SCB_IRQ.c **** uint8 I2CM_SCB_IRQ_GetState(void)
 326:Generated_Source\PSoC4/I2CM_SCB_IRQ.c **** {
 327:Generated_Source\PSoC4/I2CM_SCB_IRQ.c ****     /* Get the state of the general interrupt. */
 328:Generated_Source\PSoC4/I2CM_SCB_IRQ.c ****     return ((*I2CM_SCB_IRQ_INTC_SET_EN & (uint32)I2CM_SCB_IRQ__INTC_MASK) != 0u) ? 1u:0u;
 329:Generated_Source\PSoC4/I2CM_SCB_IRQ.c **** }
 330:Generated_Source\PSoC4/I2CM_SCB_IRQ.c **** 
 331:Generated_Source\PSoC4/I2CM_SCB_IRQ.c **** 
 332:Generated_Source\PSoC4/I2CM_SCB_IRQ.c **** /*******************************************************************************
 333:Generated_Source\PSoC4/I2CM_SCB_IRQ.c **** * Function Name: I2CM_SCB_IRQ_Disable
 334:Generated_Source\PSoC4/I2CM_SCB_IRQ.c **** ********************************************************************************
 335:Generated_Source\PSoC4/I2CM_SCB_IRQ.c **** *
 336:Generated_Source\PSoC4/I2CM_SCB_IRQ.c **** * Summary:
 337:Generated_Source\PSoC4/I2CM_SCB_IRQ.c **** *   Disables the Interrupt in the interrupt controller.
 338:Generated_Source\PSoC4/I2CM_SCB_IRQ.c **** *
 339:Generated_Source\PSoC4/I2CM_SCB_IRQ.c **** * Parameters:
 340:Generated_Source\PSoC4/I2CM_SCB_IRQ.c **** *   None
 341:Generated_Source\PSoC4/I2CM_SCB_IRQ.c **** *
 342:Generated_Source\PSoC4/I2CM_SCB_IRQ.c **** * Return:
ARM GAS  C:\Users\diego\AppData\Local\Temp\ccbFZ8Wv.s 			page 8


 343:Generated_Source\PSoC4/I2CM_SCB_IRQ.c **** *   None
 344:Generated_Source\PSoC4/I2CM_SCB_IRQ.c **** *
 345:Generated_Source\PSoC4/I2CM_SCB_IRQ.c **** *******************************************************************************/
 346:Generated_Source\PSoC4/I2CM_SCB_IRQ.c **** void I2CM_SCB_IRQ_Disable(void)
 347:Generated_Source\PSoC4/I2CM_SCB_IRQ.c **** {
 348:Generated_Source\PSoC4/I2CM_SCB_IRQ.c ****     /* Disable the general interrupt. */
 349:Generated_Source\PSoC4/I2CM_SCB_IRQ.c ****     *I2CM_SCB_IRQ_INTC_CLR_EN = I2CM_SCB_IRQ__INTC_MASK;
  57              		.loc 1 349 0
  58 0002 8024     		movs	r4, #128
  59 0004 094B     		ldr	r3, .L3
  60 0006 E400     		lsls	r4, r4, #3
  61 0008 1C60     		str	r4, [r3]
  62              	.LVL0:
  63              	.LBE27:
  64              	.LBE26:
  65              	.LBB28:
  66              	.LBB29:
 201:Generated_Source\PSoC4/I2CM_SCB_IRQ.c **** }
  67              		.loc 1 201 0
  68 000a 094A     		ldr	r2, .L3+4
  69 000c 094B     		ldr	r3, .L3+8
  70              	.LBE29:
  71              	.LBE28:
  69:Generated_Source\PSoC4/I2CM_SCB_IRQ.c **** 
  72              		.loc 1 69 0
  73              		@ sp needed
  74              	.LBB31:
  75              	.LBB30:
 201:Generated_Source\PSoC4/I2CM_SCB_IRQ.c **** }
  76              		.loc 1 201 0
  77 000e 9A66     		str	r2, [r3, #104]
  78              	.LVL1:
  79              	.LBE30:
  80              	.LBE31:
  81              	.LBB32:
  82              	.LBB33:
 254:Generated_Source\PSoC4/I2CM_SCB_IRQ.c ****     *I2CM_SCB_IRQ_INTC_PRIOR = (*I2CM_SCB_IRQ_INTC_PRIOR & (uint32)(~I2CM_SCB_IRQ__INTC_PRIOR_MASK)
  83              		.loc 1 254 0
  84 0010 FFF7FEFF 		bl	CyEnterCriticalSection
  85              	.LVL2:
 255:Generated_Source\PSoC4/I2CM_SCB_IRQ.c ****                                     ((uint32)priority << priorityOffset);
  86              		.loc 1 255 0
  87 0014 C023     		movs	r3, #192
  88 0016 084A     		ldr	r2, .L3+12
  89 0018 1B04     		lsls	r3, r3, #16
  90 001a 1168     		ldr	r1, [r2]
  91 001c 0B43     		orrs	r3, r1
  92 001e 1360     		str	r3, [r2]
 257:Generated_Source\PSoC4/I2CM_SCB_IRQ.c **** }
  93              		.loc 1 257 0
  94 0020 FFF7FEFF 		bl	CyExitCriticalSection
  95              	.LVL3:
  96              	.LBE33:
  97              	.LBE32:
  98              	.LBB34:
  99              	.LBB35:
 307:Generated_Source\PSoC4/I2CM_SCB_IRQ.c **** }
ARM GAS  C:\Users\diego\AppData\Local\Temp\ccbFZ8Wv.s 			page 9


 100              		.loc 1 307 0
 101 0024 054B     		ldr	r3, .L3+16
 102 0026 1C60     		str	r4, [r3]
 103              	.LBE35:
 104              	.LBE34:
  69:Generated_Source\PSoC4/I2CM_SCB_IRQ.c **** 
 105              		.loc 1 69 0
 106 0028 10BD     		pop	{r4, pc}
 107              	.L4:
 108 002a C046     		.align	2
 109              	.L3:
 110 002c 80E100E0 		.word	-536813184
 111 0030 00000000 		.word	I2CM_SCB_IRQ_Interrupt
 112 0034 00000000 		.word	CyRamVectors
 113 0038 08E400E0 		.word	-536812536
 114 003c 00E100E0 		.word	-536813312
 115              		.cfi_endproc
 116              	.LFE2:
 117              		.size	I2CM_SCB_IRQ_Start, .-I2CM_SCB_IRQ_Start
 118              		.section	.text.I2CM_SCB_IRQ_StartEx,"ax",%progbits
 119              		.align	2
 120              		.global	I2CM_SCB_IRQ_StartEx
 121              		.code	16
 122              		.thumb_func
 123              		.type	I2CM_SCB_IRQ_StartEx, %function
 124              	I2CM_SCB_IRQ_StartEx:
 125              	.LFB3:
 100:Generated_Source\PSoC4/I2CM_SCB_IRQ.c ****     /* For all we know the interrupt is active. */
 126              		.loc 1 100 0
 127              		.cfi_startproc
 128              		@ args = 0, pretend = 0, frame = 0
 129              		@ frame_needed = 0, uses_anonymous_args = 0
 130              	.LVL4:
 131 0000 10B5     		push	{r4, lr}
 132              		.cfi_def_cfa_offset 8
 133              		.cfi_offset 4, -8
 134              		.cfi_offset 14, -4
 135              	.LBB44:
 136              	.LBB45:
 137              		.loc 1 349 0
 138 0002 8024     		movs	r4, #128
 139 0004 084B     		ldr	r3, .L6
 140 0006 E400     		lsls	r4, r4, #3
 141 0008 1C60     		str	r4, [r3]
 142              	.LVL5:
 143              	.LBE45:
 144              	.LBE44:
 145              	.LBB46:
 146              	.LBB47:
 201:Generated_Source\PSoC4/I2CM_SCB_IRQ.c **** }
 147              		.loc 1 201 0
 148 000a 084B     		ldr	r3, .L6+4
 149              	.LBE47:
 150              	.LBE46:
 112:Generated_Source\PSoC4/I2CM_SCB_IRQ.c **** 
 151              		.loc 1 112 0
 152              		@ sp needed
ARM GAS  C:\Users\diego\AppData\Local\Temp\ccbFZ8Wv.s 			page 10


 153              	.LBB49:
 154              	.LBB48:
 201:Generated_Source\PSoC4/I2CM_SCB_IRQ.c **** }
 155              		.loc 1 201 0
 156 000c 9866     		str	r0, [r3, #104]
 157              	.LVL6:
 158              	.LBE48:
 159              	.LBE49:
 160              	.LBB50:
 161              	.LBB51:
 254:Generated_Source\PSoC4/I2CM_SCB_IRQ.c ****     *I2CM_SCB_IRQ_INTC_PRIOR = (*I2CM_SCB_IRQ_INTC_PRIOR & (uint32)(~I2CM_SCB_IRQ__INTC_PRIOR_MASK)
 162              		.loc 1 254 0
 163 000e FFF7FEFF 		bl	CyEnterCriticalSection
 164              	.LVL7:
 255:Generated_Source\PSoC4/I2CM_SCB_IRQ.c ****                                     ((uint32)priority << priorityOffset);
 165              		.loc 1 255 0
 166 0012 C023     		movs	r3, #192
 167 0014 064A     		ldr	r2, .L6+8
 168 0016 1B04     		lsls	r3, r3, #16
 169 0018 1168     		ldr	r1, [r2]
 170 001a 0B43     		orrs	r3, r1
 171 001c 1360     		str	r3, [r2]
 257:Generated_Source\PSoC4/I2CM_SCB_IRQ.c **** }
 172              		.loc 1 257 0
 173 001e FFF7FEFF 		bl	CyExitCriticalSection
 174              	.LVL8:
 175              	.LBE51:
 176              	.LBE50:
 177              	.LBB52:
 178              	.LBB53:
 307:Generated_Source\PSoC4/I2CM_SCB_IRQ.c **** }
 179              		.loc 1 307 0
 180 0022 044B     		ldr	r3, .L6+12
 181 0024 1C60     		str	r4, [r3]
 182              	.LBE53:
 183              	.LBE52:
 112:Generated_Source\PSoC4/I2CM_SCB_IRQ.c **** 
 184              		.loc 1 112 0
 185 0026 10BD     		pop	{r4, pc}
 186              	.L7:
 187              		.align	2
 188              	.L6:
 189 0028 80E100E0 		.word	-536813184
 190 002c 00000000 		.word	CyRamVectors
 191 0030 08E400E0 		.word	-536812536
 192 0034 00E100E0 		.word	-536813312
 193              		.cfi_endproc
 194              	.LFE3:
 195              		.size	I2CM_SCB_IRQ_StartEx, .-I2CM_SCB_IRQ_StartEx
 196              		.section	.text.I2CM_SCB_IRQ_Stop,"ax",%progbits
 197              		.align	2
 198              		.global	I2CM_SCB_IRQ_Stop
 199              		.code	16
 200              		.thumb_func
 201              		.type	I2CM_SCB_IRQ_Stop, %function
 202              	I2CM_SCB_IRQ_Stop:
 203              	.LFB4:
ARM GAS  C:\Users\diego\AppData\Local\Temp\ccbFZ8Wv.s 			page 11


 130:Generated_Source\PSoC4/I2CM_SCB_IRQ.c ****     /* Disable this interrupt. */
 204              		.loc 1 130 0
 205              		.cfi_startproc
 206              		@ args = 0, pretend = 0, frame = 0
 207              		@ frame_needed = 0, uses_anonymous_args = 0
 208              		@ link register save eliminated.
 209              	.LBB54:
 210              	.LBB55:
 211              		.loc 1 349 0
 212 0000 8022     		movs	r2, #128
 213 0002 034B     		ldr	r3, .L9
 214 0004 D200     		lsls	r2, r2, #3
 215 0006 1A60     		str	r2, [r3]
 216              	.LVL9:
 217              	.LBE55:
 218              	.LBE54:
 219              	.LBB56:
 220              	.LBB57:
 201:Generated_Source\PSoC4/I2CM_SCB_IRQ.c **** }
 221              		.loc 1 201 0
 222 0008 024A     		ldr	r2, .L9+4
 223 000a 034B     		ldr	r3, .L9+8
 224              	.LBE57:
 225              	.LBE56:
 136:Generated_Source\PSoC4/I2CM_SCB_IRQ.c **** 
 226              		.loc 1 136 0
 227              		@ sp needed
 228              	.LBB59:
 229              	.LBB58:
 201:Generated_Source\PSoC4/I2CM_SCB_IRQ.c **** }
 230              		.loc 1 201 0
 231 000c 9A66     		str	r2, [r3, #104]
 232              	.LVL10:
 233              	.LBE58:
 234              	.LBE59:
 136:Generated_Source\PSoC4/I2CM_SCB_IRQ.c **** 
 235              		.loc 1 136 0
 236 000e 7047     		bx	lr
 237              	.L10:
 238              		.align	2
 239              	.L9:
 240 0010 80E100E0 		.word	-536813184
 241 0014 00000000 		.word	IntDefaultHandler
 242 0018 00000000 		.word	CyRamVectors
 243              		.cfi_endproc
 244              	.LFE4:
 245              		.size	I2CM_SCB_IRQ_Stop, .-I2CM_SCB_IRQ_Stop
 246              		.section	.text.I2CM_SCB_IRQ_SetVector,"ax",%progbits
 247              		.align	2
 248              		.global	I2CM_SCB_IRQ_SetVector
 249              		.code	16
 250              		.thumb_func
 251              		.type	I2CM_SCB_IRQ_SetVector, %function
 252              	I2CM_SCB_IRQ_SetVector:
 253              	.LFB6:
 200:Generated_Source\PSoC4/I2CM_SCB_IRQ.c ****     CyRamVectors[CYINT_IRQ_BASE + I2CM_SCB_IRQ__INTC_NUMBER] = address;
 254              		.loc 1 200 0
ARM GAS  C:\Users\diego\AppData\Local\Temp\ccbFZ8Wv.s 			page 12


 255              		.cfi_startproc
 256              		@ args = 0, pretend = 0, frame = 0
 257              		@ frame_needed = 0, uses_anonymous_args = 0
 258              		@ link register save eliminated.
 259              	.LVL11:
 201:Generated_Source\PSoC4/I2CM_SCB_IRQ.c **** }
 260              		.loc 1 201 0
 261 0000 014B     		ldr	r3, .L12
 202:Generated_Source\PSoC4/I2CM_SCB_IRQ.c **** 
 262              		.loc 1 202 0
 263              		@ sp needed
 201:Generated_Source\PSoC4/I2CM_SCB_IRQ.c **** }
 264              		.loc 1 201 0
 265 0002 9866     		str	r0, [r3, #104]
 202:Generated_Source\PSoC4/I2CM_SCB_IRQ.c **** 
 266              		.loc 1 202 0
 267 0004 7047     		bx	lr
 268              	.L13:
 269 0006 C046     		.align	2
 270              	.L12:
 271 0008 00000000 		.word	CyRamVectors
 272              		.cfi_endproc
 273              	.LFE6:
 274              		.size	I2CM_SCB_IRQ_SetVector, .-I2CM_SCB_IRQ_SetVector
 275              		.section	.text.I2CM_SCB_IRQ_GetVector,"ax",%progbits
 276              		.align	2
 277              		.global	I2CM_SCB_IRQ_GetVector
 278              		.code	16
 279              		.thumb_func
 280              		.type	I2CM_SCB_IRQ_GetVector, %function
 281              	I2CM_SCB_IRQ_GetVector:
 282              	.LFB7:
 220:Generated_Source\PSoC4/I2CM_SCB_IRQ.c ****     return CyRamVectors[CYINT_IRQ_BASE + I2CM_SCB_IRQ__INTC_NUMBER];
 283              		.loc 1 220 0
 284              		.cfi_startproc
 285              		@ args = 0, pretend = 0, frame = 0
 286              		@ frame_needed = 0, uses_anonymous_args = 0
 287              		@ link register save eliminated.
 221:Generated_Source\PSoC4/I2CM_SCB_IRQ.c **** }
 288              		.loc 1 221 0
 289 0000 014B     		ldr	r3, .L15
 222:Generated_Source\PSoC4/I2CM_SCB_IRQ.c **** 
 290              		.loc 1 222 0
 291              		@ sp needed
 221:Generated_Source\PSoC4/I2CM_SCB_IRQ.c **** }
 292              		.loc 1 221 0
 293 0002 986E     		ldr	r0, [r3, #104]
 222:Generated_Source\PSoC4/I2CM_SCB_IRQ.c **** 
 294              		.loc 1 222 0
 295 0004 7047     		bx	lr
 296              	.L16:
 297 0006 C046     		.align	2
 298              	.L15:
 299 0008 00000000 		.word	CyRamVectors
 300              		.cfi_endproc
 301              	.LFE7:
 302              		.size	I2CM_SCB_IRQ_GetVector, .-I2CM_SCB_IRQ_GetVector
ARM GAS  C:\Users\diego\AppData\Local\Temp\ccbFZ8Wv.s 			page 13


 303              		.section	.text.I2CM_SCB_IRQ_SetPriority,"ax",%progbits
 304              		.align	2
 305              		.global	I2CM_SCB_IRQ_SetPriority
 306              		.code	16
 307              		.thumb_func
 308              		.type	I2CM_SCB_IRQ_SetPriority, %function
 309              	I2CM_SCB_IRQ_SetPriority:
 310              	.LFB8:
 250:Generated_Source\PSoC4/I2CM_SCB_IRQ.c **** 	uint8 interruptState;
 311              		.loc 1 250 0
 312              		.cfi_startproc
 313              		@ args = 0, pretend = 0, frame = 0
 314              		@ frame_needed = 0, uses_anonymous_args = 0
 315              	.LVL12:
 316 0000 10B5     		push	{r4, lr}
 317              		.cfi_def_cfa_offset 8
 318              		.cfi_offset 4, -8
 319              		.cfi_offset 14, -4
 250:Generated_Source\PSoC4/I2CM_SCB_IRQ.c **** 	uint8 interruptState;
 320              		.loc 1 250 0
 321 0002 0400     		movs	r4, r0
 254:Generated_Source\PSoC4/I2CM_SCB_IRQ.c ****     *I2CM_SCB_IRQ_INTC_PRIOR = (*I2CM_SCB_IRQ_INTC_PRIOR & (uint32)(~I2CM_SCB_IRQ__INTC_PRIOR_MASK)
 322              		.loc 1 254 0
 323 0004 FFF7FEFF 		bl	CyEnterCriticalSection
 324              	.LVL13:
 255:Generated_Source\PSoC4/I2CM_SCB_IRQ.c ****                                     ((uint32)priority << priorityOffset);
 325              		.loc 1 255 0
 326 0008 044A     		ldr	r2, .L18
 327 000a 054B     		ldr	r3, .L18+4
 328 000c 1168     		ldr	r1, [r2]
 329 000e A405     		lsls	r4, r4, #22
 330 0010 0B40     		ands	r3, r1
 331 0012 1C43     		orrs	r4, r3
 332 0014 1460     		str	r4, [r2]
 257:Generated_Source\PSoC4/I2CM_SCB_IRQ.c **** }
 333              		.loc 1 257 0
 334 0016 FFF7FEFF 		bl	CyExitCriticalSection
 335              	.LVL14:
 258:Generated_Source\PSoC4/I2CM_SCB_IRQ.c **** 
 336              		.loc 1 258 0
 337              		@ sp needed
 338 001a 10BD     		pop	{r4, pc}
 339              	.L19:
 340              		.align	2
 341              	.L18:
 342 001c 08E400E0 		.word	-536812536
 343 0020 FFFF3FFF 		.word	-12582913
 344              		.cfi_endproc
 345              	.LFE8:
 346              		.size	I2CM_SCB_IRQ_SetPriority, .-I2CM_SCB_IRQ_SetPriority
 347              		.section	.text.I2CM_SCB_IRQ_GetPriority,"ax",%progbits
 348              		.align	2
 349              		.global	I2CM_SCB_IRQ_GetPriority
 350              		.code	16
 351              		.thumb_func
 352              		.type	I2CM_SCB_IRQ_GetPriority, %function
 353              	I2CM_SCB_IRQ_GetPriority:
ARM GAS  C:\Users\diego\AppData\Local\Temp\ccbFZ8Wv.s 			page 14


 354              	.LFB9:
 278:Generated_Source\PSoC4/I2CM_SCB_IRQ.c ****     uint32 priority;
 355              		.loc 1 278 0
 356              		.cfi_startproc
 357              		@ args = 0, pretend = 0, frame = 0
 358              		@ frame_needed = 0, uses_anonymous_args = 0
 359              		@ link register save eliminated.
 360              	.LVL15:
 282:Generated_Source\PSoC4/I2CM_SCB_IRQ.c **** 
 361              		.loc 1 282 0
 362 0000 024B     		ldr	r3, .L21
 285:Generated_Source\PSoC4/I2CM_SCB_IRQ.c **** 
 363              		.loc 1 285 0
 364              		@ sp needed
 282:Generated_Source\PSoC4/I2CM_SCB_IRQ.c **** 
 365              		.loc 1 282 0
 366 0002 1868     		ldr	r0, [r3]
 367              	.LVL16:
 284:Generated_Source\PSoC4/I2CM_SCB_IRQ.c **** }
 368              		.loc 1 284 0
 369 0004 0002     		lsls	r0, r0, #8
 370              	.LVL17:
 371 0006 800F     		lsrs	r0, r0, #30
 285:Generated_Source\PSoC4/I2CM_SCB_IRQ.c **** 
 372              		.loc 1 285 0
 373 0008 7047     		bx	lr
 374              	.L22:
 375 000a C046     		.align	2
 376              	.L21:
 377 000c 08E400E0 		.word	-536812536
 378              		.cfi_endproc
 379              	.LFE9:
 380              		.size	I2CM_SCB_IRQ_GetPriority, .-I2CM_SCB_IRQ_GetPriority
 381              		.section	.text.I2CM_SCB_IRQ_Enable,"ax",%progbits
 382              		.align	2
 383              		.global	I2CM_SCB_IRQ_Enable
 384              		.code	16
 385              		.thumb_func
 386              		.type	I2CM_SCB_IRQ_Enable, %function
 387              	I2CM_SCB_IRQ_Enable:
 388              	.LFB10:
 305:Generated_Source\PSoC4/I2CM_SCB_IRQ.c ****     /* Enable the general interrupt. */
 389              		.loc 1 305 0
 390              		.cfi_startproc
 391              		@ args = 0, pretend = 0, frame = 0
 392              		@ frame_needed = 0, uses_anonymous_args = 0
 393              		@ link register save eliminated.
 307:Generated_Source\PSoC4/I2CM_SCB_IRQ.c **** }
 394              		.loc 1 307 0
 395 0000 8022     		movs	r2, #128
 396 0002 024B     		ldr	r3, .L24
 397 0004 D200     		lsls	r2, r2, #3
 398 0006 1A60     		str	r2, [r3]
 308:Generated_Source\PSoC4/I2CM_SCB_IRQ.c **** 
 399              		.loc 1 308 0
 400              		@ sp needed
 401 0008 7047     		bx	lr
ARM GAS  C:\Users\diego\AppData\Local\Temp\ccbFZ8Wv.s 			page 15


 402              	.L25:
 403 000a C046     		.align	2
 404              	.L24:
 405 000c 00E100E0 		.word	-536813312
 406              		.cfi_endproc
 407              	.LFE10:
 408              		.size	I2CM_SCB_IRQ_Enable, .-I2CM_SCB_IRQ_Enable
 409              		.section	.text.I2CM_SCB_IRQ_GetState,"ax",%progbits
 410              		.align	2
 411              		.global	I2CM_SCB_IRQ_GetState
 412              		.code	16
 413              		.thumb_func
 414              		.type	I2CM_SCB_IRQ_GetState, %function
 415              	I2CM_SCB_IRQ_GetState:
 416              	.LFB11:
 326:Generated_Source\PSoC4/I2CM_SCB_IRQ.c ****     /* Get the state of the general interrupt. */
 417              		.loc 1 326 0
 418              		.cfi_startproc
 419              		@ args = 0, pretend = 0, frame = 0
 420              		@ frame_needed = 0, uses_anonymous_args = 0
 421              		@ link register save eliminated.
 328:Generated_Source\PSoC4/I2CM_SCB_IRQ.c **** }
 422              		.loc 1 328 0
 423 0000 024B     		ldr	r3, .L27
 329:Generated_Source\PSoC4/I2CM_SCB_IRQ.c **** 
 424              		.loc 1 329 0
 425              		@ sp needed
 328:Generated_Source\PSoC4/I2CM_SCB_IRQ.c **** }
 426              		.loc 1 328 0
 427 0002 1868     		ldr	r0, [r3]
 428 0004 4005     		lsls	r0, r0, #21
 429 0006 C00F     		lsrs	r0, r0, #31
 329:Generated_Source\PSoC4/I2CM_SCB_IRQ.c **** 
 430              		.loc 1 329 0
 431 0008 7047     		bx	lr
 432              	.L28:
 433 000a C046     		.align	2
 434              	.L27:
 435 000c 00E100E0 		.word	-536813312
 436              		.cfi_endproc
 437              	.LFE11:
 438              		.size	I2CM_SCB_IRQ_GetState, .-I2CM_SCB_IRQ_GetState
 439              		.section	.text.I2CM_SCB_IRQ_Disable,"ax",%progbits
 440              		.align	2
 441              		.global	I2CM_SCB_IRQ_Disable
 442              		.code	16
 443              		.thumb_func
 444              		.type	I2CM_SCB_IRQ_Disable, %function
 445              	I2CM_SCB_IRQ_Disable:
 446              	.LFB12:
 347:Generated_Source\PSoC4/I2CM_SCB_IRQ.c ****     /* Disable the general interrupt. */
 447              		.loc 1 347 0
 448              		.cfi_startproc
 449              		@ args = 0, pretend = 0, frame = 0
 450              		@ frame_needed = 0, uses_anonymous_args = 0
 451              		@ link register save eliminated.
 452              		.loc 1 349 0
ARM GAS  C:\Users\diego\AppData\Local\Temp\ccbFZ8Wv.s 			page 16


 453 0000 8022     		movs	r2, #128
 454 0002 024B     		ldr	r3, .L30
 455 0004 D200     		lsls	r2, r2, #3
 456 0006 1A60     		str	r2, [r3]
 350:Generated_Source\PSoC4/I2CM_SCB_IRQ.c **** }
 457              		.loc 1 350 0
 458              		@ sp needed
 459 0008 7047     		bx	lr
 460              	.L31:
 461 000a C046     		.align	2
 462              	.L30:
 463 000c 80E100E0 		.word	-536813184
 464              		.cfi_endproc
 465              	.LFE12:
 466              		.size	I2CM_SCB_IRQ_Disable, .-I2CM_SCB_IRQ_Disable
 467              		.section	.text.I2CM_SCB_IRQ_SetPending,"ax",%progbits
 468              		.align	2
 469              		.global	I2CM_SCB_IRQ_SetPending
 470              		.code	16
 471              		.thumb_func
 472              		.type	I2CM_SCB_IRQ_SetPending, %function
 473              	I2CM_SCB_IRQ_SetPending:
 474              	.LFB13:
 351:Generated_Source\PSoC4/I2CM_SCB_IRQ.c **** 
 352:Generated_Source\PSoC4/I2CM_SCB_IRQ.c **** 
 353:Generated_Source\PSoC4/I2CM_SCB_IRQ.c **** /*******************************************************************************
 354:Generated_Source\PSoC4/I2CM_SCB_IRQ.c **** * Function Name: I2CM_SCB_IRQ_SetPending
 355:Generated_Source\PSoC4/I2CM_SCB_IRQ.c **** ********************************************************************************
 356:Generated_Source\PSoC4/I2CM_SCB_IRQ.c **** *
 357:Generated_Source\PSoC4/I2CM_SCB_IRQ.c **** * Summary:
 358:Generated_Source\PSoC4/I2CM_SCB_IRQ.c **** *   Causes the Interrupt to enter the pending state, a software method of
 359:Generated_Source\PSoC4/I2CM_SCB_IRQ.c **** *   generating the interrupt.
 360:Generated_Source\PSoC4/I2CM_SCB_IRQ.c **** *
 361:Generated_Source\PSoC4/I2CM_SCB_IRQ.c **** * Parameters:
 362:Generated_Source\PSoC4/I2CM_SCB_IRQ.c **** *   None
 363:Generated_Source\PSoC4/I2CM_SCB_IRQ.c **** *
 364:Generated_Source\PSoC4/I2CM_SCB_IRQ.c **** * Return:
 365:Generated_Source\PSoC4/I2CM_SCB_IRQ.c **** *   None
 366:Generated_Source\PSoC4/I2CM_SCB_IRQ.c **** *
 367:Generated_Source\PSoC4/I2CM_SCB_IRQ.c **** * Side Effects:
 368:Generated_Source\PSoC4/I2CM_SCB_IRQ.c **** *   If interrupts are enabled and the interrupt is set up properly, the ISR is
 369:Generated_Source\PSoC4/I2CM_SCB_IRQ.c **** *   entered (depending on the priority of this interrupt and other pending 
 370:Generated_Source\PSoC4/I2CM_SCB_IRQ.c **** *   interrupts).
 371:Generated_Source\PSoC4/I2CM_SCB_IRQ.c **** *
 372:Generated_Source\PSoC4/I2CM_SCB_IRQ.c **** *******************************************************************************/
 373:Generated_Source\PSoC4/I2CM_SCB_IRQ.c **** void I2CM_SCB_IRQ_SetPending(void)
 374:Generated_Source\PSoC4/I2CM_SCB_IRQ.c **** {
 475              		.loc 1 374 0
 476              		.cfi_startproc
 477              		@ args = 0, pretend = 0, frame = 0
 478              		@ frame_needed = 0, uses_anonymous_args = 0
 479              		@ link register save eliminated.
 375:Generated_Source\PSoC4/I2CM_SCB_IRQ.c ****     *I2CM_SCB_IRQ_INTC_SET_PD = I2CM_SCB_IRQ__INTC_MASK;
 480              		.loc 1 375 0
 481 0000 8022     		movs	r2, #128
 482 0002 024B     		ldr	r3, .L33
 483 0004 D200     		lsls	r2, r2, #3
ARM GAS  C:\Users\diego\AppData\Local\Temp\ccbFZ8Wv.s 			page 17


 484 0006 1A60     		str	r2, [r3]
 376:Generated_Source\PSoC4/I2CM_SCB_IRQ.c **** }
 485              		.loc 1 376 0
 486              		@ sp needed
 487 0008 7047     		bx	lr
 488              	.L34:
 489 000a C046     		.align	2
 490              	.L33:
 491 000c 00E200E0 		.word	-536813056
 492              		.cfi_endproc
 493              	.LFE13:
 494              		.size	I2CM_SCB_IRQ_SetPending, .-I2CM_SCB_IRQ_SetPending
 495              		.section	.text.I2CM_SCB_IRQ_ClearPending,"ax",%progbits
 496              		.align	2
 497              		.global	I2CM_SCB_IRQ_ClearPending
 498              		.code	16
 499              		.thumb_func
 500              		.type	I2CM_SCB_IRQ_ClearPending, %function
 501              	I2CM_SCB_IRQ_ClearPending:
 502              	.LFB14:
 377:Generated_Source\PSoC4/I2CM_SCB_IRQ.c **** 
 378:Generated_Source\PSoC4/I2CM_SCB_IRQ.c **** 
 379:Generated_Source\PSoC4/I2CM_SCB_IRQ.c **** /*******************************************************************************
 380:Generated_Source\PSoC4/I2CM_SCB_IRQ.c **** * Function Name: I2CM_SCB_IRQ_ClearPending
 381:Generated_Source\PSoC4/I2CM_SCB_IRQ.c **** ********************************************************************************
 382:Generated_Source\PSoC4/I2CM_SCB_IRQ.c **** *
 383:Generated_Source\PSoC4/I2CM_SCB_IRQ.c **** * Summary:
 384:Generated_Source\PSoC4/I2CM_SCB_IRQ.c **** *   Clears a pending interrupt in the interrupt controller.
 385:Generated_Source\PSoC4/I2CM_SCB_IRQ.c **** *
 386:Generated_Source\PSoC4/I2CM_SCB_IRQ.c **** *   Note Some interrupt sources are clear-on-read and require the block 
 387:Generated_Source\PSoC4/I2CM_SCB_IRQ.c **** *   interrupt/status register to be read/cleared with the appropriate block API 
 388:Generated_Source\PSoC4/I2CM_SCB_IRQ.c **** *   (GPIO, UART, and so on). Otherwise the ISR will continue to remain in 
 389:Generated_Source\PSoC4/I2CM_SCB_IRQ.c **** *   pending state even though the interrupt itself is cleared using this API.
 390:Generated_Source\PSoC4/I2CM_SCB_IRQ.c **** *
 391:Generated_Source\PSoC4/I2CM_SCB_IRQ.c **** * Parameters:
 392:Generated_Source\PSoC4/I2CM_SCB_IRQ.c **** *   None
 393:Generated_Source\PSoC4/I2CM_SCB_IRQ.c **** *
 394:Generated_Source\PSoC4/I2CM_SCB_IRQ.c **** * Return:
 395:Generated_Source\PSoC4/I2CM_SCB_IRQ.c **** *   None
 396:Generated_Source\PSoC4/I2CM_SCB_IRQ.c **** *
 397:Generated_Source\PSoC4/I2CM_SCB_IRQ.c **** *******************************************************************************/
 398:Generated_Source\PSoC4/I2CM_SCB_IRQ.c **** void I2CM_SCB_IRQ_ClearPending(void)
 399:Generated_Source\PSoC4/I2CM_SCB_IRQ.c **** {
 503              		.loc 1 399 0
 504              		.cfi_startproc
 505              		@ args = 0, pretend = 0, frame = 0
 506              		@ frame_needed = 0, uses_anonymous_args = 0
 507              		@ link register save eliminated.
 400:Generated_Source\PSoC4/I2CM_SCB_IRQ.c ****     *I2CM_SCB_IRQ_INTC_CLR_PD = I2CM_SCB_IRQ__INTC_MASK;
 508              		.loc 1 400 0
 509 0000 8022     		movs	r2, #128
 510 0002 024B     		ldr	r3, .L36
 511 0004 D200     		lsls	r2, r2, #3
 512 0006 1A60     		str	r2, [r3]
 401:Generated_Source\PSoC4/I2CM_SCB_IRQ.c **** }
 513              		.loc 1 401 0
 514              		@ sp needed
ARM GAS  C:\Users\diego\AppData\Local\Temp\ccbFZ8Wv.s 			page 18


 515 0008 7047     		bx	lr
 516              	.L37:
 517 000a C046     		.align	2
 518              	.L36:
 519 000c 80E200E0 		.word	-536812928
 520              		.cfi_endproc
 521              	.LFE14:
 522              		.size	I2CM_SCB_IRQ_ClearPending, .-I2CM_SCB_IRQ_ClearPending
 523              		.text
 524              	.Letext0:
 525              		.file 2 "Generated_Source\\PSoC4/cytypes.h"
 526              		.file 3 "Generated_Source\\PSoC4/CyLib.h"
