ARM GAS  C:\Users\diego\AppData\Local\Temp\ccVZKxVc.s 			page 1


   1              		.syntax unified
   2              		.cpu cortex-m0
   3              		.fpu softvfp
   4              		.eabi_attribute 20, 1
   5              		.eabi_attribute 21, 1
   6              		.eabi_attribute 23, 3
   7              		.eabi_attribute 24, 1
   8              		.eabi_attribute 25, 1
   9              		.eabi_attribute 26, 1
  10              		.eabi_attribute 30, 2
  11              		.eabi_attribute 34, 0
  12              		.eabi_attribute 18, 4
  13              		.thumb
  14              		.syntax unified
  15              		.file	"isr_acc.c"
  16              		.text
  17              	.Ltext0:
  18              		.cfi_sections	.debug_frame
  19              		.section	.text.isr_acc_Interrupt,"ax",%progbits
  20              		.align	2
  21              		.global	isr_acc_Interrupt
  22              		.code	16
  23              		.thumb_func
  24              		.type	isr_acc_Interrupt, %function
  25              	isr_acc_Interrupt:
  26              	.LFB5:
  27              		.file 1 "Generated_Source\\PSoC4\\isr_acc.c"
   1:Generated_Source\PSoC4/isr_acc.c **** /*******************************************************************************
   2:Generated_Source\PSoC4/isr_acc.c **** * File Name: isr_acc.c  
   3:Generated_Source\PSoC4/isr_acc.c **** * Version 1.70
   4:Generated_Source\PSoC4/isr_acc.c **** *
   5:Generated_Source\PSoC4/isr_acc.c **** *  Description:
   6:Generated_Source\PSoC4/isr_acc.c **** *   API for controlling the state of an interrupt.
   7:Generated_Source\PSoC4/isr_acc.c **** *
   8:Generated_Source\PSoC4/isr_acc.c **** *
   9:Generated_Source\PSoC4/isr_acc.c **** *  Note:
  10:Generated_Source\PSoC4/isr_acc.c **** *
  11:Generated_Source\PSoC4/isr_acc.c **** ********************************************************************************
  12:Generated_Source\PSoC4/isr_acc.c **** * Copyright 2008-2015, Cypress Semiconductor Corporation.  All rights reserved.
  13:Generated_Source\PSoC4/isr_acc.c **** * You may use this file only in accordance with the license, terms, conditions, 
  14:Generated_Source\PSoC4/isr_acc.c **** * disclaimers, and limitations in the end user license agreement accompanying 
  15:Generated_Source\PSoC4/isr_acc.c **** * the software package with which this file was provided.
  16:Generated_Source\PSoC4/isr_acc.c **** *******************************************************************************/
  17:Generated_Source\PSoC4/isr_acc.c **** 
  18:Generated_Source\PSoC4/isr_acc.c **** 
  19:Generated_Source\PSoC4/isr_acc.c **** #include <cydevice_trm.h>
  20:Generated_Source\PSoC4/isr_acc.c **** #include <CyLib.h>
  21:Generated_Source\PSoC4/isr_acc.c **** #include <isr_acc.h>
  22:Generated_Source\PSoC4/isr_acc.c **** 
  23:Generated_Source\PSoC4/isr_acc.c **** 
  24:Generated_Source\PSoC4/isr_acc.c **** #if !defined(isr_acc__REMOVED) /* Check for removal by optimization */
  25:Generated_Source\PSoC4/isr_acc.c **** 
  26:Generated_Source\PSoC4/isr_acc.c **** /*******************************************************************************
  27:Generated_Source\PSoC4/isr_acc.c **** *  Place your includes, defines and code here 
  28:Generated_Source\PSoC4/isr_acc.c **** ********************************************************************************/
  29:Generated_Source\PSoC4/isr_acc.c **** /* `#START isr_acc_intc` */
  30:Generated_Source\PSoC4/isr_acc.c **** 
ARM GAS  C:\Users\diego\AppData\Local\Temp\ccVZKxVc.s 			page 2


  31:Generated_Source\PSoC4/isr_acc.c **** /* `#END` */
  32:Generated_Source\PSoC4/isr_acc.c **** 
  33:Generated_Source\PSoC4/isr_acc.c **** extern cyisraddress CyRamVectors[CYINT_IRQ_BASE + CY_NUM_INTERRUPTS];
  34:Generated_Source\PSoC4/isr_acc.c **** 
  35:Generated_Source\PSoC4/isr_acc.c **** /* Declared in startup, used to set unused interrupts to. */
  36:Generated_Source\PSoC4/isr_acc.c **** CY_ISR_PROTO(IntDefaultHandler);
  37:Generated_Source\PSoC4/isr_acc.c **** 
  38:Generated_Source\PSoC4/isr_acc.c **** 
  39:Generated_Source\PSoC4/isr_acc.c **** /*******************************************************************************
  40:Generated_Source\PSoC4/isr_acc.c **** * Function Name: isr_acc_Start
  41:Generated_Source\PSoC4/isr_acc.c **** ********************************************************************************
  42:Generated_Source\PSoC4/isr_acc.c **** *
  43:Generated_Source\PSoC4/isr_acc.c **** * Summary:
  44:Generated_Source\PSoC4/isr_acc.c **** *  Set up the interrupt and enable it. This function disables the interrupt, 
  45:Generated_Source\PSoC4/isr_acc.c **** *  sets the default interrupt vector, sets the priority from the value in the
  46:Generated_Source\PSoC4/isr_acc.c **** *  Design Wide Resources Interrupt Editor, then enables the interrupt to the 
  47:Generated_Source\PSoC4/isr_acc.c **** *  interrupt controller.
  48:Generated_Source\PSoC4/isr_acc.c **** *
  49:Generated_Source\PSoC4/isr_acc.c **** * Parameters:  
  50:Generated_Source\PSoC4/isr_acc.c **** *   None
  51:Generated_Source\PSoC4/isr_acc.c **** *
  52:Generated_Source\PSoC4/isr_acc.c **** * Return:
  53:Generated_Source\PSoC4/isr_acc.c **** *   None
  54:Generated_Source\PSoC4/isr_acc.c **** *
  55:Generated_Source\PSoC4/isr_acc.c **** *******************************************************************************/
  56:Generated_Source\PSoC4/isr_acc.c **** void isr_acc_Start(void)
  57:Generated_Source\PSoC4/isr_acc.c **** {
  58:Generated_Source\PSoC4/isr_acc.c ****     /* For all we know the interrupt is active. */
  59:Generated_Source\PSoC4/isr_acc.c ****     isr_acc_Disable();
  60:Generated_Source\PSoC4/isr_acc.c **** 
  61:Generated_Source\PSoC4/isr_acc.c ****     /* Set the ISR to point to the isr_acc Interrupt. */
  62:Generated_Source\PSoC4/isr_acc.c ****     isr_acc_SetVector(&isr_acc_Interrupt);
  63:Generated_Source\PSoC4/isr_acc.c **** 
  64:Generated_Source\PSoC4/isr_acc.c ****     /* Set the priority. */
  65:Generated_Source\PSoC4/isr_acc.c ****     isr_acc_SetPriority((uint8)isr_acc_INTC_PRIOR_NUMBER);
  66:Generated_Source\PSoC4/isr_acc.c **** 
  67:Generated_Source\PSoC4/isr_acc.c ****     /* Enable it. */
  68:Generated_Source\PSoC4/isr_acc.c ****     isr_acc_Enable();
  69:Generated_Source\PSoC4/isr_acc.c **** }
  70:Generated_Source\PSoC4/isr_acc.c **** 
  71:Generated_Source\PSoC4/isr_acc.c **** 
  72:Generated_Source\PSoC4/isr_acc.c **** /*******************************************************************************
  73:Generated_Source\PSoC4/isr_acc.c **** * Function Name: isr_acc_StartEx
  74:Generated_Source\PSoC4/isr_acc.c **** ********************************************************************************
  75:Generated_Source\PSoC4/isr_acc.c **** *
  76:Generated_Source\PSoC4/isr_acc.c **** * Summary:
  77:Generated_Source\PSoC4/isr_acc.c **** *  Sets up the interrupt and enables it. This function disables the interrupt,
  78:Generated_Source\PSoC4/isr_acc.c **** *  sets the interrupt vector based on the address passed in, sets the priority 
  79:Generated_Source\PSoC4/isr_acc.c **** *  from the value in the Design Wide Resources Interrupt Editor, then enables 
  80:Generated_Source\PSoC4/isr_acc.c **** *  the interrupt to the interrupt controller.
  81:Generated_Source\PSoC4/isr_acc.c **** *  
  82:Generated_Source\PSoC4/isr_acc.c **** *  When defining ISR functions, the CY_ISR and CY_ISR_PROTO macros should be 
  83:Generated_Source\PSoC4/isr_acc.c **** *  used to provide consistent definition across compilers:
  84:Generated_Source\PSoC4/isr_acc.c **** *  
  85:Generated_Source\PSoC4/isr_acc.c **** *  Function definition example:
  86:Generated_Source\PSoC4/isr_acc.c **** *   CY_ISR(MyISR)
  87:Generated_Source\PSoC4/isr_acc.c **** *   {
ARM GAS  C:\Users\diego\AppData\Local\Temp\ccVZKxVc.s 			page 3


  88:Generated_Source\PSoC4/isr_acc.c **** *   }
  89:Generated_Source\PSoC4/isr_acc.c **** *   Function prototype example:
  90:Generated_Source\PSoC4/isr_acc.c **** *   CY_ISR_PROTO(MyISR);
  91:Generated_Source\PSoC4/isr_acc.c **** *
  92:Generated_Source\PSoC4/isr_acc.c **** * Parameters:  
  93:Generated_Source\PSoC4/isr_acc.c **** *   address: Address of the ISR to set in the interrupt vector table.
  94:Generated_Source\PSoC4/isr_acc.c **** *
  95:Generated_Source\PSoC4/isr_acc.c **** * Return:
  96:Generated_Source\PSoC4/isr_acc.c **** *   None
  97:Generated_Source\PSoC4/isr_acc.c **** *
  98:Generated_Source\PSoC4/isr_acc.c **** *******************************************************************************/
  99:Generated_Source\PSoC4/isr_acc.c **** void isr_acc_StartEx(cyisraddress address)
 100:Generated_Source\PSoC4/isr_acc.c **** {
 101:Generated_Source\PSoC4/isr_acc.c ****     /* For all we know the interrupt is active. */
 102:Generated_Source\PSoC4/isr_acc.c ****     isr_acc_Disable();
 103:Generated_Source\PSoC4/isr_acc.c **** 
 104:Generated_Source\PSoC4/isr_acc.c ****     /* Set the ISR to point to the isr_acc Interrupt. */
 105:Generated_Source\PSoC4/isr_acc.c ****     isr_acc_SetVector(address);
 106:Generated_Source\PSoC4/isr_acc.c **** 
 107:Generated_Source\PSoC4/isr_acc.c ****     /* Set the priority. */
 108:Generated_Source\PSoC4/isr_acc.c ****     isr_acc_SetPriority((uint8)isr_acc_INTC_PRIOR_NUMBER);
 109:Generated_Source\PSoC4/isr_acc.c **** 
 110:Generated_Source\PSoC4/isr_acc.c ****     /* Enable it. */
 111:Generated_Source\PSoC4/isr_acc.c ****     isr_acc_Enable();
 112:Generated_Source\PSoC4/isr_acc.c **** }
 113:Generated_Source\PSoC4/isr_acc.c **** 
 114:Generated_Source\PSoC4/isr_acc.c **** 
 115:Generated_Source\PSoC4/isr_acc.c **** /*******************************************************************************
 116:Generated_Source\PSoC4/isr_acc.c **** * Function Name: isr_acc_Stop
 117:Generated_Source\PSoC4/isr_acc.c **** ********************************************************************************
 118:Generated_Source\PSoC4/isr_acc.c **** *
 119:Generated_Source\PSoC4/isr_acc.c **** * Summary:
 120:Generated_Source\PSoC4/isr_acc.c **** *   Disables and removes the interrupt.
 121:Generated_Source\PSoC4/isr_acc.c **** *
 122:Generated_Source\PSoC4/isr_acc.c **** * Parameters:  
 123:Generated_Source\PSoC4/isr_acc.c **** *   None
 124:Generated_Source\PSoC4/isr_acc.c **** *
 125:Generated_Source\PSoC4/isr_acc.c **** * Return:
 126:Generated_Source\PSoC4/isr_acc.c **** *   None
 127:Generated_Source\PSoC4/isr_acc.c **** *
 128:Generated_Source\PSoC4/isr_acc.c **** *******************************************************************************/
 129:Generated_Source\PSoC4/isr_acc.c **** void isr_acc_Stop(void)
 130:Generated_Source\PSoC4/isr_acc.c **** {
 131:Generated_Source\PSoC4/isr_acc.c ****     /* Disable this interrupt. */
 132:Generated_Source\PSoC4/isr_acc.c ****     isr_acc_Disable();
 133:Generated_Source\PSoC4/isr_acc.c **** 
 134:Generated_Source\PSoC4/isr_acc.c ****     /* Set the ISR to point to the passive one. */
 135:Generated_Source\PSoC4/isr_acc.c ****     isr_acc_SetVector(&IntDefaultHandler);
 136:Generated_Source\PSoC4/isr_acc.c **** }
 137:Generated_Source\PSoC4/isr_acc.c **** 
 138:Generated_Source\PSoC4/isr_acc.c **** 
 139:Generated_Source\PSoC4/isr_acc.c **** /*******************************************************************************
 140:Generated_Source\PSoC4/isr_acc.c **** * Function Name: isr_acc_Interrupt
 141:Generated_Source\PSoC4/isr_acc.c **** ********************************************************************************
 142:Generated_Source\PSoC4/isr_acc.c **** *
 143:Generated_Source\PSoC4/isr_acc.c **** * Summary:
 144:Generated_Source\PSoC4/isr_acc.c **** *   The default Interrupt Service Routine for isr_acc.
ARM GAS  C:\Users\diego\AppData\Local\Temp\ccVZKxVc.s 			page 4


 145:Generated_Source\PSoC4/isr_acc.c **** *
 146:Generated_Source\PSoC4/isr_acc.c **** *   Add custom code between the START and END comments to keep the next version
 147:Generated_Source\PSoC4/isr_acc.c **** *   of this file from over-writing your code.
 148:Generated_Source\PSoC4/isr_acc.c **** *
 149:Generated_Source\PSoC4/isr_acc.c **** *   Note You may use either the default ISR by using this API, or you may define
 150:Generated_Source\PSoC4/isr_acc.c **** *   your own separate ISR through ISR_StartEx().
 151:Generated_Source\PSoC4/isr_acc.c **** *
 152:Generated_Source\PSoC4/isr_acc.c **** * Parameters:  
 153:Generated_Source\PSoC4/isr_acc.c **** *   None
 154:Generated_Source\PSoC4/isr_acc.c **** *
 155:Generated_Source\PSoC4/isr_acc.c **** * Return:
 156:Generated_Source\PSoC4/isr_acc.c **** *   None
 157:Generated_Source\PSoC4/isr_acc.c **** *
 158:Generated_Source\PSoC4/isr_acc.c **** *******************************************************************************/
 159:Generated_Source\PSoC4/isr_acc.c **** CY_ISR(isr_acc_Interrupt)
 160:Generated_Source\PSoC4/isr_acc.c **** {
  28              		.loc 1 160 0
  29              		.cfi_startproc
  30              		@ args = 0, pretend = 0, frame = 0
  31              		@ frame_needed = 0, uses_anonymous_args = 0
  32              		@ link register save eliminated.
 161:Generated_Source\PSoC4/isr_acc.c ****     #ifdef isr_acc_INTERRUPT_INTERRUPT_CALLBACK
 162:Generated_Source\PSoC4/isr_acc.c ****         isr_acc_Interrupt_InterruptCallback();
 163:Generated_Source\PSoC4/isr_acc.c ****     #endif /* isr_acc_INTERRUPT_INTERRUPT_CALLBACK */ 
 164:Generated_Source\PSoC4/isr_acc.c **** 
 165:Generated_Source\PSoC4/isr_acc.c ****     /*  Place your Interrupt code here. */
 166:Generated_Source\PSoC4/isr_acc.c ****     /* `#START isr_acc_Interrupt` */
 167:Generated_Source\PSoC4/isr_acc.c **** 
 168:Generated_Source\PSoC4/isr_acc.c ****     /* `#END` */
 169:Generated_Source\PSoC4/isr_acc.c **** }
  33              		.loc 1 169 0
  34              		@ sp needed
  35 0000 7047     		bx	lr
  36              		.cfi_endproc
  37              	.LFE5:
  38              		.size	isr_acc_Interrupt, .-isr_acc_Interrupt
  39 0002 C046     		.section	.text.isr_acc_Start,"ax",%progbits
  40              		.align	2
  41              		.global	isr_acc_Start
  42              		.code	16
  43              		.thumb_func
  44              		.type	isr_acc_Start, %function
  45              	isr_acc_Start:
  46              	.LFB2:
  57:Generated_Source\PSoC4/isr_acc.c ****     /* For all we know the interrupt is active. */
  47              		.loc 1 57 0
  48              		.cfi_startproc
  49              		@ args = 0, pretend = 0, frame = 0
  50              		@ frame_needed = 0, uses_anonymous_args = 0
  51 0000 10B5     		push	{r4, lr}
  52              		.cfi_def_cfa_offset 8
  53              		.cfi_offset 4, -8
  54              		.cfi_offset 14, -4
  55              	.LBB26:
  56              	.LBB27:
 170:Generated_Source\PSoC4/isr_acc.c **** 
 171:Generated_Source\PSoC4/isr_acc.c **** 
ARM GAS  C:\Users\diego\AppData\Local\Temp\ccVZKxVc.s 			page 5


 172:Generated_Source\PSoC4/isr_acc.c **** /*******************************************************************************
 173:Generated_Source\PSoC4/isr_acc.c **** * Function Name: isr_acc_SetVector
 174:Generated_Source\PSoC4/isr_acc.c **** ********************************************************************************
 175:Generated_Source\PSoC4/isr_acc.c **** *
 176:Generated_Source\PSoC4/isr_acc.c **** * Summary:
 177:Generated_Source\PSoC4/isr_acc.c **** *   Change the ISR vector for the Interrupt. Note calling isr_acc_Start
 178:Generated_Source\PSoC4/isr_acc.c **** *   will override any effect this method would have had. To set the vector 
 179:Generated_Source\PSoC4/isr_acc.c **** *   before the component has been started use isr_acc_StartEx instead.
 180:Generated_Source\PSoC4/isr_acc.c **** * 
 181:Generated_Source\PSoC4/isr_acc.c **** *   When defining ISR functions, the CY_ISR and CY_ISR_PROTO macros should be 
 182:Generated_Source\PSoC4/isr_acc.c **** *   used to provide consistent definition across compilers:
 183:Generated_Source\PSoC4/isr_acc.c **** *
 184:Generated_Source\PSoC4/isr_acc.c **** *   Function definition example:
 185:Generated_Source\PSoC4/isr_acc.c **** *   CY_ISR(MyISR)
 186:Generated_Source\PSoC4/isr_acc.c **** *   {
 187:Generated_Source\PSoC4/isr_acc.c **** *   }
 188:Generated_Source\PSoC4/isr_acc.c **** *
 189:Generated_Source\PSoC4/isr_acc.c **** *   Function prototype example:
 190:Generated_Source\PSoC4/isr_acc.c **** *     CY_ISR_PROTO(MyISR);
 191:Generated_Source\PSoC4/isr_acc.c **** *
 192:Generated_Source\PSoC4/isr_acc.c **** * Parameters:
 193:Generated_Source\PSoC4/isr_acc.c **** *   address: Address of the ISR to set in the interrupt vector table.
 194:Generated_Source\PSoC4/isr_acc.c **** *
 195:Generated_Source\PSoC4/isr_acc.c **** * Return:
 196:Generated_Source\PSoC4/isr_acc.c **** *   None
 197:Generated_Source\PSoC4/isr_acc.c **** *
 198:Generated_Source\PSoC4/isr_acc.c **** *******************************************************************************/
 199:Generated_Source\PSoC4/isr_acc.c **** void isr_acc_SetVector(cyisraddress address)
 200:Generated_Source\PSoC4/isr_acc.c **** {
 201:Generated_Source\PSoC4/isr_acc.c ****     CyRamVectors[CYINT_IRQ_BASE + isr_acc__INTC_NUMBER] = address;
 202:Generated_Source\PSoC4/isr_acc.c **** }
 203:Generated_Source\PSoC4/isr_acc.c **** 
 204:Generated_Source\PSoC4/isr_acc.c **** 
 205:Generated_Source\PSoC4/isr_acc.c **** /*******************************************************************************
 206:Generated_Source\PSoC4/isr_acc.c **** * Function Name: isr_acc_GetVector
 207:Generated_Source\PSoC4/isr_acc.c **** ********************************************************************************
 208:Generated_Source\PSoC4/isr_acc.c **** *
 209:Generated_Source\PSoC4/isr_acc.c **** * Summary:
 210:Generated_Source\PSoC4/isr_acc.c **** *   Gets the "address" of the current ISR vector for the Interrupt.
 211:Generated_Source\PSoC4/isr_acc.c **** *
 212:Generated_Source\PSoC4/isr_acc.c **** * Parameters:
 213:Generated_Source\PSoC4/isr_acc.c **** *   None
 214:Generated_Source\PSoC4/isr_acc.c **** *
 215:Generated_Source\PSoC4/isr_acc.c **** * Return:
 216:Generated_Source\PSoC4/isr_acc.c **** *   Address of the ISR in the interrupt vector table.
 217:Generated_Source\PSoC4/isr_acc.c **** *
 218:Generated_Source\PSoC4/isr_acc.c **** *******************************************************************************/
 219:Generated_Source\PSoC4/isr_acc.c **** cyisraddress isr_acc_GetVector(void)
 220:Generated_Source\PSoC4/isr_acc.c **** {
 221:Generated_Source\PSoC4/isr_acc.c ****     return CyRamVectors[CYINT_IRQ_BASE + isr_acc__INTC_NUMBER];
 222:Generated_Source\PSoC4/isr_acc.c **** }
 223:Generated_Source\PSoC4/isr_acc.c **** 
 224:Generated_Source\PSoC4/isr_acc.c **** 
 225:Generated_Source\PSoC4/isr_acc.c **** /*******************************************************************************
 226:Generated_Source\PSoC4/isr_acc.c **** * Function Name: isr_acc_SetPriority
 227:Generated_Source\PSoC4/isr_acc.c **** ********************************************************************************
 228:Generated_Source\PSoC4/isr_acc.c **** *
ARM GAS  C:\Users\diego\AppData\Local\Temp\ccVZKxVc.s 			page 6


 229:Generated_Source\PSoC4/isr_acc.c **** * Summary:
 230:Generated_Source\PSoC4/isr_acc.c **** *   Sets the Priority of the Interrupt. 
 231:Generated_Source\PSoC4/isr_acc.c **** *
 232:Generated_Source\PSoC4/isr_acc.c **** *   Note calling isr_acc_Start or isr_acc_StartEx will 
 233:Generated_Source\PSoC4/isr_acc.c **** *   override any effect this API would have had. This API should only be called
 234:Generated_Source\PSoC4/isr_acc.c **** *   after isr_acc_Start or isr_acc_StartEx has been called. 
 235:Generated_Source\PSoC4/isr_acc.c **** *   To set the initial priority for the component, use the Design-Wide Resources
 236:Generated_Source\PSoC4/isr_acc.c **** *   Interrupt Editor.
 237:Generated_Source\PSoC4/isr_acc.c **** *
 238:Generated_Source\PSoC4/isr_acc.c **** *   Note This API has no effect on Non-maskable interrupt NMI).
 239:Generated_Source\PSoC4/isr_acc.c **** *
 240:Generated_Source\PSoC4/isr_acc.c **** * Parameters:
 241:Generated_Source\PSoC4/isr_acc.c **** *   priority: Priority of the interrupt, 0 being the highest priority
 242:Generated_Source\PSoC4/isr_acc.c **** *             PSoC 3 and PSoC 5LP: Priority is from 0 to 7.
 243:Generated_Source\PSoC4/isr_acc.c **** *             PSoC 4: Priority is from 0 to 3.
 244:Generated_Source\PSoC4/isr_acc.c **** *
 245:Generated_Source\PSoC4/isr_acc.c **** * Return:
 246:Generated_Source\PSoC4/isr_acc.c **** *   None
 247:Generated_Source\PSoC4/isr_acc.c **** *
 248:Generated_Source\PSoC4/isr_acc.c **** *******************************************************************************/
 249:Generated_Source\PSoC4/isr_acc.c **** void isr_acc_SetPriority(uint8 priority)
 250:Generated_Source\PSoC4/isr_acc.c **** {
 251:Generated_Source\PSoC4/isr_acc.c **** 	uint8 interruptState;
 252:Generated_Source\PSoC4/isr_acc.c ****     uint32 priorityOffset = ((isr_acc__INTC_NUMBER % 4u) * 8u) + 6u;
 253:Generated_Source\PSoC4/isr_acc.c ****     
 254:Generated_Source\PSoC4/isr_acc.c **** 	interruptState = CyEnterCriticalSection();
 255:Generated_Source\PSoC4/isr_acc.c ****     *isr_acc_INTC_PRIOR = (*isr_acc_INTC_PRIOR & (uint32)(~isr_acc__INTC_PRIOR_MASK)) |
 256:Generated_Source\PSoC4/isr_acc.c ****                                     ((uint32)priority << priorityOffset);
 257:Generated_Source\PSoC4/isr_acc.c **** 	CyExitCriticalSection(interruptState);
 258:Generated_Source\PSoC4/isr_acc.c **** }
 259:Generated_Source\PSoC4/isr_acc.c **** 
 260:Generated_Source\PSoC4/isr_acc.c **** 
 261:Generated_Source\PSoC4/isr_acc.c **** /*******************************************************************************
 262:Generated_Source\PSoC4/isr_acc.c **** * Function Name: isr_acc_GetPriority
 263:Generated_Source\PSoC4/isr_acc.c **** ********************************************************************************
 264:Generated_Source\PSoC4/isr_acc.c **** *
 265:Generated_Source\PSoC4/isr_acc.c **** * Summary:
 266:Generated_Source\PSoC4/isr_acc.c **** *   Gets the Priority of the Interrupt.
 267:Generated_Source\PSoC4/isr_acc.c **** *
 268:Generated_Source\PSoC4/isr_acc.c **** * Parameters:
 269:Generated_Source\PSoC4/isr_acc.c **** *   None
 270:Generated_Source\PSoC4/isr_acc.c **** *
 271:Generated_Source\PSoC4/isr_acc.c **** * Return:
 272:Generated_Source\PSoC4/isr_acc.c **** *   Priority of the interrupt, 0 being the highest priority
 273:Generated_Source\PSoC4/isr_acc.c **** *    PSoC 3 and PSoC 5LP: Priority is from 0 to 7.
 274:Generated_Source\PSoC4/isr_acc.c **** *    PSoC 4: Priority is from 0 to 3.
 275:Generated_Source\PSoC4/isr_acc.c **** *
 276:Generated_Source\PSoC4/isr_acc.c **** *******************************************************************************/
 277:Generated_Source\PSoC4/isr_acc.c **** uint8 isr_acc_GetPriority(void)
 278:Generated_Source\PSoC4/isr_acc.c **** {
 279:Generated_Source\PSoC4/isr_acc.c ****     uint32 priority;
 280:Generated_Source\PSoC4/isr_acc.c **** 	uint32 priorityOffset = ((isr_acc__INTC_NUMBER % 4u) * 8u) + 6u;
 281:Generated_Source\PSoC4/isr_acc.c **** 
 282:Generated_Source\PSoC4/isr_acc.c ****     priority = (*isr_acc_INTC_PRIOR & isr_acc__INTC_PRIOR_MASK) >> priorityOffset;
 283:Generated_Source\PSoC4/isr_acc.c **** 
 284:Generated_Source\PSoC4/isr_acc.c ****     return (uint8)priority;
 285:Generated_Source\PSoC4/isr_acc.c **** }
ARM GAS  C:\Users\diego\AppData\Local\Temp\ccVZKxVc.s 			page 7


 286:Generated_Source\PSoC4/isr_acc.c **** 
 287:Generated_Source\PSoC4/isr_acc.c **** 
 288:Generated_Source\PSoC4/isr_acc.c **** /*******************************************************************************
 289:Generated_Source\PSoC4/isr_acc.c **** * Function Name: isr_acc_Enable
 290:Generated_Source\PSoC4/isr_acc.c **** ********************************************************************************
 291:Generated_Source\PSoC4/isr_acc.c **** *
 292:Generated_Source\PSoC4/isr_acc.c **** * Summary:
 293:Generated_Source\PSoC4/isr_acc.c **** *   Enables the interrupt to the interrupt controller. Do not call this function
 294:Generated_Source\PSoC4/isr_acc.c **** *   unless ISR_Start() has been called or the functionality of the ISR_Start() 
 295:Generated_Source\PSoC4/isr_acc.c **** *   function, which sets the vector and the priority, has been called.
 296:Generated_Source\PSoC4/isr_acc.c **** *
 297:Generated_Source\PSoC4/isr_acc.c **** * Parameters:
 298:Generated_Source\PSoC4/isr_acc.c **** *   None
 299:Generated_Source\PSoC4/isr_acc.c **** *
 300:Generated_Source\PSoC4/isr_acc.c **** * Return:
 301:Generated_Source\PSoC4/isr_acc.c **** *   None
 302:Generated_Source\PSoC4/isr_acc.c **** *
 303:Generated_Source\PSoC4/isr_acc.c **** *******************************************************************************/
 304:Generated_Source\PSoC4/isr_acc.c **** void isr_acc_Enable(void)
 305:Generated_Source\PSoC4/isr_acc.c **** {
 306:Generated_Source\PSoC4/isr_acc.c ****     /* Enable the general interrupt. */
 307:Generated_Source\PSoC4/isr_acc.c ****     *isr_acc_INTC_SET_EN = isr_acc__INTC_MASK;
 308:Generated_Source\PSoC4/isr_acc.c **** }
 309:Generated_Source\PSoC4/isr_acc.c **** 
 310:Generated_Source\PSoC4/isr_acc.c **** 
 311:Generated_Source\PSoC4/isr_acc.c **** /*******************************************************************************
 312:Generated_Source\PSoC4/isr_acc.c **** * Function Name: isr_acc_GetState
 313:Generated_Source\PSoC4/isr_acc.c **** ********************************************************************************
 314:Generated_Source\PSoC4/isr_acc.c **** *
 315:Generated_Source\PSoC4/isr_acc.c **** * Summary:
 316:Generated_Source\PSoC4/isr_acc.c **** *   Gets the state (enabled, disabled) of the Interrupt.
 317:Generated_Source\PSoC4/isr_acc.c **** *
 318:Generated_Source\PSoC4/isr_acc.c **** * Parameters:
 319:Generated_Source\PSoC4/isr_acc.c **** *   None
 320:Generated_Source\PSoC4/isr_acc.c **** *
 321:Generated_Source\PSoC4/isr_acc.c **** * Return:
 322:Generated_Source\PSoC4/isr_acc.c **** *   1 if enabled, 0 if disabled.
 323:Generated_Source\PSoC4/isr_acc.c **** *
 324:Generated_Source\PSoC4/isr_acc.c **** *******************************************************************************/
 325:Generated_Source\PSoC4/isr_acc.c **** uint8 isr_acc_GetState(void)
 326:Generated_Source\PSoC4/isr_acc.c **** {
 327:Generated_Source\PSoC4/isr_acc.c ****     /* Get the state of the general interrupt. */
 328:Generated_Source\PSoC4/isr_acc.c ****     return ((*isr_acc_INTC_SET_EN & (uint32)isr_acc__INTC_MASK) != 0u) ? 1u:0u;
 329:Generated_Source\PSoC4/isr_acc.c **** }
 330:Generated_Source\PSoC4/isr_acc.c **** 
 331:Generated_Source\PSoC4/isr_acc.c **** 
 332:Generated_Source\PSoC4/isr_acc.c **** /*******************************************************************************
 333:Generated_Source\PSoC4/isr_acc.c **** * Function Name: isr_acc_Disable
 334:Generated_Source\PSoC4/isr_acc.c **** ********************************************************************************
 335:Generated_Source\PSoC4/isr_acc.c **** *
 336:Generated_Source\PSoC4/isr_acc.c **** * Summary:
 337:Generated_Source\PSoC4/isr_acc.c **** *   Disables the Interrupt in the interrupt controller.
 338:Generated_Source\PSoC4/isr_acc.c **** *
 339:Generated_Source\PSoC4/isr_acc.c **** * Parameters:
 340:Generated_Source\PSoC4/isr_acc.c **** *   None
 341:Generated_Source\PSoC4/isr_acc.c **** *
 342:Generated_Source\PSoC4/isr_acc.c **** * Return:
ARM GAS  C:\Users\diego\AppData\Local\Temp\ccVZKxVc.s 			page 8


 343:Generated_Source\PSoC4/isr_acc.c **** *   None
 344:Generated_Source\PSoC4/isr_acc.c **** *
 345:Generated_Source\PSoC4/isr_acc.c **** *******************************************************************************/
 346:Generated_Source\PSoC4/isr_acc.c **** void isr_acc_Disable(void)
 347:Generated_Source\PSoC4/isr_acc.c **** {
 348:Generated_Source\PSoC4/isr_acc.c ****     /* Disable the general interrupt. */
 349:Generated_Source\PSoC4/isr_acc.c ****     *isr_acc_INTC_CLR_EN = isr_acc__INTC_MASK;
  57              		.loc 1 349 0
  58 0002 0224     		movs	r4, #2
  59 0004 084B     		ldr	r3, .L3
  60              	.LBE27:
  61              	.LBE26:
  62              	.LBB29:
  63              	.LBB30:
 201:Generated_Source\PSoC4/isr_acc.c **** }
  64              		.loc 1 201 0
  65 0006 094A     		ldr	r2, .L3+4
  66              	.LBE30:
  67              	.LBE29:
  68              	.LBB33:
  69              	.LBB28:
  70              		.loc 1 349 0
  71 0008 1C60     		str	r4, [r3]
  72              	.LVL0:
  73              	.LBE28:
  74              	.LBE33:
  75              	.LBB34:
  76              	.LBB31:
 201:Generated_Source\PSoC4/isr_acc.c **** }
  77              		.loc 1 201 0
  78 000a 094B     		ldr	r3, .L3+8
  79              	.LBE31:
  80              	.LBE34:
  69:Generated_Source\PSoC4/isr_acc.c **** 
  81              		.loc 1 69 0
  82              		@ sp needed
  83              	.LBB35:
  84              	.LBB32:
 201:Generated_Source\PSoC4/isr_acc.c **** }
  85              		.loc 1 201 0
  86 000c 5A64     		str	r2, [r3, #68]
  87              	.LVL1:
  88              	.LBE32:
  89              	.LBE35:
  90              	.LBB36:
  91              	.LBB37:
 254:Generated_Source\PSoC4/isr_acc.c ****     *isr_acc_INTC_PRIOR = (*isr_acc_INTC_PRIOR & (uint32)(~isr_acc__INTC_PRIOR_MASK)) |
  92              		.loc 1 254 0
  93 000e FFF7FEFF 		bl	CyEnterCriticalSection
  94              	.LVL2:
 255:Generated_Source\PSoC4/isr_acc.c ****                                     ((uint32)priority << priorityOffset);
  95              		.loc 1 255 0
  96 0012 C023     		movs	r3, #192
  97 0014 074A     		ldr	r2, .L3+12
  98 0016 1B02     		lsls	r3, r3, #8
  99 0018 1168     		ldr	r1, [r2]
 100 001a 0B43     		orrs	r3, r1
ARM GAS  C:\Users\diego\AppData\Local\Temp\ccVZKxVc.s 			page 9


 101 001c 1360     		str	r3, [r2]
 257:Generated_Source\PSoC4/isr_acc.c **** }
 102              		.loc 1 257 0
 103 001e FFF7FEFF 		bl	CyExitCriticalSection
 104              	.LVL3:
 105              	.LBE37:
 106              	.LBE36:
 107              	.LBB38:
 108              	.LBB39:
 307:Generated_Source\PSoC4/isr_acc.c **** }
 109              		.loc 1 307 0
 110 0022 054B     		ldr	r3, .L3+16
 111 0024 1C60     		str	r4, [r3]
 112              	.LBE39:
 113              	.LBE38:
  69:Generated_Source\PSoC4/isr_acc.c **** 
 114              		.loc 1 69 0
 115 0026 10BD     		pop	{r4, pc}
 116              	.L4:
 117              		.align	2
 118              	.L3:
 119 0028 80E100E0 		.word	-536813184
 120 002c 00000000 		.word	isr_acc_Interrupt
 121 0030 00000000 		.word	CyRamVectors
 122 0034 00E400E0 		.word	-536812544
 123 0038 00E100E0 		.word	-536813312
 124              		.cfi_endproc
 125              	.LFE2:
 126              		.size	isr_acc_Start, .-isr_acc_Start
 127              		.section	.text.isr_acc_StartEx,"ax",%progbits
 128              		.align	2
 129              		.global	isr_acc_StartEx
 130              		.code	16
 131              		.thumb_func
 132              		.type	isr_acc_StartEx, %function
 133              	isr_acc_StartEx:
 134              	.LFB3:
 100:Generated_Source\PSoC4/isr_acc.c ****     /* For all we know the interrupt is active. */
 135              		.loc 1 100 0
 136              		.cfi_startproc
 137              		@ args = 0, pretend = 0, frame = 0
 138              		@ frame_needed = 0, uses_anonymous_args = 0
 139              	.LVL4:
 140 0000 10B5     		push	{r4, lr}
 141              		.cfi_def_cfa_offset 8
 142              		.cfi_offset 4, -8
 143              		.cfi_offset 14, -4
 144              	.LBB48:
 145              	.LBB49:
 146              		.loc 1 349 0
 147 0002 0224     		movs	r4, #2
 148 0004 084B     		ldr	r3, .L6
 149              	.LBE49:
 150              	.LBE48:
 112:Generated_Source\PSoC4/isr_acc.c **** 
 151              		.loc 1 112 0
 152              		@ sp needed
ARM GAS  C:\Users\diego\AppData\Local\Temp\ccVZKxVc.s 			page 10


 153              	.LBB51:
 154              	.LBB50:
 155              		.loc 1 349 0
 156 0006 1C60     		str	r4, [r3]
 157              	.LVL5:
 158              	.LBE50:
 159              	.LBE51:
 160              	.LBB52:
 161              	.LBB53:
 201:Generated_Source\PSoC4/isr_acc.c **** }
 162              		.loc 1 201 0
 163 0008 084B     		ldr	r3, .L6+4
 164 000a 5864     		str	r0, [r3, #68]
 165              	.LVL6:
 166              	.LBE53:
 167              	.LBE52:
 168              	.LBB54:
 169              	.LBB55:
 254:Generated_Source\PSoC4/isr_acc.c ****     *isr_acc_INTC_PRIOR = (*isr_acc_INTC_PRIOR & (uint32)(~isr_acc__INTC_PRIOR_MASK)) |
 170              		.loc 1 254 0
 171 000c FFF7FEFF 		bl	CyEnterCriticalSection
 172              	.LVL7:
 255:Generated_Source\PSoC4/isr_acc.c ****                                     ((uint32)priority << priorityOffset);
 173              		.loc 1 255 0
 174 0010 C023     		movs	r3, #192
 175 0012 074A     		ldr	r2, .L6+8
 176 0014 1B02     		lsls	r3, r3, #8
 177 0016 1168     		ldr	r1, [r2]
 178 0018 0B43     		orrs	r3, r1
 179 001a 1360     		str	r3, [r2]
 257:Generated_Source\PSoC4/isr_acc.c **** }
 180              		.loc 1 257 0
 181 001c FFF7FEFF 		bl	CyExitCriticalSection
 182              	.LVL8:
 183              	.LBE55:
 184              	.LBE54:
 185              	.LBB56:
 186              	.LBB57:
 307:Generated_Source\PSoC4/isr_acc.c **** }
 187              		.loc 1 307 0
 188 0020 044B     		ldr	r3, .L6+12
 189 0022 1C60     		str	r4, [r3]
 190              	.LBE57:
 191              	.LBE56:
 112:Generated_Source\PSoC4/isr_acc.c **** 
 192              		.loc 1 112 0
 193 0024 10BD     		pop	{r4, pc}
 194              	.L7:
 195 0026 C046     		.align	2
 196              	.L6:
 197 0028 80E100E0 		.word	-536813184
 198 002c 00000000 		.word	CyRamVectors
 199 0030 00E400E0 		.word	-536812544
 200 0034 00E100E0 		.word	-536813312
 201              		.cfi_endproc
 202              	.LFE3:
 203              		.size	isr_acc_StartEx, .-isr_acc_StartEx
ARM GAS  C:\Users\diego\AppData\Local\Temp\ccVZKxVc.s 			page 11


 204              		.section	.text.isr_acc_Stop,"ax",%progbits
 205              		.align	2
 206              		.global	isr_acc_Stop
 207              		.code	16
 208              		.thumb_func
 209              		.type	isr_acc_Stop, %function
 210              	isr_acc_Stop:
 211              	.LFB4:
 130:Generated_Source\PSoC4/isr_acc.c ****     /* Disable this interrupt. */
 212              		.loc 1 130 0
 213              		.cfi_startproc
 214              		@ args = 0, pretend = 0, frame = 0
 215              		@ frame_needed = 0, uses_anonymous_args = 0
 216              		@ link register save eliminated.
 217              	.LBB58:
 218              	.LBB59:
 219              		.loc 1 349 0
 220 0000 0222     		movs	r2, #2
 221 0002 034B     		ldr	r3, .L9
 222              	.LBE59:
 223              	.LBE58:
 136:Generated_Source\PSoC4/isr_acc.c **** 
 224              		.loc 1 136 0
 225              		@ sp needed
 226              	.LBB61:
 227              	.LBB60:
 228              		.loc 1 349 0
 229 0004 1A60     		str	r2, [r3]
 230              	.LVL9:
 231              	.LBE60:
 232              	.LBE61:
 233              	.LBB62:
 234              	.LBB63:
 201:Generated_Source\PSoC4/isr_acc.c **** }
 235              		.loc 1 201 0
 236 0006 034A     		ldr	r2, .L9+4
 237 0008 034B     		ldr	r3, .L9+8
 238 000a 5A64     		str	r2, [r3, #68]
 239              	.LVL10:
 240              	.LBE63:
 241              	.LBE62:
 136:Generated_Source\PSoC4/isr_acc.c **** 
 242              		.loc 1 136 0
 243 000c 7047     		bx	lr
 244              	.L10:
 245 000e C046     		.align	2
 246              	.L9:
 247 0010 80E100E0 		.word	-536813184
 248 0014 00000000 		.word	IntDefaultHandler
 249 0018 00000000 		.word	CyRamVectors
 250              		.cfi_endproc
 251              	.LFE4:
 252              		.size	isr_acc_Stop, .-isr_acc_Stop
 253              		.section	.text.isr_acc_SetVector,"ax",%progbits
 254              		.align	2
 255              		.global	isr_acc_SetVector
 256              		.code	16
ARM GAS  C:\Users\diego\AppData\Local\Temp\ccVZKxVc.s 			page 12


 257              		.thumb_func
 258              		.type	isr_acc_SetVector, %function
 259              	isr_acc_SetVector:
 260              	.LFB6:
 200:Generated_Source\PSoC4/isr_acc.c ****     CyRamVectors[CYINT_IRQ_BASE + isr_acc__INTC_NUMBER] = address;
 261              		.loc 1 200 0
 262              		.cfi_startproc
 263              		@ args = 0, pretend = 0, frame = 0
 264              		@ frame_needed = 0, uses_anonymous_args = 0
 265              		@ link register save eliminated.
 266              	.LVL11:
 201:Generated_Source\PSoC4/isr_acc.c **** }
 267              		.loc 1 201 0
 268 0000 014B     		ldr	r3, .L12
 202:Generated_Source\PSoC4/isr_acc.c **** 
 269              		.loc 1 202 0
 270              		@ sp needed
 201:Generated_Source\PSoC4/isr_acc.c **** }
 271              		.loc 1 201 0
 272 0002 5864     		str	r0, [r3, #68]
 202:Generated_Source\PSoC4/isr_acc.c **** 
 273              		.loc 1 202 0
 274 0004 7047     		bx	lr
 275              	.L13:
 276 0006 C046     		.align	2
 277              	.L12:
 278 0008 00000000 		.word	CyRamVectors
 279              		.cfi_endproc
 280              	.LFE6:
 281              		.size	isr_acc_SetVector, .-isr_acc_SetVector
 282              		.section	.text.isr_acc_GetVector,"ax",%progbits
 283              		.align	2
 284              		.global	isr_acc_GetVector
 285              		.code	16
 286              		.thumb_func
 287              		.type	isr_acc_GetVector, %function
 288              	isr_acc_GetVector:
 289              	.LFB7:
 220:Generated_Source\PSoC4/isr_acc.c ****     return CyRamVectors[CYINT_IRQ_BASE + isr_acc__INTC_NUMBER];
 290              		.loc 1 220 0
 291              		.cfi_startproc
 292              		@ args = 0, pretend = 0, frame = 0
 293              		@ frame_needed = 0, uses_anonymous_args = 0
 294              		@ link register save eliminated.
 221:Generated_Source\PSoC4/isr_acc.c **** }
 295              		.loc 1 221 0
 296 0000 014B     		ldr	r3, .L15
 222:Generated_Source\PSoC4/isr_acc.c **** 
 297              		.loc 1 222 0
 298              		@ sp needed
 221:Generated_Source\PSoC4/isr_acc.c **** }
 299              		.loc 1 221 0
 300 0002 586C     		ldr	r0, [r3, #68]
 222:Generated_Source\PSoC4/isr_acc.c **** 
 301              		.loc 1 222 0
 302 0004 7047     		bx	lr
 303              	.L16:
ARM GAS  C:\Users\diego\AppData\Local\Temp\ccVZKxVc.s 			page 13


 304 0006 C046     		.align	2
 305              	.L15:
 306 0008 00000000 		.word	CyRamVectors
 307              		.cfi_endproc
 308              	.LFE7:
 309              		.size	isr_acc_GetVector, .-isr_acc_GetVector
 310              		.section	.text.isr_acc_SetPriority,"ax",%progbits
 311              		.align	2
 312              		.global	isr_acc_SetPriority
 313              		.code	16
 314              		.thumb_func
 315              		.type	isr_acc_SetPriority, %function
 316              	isr_acc_SetPriority:
 317              	.LFB8:
 250:Generated_Source\PSoC4/isr_acc.c **** 	uint8 interruptState;
 318              		.loc 1 250 0
 319              		.cfi_startproc
 320              		@ args = 0, pretend = 0, frame = 0
 321              		@ frame_needed = 0, uses_anonymous_args = 0
 322              	.LVL12:
 323 0000 10B5     		push	{r4, lr}
 324              		.cfi_def_cfa_offset 8
 325              		.cfi_offset 4, -8
 326              		.cfi_offset 14, -4
 250:Generated_Source\PSoC4/isr_acc.c **** 	uint8 interruptState;
 327              		.loc 1 250 0
 328 0002 0400     		movs	r4, r0
 254:Generated_Source\PSoC4/isr_acc.c ****     *isr_acc_INTC_PRIOR = (*isr_acc_INTC_PRIOR & (uint32)(~isr_acc__INTC_PRIOR_MASK)) |
 329              		.loc 1 254 0
 330 0004 FFF7FEFF 		bl	CyEnterCriticalSection
 331              	.LVL13:
 255:Generated_Source\PSoC4/isr_acc.c ****                                     ((uint32)priority << priorityOffset);
 332              		.loc 1 255 0
 333 0008 044A     		ldr	r2, .L18
 334 000a 054B     		ldr	r3, .L18+4
 335 000c 1168     		ldr	r1, [r2]
 336 000e A403     		lsls	r4, r4, #14
 337 0010 0B40     		ands	r3, r1
 338 0012 1C43     		orrs	r4, r3
 339 0014 1460     		str	r4, [r2]
 257:Generated_Source\PSoC4/isr_acc.c **** }
 340              		.loc 1 257 0
 341 0016 FFF7FEFF 		bl	CyExitCriticalSection
 342              	.LVL14:
 258:Generated_Source\PSoC4/isr_acc.c **** 
 343              		.loc 1 258 0
 344              		@ sp needed
 345 001a 10BD     		pop	{r4, pc}
 346              	.L19:
 347              		.align	2
 348              	.L18:
 349 001c 00E400E0 		.word	-536812544
 350 0020 FF3FFFFF 		.word	-49153
 351              		.cfi_endproc
 352              	.LFE8:
 353              		.size	isr_acc_SetPriority, .-isr_acc_SetPriority
 354              		.section	.text.isr_acc_GetPriority,"ax",%progbits
ARM GAS  C:\Users\diego\AppData\Local\Temp\ccVZKxVc.s 			page 14


 355              		.align	2
 356              		.global	isr_acc_GetPriority
 357              		.code	16
 358              		.thumb_func
 359              		.type	isr_acc_GetPriority, %function
 360              	isr_acc_GetPriority:
 361              	.LFB9:
 278:Generated_Source\PSoC4/isr_acc.c ****     uint32 priority;
 362              		.loc 1 278 0
 363              		.cfi_startproc
 364              		@ args = 0, pretend = 0, frame = 0
 365              		@ frame_needed = 0, uses_anonymous_args = 0
 366              		@ link register save eliminated.
 367              	.LVL15:
 282:Generated_Source\PSoC4/isr_acc.c **** 
 368              		.loc 1 282 0
 369 0000 024B     		ldr	r3, .L21
 285:Generated_Source\PSoC4/isr_acc.c **** 
 370              		.loc 1 285 0
 371              		@ sp needed
 282:Generated_Source\PSoC4/isr_acc.c **** 
 372              		.loc 1 282 0
 373 0002 1868     		ldr	r0, [r3]
 374              	.LVL16:
 284:Generated_Source\PSoC4/isr_acc.c **** }
 375              		.loc 1 284 0
 376 0004 0004     		lsls	r0, r0, #16
 377              	.LVL17:
 378 0006 800F     		lsrs	r0, r0, #30
 285:Generated_Source\PSoC4/isr_acc.c **** 
 379              		.loc 1 285 0
 380 0008 7047     		bx	lr
 381              	.L22:
 382 000a C046     		.align	2
 383              	.L21:
 384 000c 00E400E0 		.word	-536812544
 385              		.cfi_endproc
 386              	.LFE9:
 387              		.size	isr_acc_GetPriority, .-isr_acc_GetPriority
 388              		.section	.text.isr_acc_Enable,"ax",%progbits
 389              		.align	2
 390              		.global	isr_acc_Enable
 391              		.code	16
 392              		.thumb_func
 393              		.type	isr_acc_Enable, %function
 394              	isr_acc_Enable:
 395              	.LFB10:
 305:Generated_Source\PSoC4/isr_acc.c ****     /* Enable the general interrupt. */
 396              		.loc 1 305 0
 397              		.cfi_startproc
 398              		@ args = 0, pretend = 0, frame = 0
 399              		@ frame_needed = 0, uses_anonymous_args = 0
 400              		@ link register save eliminated.
 307:Generated_Source\PSoC4/isr_acc.c **** }
 401              		.loc 1 307 0
 402 0000 0222     		movs	r2, #2
 403 0002 014B     		ldr	r3, .L24
ARM GAS  C:\Users\diego\AppData\Local\Temp\ccVZKxVc.s 			page 15


 308:Generated_Source\PSoC4/isr_acc.c **** 
 404              		.loc 1 308 0
 405              		@ sp needed
 307:Generated_Source\PSoC4/isr_acc.c **** }
 406              		.loc 1 307 0
 407 0004 1A60     		str	r2, [r3]
 308:Generated_Source\PSoC4/isr_acc.c **** 
 408              		.loc 1 308 0
 409 0006 7047     		bx	lr
 410              	.L25:
 411              		.align	2
 412              	.L24:
 413 0008 00E100E0 		.word	-536813312
 414              		.cfi_endproc
 415              	.LFE10:
 416              		.size	isr_acc_Enable, .-isr_acc_Enable
 417              		.section	.text.isr_acc_GetState,"ax",%progbits
 418              		.align	2
 419              		.global	isr_acc_GetState
 420              		.code	16
 421              		.thumb_func
 422              		.type	isr_acc_GetState, %function
 423              	isr_acc_GetState:
 424              	.LFB11:
 326:Generated_Source\PSoC4/isr_acc.c ****     /* Get the state of the general interrupt. */
 425              		.loc 1 326 0
 426              		.cfi_startproc
 427              		@ args = 0, pretend = 0, frame = 0
 428              		@ frame_needed = 0, uses_anonymous_args = 0
 429              		@ link register save eliminated.
 328:Generated_Source\PSoC4/isr_acc.c **** }
 430              		.loc 1 328 0
 431 0000 024B     		ldr	r3, .L27
 329:Generated_Source\PSoC4/isr_acc.c **** 
 432              		.loc 1 329 0
 433              		@ sp needed
 328:Generated_Source\PSoC4/isr_acc.c **** }
 434              		.loc 1 328 0
 435 0002 1868     		ldr	r0, [r3]
 436 0004 8007     		lsls	r0, r0, #30
 437 0006 C00F     		lsrs	r0, r0, #31
 329:Generated_Source\PSoC4/isr_acc.c **** 
 438              		.loc 1 329 0
 439 0008 7047     		bx	lr
 440              	.L28:
 441 000a C046     		.align	2
 442              	.L27:
 443 000c 00E100E0 		.word	-536813312
 444              		.cfi_endproc
 445              	.LFE11:
 446              		.size	isr_acc_GetState, .-isr_acc_GetState
 447              		.section	.text.isr_acc_Disable,"ax",%progbits
 448              		.align	2
 449              		.global	isr_acc_Disable
 450              		.code	16
 451              		.thumb_func
 452              		.type	isr_acc_Disable, %function
ARM GAS  C:\Users\diego\AppData\Local\Temp\ccVZKxVc.s 			page 16


 453              	isr_acc_Disable:
 454              	.LFB12:
 347:Generated_Source\PSoC4/isr_acc.c ****     /* Disable the general interrupt. */
 455              		.loc 1 347 0
 456              		.cfi_startproc
 457              		@ args = 0, pretend = 0, frame = 0
 458              		@ frame_needed = 0, uses_anonymous_args = 0
 459              		@ link register save eliminated.
 460              		.loc 1 349 0
 461 0000 0222     		movs	r2, #2
 462 0002 014B     		ldr	r3, .L30
 350:Generated_Source\PSoC4/isr_acc.c **** }
 463              		.loc 1 350 0
 464              		@ sp needed
 349:Generated_Source\PSoC4/isr_acc.c **** }
 465              		.loc 1 349 0
 466 0004 1A60     		str	r2, [r3]
 467              		.loc 1 350 0
 468 0006 7047     		bx	lr
 469              	.L31:
 470              		.align	2
 471              	.L30:
 472 0008 80E100E0 		.word	-536813184
 473              		.cfi_endproc
 474              	.LFE12:
 475              		.size	isr_acc_Disable, .-isr_acc_Disable
 476              		.section	.text.isr_acc_SetPending,"ax",%progbits
 477              		.align	2
 478              		.global	isr_acc_SetPending
 479              		.code	16
 480              		.thumb_func
 481              		.type	isr_acc_SetPending, %function
 482              	isr_acc_SetPending:
 483              	.LFB13:
 351:Generated_Source\PSoC4/isr_acc.c **** 
 352:Generated_Source\PSoC4/isr_acc.c **** 
 353:Generated_Source\PSoC4/isr_acc.c **** /*******************************************************************************
 354:Generated_Source\PSoC4/isr_acc.c **** * Function Name: isr_acc_SetPending
 355:Generated_Source\PSoC4/isr_acc.c **** ********************************************************************************
 356:Generated_Source\PSoC4/isr_acc.c **** *
 357:Generated_Source\PSoC4/isr_acc.c **** * Summary:
 358:Generated_Source\PSoC4/isr_acc.c **** *   Causes the Interrupt to enter the pending state, a software method of
 359:Generated_Source\PSoC4/isr_acc.c **** *   generating the interrupt.
 360:Generated_Source\PSoC4/isr_acc.c **** *
 361:Generated_Source\PSoC4/isr_acc.c **** * Parameters:
 362:Generated_Source\PSoC4/isr_acc.c **** *   None
 363:Generated_Source\PSoC4/isr_acc.c **** *
 364:Generated_Source\PSoC4/isr_acc.c **** * Return:
 365:Generated_Source\PSoC4/isr_acc.c **** *   None
 366:Generated_Source\PSoC4/isr_acc.c **** *
 367:Generated_Source\PSoC4/isr_acc.c **** * Side Effects:
 368:Generated_Source\PSoC4/isr_acc.c **** *   If interrupts are enabled and the interrupt is set up properly, the ISR is
 369:Generated_Source\PSoC4/isr_acc.c **** *   entered (depending on the priority of this interrupt and other pending 
 370:Generated_Source\PSoC4/isr_acc.c **** *   interrupts).
 371:Generated_Source\PSoC4/isr_acc.c **** *
 372:Generated_Source\PSoC4/isr_acc.c **** *******************************************************************************/
 373:Generated_Source\PSoC4/isr_acc.c **** void isr_acc_SetPending(void)
ARM GAS  C:\Users\diego\AppData\Local\Temp\ccVZKxVc.s 			page 17


 374:Generated_Source\PSoC4/isr_acc.c **** {
 484              		.loc 1 374 0
 485              		.cfi_startproc
 486              		@ args = 0, pretend = 0, frame = 0
 487              		@ frame_needed = 0, uses_anonymous_args = 0
 488              		@ link register save eliminated.
 375:Generated_Source\PSoC4/isr_acc.c ****     *isr_acc_INTC_SET_PD = isr_acc__INTC_MASK;
 489              		.loc 1 375 0
 490 0000 0222     		movs	r2, #2
 491 0002 014B     		ldr	r3, .L33
 376:Generated_Source\PSoC4/isr_acc.c **** }
 492              		.loc 1 376 0
 493              		@ sp needed
 375:Generated_Source\PSoC4/isr_acc.c ****     *isr_acc_INTC_SET_PD = isr_acc__INTC_MASK;
 494              		.loc 1 375 0
 495 0004 1A60     		str	r2, [r3]
 496              		.loc 1 376 0
 497 0006 7047     		bx	lr
 498              	.L34:
 499              		.align	2
 500              	.L33:
 501 0008 00E200E0 		.word	-536813056
 502              		.cfi_endproc
 503              	.LFE13:
 504              		.size	isr_acc_SetPending, .-isr_acc_SetPending
 505              		.section	.text.isr_acc_ClearPending,"ax",%progbits
 506              		.align	2
 507              		.global	isr_acc_ClearPending
 508              		.code	16
 509              		.thumb_func
 510              		.type	isr_acc_ClearPending, %function
 511              	isr_acc_ClearPending:
 512              	.LFB14:
 377:Generated_Source\PSoC4/isr_acc.c **** 
 378:Generated_Source\PSoC4/isr_acc.c **** 
 379:Generated_Source\PSoC4/isr_acc.c **** /*******************************************************************************
 380:Generated_Source\PSoC4/isr_acc.c **** * Function Name: isr_acc_ClearPending
 381:Generated_Source\PSoC4/isr_acc.c **** ********************************************************************************
 382:Generated_Source\PSoC4/isr_acc.c **** *
 383:Generated_Source\PSoC4/isr_acc.c **** * Summary:
 384:Generated_Source\PSoC4/isr_acc.c **** *   Clears a pending interrupt in the interrupt controller.
 385:Generated_Source\PSoC4/isr_acc.c **** *
 386:Generated_Source\PSoC4/isr_acc.c **** *   Note Some interrupt sources are clear-on-read and require the block 
 387:Generated_Source\PSoC4/isr_acc.c **** *   interrupt/status register to be read/cleared with the appropriate block API 
 388:Generated_Source\PSoC4/isr_acc.c **** *   (GPIO, UART, and so on). Otherwise the ISR will continue to remain in 
 389:Generated_Source\PSoC4/isr_acc.c **** *   pending state even though the interrupt itself is cleared using this API.
 390:Generated_Source\PSoC4/isr_acc.c **** *
 391:Generated_Source\PSoC4/isr_acc.c **** * Parameters:
 392:Generated_Source\PSoC4/isr_acc.c **** *   None
 393:Generated_Source\PSoC4/isr_acc.c **** *
 394:Generated_Source\PSoC4/isr_acc.c **** * Return:
 395:Generated_Source\PSoC4/isr_acc.c **** *   None
 396:Generated_Source\PSoC4/isr_acc.c **** *
 397:Generated_Source\PSoC4/isr_acc.c **** *******************************************************************************/
 398:Generated_Source\PSoC4/isr_acc.c **** void isr_acc_ClearPending(void)
 399:Generated_Source\PSoC4/isr_acc.c **** {
 513              		.loc 1 399 0
ARM GAS  C:\Users\diego\AppData\Local\Temp\ccVZKxVc.s 			page 18


 514              		.cfi_startproc
 515              		@ args = 0, pretend = 0, frame = 0
 516              		@ frame_needed = 0, uses_anonymous_args = 0
 517              		@ link register save eliminated.
 400:Generated_Source\PSoC4/isr_acc.c ****     *isr_acc_INTC_CLR_PD = isr_acc__INTC_MASK;
 518              		.loc 1 400 0
 519 0000 0222     		movs	r2, #2
 520 0002 014B     		ldr	r3, .L36
 401:Generated_Source\PSoC4/isr_acc.c **** }
 521              		.loc 1 401 0
 522              		@ sp needed
 400:Generated_Source\PSoC4/isr_acc.c ****     *isr_acc_INTC_CLR_PD = isr_acc__INTC_MASK;
 523              		.loc 1 400 0
 524 0004 1A60     		str	r2, [r3]
 525              		.loc 1 401 0
 526 0006 7047     		bx	lr
 527              	.L37:
 528              		.align	2
 529              	.L36:
 530 0008 80E200E0 		.word	-536812928
 531              		.cfi_endproc
 532              	.LFE14:
 533              		.size	isr_acc_ClearPending, .-isr_acc_ClearPending
 534              		.text
 535              	.Letext0:
 536              		.file 2 "Generated_Source\\PSoC4/cytypes.h"
 537              		.file 3 "Generated_Source\\PSoC4/CyLib.h"
