ARM GAS  C:\Users\diego\AppData\Local\Temp\cco4NGgV.s 			page 1


   1              		.syntax unified
   2              		.cpu cortex-m0
   3              		.fpu softvfp
   4              		.eabi_attribute 20, 1
   5              		.eabi_attribute 21, 1
   6              		.eabi_attribute 23, 3
   7              		.eabi_attribute 24, 1
   8              		.eabi_attribute 25, 1
   9              		.eabi_attribute 26, 1
  10              		.eabi_attribute 30, 2
  11              		.eabi_attribute 34, 0
  12              		.eabi_attribute 18, 4
  13              		.thumb
  14              		.syntax unified
  15              		.file	"spi_mosi_m.c"
  16              		.text
  17              	.Ltext0:
  18              		.cfi_sections	.debug_frame
  19              		.section	.text.spi_mosi_m_SetDriveMode,"ax",%progbits
  20              		.align	2
  21              		.global	spi_mosi_m_SetDriveMode
  22              		.code	16
  23              		.thumb_func
  24              		.type	spi_mosi_m_SetDriveMode, %function
  25              	spi_mosi_m_SetDriveMode:
  26              	.LFB0:
  27              		.file 1 "Generated_Source\\PSoC4\\spi_mosi_m.c"
   1:Generated_Source\PSoC4/spi_mosi_m.c **** /*******************************************************************************
   2:Generated_Source\PSoC4/spi_mosi_m.c **** * File Name: spi_mosi_m.c  
   3:Generated_Source\PSoC4/spi_mosi_m.c **** * Version 2.20
   4:Generated_Source\PSoC4/spi_mosi_m.c **** *
   5:Generated_Source\PSoC4/spi_mosi_m.c **** * Description:
   6:Generated_Source\PSoC4/spi_mosi_m.c **** *  This file contains API to enable firmware control of a Pins component.
   7:Generated_Source\PSoC4/spi_mosi_m.c **** *
   8:Generated_Source\PSoC4/spi_mosi_m.c **** ********************************************************************************
   9:Generated_Source\PSoC4/spi_mosi_m.c **** * Copyright 2008-2015, Cypress Semiconductor Corporation.  All rights reserved.
  10:Generated_Source\PSoC4/spi_mosi_m.c **** * You may use this file only in accordance with the license, terms, conditions, 
  11:Generated_Source\PSoC4/spi_mosi_m.c **** * disclaimers, and limitations in the end user license agreement accompanying 
  12:Generated_Source\PSoC4/spi_mosi_m.c **** * the software package with which this file was provided.
  13:Generated_Source\PSoC4/spi_mosi_m.c **** *******************************************************************************/
  14:Generated_Source\PSoC4/spi_mosi_m.c **** 
  15:Generated_Source\PSoC4/spi_mosi_m.c **** #include "cytypes.h"
  16:Generated_Source\PSoC4/spi_mosi_m.c **** #include "spi_mosi_m.h"
  17:Generated_Source\PSoC4/spi_mosi_m.c **** 
  18:Generated_Source\PSoC4/spi_mosi_m.c **** 
  19:Generated_Source\PSoC4/spi_mosi_m.c **** #if defined(spi_mosi_m__PC)
  20:Generated_Source\PSoC4/spi_mosi_m.c ****     #define spi_mosi_m_SetP4PinDriveMode(shift, mode)  \
  21:Generated_Source\PSoC4/spi_mosi_m.c ****     do { \
  22:Generated_Source\PSoC4/spi_mosi_m.c ****         spi_mosi_m_PC =   (spi_mosi_m_PC & \
  23:Generated_Source\PSoC4/spi_mosi_m.c ****                                 (uint32)(~(uint32)(spi_mosi_m_DRIVE_MODE_IND_MASK << \
  24:Generated_Source\PSoC4/spi_mosi_m.c ****                                 (spi_mosi_m_DRIVE_MODE_BITS * (shift))))) | \
  25:Generated_Source\PSoC4/spi_mosi_m.c ****                                 (uint32)((uint32)(mode) << \
  26:Generated_Source\PSoC4/spi_mosi_m.c ****                                 (spi_mosi_m_DRIVE_MODE_BITS * (shift))); \
  27:Generated_Source\PSoC4/spi_mosi_m.c ****     } while (0)
  28:Generated_Source\PSoC4/spi_mosi_m.c **** #else
  29:Generated_Source\PSoC4/spi_mosi_m.c ****     #if (CY_PSOC4_4200L)
  30:Generated_Source\PSoC4/spi_mosi_m.c ****         #define spi_mosi_m_SetP4PinDriveMode(shift, mode)  \
ARM GAS  C:\Users\diego\AppData\Local\Temp\cco4NGgV.s 			page 2


  31:Generated_Source\PSoC4/spi_mosi_m.c ****         do { \
  32:Generated_Source\PSoC4/spi_mosi_m.c ****             spi_mosi_m_USBIO_CTRL_REG = (spi_mosi_m_USBIO_CTRL_REG & \
  33:Generated_Source\PSoC4/spi_mosi_m.c ****                                     (uint32)(~(uint32)(spi_mosi_m_DRIVE_MODE_IND_MASK << \
  34:Generated_Source\PSoC4/spi_mosi_m.c ****                                     (spi_mosi_m_DRIVE_MODE_BITS * (shift))))) | \
  35:Generated_Source\PSoC4/spi_mosi_m.c ****                                     (uint32)((uint32)(mode) << \
  36:Generated_Source\PSoC4/spi_mosi_m.c ****                                     (spi_mosi_m_DRIVE_MODE_BITS * (shift))); \
  37:Generated_Source\PSoC4/spi_mosi_m.c ****         } while (0)
  38:Generated_Source\PSoC4/spi_mosi_m.c ****     #endif
  39:Generated_Source\PSoC4/spi_mosi_m.c **** #endif
  40:Generated_Source\PSoC4/spi_mosi_m.c ****   
  41:Generated_Source\PSoC4/spi_mosi_m.c **** 
  42:Generated_Source\PSoC4/spi_mosi_m.c **** #if defined(spi_mosi_m__PC) || (CY_PSOC4_4200L) 
  43:Generated_Source\PSoC4/spi_mosi_m.c ****     /*******************************************************************************
  44:Generated_Source\PSoC4/spi_mosi_m.c ****     * Function Name: spi_mosi_m_SetDriveMode
  45:Generated_Source\PSoC4/spi_mosi_m.c ****     ****************************************************************************//**
  46:Generated_Source\PSoC4/spi_mosi_m.c ****     *
  47:Generated_Source\PSoC4/spi_mosi_m.c ****     * \brief Sets the drive mode for each of the Pins component's pins.
  48:Generated_Source\PSoC4/spi_mosi_m.c ****     * 
  49:Generated_Source\PSoC4/spi_mosi_m.c ****     * <b>Note</b> This affects all pins in the Pins component instance. Use the
  50:Generated_Source\PSoC4/spi_mosi_m.c ****     * Per-Pin APIs if you wish to control individual pin's drive modes.
  51:Generated_Source\PSoC4/spi_mosi_m.c ****     *
  52:Generated_Source\PSoC4/spi_mosi_m.c ****     * <b>Note</b> USBIOs have limited drive functionality. Refer to the Drive Mode
  53:Generated_Source\PSoC4/spi_mosi_m.c ****     * parameter for more information.
  54:Generated_Source\PSoC4/spi_mosi_m.c ****     *
  55:Generated_Source\PSoC4/spi_mosi_m.c ****     * \param mode
  56:Generated_Source\PSoC4/spi_mosi_m.c ****     *  Mode for the selected signals. Valid options are documented in 
  57:Generated_Source\PSoC4/spi_mosi_m.c ****     *  \ref driveMode.
  58:Generated_Source\PSoC4/spi_mosi_m.c ****     *
  59:Generated_Source\PSoC4/spi_mosi_m.c ****     * \return
  60:Generated_Source\PSoC4/spi_mosi_m.c ****     *  None
  61:Generated_Source\PSoC4/spi_mosi_m.c ****     *
  62:Generated_Source\PSoC4/spi_mosi_m.c ****     * \sideeffect
  63:Generated_Source\PSoC4/spi_mosi_m.c ****     *  If you use read-modify-write operations that are not atomic, the ISR can
  64:Generated_Source\PSoC4/spi_mosi_m.c ****     *  cause corruption of this function. An ISR that interrupts this function 
  65:Generated_Source\PSoC4/spi_mosi_m.c ****     *  and performs writes to the Pins component Drive Mode registers can cause 
  66:Generated_Source\PSoC4/spi_mosi_m.c ****     *  corrupted port data. To avoid this issue, you should either use the Per-Pin
  67:Generated_Source\PSoC4/spi_mosi_m.c ****     *  APIs (primary method) or disable interrupts around this function.
  68:Generated_Source\PSoC4/spi_mosi_m.c ****     *
  69:Generated_Source\PSoC4/spi_mosi_m.c ****     * \funcusage
  70:Generated_Source\PSoC4/spi_mosi_m.c ****     *  \snippet spi_mosi_m_SUT.c usage_spi_mosi_m_SetDriveMode
  71:Generated_Source\PSoC4/spi_mosi_m.c ****     *******************************************************************************/
  72:Generated_Source\PSoC4/spi_mosi_m.c ****     void spi_mosi_m_SetDriveMode(uint8 mode)
  73:Generated_Source\PSoC4/spi_mosi_m.c ****     {
  28              		.loc 1 73 0
  29              		.cfi_startproc
  30              		@ args = 0, pretend = 0, frame = 0
  31              		@ frame_needed = 0, uses_anonymous_args = 0
  32              		@ link register save eliminated.
  33              	.LVL0:
  74:Generated_Source\PSoC4/spi_mosi_m.c **** 		spi_mosi_m_SetP4PinDriveMode(spi_mosi_m__0__SHIFT, mode);
  34              		.loc 1 74 0
  35 0000 034A     		ldr	r2, .L2
  36 0002 044B     		ldr	r3, .L2+4
  37 0004 1168     		ldr	r1, [r2]
  38 0006 0003     		lsls	r0, r0, #12
  39              	.LVL1:
  40 0008 0B40     		ands	r3, r1
ARM GAS  C:\Users\diego\AppData\Local\Temp\cco4NGgV.s 			page 3


  41 000a 1843     		orrs	r0, r3
  42 000c 1060     		str	r0, [r2]
  75:Generated_Source\PSoC4/spi_mosi_m.c ****     }
  43              		.loc 1 75 0
  44              		@ sp needed
  45 000e 7047     		bx	lr
  46              	.L3:
  47              		.align	2
  48              	.L2:
  49 0010 08010440 		.word	1074004232
  50 0014 FF8FFFFF 		.word	-28673
  51              		.cfi_endproc
  52              	.LFE0:
  53              		.size	spi_mosi_m_SetDriveMode, .-spi_mosi_m_SetDriveMode
  54              		.section	.text.spi_mosi_m_Write,"ax",%progbits
  55              		.align	2
  56              		.global	spi_mosi_m_Write
  57              		.code	16
  58              		.thumb_func
  59              		.type	spi_mosi_m_Write, %function
  60              	spi_mosi_m_Write:
  61              	.LFB1:
  76:Generated_Source\PSoC4/spi_mosi_m.c **** #endif
  77:Generated_Source\PSoC4/spi_mosi_m.c **** 
  78:Generated_Source\PSoC4/spi_mosi_m.c **** 
  79:Generated_Source\PSoC4/spi_mosi_m.c **** /*******************************************************************************
  80:Generated_Source\PSoC4/spi_mosi_m.c **** * Function Name: spi_mosi_m_Write
  81:Generated_Source\PSoC4/spi_mosi_m.c **** ****************************************************************************//**
  82:Generated_Source\PSoC4/spi_mosi_m.c **** *
  83:Generated_Source\PSoC4/spi_mosi_m.c **** * \brief Writes the value to the physical port (data output register), masking
  84:Generated_Source\PSoC4/spi_mosi_m.c **** *  and shifting the bits appropriately. 
  85:Generated_Source\PSoC4/spi_mosi_m.c **** *
  86:Generated_Source\PSoC4/spi_mosi_m.c **** * The data output register controls the signal applied to the physical pin in 
  87:Generated_Source\PSoC4/spi_mosi_m.c **** * conjunction with the drive mode parameter. This function avoids changing 
  88:Generated_Source\PSoC4/spi_mosi_m.c **** * other bits in the port by using the appropriate method (read-modify-write or
  89:Generated_Source\PSoC4/spi_mosi_m.c **** * bit banding).
  90:Generated_Source\PSoC4/spi_mosi_m.c **** *
  91:Generated_Source\PSoC4/spi_mosi_m.c **** * <b>Note</b> This function should not be used on a hardware digital output pin 
  92:Generated_Source\PSoC4/spi_mosi_m.c **** * as it is driven by the hardware signal attached to it.
  93:Generated_Source\PSoC4/spi_mosi_m.c **** *
  94:Generated_Source\PSoC4/spi_mosi_m.c **** * \param value
  95:Generated_Source\PSoC4/spi_mosi_m.c **** *  Value to write to the component instance.
  96:Generated_Source\PSoC4/spi_mosi_m.c **** *
  97:Generated_Source\PSoC4/spi_mosi_m.c **** * \return 
  98:Generated_Source\PSoC4/spi_mosi_m.c **** *  None 
  99:Generated_Source\PSoC4/spi_mosi_m.c **** *
 100:Generated_Source\PSoC4/spi_mosi_m.c **** * \sideeffect
 101:Generated_Source\PSoC4/spi_mosi_m.c **** *  If you use read-modify-write operations that are not atomic; the Interrupt 
 102:Generated_Source\PSoC4/spi_mosi_m.c **** *  Service Routines (ISR) can cause corruption of this function. An ISR that 
 103:Generated_Source\PSoC4/spi_mosi_m.c **** *  interrupts this function and performs writes to the Pins component data 
 104:Generated_Source\PSoC4/spi_mosi_m.c **** *  register can cause corrupted port data. To avoid this issue, you should 
 105:Generated_Source\PSoC4/spi_mosi_m.c **** *  either use the Per-Pin APIs (primary method) or disable interrupts around 
 106:Generated_Source\PSoC4/spi_mosi_m.c **** *  this function.
 107:Generated_Source\PSoC4/spi_mosi_m.c **** *
 108:Generated_Source\PSoC4/spi_mosi_m.c **** * \funcusage
 109:Generated_Source\PSoC4/spi_mosi_m.c **** *  \snippet spi_mosi_m_SUT.c usage_spi_mosi_m_Write
 110:Generated_Source\PSoC4/spi_mosi_m.c **** *******************************************************************************/
ARM GAS  C:\Users\diego\AppData\Local\Temp\cco4NGgV.s 			page 4


 111:Generated_Source\PSoC4/spi_mosi_m.c **** void spi_mosi_m_Write(uint8 value)
 112:Generated_Source\PSoC4/spi_mosi_m.c **** {
  62              		.loc 1 112 0
  63              		.cfi_startproc
  64              		@ args = 0, pretend = 0, frame = 0
  65              		@ frame_needed = 0, uses_anonymous_args = 0
  66              		@ link register save eliminated.
  67              	.LVL2:
  68              		.loc 1 112 0
  69 0000 0300     		movs	r3, r0
 113:Generated_Source\PSoC4/spi_mosi_m.c ****     uint8 drVal = (uint8)(spi_mosi_m_DR & (uint8)(~spi_mosi_m_MASK));
  70              		.loc 1 113 0
  71 0002 1020     		movs	r0, #16
  72              	.LVL3:
  73 0004 0449     		ldr	r1, .L5
 114:Generated_Source\PSoC4/spi_mosi_m.c ****     drVal = (drVal | ((uint8)(value << spi_mosi_m_SHIFT) & spi_mosi_m_MASK));
 115:Generated_Source\PSoC4/spi_mosi_m.c ****     spi_mosi_m_DR = (uint32)drVal;
  74              		.loc 1 115 0
  75 0006 1B01     		lsls	r3, r3, #4
 113:Generated_Source\PSoC4/spi_mosi_m.c ****     uint8 drVal = (uint8)(spi_mosi_m_DR & (uint8)(~spi_mosi_m_MASK));
  76              		.loc 1 113 0
  77 0008 0A68     		ldr	r2, [r1]
 116:Generated_Source\PSoC4/spi_mosi_m.c **** }
  78              		.loc 1 116 0
  79              		@ sp needed
 113:Generated_Source\PSoC4/spi_mosi_m.c ****     uint8 drVal = (uint8)(spi_mosi_m_DR & (uint8)(~spi_mosi_m_MASK));
  80              		.loc 1 113 0
  81 000a 8243     		bics	r2, r0
  82 000c D2B2     		uxtb	r2, r2
 115:Generated_Source\PSoC4/spi_mosi_m.c **** }
  83              		.loc 1 115 0
  84 000e 1840     		ands	r0, r3
  85 0010 1043     		orrs	r0, r2
  86 0012 0860     		str	r0, [r1]
  87              		.loc 1 116 0
  88 0014 7047     		bx	lr
  89              	.L6:
  90 0016 C046     		.align	2
  91              	.L5:
  92 0018 00010440 		.word	1074004224
  93              		.cfi_endproc
  94              	.LFE1:
  95              		.size	spi_mosi_m_Write, .-spi_mosi_m_Write
  96              		.section	.text.spi_mosi_m_Read,"ax",%progbits
  97              		.align	2
  98              		.global	spi_mosi_m_Read
  99              		.code	16
 100              		.thumb_func
 101              		.type	spi_mosi_m_Read, %function
 102              	spi_mosi_m_Read:
 103              	.LFB2:
 117:Generated_Source\PSoC4/spi_mosi_m.c **** 
 118:Generated_Source\PSoC4/spi_mosi_m.c **** 
 119:Generated_Source\PSoC4/spi_mosi_m.c **** /*******************************************************************************
 120:Generated_Source\PSoC4/spi_mosi_m.c **** * Function Name: spi_mosi_m_Read
 121:Generated_Source\PSoC4/spi_mosi_m.c **** ****************************************************************************//**
 122:Generated_Source\PSoC4/spi_mosi_m.c **** *
ARM GAS  C:\Users\diego\AppData\Local\Temp\cco4NGgV.s 			page 5


 123:Generated_Source\PSoC4/spi_mosi_m.c **** * \brief Reads the associated physical port (pin status register) and masks 
 124:Generated_Source\PSoC4/spi_mosi_m.c **** *  the required bits according to the width and bit position of the component
 125:Generated_Source\PSoC4/spi_mosi_m.c **** *  instance. 
 126:Generated_Source\PSoC4/spi_mosi_m.c **** *
 127:Generated_Source\PSoC4/spi_mosi_m.c **** * The pin's status register returns the current logic level present on the 
 128:Generated_Source\PSoC4/spi_mosi_m.c **** * physical pin.
 129:Generated_Source\PSoC4/spi_mosi_m.c **** *
 130:Generated_Source\PSoC4/spi_mosi_m.c **** * \return 
 131:Generated_Source\PSoC4/spi_mosi_m.c **** *  The current value for the pins in the component as a right justified number.
 132:Generated_Source\PSoC4/spi_mosi_m.c **** *
 133:Generated_Source\PSoC4/spi_mosi_m.c **** * \funcusage
 134:Generated_Source\PSoC4/spi_mosi_m.c **** *  \snippet spi_mosi_m_SUT.c usage_spi_mosi_m_Read  
 135:Generated_Source\PSoC4/spi_mosi_m.c **** *******************************************************************************/
 136:Generated_Source\PSoC4/spi_mosi_m.c **** uint8 spi_mosi_m_Read(void)
 137:Generated_Source\PSoC4/spi_mosi_m.c **** {
 104              		.loc 1 137 0
 105              		.cfi_startproc
 106              		@ args = 0, pretend = 0, frame = 0
 107              		@ frame_needed = 0, uses_anonymous_args = 0
 108              		@ link register save eliminated.
 138:Generated_Source\PSoC4/spi_mosi_m.c ****     return (uint8)((spi_mosi_m_PS & spi_mosi_m_MASK) >> spi_mosi_m_SHIFT);
 109              		.loc 1 138 0
 110 0000 024B     		ldr	r3, .L8
 139:Generated_Source\PSoC4/spi_mosi_m.c **** }
 111              		.loc 1 139 0
 112              		@ sp needed
 138:Generated_Source\PSoC4/spi_mosi_m.c ****     return (uint8)((spi_mosi_m_PS & spi_mosi_m_MASK) >> spi_mosi_m_SHIFT);
 113              		.loc 1 138 0
 114 0002 1868     		ldr	r0, [r3]
 115 0004 C006     		lsls	r0, r0, #27
 116 0006 C00F     		lsrs	r0, r0, #31
 117              		.loc 1 139 0
 118 0008 7047     		bx	lr
 119              	.L9:
 120 000a C046     		.align	2
 121              	.L8:
 122 000c 04010440 		.word	1074004228
 123              		.cfi_endproc
 124              	.LFE2:
 125              		.size	spi_mosi_m_Read, .-spi_mosi_m_Read
 126              		.section	.text.spi_mosi_m_ReadDataReg,"ax",%progbits
 127              		.align	2
 128              		.global	spi_mosi_m_ReadDataReg
 129              		.code	16
 130              		.thumb_func
 131              		.type	spi_mosi_m_ReadDataReg, %function
 132              	spi_mosi_m_ReadDataReg:
 133              	.LFB3:
 140:Generated_Source\PSoC4/spi_mosi_m.c **** 
 141:Generated_Source\PSoC4/spi_mosi_m.c **** 
 142:Generated_Source\PSoC4/spi_mosi_m.c **** /*******************************************************************************
 143:Generated_Source\PSoC4/spi_mosi_m.c **** * Function Name: spi_mosi_m_ReadDataReg
 144:Generated_Source\PSoC4/spi_mosi_m.c **** ****************************************************************************//**
 145:Generated_Source\PSoC4/spi_mosi_m.c **** *
 146:Generated_Source\PSoC4/spi_mosi_m.c **** * \brief Reads the associated physical port's data output register and masks 
 147:Generated_Source\PSoC4/spi_mosi_m.c **** *  the correct bits according to the width and bit position of the component 
 148:Generated_Source\PSoC4/spi_mosi_m.c **** *  instance. 
ARM GAS  C:\Users\diego\AppData\Local\Temp\cco4NGgV.s 			page 6


 149:Generated_Source\PSoC4/spi_mosi_m.c **** *
 150:Generated_Source\PSoC4/spi_mosi_m.c **** * The data output register controls the signal applied to the physical pin in 
 151:Generated_Source\PSoC4/spi_mosi_m.c **** * conjunction with the drive mode parameter. This is not the same as the 
 152:Generated_Source\PSoC4/spi_mosi_m.c **** * preferred spi_mosi_m_Read() API because the 
 153:Generated_Source\PSoC4/spi_mosi_m.c **** * spi_mosi_m_ReadDataReg() reads the data register instead of the status 
 154:Generated_Source\PSoC4/spi_mosi_m.c **** * register. For output pins this is a useful function to determine the value 
 155:Generated_Source\PSoC4/spi_mosi_m.c **** * just written to the pin.
 156:Generated_Source\PSoC4/spi_mosi_m.c **** *
 157:Generated_Source\PSoC4/spi_mosi_m.c **** * \return 
 158:Generated_Source\PSoC4/spi_mosi_m.c **** *  The current value of the data register masked and shifted into a right 
 159:Generated_Source\PSoC4/spi_mosi_m.c **** *  justified number for the component instance.
 160:Generated_Source\PSoC4/spi_mosi_m.c **** *
 161:Generated_Source\PSoC4/spi_mosi_m.c **** * \funcusage
 162:Generated_Source\PSoC4/spi_mosi_m.c **** *  \snippet spi_mosi_m_SUT.c usage_spi_mosi_m_ReadDataReg 
 163:Generated_Source\PSoC4/spi_mosi_m.c **** *******************************************************************************/
 164:Generated_Source\PSoC4/spi_mosi_m.c **** uint8 spi_mosi_m_ReadDataReg(void)
 165:Generated_Source\PSoC4/spi_mosi_m.c **** {
 134              		.loc 1 165 0
 135              		.cfi_startproc
 136              		@ args = 0, pretend = 0, frame = 0
 137              		@ frame_needed = 0, uses_anonymous_args = 0
 138              		@ link register save eliminated.
 166:Generated_Source\PSoC4/spi_mosi_m.c ****     return (uint8)((spi_mosi_m_DR & spi_mosi_m_MASK) >> spi_mosi_m_SHIFT);
 139              		.loc 1 166 0
 140 0000 024B     		ldr	r3, .L11
 167:Generated_Source\PSoC4/spi_mosi_m.c **** }
 141              		.loc 1 167 0
 142              		@ sp needed
 166:Generated_Source\PSoC4/spi_mosi_m.c ****     return (uint8)((spi_mosi_m_DR & spi_mosi_m_MASK) >> spi_mosi_m_SHIFT);
 143              		.loc 1 166 0
 144 0002 1868     		ldr	r0, [r3]
 145 0004 C006     		lsls	r0, r0, #27
 146 0006 C00F     		lsrs	r0, r0, #31
 147              		.loc 1 167 0
 148 0008 7047     		bx	lr
 149              	.L12:
 150 000a C046     		.align	2
 151              	.L11:
 152 000c 00010440 		.word	1074004224
 153              		.cfi_endproc
 154              	.LFE3:
 155              		.size	spi_mosi_m_ReadDataReg, .-spi_mosi_m_ReadDataReg
 156              		.section	.text.spi_mosi_m_SetInterruptMode,"ax",%progbits
 157              		.align	2
 158              		.global	spi_mosi_m_SetInterruptMode
 159              		.code	16
 160              		.thumb_func
 161              		.type	spi_mosi_m_SetInterruptMode, %function
 162              	spi_mosi_m_SetInterruptMode:
 163              	.LFB4:
 168:Generated_Source\PSoC4/spi_mosi_m.c **** 
 169:Generated_Source\PSoC4/spi_mosi_m.c **** 
 170:Generated_Source\PSoC4/spi_mosi_m.c **** /*******************************************************************************
 171:Generated_Source\PSoC4/spi_mosi_m.c **** * Function Name: spi_mosi_m_SetInterruptMode
 172:Generated_Source\PSoC4/spi_mosi_m.c **** ****************************************************************************//**
 173:Generated_Source\PSoC4/spi_mosi_m.c **** *
 174:Generated_Source\PSoC4/spi_mosi_m.c **** * \brief Configures the interrupt mode for each of the Pins component's
ARM GAS  C:\Users\diego\AppData\Local\Temp\cco4NGgV.s 			page 7


 175:Generated_Source\PSoC4/spi_mosi_m.c **** *  pins. Alternatively you may set the interrupt mode for all the pins
 176:Generated_Source\PSoC4/spi_mosi_m.c **** *  specified in the Pins component.
 177:Generated_Source\PSoC4/spi_mosi_m.c **** *
 178:Generated_Source\PSoC4/spi_mosi_m.c **** *  <b>Note</b> The interrupt is port-wide and therefore any enabled pin
 179:Generated_Source\PSoC4/spi_mosi_m.c **** *  interrupt may trigger it.
 180:Generated_Source\PSoC4/spi_mosi_m.c **** *
 181:Generated_Source\PSoC4/spi_mosi_m.c **** * \param position
 182:Generated_Source\PSoC4/spi_mosi_m.c **** *  The pin position as listed in the Pins component. You may OR these to be 
 183:Generated_Source\PSoC4/spi_mosi_m.c **** *  able to configure the interrupt mode of multiple pins within a Pins 
 184:Generated_Source\PSoC4/spi_mosi_m.c **** *  component. Or you may use spi_mosi_m_INTR_ALL to configure the
 185:Generated_Source\PSoC4/spi_mosi_m.c **** *  interrupt mode of all the pins in the Pins component.       
 186:Generated_Source\PSoC4/spi_mosi_m.c **** *  - spi_mosi_m_0_INTR       (First pin in the list)
 187:Generated_Source\PSoC4/spi_mosi_m.c **** *  - spi_mosi_m_1_INTR       (Second pin in the list)
 188:Generated_Source\PSoC4/spi_mosi_m.c **** *  - ...
 189:Generated_Source\PSoC4/spi_mosi_m.c **** *  - spi_mosi_m_INTR_ALL     (All pins in Pins component)
 190:Generated_Source\PSoC4/spi_mosi_m.c **** *
 191:Generated_Source\PSoC4/spi_mosi_m.c **** * \param mode
 192:Generated_Source\PSoC4/spi_mosi_m.c **** *  Interrupt mode for the selected pins. Valid options are documented in
 193:Generated_Source\PSoC4/spi_mosi_m.c **** *  \ref intrMode.
 194:Generated_Source\PSoC4/spi_mosi_m.c **** *
 195:Generated_Source\PSoC4/spi_mosi_m.c **** * \return 
 196:Generated_Source\PSoC4/spi_mosi_m.c **** *  None
 197:Generated_Source\PSoC4/spi_mosi_m.c **** *  
 198:Generated_Source\PSoC4/spi_mosi_m.c **** * \sideeffect
 199:Generated_Source\PSoC4/spi_mosi_m.c **** *  It is recommended that the interrupt be disabled before calling this 
 200:Generated_Source\PSoC4/spi_mosi_m.c **** *  function to avoid unintended interrupt requests. Note that the interrupt
 201:Generated_Source\PSoC4/spi_mosi_m.c **** *  type is port wide, and therefore will trigger for any enabled pin on the 
 202:Generated_Source\PSoC4/spi_mosi_m.c **** *  port.
 203:Generated_Source\PSoC4/spi_mosi_m.c **** *
 204:Generated_Source\PSoC4/spi_mosi_m.c **** * \funcusage
 205:Generated_Source\PSoC4/spi_mosi_m.c **** *  \snippet spi_mosi_m_SUT.c usage_spi_mosi_m_SetInterruptMode
 206:Generated_Source\PSoC4/spi_mosi_m.c **** *******************************************************************************/
 207:Generated_Source\PSoC4/spi_mosi_m.c **** void spi_mosi_m_SetInterruptMode(uint16 position, uint16 mode)
 208:Generated_Source\PSoC4/spi_mosi_m.c **** {
 164              		.loc 1 208 0
 165              		.cfi_startproc
 166              		@ args = 0, pretend = 0, frame = 0
 167              		@ frame_needed = 0, uses_anonymous_args = 0
 168              		@ link register save eliminated.
 169              	.LVL4:
 209:Generated_Source\PSoC4/spi_mosi_m.c ****     uint32 intrCfg;
 210:Generated_Source\PSoC4/spi_mosi_m.c ****     
 211:Generated_Source\PSoC4/spi_mosi_m.c ****     intrCfg =  spi_mosi_m_INTCFG & (uint32)(~(uint32)position);
 170              		.loc 1 211 0
 171 0000 034A     		ldr	r2, .L14
 212:Generated_Source\PSoC4/spi_mosi_m.c ****     spi_mosi_m_INTCFG = intrCfg | ((uint32)position & (uint32)mode);
 213:Generated_Source\PSoC4/spi_mosi_m.c **** }
 172              		.loc 1 213 0
 173              		@ sp needed
 211:Generated_Source\PSoC4/spi_mosi_m.c ****     spi_mosi_m_INTCFG = intrCfg | ((uint32)position & (uint32)mode);
 174              		.loc 1 211 0
 175 0002 1368     		ldr	r3, [r2]
 176              	.LVL5:
 212:Generated_Source\PSoC4/spi_mosi_m.c ****     spi_mosi_m_INTCFG = intrCfg | ((uint32)position & (uint32)mode);
 177              		.loc 1 212 0
 178 0004 8343     		bics	r3, r0
 179              	.LVL6:
ARM GAS  C:\Users\diego\AppData\Local\Temp\cco4NGgV.s 			page 8


 180 0006 0840     		ands	r0, r1
 181              	.LVL7:
 182 0008 1843     		orrs	r0, r3
 183 000a 1060     		str	r0, [r2]
 184              		.loc 1 213 0
 185 000c 7047     		bx	lr
 186              	.L15:
 187 000e C046     		.align	2
 188              	.L14:
 189 0010 0C010440 		.word	1074004236
 190              		.cfi_endproc
 191              	.LFE4:
 192              		.size	spi_mosi_m_SetInterruptMode, .-spi_mosi_m_SetInterruptMode
 193              		.section	.text.spi_mosi_m_ClearInterrupt,"ax",%progbits
 194              		.align	2
 195              		.global	spi_mosi_m_ClearInterrupt
 196              		.code	16
 197              		.thumb_func
 198              		.type	spi_mosi_m_ClearInterrupt, %function
 199              	spi_mosi_m_ClearInterrupt:
 200              	.LFB5:
 214:Generated_Source\PSoC4/spi_mosi_m.c **** 
 215:Generated_Source\PSoC4/spi_mosi_m.c **** 
 216:Generated_Source\PSoC4/spi_mosi_m.c **** /*******************************************************************************
 217:Generated_Source\PSoC4/spi_mosi_m.c **** * Function Name: spi_mosi_m_ClearInterrupt
 218:Generated_Source\PSoC4/spi_mosi_m.c **** ****************************************************************************//**
 219:Generated_Source\PSoC4/spi_mosi_m.c **** *
 220:Generated_Source\PSoC4/spi_mosi_m.c **** * \brief Clears any active interrupts attached with the component and returns 
 221:Generated_Source\PSoC4/spi_mosi_m.c **** *  the value of the interrupt status register allowing determination of which
 222:Generated_Source\PSoC4/spi_mosi_m.c **** *  pins generated an interrupt event.
 223:Generated_Source\PSoC4/spi_mosi_m.c **** *
 224:Generated_Source\PSoC4/spi_mosi_m.c **** * \return 
 225:Generated_Source\PSoC4/spi_mosi_m.c **** *  The right-shifted current value of the interrupt status register. Each pin 
 226:Generated_Source\PSoC4/spi_mosi_m.c **** *  has one bit set if it generated an interrupt event. For example, bit 0 is 
 227:Generated_Source\PSoC4/spi_mosi_m.c **** *  for pin 0 and bit 1 is for pin 1 of the Pins component.
 228:Generated_Source\PSoC4/spi_mosi_m.c **** *  
 229:Generated_Source\PSoC4/spi_mosi_m.c **** * \sideeffect
 230:Generated_Source\PSoC4/spi_mosi_m.c **** *  Clears all bits of the physical port's interrupt status register, not just
 231:Generated_Source\PSoC4/spi_mosi_m.c **** *  those associated with the Pins component.
 232:Generated_Source\PSoC4/spi_mosi_m.c **** *
 233:Generated_Source\PSoC4/spi_mosi_m.c **** * \funcusage
 234:Generated_Source\PSoC4/spi_mosi_m.c **** *  \snippet spi_mosi_m_SUT.c usage_spi_mosi_m_ClearInterrupt
 235:Generated_Source\PSoC4/spi_mosi_m.c **** *******************************************************************************/
 236:Generated_Source\PSoC4/spi_mosi_m.c **** uint8 spi_mosi_m_ClearInterrupt(void)
 237:Generated_Source\PSoC4/spi_mosi_m.c **** {
 201              		.loc 1 237 0
 202              		.cfi_startproc
 203              		@ args = 0, pretend = 0, frame = 0
 204              		@ frame_needed = 0, uses_anonymous_args = 0
 205              		@ link register save eliminated.
 238:Generated_Source\PSoC4/spi_mosi_m.c **** 	uint8 maskedStatus = (uint8)(spi_mosi_m_INTSTAT & spi_mosi_m_MASK);
 206              		.loc 1 238 0
 207 0000 1020     		movs	r0, #16
 208 0002 034A     		ldr	r2, .L17
 239:Generated_Source\PSoC4/spi_mosi_m.c **** 	spi_mosi_m_INTSTAT = maskedStatus;
 240:Generated_Source\PSoC4/spi_mosi_m.c ****     return maskedStatus >> spi_mosi_m_SHIFT;
 241:Generated_Source\PSoC4/spi_mosi_m.c **** }
ARM GAS  C:\Users\diego\AppData\Local\Temp\cco4NGgV.s 			page 9


 209              		.loc 1 241 0
 210              		@ sp needed
 238:Generated_Source\PSoC4/spi_mosi_m.c **** 	uint8 maskedStatus = (uint8)(spi_mosi_m_INTSTAT & spi_mosi_m_MASK);
 211              		.loc 1 238 0
 212 0004 1368     		ldr	r3, [r2]
 213 0006 1840     		ands	r0, r3
 214              	.LVL8:
 239:Generated_Source\PSoC4/spi_mosi_m.c **** 	spi_mosi_m_INTSTAT = maskedStatus;
 215              		.loc 1 239 0
 216 0008 1060     		str	r0, [r2]
 240:Generated_Source\PSoC4/spi_mosi_m.c **** }
 217              		.loc 1 240 0
 218 000a 0009     		lsrs	r0, r0, #4
 219              	.LVL9:
 220 000c C0B2     		uxtb	r0, r0
 221              		.loc 1 241 0
 222 000e 7047     		bx	lr
 223              	.L18:
 224              		.align	2
 225              	.L17:
 226 0010 10010440 		.word	1074004240
 227              		.cfi_endproc
 228              	.LFE5:
 229              		.size	spi_mosi_m_ClearInterrupt, .-spi_mosi_m_ClearInterrupt
 230              		.text
 231              	.Letext0:
 232              		.file 2 "Generated_Source\\PSoC4\\cytypes.h"
