ARM GAS  C:\Users\diego\AppData\Local\Temp\ccw6UJfX.s 			page 1


   1              		.syntax unified
   2              		.cpu cortex-m0
   3              		.fpu softvfp
   4              		.eabi_attribute 20, 1
   5              		.eabi_attribute 21, 1
   6              		.eabi_attribute 23, 3
   7              		.eabi_attribute 24, 1
   8              		.eabi_attribute 25, 1
   9              		.eabi_attribute 26, 1
  10              		.eabi_attribute 30, 2
  11              		.eabi_attribute 34, 0
  12              		.eabi_attribute 18, 4
  13              		.thumb
  14              		.syntax unified
  15              		.file	"VLow.c"
  16              		.text
  17              	.Ltext0:
  18              		.cfi_sections	.debug_frame
  19              		.section	.text.VLow_SetDriveMode,"ax",%progbits
  20              		.align	2
  21              		.global	VLow_SetDriveMode
  22              		.code	16
  23              		.thumb_func
  24              		.type	VLow_SetDriveMode, %function
  25              	VLow_SetDriveMode:
  26              	.LFB0:
  27              		.file 1 "Generated_Source\\PSoC4\\VLow.c"
   1:Generated_Source\PSoC4/VLow.c **** /*******************************************************************************
   2:Generated_Source\PSoC4/VLow.c **** * File Name: VLow.c  
   3:Generated_Source\PSoC4/VLow.c **** * Version 2.20
   4:Generated_Source\PSoC4/VLow.c **** *
   5:Generated_Source\PSoC4/VLow.c **** * Description:
   6:Generated_Source\PSoC4/VLow.c **** *  This file contains API to enable firmware control of a Pins component.
   7:Generated_Source\PSoC4/VLow.c **** *
   8:Generated_Source\PSoC4/VLow.c **** ********************************************************************************
   9:Generated_Source\PSoC4/VLow.c **** * Copyright 2008-2015, Cypress Semiconductor Corporation.  All rights reserved.
  10:Generated_Source\PSoC4/VLow.c **** * You may use this file only in accordance with the license, terms, conditions, 
  11:Generated_Source\PSoC4/VLow.c **** * disclaimers, and limitations in the end user license agreement accompanying 
  12:Generated_Source\PSoC4/VLow.c **** * the software package with which this file was provided.
  13:Generated_Source\PSoC4/VLow.c **** *******************************************************************************/
  14:Generated_Source\PSoC4/VLow.c **** 
  15:Generated_Source\PSoC4/VLow.c **** #include "cytypes.h"
  16:Generated_Source\PSoC4/VLow.c **** #include "VLow.h"
  17:Generated_Source\PSoC4/VLow.c **** 
  18:Generated_Source\PSoC4/VLow.c **** 
  19:Generated_Source\PSoC4/VLow.c **** #if defined(VLow__PC)
  20:Generated_Source\PSoC4/VLow.c ****     #define VLow_SetP4PinDriveMode(shift, mode)  \
  21:Generated_Source\PSoC4/VLow.c ****     do { \
  22:Generated_Source\PSoC4/VLow.c ****         VLow_PC =   (VLow_PC & \
  23:Generated_Source\PSoC4/VLow.c ****                                 (uint32)(~(uint32)(VLow_DRIVE_MODE_IND_MASK << \
  24:Generated_Source\PSoC4/VLow.c ****                                 (VLow_DRIVE_MODE_BITS * (shift))))) | \
  25:Generated_Source\PSoC4/VLow.c ****                                 (uint32)((uint32)(mode) << \
  26:Generated_Source\PSoC4/VLow.c ****                                 (VLow_DRIVE_MODE_BITS * (shift))); \
  27:Generated_Source\PSoC4/VLow.c ****     } while (0)
  28:Generated_Source\PSoC4/VLow.c **** #else
  29:Generated_Source\PSoC4/VLow.c ****     #if (CY_PSOC4_4200L)
  30:Generated_Source\PSoC4/VLow.c ****         #define VLow_SetP4PinDriveMode(shift, mode)  \
ARM GAS  C:\Users\diego\AppData\Local\Temp\ccw6UJfX.s 			page 2


  31:Generated_Source\PSoC4/VLow.c ****         do { \
  32:Generated_Source\PSoC4/VLow.c ****             VLow_USBIO_CTRL_REG = (VLow_USBIO_CTRL_REG & \
  33:Generated_Source\PSoC4/VLow.c ****                                     (uint32)(~(uint32)(VLow_DRIVE_MODE_IND_MASK << \
  34:Generated_Source\PSoC4/VLow.c ****                                     (VLow_DRIVE_MODE_BITS * (shift))))) | \
  35:Generated_Source\PSoC4/VLow.c ****                                     (uint32)((uint32)(mode) << \
  36:Generated_Source\PSoC4/VLow.c ****                                     (VLow_DRIVE_MODE_BITS * (shift))); \
  37:Generated_Source\PSoC4/VLow.c ****         } while (0)
  38:Generated_Source\PSoC4/VLow.c ****     #endif
  39:Generated_Source\PSoC4/VLow.c **** #endif
  40:Generated_Source\PSoC4/VLow.c ****   
  41:Generated_Source\PSoC4/VLow.c **** 
  42:Generated_Source\PSoC4/VLow.c **** #if defined(VLow__PC) || (CY_PSOC4_4200L) 
  43:Generated_Source\PSoC4/VLow.c ****     /*******************************************************************************
  44:Generated_Source\PSoC4/VLow.c ****     * Function Name: VLow_SetDriveMode
  45:Generated_Source\PSoC4/VLow.c ****     ****************************************************************************//**
  46:Generated_Source\PSoC4/VLow.c ****     *
  47:Generated_Source\PSoC4/VLow.c ****     * \brief Sets the drive mode for each of the Pins component's pins.
  48:Generated_Source\PSoC4/VLow.c ****     * 
  49:Generated_Source\PSoC4/VLow.c ****     * <b>Note</b> This affects all pins in the Pins component instance. Use the
  50:Generated_Source\PSoC4/VLow.c ****     * Per-Pin APIs if you wish to control individual pin's drive modes.
  51:Generated_Source\PSoC4/VLow.c ****     *
  52:Generated_Source\PSoC4/VLow.c ****     * <b>Note</b> USBIOs have limited drive functionality. Refer to the Drive Mode
  53:Generated_Source\PSoC4/VLow.c ****     * parameter for more information.
  54:Generated_Source\PSoC4/VLow.c ****     *
  55:Generated_Source\PSoC4/VLow.c ****     * \param mode
  56:Generated_Source\PSoC4/VLow.c ****     *  Mode for the selected signals. Valid options are documented in 
  57:Generated_Source\PSoC4/VLow.c ****     *  \ref driveMode.
  58:Generated_Source\PSoC4/VLow.c ****     *
  59:Generated_Source\PSoC4/VLow.c ****     * \return
  60:Generated_Source\PSoC4/VLow.c ****     *  None
  61:Generated_Source\PSoC4/VLow.c ****     *
  62:Generated_Source\PSoC4/VLow.c ****     * \sideeffect
  63:Generated_Source\PSoC4/VLow.c ****     *  If you use read-modify-write operations that are not atomic, the ISR can
  64:Generated_Source\PSoC4/VLow.c ****     *  cause corruption of this function. An ISR that interrupts this function 
  65:Generated_Source\PSoC4/VLow.c ****     *  and performs writes to the Pins component Drive Mode registers can cause 
  66:Generated_Source\PSoC4/VLow.c ****     *  corrupted port data. To avoid this issue, you should either use the Per-Pin
  67:Generated_Source\PSoC4/VLow.c ****     *  APIs (primary method) or disable interrupts around this function.
  68:Generated_Source\PSoC4/VLow.c ****     *
  69:Generated_Source\PSoC4/VLow.c ****     * \funcusage
  70:Generated_Source\PSoC4/VLow.c ****     *  \snippet VLow_SUT.c usage_VLow_SetDriveMode
  71:Generated_Source\PSoC4/VLow.c ****     *******************************************************************************/
  72:Generated_Source\PSoC4/VLow.c ****     void VLow_SetDriveMode(uint8 mode)
  73:Generated_Source\PSoC4/VLow.c ****     {
  28              		.loc 1 73 0
  29              		.cfi_startproc
  30              		@ args = 0, pretend = 0, frame = 0
  31              		@ frame_needed = 0, uses_anonymous_args = 0
  32              		@ link register save eliminated.
  33              	.LVL0:
  74:Generated_Source\PSoC4/VLow.c **** 		VLow_SetP4PinDriveMode(VLow__0__SHIFT, mode);
  34              		.loc 1 74 0
  35 0000 034A     		ldr	r2, .L2
  36 0002 044B     		ldr	r3, .L2+4
  37 0004 1168     		ldr	r1, [r2]
  38 0006 4005     		lsls	r0, r0, #21
  39              	.LVL1:
  40 0008 0B40     		ands	r3, r1
ARM GAS  C:\Users\diego\AppData\Local\Temp\ccw6UJfX.s 			page 3


  41 000a 1843     		orrs	r0, r3
  42 000c 1060     		str	r0, [r2]
  75:Generated_Source\PSoC4/VLow.c ****     }
  43              		.loc 1 75 0
  44              		@ sp needed
  45 000e 7047     		bx	lr
  46              	.L3:
  47              		.align	2
  48              	.L2:
  49 0010 08030440 		.word	1074004744
  50 0014 FFFF1FFF 		.word	-14680065
  51              		.cfi_endproc
  52              	.LFE0:
  53              		.size	VLow_SetDriveMode, .-VLow_SetDriveMode
  54              		.section	.text.VLow_Write,"ax",%progbits
  55              		.align	2
  56              		.global	VLow_Write
  57              		.code	16
  58              		.thumb_func
  59              		.type	VLow_Write, %function
  60              	VLow_Write:
  61              	.LFB1:
  76:Generated_Source\PSoC4/VLow.c **** #endif
  77:Generated_Source\PSoC4/VLow.c **** 
  78:Generated_Source\PSoC4/VLow.c **** 
  79:Generated_Source\PSoC4/VLow.c **** /*******************************************************************************
  80:Generated_Source\PSoC4/VLow.c **** * Function Name: VLow_Write
  81:Generated_Source\PSoC4/VLow.c **** ****************************************************************************//**
  82:Generated_Source\PSoC4/VLow.c **** *
  83:Generated_Source\PSoC4/VLow.c **** * \brief Writes the value to the physical port (data output register), masking
  84:Generated_Source\PSoC4/VLow.c **** *  and shifting the bits appropriately. 
  85:Generated_Source\PSoC4/VLow.c **** *
  86:Generated_Source\PSoC4/VLow.c **** * The data output register controls the signal applied to the physical pin in 
  87:Generated_Source\PSoC4/VLow.c **** * conjunction with the drive mode parameter. This function avoids changing 
  88:Generated_Source\PSoC4/VLow.c **** * other bits in the port by using the appropriate method (read-modify-write or
  89:Generated_Source\PSoC4/VLow.c **** * bit banding).
  90:Generated_Source\PSoC4/VLow.c **** *
  91:Generated_Source\PSoC4/VLow.c **** * <b>Note</b> This function should not be used on a hardware digital output pin 
  92:Generated_Source\PSoC4/VLow.c **** * as it is driven by the hardware signal attached to it.
  93:Generated_Source\PSoC4/VLow.c **** *
  94:Generated_Source\PSoC4/VLow.c **** * \param value
  95:Generated_Source\PSoC4/VLow.c **** *  Value to write to the component instance.
  96:Generated_Source\PSoC4/VLow.c **** *
  97:Generated_Source\PSoC4/VLow.c **** * \return 
  98:Generated_Source\PSoC4/VLow.c **** *  None 
  99:Generated_Source\PSoC4/VLow.c **** *
 100:Generated_Source\PSoC4/VLow.c **** * \sideeffect
 101:Generated_Source\PSoC4/VLow.c **** *  If you use read-modify-write operations that are not atomic; the Interrupt 
 102:Generated_Source\PSoC4/VLow.c **** *  Service Routines (ISR) can cause corruption of this function. An ISR that 
 103:Generated_Source\PSoC4/VLow.c **** *  interrupts this function and performs writes to the Pins component data 
 104:Generated_Source\PSoC4/VLow.c **** *  register can cause corrupted port data. To avoid this issue, you should 
 105:Generated_Source\PSoC4/VLow.c **** *  either use the Per-Pin APIs (primary method) or disable interrupts around 
 106:Generated_Source\PSoC4/VLow.c **** *  this function.
 107:Generated_Source\PSoC4/VLow.c **** *
 108:Generated_Source\PSoC4/VLow.c **** * \funcusage
 109:Generated_Source\PSoC4/VLow.c **** *  \snippet VLow_SUT.c usage_VLow_Write
 110:Generated_Source\PSoC4/VLow.c **** *******************************************************************************/
ARM GAS  C:\Users\diego\AppData\Local\Temp\ccw6UJfX.s 			page 4


 111:Generated_Source\PSoC4/VLow.c **** void VLow_Write(uint8 value)
 112:Generated_Source\PSoC4/VLow.c **** {
  62              		.loc 1 112 0
  63              		.cfi_startproc
  64              		@ args = 0, pretend = 0, frame = 0
  65              		@ frame_needed = 0, uses_anonymous_args = 0
  66              		@ link register save eliminated.
  67              	.LVL2:
 113:Generated_Source\PSoC4/VLow.c ****     uint8 drVal = (uint8)(VLow_DR & (uint8)(~VLow_MASK));
  68              		.loc 1 113 0
  69 0000 7F21     		movs	r1, #127
  70 0002 044A     		ldr	r2, .L5
 114:Generated_Source\PSoC4/VLow.c ****     drVal = (drVal | ((uint8)(value << VLow_SHIFT) & VLow_MASK));
 115:Generated_Source\PSoC4/VLow.c ****     VLow_DR = (uint32)drVal;
  71              		.loc 1 115 0
  72 0004 C001     		lsls	r0, r0, #7
  73              	.LVL3:
 113:Generated_Source\PSoC4/VLow.c ****     uint8 drVal = (uint8)(VLow_DR & (uint8)(~VLow_MASK));
  74              		.loc 1 113 0
  75 0006 1368     		ldr	r3, [r2]
 116:Generated_Source\PSoC4/VLow.c **** }
  76              		.loc 1 116 0
  77              		@ sp needed
 113:Generated_Source\PSoC4/VLow.c ****     uint8 drVal = (uint8)(VLow_DR & (uint8)(~VLow_MASK));
  78              		.loc 1 113 0
  79 0008 0B40     		ands	r3, r1
 115:Generated_Source\PSoC4/VLow.c **** }
  80              		.loc 1 115 0
  81 000a 1843     		orrs	r0, r3
  82 000c C0B2     		uxtb	r0, r0
  83 000e 1060     		str	r0, [r2]
  84              		.loc 1 116 0
  85 0010 7047     		bx	lr
  86              	.L6:
  87 0012 C046     		.align	2
  88              	.L5:
  89 0014 00030440 		.word	1074004736
  90              		.cfi_endproc
  91              	.LFE1:
  92              		.size	VLow_Write, .-VLow_Write
  93              		.section	.text.VLow_Read,"ax",%progbits
  94              		.align	2
  95              		.global	VLow_Read
  96              		.code	16
  97              		.thumb_func
  98              		.type	VLow_Read, %function
  99              	VLow_Read:
 100              	.LFB2:
 117:Generated_Source\PSoC4/VLow.c **** 
 118:Generated_Source\PSoC4/VLow.c **** 
 119:Generated_Source\PSoC4/VLow.c **** /*******************************************************************************
 120:Generated_Source\PSoC4/VLow.c **** * Function Name: VLow_Read
 121:Generated_Source\PSoC4/VLow.c **** ****************************************************************************//**
 122:Generated_Source\PSoC4/VLow.c **** *
 123:Generated_Source\PSoC4/VLow.c **** * \brief Reads the associated physical port (pin status register) and masks 
 124:Generated_Source\PSoC4/VLow.c **** *  the required bits according to the width and bit position of the component
 125:Generated_Source\PSoC4/VLow.c **** *  instance. 
ARM GAS  C:\Users\diego\AppData\Local\Temp\ccw6UJfX.s 			page 5


 126:Generated_Source\PSoC4/VLow.c **** *
 127:Generated_Source\PSoC4/VLow.c **** * The pin's status register returns the current logic level present on the 
 128:Generated_Source\PSoC4/VLow.c **** * physical pin.
 129:Generated_Source\PSoC4/VLow.c **** *
 130:Generated_Source\PSoC4/VLow.c **** * \return 
 131:Generated_Source\PSoC4/VLow.c **** *  The current value for the pins in the component as a right justified number.
 132:Generated_Source\PSoC4/VLow.c **** *
 133:Generated_Source\PSoC4/VLow.c **** * \funcusage
 134:Generated_Source\PSoC4/VLow.c **** *  \snippet VLow_SUT.c usage_VLow_Read  
 135:Generated_Source\PSoC4/VLow.c **** *******************************************************************************/
 136:Generated_Source\PSoC4/VLow.c **** uint8 VLow_Read(void)
 137:Generated_Source\PSoC4/VLow.c **** {
 101              		.loc 1 137 0
 102              		.cfi_startproc
 103              		@ args = 0, pretend = 0, frame = 0
 104              		@ frame_needed = 0, uses_anonymous_args = 0
 105              		@ link register save eliminated.
 138:Generated_Source\PSoC4/VLow.c ****     return (uint8)((VLow_PS & VLow_MASK) >> VLow_SHIFT);
 106              		.loc 1 138 0
 107 0000 024B     		ldr	r3, .L8
 139:Generated_Source\PSoC4/VLow.c **** }
 108              		.loc 1 139 0
 109              		@ sp needed
 138:Generated_Source\PSoC4/VLow.c ****     return (uint8)((VLow_PS & VLow_MASK) >> VLow_SHIFT);
 110              		.loc 1 138 0
 111 0002 1868     		ldr	r0, [r3]
 112 0004 0006     		lsls	r0, r0, #24
 113 0006 C00F     		lsrs	r0, r0, #31
 114              		.loc 1 139 0
 115 0008 7047     		bx	lr
 116              	.L9:
 117 000a C046     		.align	2
 118              	.L8:
 119 000c 04030440 		.word	1074004740
 120              		.cfi_endproc
 121              	.LFE2:
 122              		.size	VLow_Read, .-VLow_Read
 123              		.section	.text.VLow_ReadDataReg,"ax",%progbits
 124              		.align	2
 125              		.global	VLow_ReadDataReg
 126              		.code	16
 127              		.thumb_func
 128              		.type	VLow_ReadDataReg, %function
 129              	VLow_ReadDataReg:
 130              	.LFB3:
 140:Generated_Source\PSoC4/VLow.c **** 
 141:Generated_Source\PSoC4/VLow.c **** 
 142:Generated_Source\PSoC4/VLow.c **** /*******************************************************************************
 143:Generated_Source\PSoC4/VLow.c **** * Function Name: VLow_ReadDataReg
 144:Generated_Source\PSoC4/VLow.c **** ****************************************************************************//**
 145:Generated_Source\PSoC4/VLow.c **** *
 146:Generated_Source\PSoC4/VLow.c **** * \brief Reads the associated physical port's data output register and masks 
 147:Generated_Source\PSoC4/VLow.c **** *  the correct bits according to the width and bit position of the component 
 148:Generated_Source\PSoC4/VLow.c **** *  instance. 
 149:Generated_Source\PSoC4/VLow.c **** *
 150:Generated_Source\PSoC4/VLow.c **** * The data output register controls the signal applied to the physical pin in 
 151:Generated_Source\PSoC4/VLow.c **** * conjunction with the drive mode parameter. This is not the same as the 
ARM GAS  C:\Users\diego\AppData\Local\Temp\ccw6UJfX.s 			page 6


 152:Generated_Source\PSoC4/VLow.c **** * preferred VLow_Read() API because the 
 153:Generated_Source\PSoC4/VLow.c **** * VLow_ReadDataReg() reads the data register instead of the status 
 154:Generated_Source\PSoC4/VLow.c **** * register. For output pins this is a useful function to determine the value 
 155:Generated_Source\PSoC4/VLow.c **** * just written to the pin.
 156:Generated_Source\PSoC4/VLow.c **** *
 157:Generated_Source\PSoC4/VLow.c **** * \return 
 158:Generated_Source\PSoC4/VLow.c **** *  The current value of the data register masked and shifted into a right 
 159:Generated_Source\PSoC4/VLow.c **** *  justified number for the component instance.
 160:Generated_Source\PSoC4/VLow.c **** *
 161:Generated_Source\PSoC4/VLow.c **** * \funcusage
 162:Generated_Source\PSoC4/VLow.c **** *  \snippet VLow_SUT.c usage_VLow_ReadDataReg 
 163:Generated_Source\PSoC4/VLow.c **** *******************************************************************************/
 164:Generated_Source\PSoC4/VLow.c **** uint8 VLow_ReadDataReg(void)
 165:Generated_Source\PSoC4/VLow.c **** {
 131              		.loc 1 165 0
 132              		.cfi_startproc
 133              		@ args = 0, pretend = 0, frame = 0
 134              		@ frame_needed = 0, uses_anonymous_args = 0
 135              		@ link register save eliminated.
 166:Generated_Source\PSoC4/VLow.c ****     return (uint8)((VLow_DR & VLow_MASK) >> VLow_SHIFT);
 136              		.loc 1 166 0
 137 0000 024B     		ldr	r3, .L11
 167:Generated_Source\PSoC4/VLow.c **** }
 138              		.loc 1 167 0
 139              		@ sp needed
 166:Generated_Source\PSoC4/VLow.c ****     return (uint8)((VLow_DR & VLow_MASK) >> VLow_SHIFT);
 140              		.loc 1 166 0
 141 0002 1868     		ldr	r0, [r3]
 142 0004 0006     		lsls	r0, r0, #24
 143 0006 C00F     		lsrs	r0, r0, #31
 144              		.loc 1 167 0
 145 0008 7047     		bx	lr
 146              	.L12:
 147 000a C046     		.align	2
 148              	.L11:
 149 000c 00030440 		.word	1074004736
 150              		.cfi_endproc
 151              	.LFE3:
 152              		.size	VLow_ReadDataReg, .-VLow_ReadDataReg
 153              		.section	.text.VLow_SetInterruptMode,"ax",%progbits
 154              		.align	2
 155              		.global	VLow_SetInterruptMode
 156              		.code	16
 157              		.thumb_func
 158              		.type	VLow_SetInterruptMode, %function
 159              	VLow_SetInterruptMode:
 160              	.LFB4:
 168:Generated_Source\PSoC4/VLow.c **** 
 169:Generated_Source\PSoC4/VLow.c **** 
 170:Generated_Source\PSoC4/VLow.c **** /*******************************************************************************
 171:Generated_Source\PSoC4/VLow.c **** * Function Name: VLow_SetInterruptMode
 172:Generated_Source\PSoC4/VLow.c **** ****************************************************************************//**
 173:Generated_Source\PSoC4/VLow.c **** *
 174:Generated_Source\PSoC4/VLow.c **** * \brief Configures the interrupt mode for each of the Pins component's
 175:Generated_Source\PSoC4/VLow.c **** *  pins. Alternatively you may set the interrupt mode for all the pins
 176:Generated_Source\PSoC4/VLow.c **** *  specified in the Pins component.
 177:Generated_Source\PSoC4/VLow.c **** *
ARM GAS  C:\Users\diego\AppData\Local\Temp\ccw6UJfX.s 			page 7


 178:Generated_Source\PSoC4/VLow.c **** *  <b>Note</b> The interrupt is port-wide and therefore any enabled pin
 179:Generated_Source\PSoC4/VLow.c **** *  interrupt may trigger it.
 180:Generated_Source\PSoC4/VLow.c **** *
 181:Generated_Source\PSoC4/VLow.c **** * \param position
 182:Generated_Source\PSoC4/VLow.c **** *  The pin position as listed in the Pins component. You may OR these to be 
 183:Generated_Source\PSoC4/VLow.c **** *  able to configure the interrupt mode of multiple pins within a Pins 
 184:Generated_Source\PSoC4/VLow.c **** *  component. Or you may use VLow_INTR_ALL to configure the
 185:Generated_Source\PSoC4/VLow.c **** *  interrupt mode of all the pins in the Pins component.       
 186:Generated_Source\PSoC4/VLow.c **** *  - VLow_0_INTR       (First pin in the list)
 187:Generated_Source\PSoC4/VLow.c **** *  - VLow_1_INTR       (Second pin in the list)
 188:Generated_Source\PSoC4/VLow.c **** *  - ...
 189:Generated_Source\PSoC4/VLow.c **** *  - VLow_INTR_ALL     (All pins in Pins component)
 190:Generated_Source\PSoC4/VLow.c **** *
 191:Generated_Source\PSoC4/VLow.c **** * \param mode
 192:Generated_Source\PSoC4/VLow.c **** *  Interrupt mode for the selected pins. Valid options are documented in
 193:Generated_Source\PSoC4/VLow.c **** *  \ref intrMode.
 194:Generated_Source\PSoC4/VLow.c **** *
 195:Generated_Source\PSoC4/VLow.c **** * \return 
 196:Generated_Source\PSoC4/VLow.c **** *  None
 197:Generated_Source\PSoC4/VLow.c **** *  
 198:Generated_Source\PSoC4/VLow.c **** * \sideeffect
 199:Generated_Source\PSoC4/VLow.c **** *  It is recommended that the interrupt be disabled before calling this 
 200:Generated_Source\PSoC4/VLow.c **** *  function to avoid unintended interrupt requests. Note that the interrupt
 201:Generated_Source\PSoC4/VLow.c **** *  type is port wide, and therefore will trigger for any enabled pin on the 
 202:Generated_Source\PSoC4/VLow.c **** *  port.
 203:Generated_Source\PSoC4/VLow.c **** *
 204:Generated_Source\PSoC4/VLow.c **** * \funcusage
 205:Generated_Source\PSoC4/VLow.c **** *  \snippet VLow_SUT.c usage_VLow_SetInterruptMode
 206:Generated_Source\PSoC4/VLow.c **** *******************************************************************************/
 207:Generated_Source\PSoC4/VLow.c **** void VLow_SetInterruptMode(uint16 position, uint16 mode)
 208:Generated_Source\PSoC4/VLow.c **** {
 161              		.loc 1 208 0
 162              		.cfi_startproc
 163              		@ args = 0, pretend = 0, frame = 0
 164              		@ frame_needed = 0, uses_anonymous_args = 0
 165              		@ link register save eliminated.
 166              	.LVL4:
 209:Generated_Source\PSoC4/VLow.c ****     uint32 intrCfg;
 210:Generated_Source\PSoC4/VLow.c ****     
 211:Generated_Source\PSoC4/VLow.c ****     intrCfg =  VLow_INTCFG & (uint32)(~(uint32)position);
 167              		.loc 1 211 0
 168 0000 034A     		ldr	r2, .L14
 212:Generated_Source\PSoC4/VLow.c ****     VLow_INTCFG = intrCfg | ((uint32)position & (uint32)mode);
 213:Generated_Source\PSoC4/VLow.c **** }
 169              		.loc 1 213 0
 170              		@ sp needed
 211:Generated_Source\PSoC4/VLow.c ****     VLow_INTCFG = intrCfg | ((uint32)position & (uint32)mode);
 171              		.loc 1 211 0
 172 0002 1368     		ldr	r3, [r2]
 173              	.LVL5:
 212:Generated_Source\PSoC4/VLow.c ****     VLow_INTCFG = intrCfg | ((uint32)position & (uint32)mode);
 174              		.loc 1 212 0
 175 0004 8343     		bics	r3, r0
 176              	.LVL6:
 177 0006 0840     		ands	r0, r1
 178              	.LVL7:
 179 0008 1843     		orrs	r0, r3
ARM GAS  C:\Users\diego\AppData\Local\Temp\ccw6UJfX.s 			page 8


 180 000a 1060     		str	r0, [r2]
 181              		.loc 1 213 0
 182 000c 7047     		bx	lr
 183              	.L15:
 184 000e C046     		.align	2
 185              	.L14:
 186 0010 0C030440 		.word	1074004748
 187              		.cfi_endproc
 188              	.LFE4:
 189              		.size	VLow_SetInterruptMode, .-VLow_SetInterruptMode
 190              		.section	.text.VLow_ClearInterrupt,"ax",%progbits
 191              		.align	2
 192              		.global	VLow_ClearInterrupt
 193              		.code	16
 194              		.thumb_func
 195              		.type	VLow_ClearInterrupt, %function
 196              	VLow_ClearInterrupt:
 197              	.LFB5:
 214:Generated_Source\PSoC4/VLow.c **** 
 215:Generated_Source\PSoC4/VLow.c **** 
 216:Generated_Source\PSoC4/VLow.c **** /*******************************************************************************
 217:Generated_Source\PSoC4/VLow.c **** * Function Name: VLow_ClearInterrupt
 218:Generated_Source\PSoC4/VLow.c **** ****************************************************************************//**
 219:Generated_Source\PSoC4/VLow.c **** *
 220:Generated_Source\PSoC4/VLow.c **** * \brief Clears any active interrupts attached with the component and returns 
 221:Generated_Source\PSoC4/VLow.c **** *  the value of the interrupt status register allowing determination of which
 222:Generated_Source\PSoC4/VLow.c **** *  pins generated an interrupt event.
 223:Generated_Source\PSoC4/VLow.c **** *
 224:Generated_Source\PSoC4/VLow.c **** * \return 
 225:Generated_Source\PSoC4/VLow.c **** *  The right-shifted current value of the interrupt status register. Each pin 
 226:Generated_Source\PSoC4/VLow.c **** *  has one bit set if it generated an interrupt event. For example, bit 0 is 
 227:Generated_Source\PSoC4/VLow.c **** *  for pin 0 and bit 1 is for pin 1 of the Pins component.
 228:Generated_Source\PSoC4/VLow.c **** *  
 229:Generated_Source\PSoC4/VLow.c **** * \sideeffect
 230:Generated_Source\PSoC4/VLow.c **** *  Clears all bits of the physical port's interrupt status register, not just
 231:Generated_Source\PSoC4/VLow.c **** *  those associated with the Pins component.
 232:Generated_Source\PSoC4/VLow.c **** *
 233:Generated_Source\PSoC4/VLow.c **** * \funcusage
 234:Generated_Source\PSoC4/VLow.c **** *  \snippet VLow_SUT.c usage_VLow_ClearInterrupt
 235:Generated_Source\PSoC4/VLow.c **** *******************************************************************************/
 236:Generated_Source\PSoC4/VLow.c **** uint8 VLow_ClearInterrupt(void)
 237:Generated_Source\PSoC4/VLow.c **** {
 198              		.loc 1 237 0
 199              		.cfi_startproc
 200              		@ args = 0, pretend = 0, frame = 0
 201              		@ frame_needed = 0, uses_anonymous_args = 0
 202              		@ link register save eliminated.
 238:Generated_Source\PSoC4/VLow.c **** 	uint8 maskedStatus = (uint8)(VLow_INTSTAT & VLow_MASK);
 203              		.loc 1 238 0
 204 0000 7F22     		movs	r2, #127
 205 0002 034B     		ldr	r3, .L17
 239:Generated_Source\PSoC4/VLow.c **** 	VLow_INTSTAT = maskedStatus;
 240:Generated_Source\PSoC4/VLow.c ****     return maskedStatus >> VLow_SHIFT;
 241:Generated_Source\PSoC4/VLow.c **** }
 206              		.loc 1 241 0
 207              		@ sp needed
 238:Generated_Source\PSoC4/VLow.c **** 	uint8 maskedStatus = (uint8)(VLow_INTSTAT & VLow_MASK);
ARM GAS  C:\Users\diego\AppData\Local\Temp\ccw6UJfX.s 			page 9


 208              		.loc 1 238 0
 209 0004 1868     		ldr	r0, [r3]
 210 0006 9043     		bics	r0, r2
 211 0008 C0B2     		uxtb	r0, r0
 212              	.LVL8:
 239:Generated_Source\PSoC4/VLow.c **** 	VLow_INTSTAT = maskedStatus;
 213              		.loc 1 239 0
 214 000a 1860     		str	r0, [r3]
 240:Generated_Source\PSoC4/VLow.c **** }
 215              		.loc 1 240 0
 216 000c C009     		lsrs	r0, r0, #7
 217              	.LVL9:
 218              		.loc 1 241 0
 219 000e 7047     		bx	lr
 220              	.L18:
 221              		.align	2
 222              	.L17:
 223 0010 10030440 		.word	1074004752
 224              		.cfi_endproc
 225              	.LFE5:
 226              		.size	VLow_ClearInterrupt, .-VLow_ClearInterrupt
 227              		.text
 228              	.Letext0:
 229              		.file 2 "Generated_Source\\PSoC4\\cytypes.h"
