ARM GAS  C:\Users\diego\AppData\Local\Temp\ccNmoqMP.s 			page 1


   1              		.syntax unified
   2              		.cpu cortex-m0
   3              		.fpu softvfp
   4              		.eabi_attribute 20, 1
   5              		.eabi_attribute 21, 1
   6              		.eabi_attribute 23, 3
   7              		.eabi_attribute 24, 1
   8              		.eabi_attribute 25, 1
   9              		.eabi_attribute 26, 1
  10              		.eabi_attribute 30, 2
  11              		.eabi_attribute 34, 0
  12              		.eabi_attribute 18, 4
  13              		.thumb
  14              		.syntax unified
  15              		.file	"WriteUserSFlash.c"
  16              		.text
  17              	.Ltext0:
  18              		.cfi_sections	.debug_frame
  19              		.section	.text.WriteUserSFlashRow,"ax",%progbits
  20              		.align	2
  21              		.global	WriteUserSFlashRow
  22              		.code	16
  23              		.thumb_func
  24              		.type	WriteUserSFlashRow, %function
  25              	WriteUserSFlashRow:
  26              	.LFB35:
  27              		.file 1 "WriteUserSFlash.c"
   1:WriteUserSFlash.c **** /******************************************************************************
   2:WriteUserSFlash.c **** * Project Name      : Solar BLE Sensor
   3:WriteUserSFlash.c **** * File Name         : WriteUserSFlash.c
   4:WriteUserSFlash.c **** * Version           : CYALKIT-E02 Sample Firmware, Version 1.2.00
   5:WriteUserSFlash.c **** * Device Used       : CYBLE-022001-00
   6:WriteUserSFlash.c **** * Software Used     : PSoC Creator 3.3 CP3
   7:WriteUserSFlash.c **** * Compiler          : ARM GCC 4.9.3
   8:WriteUserSFlash.c **** * Related Hardware  : Solar BLE Sensor
   9:WriteUserSFlash.c **** *
  10:WriteUserSFlash.c **** *******************************************************************************
  11:WriteUserSFlash.c **** * Copyright (2016), Cypress Semiconductor Corporation. All Rights Reserved.
  12:WriteUserSFlash.c **** *******************************************************************************
  13:WriteUserSFlash.c **** * This software is owned by Cypress Semiconductor Corporation (Cypress)
  14:WriteUserSFlash.c **** * and is protected by and subject to worldwide patent protection (United
  15:WriteUserSFlash.c **** * States and foreign), United States copyright laws and international treaty
  16:WriteUserSFlash.c **** * provisions. Cypress hereby grants to licensee a personal, non-exclusive,
  17:WriteUserSFlash.c **** * non-transferable license to copy, use, modify, create derivative works of,
  18:WriteUserSFlash.c **** * and compile the Cypress Source Code and derivative works for the sole
  19:WriteUserSFlash.c **** * purpose of creating custom software in support of licensee product to be
  20:WriteUserSFlash.c **** * used only in conjunction with a Cypress integrated circuit as specified in
  21:WriteUserSFlash.c **** * the applicable agreement. Any reproduction, modification, translation,
  22:WriteUserSFlash.c **** * compilation, or representation of this software except as specified above 
  23:WriteUserSFlash.c **** * is prohibited without the express written permission of Cypress.
  24:WriteUserSFlash.c **** *
  25:WriteUserSFlash.c **** * Disclaimer: CYPRESS MAKES NO WARRANTY OF ANY KIND, EXPRESS OR IMPLIED, WITH 
  26:WriteUserSFlash.c **** * REGARD TO THIS MATERIAL, INCLUDING, BUT NOT LIMITED TO, THE IMPLIED 
  27:WriteUserSFlash.c **** * WARRANTIES OF MERCHANTABILITY AND FITNESS FOR A PARTICULAR PURPOSE.
  28:WriteUserSFlash.c **** * Cypress reserves the right to make changes without further notice to the 
  29:WriteUserSFlash.c **** * materials described herein. Cypress does not assume any liability arising out 
  30:WriteUserSFlash.c **** * of the application or use of any product or circuit described herein. Cypress 
ARM GAS  C:\Users\diego\AppData\Local\Temp\ccNmoqMP.s 			page 2


  31:WriteUserSFlash.c **** * does not authorize its products for use as critical components in life-support 
  32:WriteUserSFlash.c **** * systems where a malfunction or failure may reasonably be expected to result in 
  33:WriteUserSFlash.c **** * significant injury to the user. The inclusion of Cypress' product in a life-
  34:WriteUserSFlash.c **** * support systems application implies that the manufacturer assumes all risk of 
  35:WriteUserSFlash.c **** * such use and in doing so indemnifies Cypress against all charges. 
  36:WriteUserSFlash.c **** *
  37:WriteUserSFlash.c **** * Use of this Software may be limited by and subject to the applicable Cypress
  38:WriteUserSFlash.c **** * software license agreement. 
  39:WriteUserSFlash.c **** *******************************************************************************/
  40:WriteUserSFlash.c **** 
  41:WriteUserSFlash.c **** #include <Project.h>
  42:WriteUserSFlash.c **** #include <WriteUserSFlash.h>
  43:WriteUserSFlash.c **** 
  44:WriteUserSFlash.c **** /*******************************************************************************
  45:WriteUserSFlash.c **** * Function Name: WriteUserSFlashRow
  46:WriteUserSFlash.c **** ********************************************************************************
  47:WriteUserSFlash.c **** * Summary:
  48:WriteUserSFlash.c **** *   This routine calls the PSoC 4 BLE device supervisory ROM APIs to update 
  49:WriteUserSFlash.c **** *   the user configuration area of Supervisory Flash (SFlash).  
  50:WriteUserSFlash.c **** *
  51:WriteUserSFlash.c **** * Parameters:
  52:WriteUserSFlash.c **** *   userRowNUmber - User config SFlash row number to which data is to be written
  53:WriteUserSFlash.c **** *   dataPointer - Pointer to the data to be written. This API writes one row of 
  54:WriteUserSFlash.c **** *                 user config SFlash row at a time.
  55:WriteUserSFlash.c **** *
  56:WriteUserSFlash.c **** * Return:
  57:WriteUserSFlash.c **** *   uint32_t - state of the user config SFlash write operation.
  58:WriteUserSFlash.c **** *******************************************************************************/
  59:WriteUserSFlash.c **** #if defined (__GNUC__)
  60:WriteUserSFlash.c **** #pragma GCC optimize ("O0")
  61:WriteUserSFlash.c **** #endif /* End of #if defined (__GNUC__) */
  62:WriteUserSFlash.c **** uint32_t WriteUserSFlashRow(uint8_t userRowNUmber, uint32_t *dataPointer)
  63:WriteUserSFlash.c **** {
  28              		.loc 1 63 0
  29              		.cfi_startproc
  30              		@ args = 0, pretend = 0, frame = 176
  31              		@ frame_needed = 1, uses_anonymous_args = 0
  32              	.LVL0:
  33 0000 80B5     		push	{r7, lr}
  34              		.cfi_def_cfa_offset 8
  35              		.cfi_offset 7, -8
  36              		.cfi_offset 14, -4
  37 0002 ACB0     		sub	sp, sp, #176
  38              		.cfi_def_cfa_offset 184
  39 0004 00AF     		add	r7, sp, #0
  40              		.cfi_def_cfa_register 7
  41 0006 0200     		movs	r2, r0
  42 0008 3960     		str	r1, [r7]
  43 000a FB1D     		adds	r3, r7, #7
  44 000c 1A70     		strb	r2, [r3]
  64:WriteUserSFlash.c ****     uint8_t localCount;
  65:WriteUserSFlash.c ****     volatile uint32_t retValue=0;
  45              		.loc 1 65 0
  46 000e 0023     		movs	r3, #0
  47 0010 A822     		movs	r2, #168
  48 0012 BA18     		adds	r2, r7, r2
  49 0014 1360     		str	r3, [r2]
ARM GAS  C:\Users\diego\AppData\Local\Temp\ccNmoqMP.s 			page 3


  66:WriteUserSFlash.c ****     volatile uint32_t cmdDataBuffer[(CY_FLASH_SIZEOF_ROW/4) + 2];
  67:WriteUserSFlash.c ****     volatile uint32_t reg1,reg2,reg3,reg4,reg5,reg6;
  68:WriteUserSFlash.c ****     
  69:WriteUserSFlash.c ****     /* Store the clock settings temporarily */
  70:WriteUserSFlash.c ****     reg1 =  CY_GET_XTND_REG32((void CYFAR *)(CYREG_CLK_SELECT));
  50              		.loc 1 70 0
  51 0016 3A4B     		ldr	r3, .L5
  52 0018 1B68     		ldr	r3, [r3]
  53 001a FB61     		str	r3, [r7, #28]
  71:WriteUserSFlash.c ****     reg2 =  CY_GET_XTND_REG32((void CYFAR *)(CYREG_CLK_IMO_CONFIG));
  54              		.loc 1 71 0
  55 001c 394B     		ldr	r3, .L5+4
  56 001e 1B68     		ldr	r3, [r3]
  57 0020 BB61     		str	r3, [r7, #24]
  72:WriteUserSFlash.c ****     reg3 =  CY_GET_XTND_REG32((void CYFAR *)(CYREG_PWR_BG_TRIM4));
  58              		.loc 1 72 0
  59 0022 394B     		ldr	r3, .L5+8
  60 0024 1B68     		ldr	r3, [r3]
  61 0026 7B61     		str	r3, [r7, #20]
  73:WriteUserSFlash.c ****     reg4 =  CY_GET_XTND_REG32((void CYFAR *)(CYREG_PWR_BG_TRIM5));
  62              		.loc 1 73 0
  63 0028 384B     		ldr	r3, .L5+12
  64 002a 1B68     		ldr	r3, [r3]
  65 002c 3B61     		str	r3, [r7, #16]
  74:WriteUserSFlash.c ****     reg5 =  CY_GET_XTND_REG32((void CYFAR *)(CYREG_CLK_IMO_TRIM1));
  66              		.loc 1 74 0
  67 002e 384B     		ldr	r3, .L5+16
  68 0030 1B68     		ldr	r3, [r3]
  69 0032 FB60     		str	r3, [r7, #12]
  75:WriteUserSFlash.c ****     reg6 =  CY_GET_XTND_REG32((void CYFAR *)(CYREG_CLK_IMO_TRIM2));
  70              		.loc 1 75 0
  71 0034 374B     		ldr	r3, .L5+20
  72 0036 1B68     		ldr	r3, [r3]
  73 0038 BB60     		str	r3, [r7, #8]
  76:WriteUserSFlash.c ****     
  77:WriteUserSFlash.c ****     /* Initialize the clock necessary for flash programming */
  78:WriteUserSFlash.c ****     CY_SET_REG32(CYREG_CPUSS_SYSARG, 0x0000e8b6);
  74              		.loc 1 78 0
  75 003a 374B     		ldr	r3, .L5+24
  76 003c 374A     		ldr	r2, .L5+28
  77 003e 1A60     		str	r2, [r3]
  79:WriteUserSFlash.c ****     CY_SET_REG32(CYREG_CPUSS_SYSREQ, 0x80000015);
  78              		.loc 1 79 0
  79 0040 374B     		ldr	r3, .L5+32
  80 0042 384A     		ldr	r2, .L5+36
  81 0044 1A60     		str	r2, [r3]
  80:WriteUserSFlash.c ****     
  81:WriteUserSFlash.c ****     /******* Initialize SRAM parameters for the LOAD FLASH command ******/
  82:WriteUserSFlash.c ****     /* byte 3 (i.e. 00) is the Macro_select */
  83:WriteUserSFlash.c ****     /* byte 2 (i.e. 00) is the Start addr of page latch */
  84:WriteUserSFlash.c ****     /* byte 1 (i.e. d7) is the key 2  */
  85:WriteUserSFlash.c ****     /* byte 0 (i.e. b6) is the key 1  */
  86:WriteUserSFlash.c ****     cmdDataBuffer[0]=0x0000d7b6;
  82              		.loc 1 86 0
  83 0046 2023     		movs	r3, #32
  84 0048 FB18     		adds	r3, r7, r3
  85 004a 374A     		ldr	r2, .L5+40
ARM GAS  C:\Users\diego\AppData\Local\Temp\ccNmoqMP.s 			page 4


  86 004c 1A60     		str	r2, [r3]
  87:WriteUserSFlash.c ****     
  88:WriteUserSFlash.c ****     /****** Initialize SRAM parameters for the LOAD FLASH command ******/
  89:WriteUserSFlash.c ****     /* byte 3,2 and 1 are null */
  90:WriteUserSFlash.c ****     /* byte 0 (i.e. 7F) is the number of bytes to be written */
  91:WriteUserSFlash.c ****     cmdDataBuffer[1]=0x0000007F;     
  87              		.loc 1 91 0
  88 004e 2023     		movs	r3, #32
  89 0050 FB18     		adds	r3, r7, r3
  90 0052 7F22     		movs	r2, #127
  91 0054 5A60     		str	r2, [r3, #4]
  92:WriteUserSFlash.c ****     
  93:WriteUserSFlash.c ****     /* Initialize the SRAM buffer with data bytes */
  94:WriteUserSFlash.c ****     for(localCount = 0; localCount < (CY_FLASH_SIZEOF_ROW/4); localCount++)    
  92              		.loc 1 94 0
  93 0056 AF23     		movs	r3, #175
  94 0058 FB18     		adds	r3, r7, r3
  95 005a 0022     		movs	r2, #0
  96 005c 1A70     		strb	r2, [r3]
  97              	.LVL1:
  98 005e 15E0     		b	.L2
  99              	.LVL2:
 100              	.L3:
  95:WriteUserSFlash.c ****     {
  96:WriteUserSFlash.c ****         cmdDataBuffer[localCount + 2] = dataPointer[localCount]; 
 101              		.loc 1 96 0 discriminator 3
 102 0060 AF23     		movs	r3, #175
 103 0062 FB18     		adds	r3, r7, r3
 104 0064 1B78     		ldrb	r3, [r3]
 105 0066 9A1C     		adds	r2, r3, #2
 106 0068 AF23     		movs	r3, #175
 107 006a FB18     		adds	r3, r7, r3
 108 006c 1B78     		ldrb	r3, [r3]
 109 006e 9B00     		lsls	r3, r3, #2
 110 0070 3968     		ldr	r1, [r7]
 111 0072 CB18     		adds	r3, r1, r3
 112 0074 1968     		ldr	r1, [r3]
 113 0076 2023     		movs	r3, #32
 114 0078 FB18     		adds	r3, r7, r3
 115 007a 9200     		lsls	r2, r2, #2
 116 007c D150     		str	r1, [r2, r3]
  94:WriteUserSFlash.c ****     {
 117              		.loc 1 94 0 discriminator 3
 118 007e AF23     		movs	r3, #175
 119 0080 FB18     		adds	r3, r7, r3
 120 0082 1A78     		ldrb	r2, [r3]
 121 0084 AF23     		movs	r3, #175
 122 0086 FB18     		adds	r3, r7, r3
 123 0088 0132     		adds	r2, r2, #1
 124 008a 1A70     		strb	r2, [r3]
 125              	.LVL3:
 126              	.L2:
  94:WriteUserSFlash.c ****     {
 127              		.loc 1 94 0 is_stmt 0 discriminator 1
 128 008c AF23     		movs	r3, #175
 129 008e FB18     		adds	r3, r7, r3
 130 0090 1B78     		ldrb	r3, [r3]
ARM GAS  C:\Users\diego\AppData\Local\Temp\ccNmoqMP.s 			page 5


 131 0092 1F2B     		cmp	r3, #31
 132 0094 E4D9     		bls	.L3
  97:WriteUserSFlash.c ****     }
  98:WriteUserSFlash.c ****     
  99:WriteUserSFlash.c ****     /* Write the following to registers to execute a LOAD FLASH bytes */
 100:WriteUserSFlash.c ****     CY_SET_REG32(CYREG_CPUSS_SYSARG, &cmdDataBuffer[0]);
 133              		.loc 1 100 0 is_stmt 1
 134 0096 204B     		ldr	r3, .L5+24
 135 0098 2022     		movs	r2, #32
 136 009a BA18     		adds	r2, r7, r2
 137 009c 1A60     		str	r2, [r3]
 101:WriteUserSFlash.c ****     CY_SET_REG32(CYREG_CPUSS_SYSREQ, LOAD_FLASH);
 138              		.loc 1 101 0
 139 009e 204B     		ldr	r3, .L5+32
 140 00a0 224A     		ldr	r2, .L5+44
 141 00a2 1A60     		str	r2, [r3]
 102:WriteUserSFlash.c ****     
 103:WriteUserSFlash.c ****     /****** Initialize SRAM parameters for the WRITE ROW command ******/
 104:WriteUserSFlash.c ****     /* byte 3 & 2 are null */
 105:WriteUserSFlash.c ****     /* byte 1 (i.e. 0xeb) is the key 2  */
 106:WriteUserSFlash.c ****     /* byte 0 (i.e. 0xb6) is the key 1  */
 107:WriteUserSFlash.c ****     cmdDataBuffer[0] = 0x0000ebb6;
 142              		.loc 1 107 0
 143 00a4 2023     		movs	r3, #32
 144 00a6 FB18     		adds	r3, r7, r3
 145 00a8 214A     		ldr	r2, .L5+48
 146 00aa 1A60     		str	r2, [r3]
 108:WriteUserSFlash.c ****     
 109:WriteUserSFlash.c ****     /* byte 7,6 and 5 are null */
 110:WriteUserSFlash.c ****     /* byte 4 is desired SFlash user row 
 111:WriteUserSFlash.c ****      * Allowed values 0 - row 4
 112:WriteUserSFlash.c ****                       1 - row 5 
 113:WriteUserSFlash.c ****                       2 - row 6
 114:WriteUserSFlash.c ****                       3 - row 7 */
 115:WriteUserSFlash.c ****     cmdDataBuffer[1] = (uint32_t) userRowNUmber;
 147              		.loc 1 115 0
 148 00ac FB1D     		adds	r3, r7, #7
 149 00ae 1A78     		ldrb	r2, [r3]
 150 00b0 2023     		movs	r3, #32
 151 00b2 FB18     		adds	r3, r7, r3
 152 00b4 5A60     		str	r2, [r3, #4]
 116:WriteUserSFlash.c ****     
 117:WriteUserSFlash.c ****     /* Write the following to registers to execute a WRITE USER SFlash ROW command */
 118:WriteUserSFlash.c ****     CY_SET_REG32(CYREG_CPUSS_SYSARG, &cmdDataBuffer[0]);
 153              		.loc 1 118 0
 154 00b6 184B     		ldr	r3, .L5+24
 155 00b8 2022     		movs	r2, #32
 156 00ba BA18     		adds	r2, r7, r2
 157 00bc 1A60     		str	r2, [r3]
 119:WriteUserSFlash.c ****     CY_SET_REG32(CYREG_CPUSS_SYSREQ, WRITE_USER_SFLASH_ROW);
 158              		.loc 1 119 0
 159 00be 184B     		ldr	r3, .L5+32
 160 00c0 1C4A     		ldr	r2, .L5+52
 161 00c2 1A60     		str	r2, [r3]
 120:WriteUserSFlash.c ****     
 121:WriteUserSFlash.c ****     /* Read back SYSARG for the result. 0xA0000000 = SUCCESS; */
 122:WriteUserSFlash.c ****     retValue = CY_GET_REG32(CYREG_CPUSS_SYSARG);
ARM GAS  C:\Users\diego\AppData\Local\Temp\ccNmoqMP.s 			page 6


 162              		.loc 1 122 0
 163 00c4 144B     		ldr	r3, .L5+24
 164 00c6 1B68     		ldr	r3, [r3]
 165 00c8 A822     		movs	r2, #168
 166 00ca BA18     		adds	r2, r7, r2
 167 00cc 1360     		str	r3, [r2]
 123:WriteUserSFlash.c ****     
 124:WriteUserSFlash.c ****     /* Restore the clock settings after the flash programming is done */
 125:WriteUserSFlash.c ****     CY_SET_XTND_REG32((void CYFAR *)(CYREG_CLK_SELECT),reg1);
 168              		.loc 1 125 0
 169 00ce 0C4B     		ldr	r3, .L5
 170 00d0 FA69     		ldr	r2, [r7, #28]
 171 00d2 1A60     		str	r2, [r3]
 126:WriteUserSFlash.c ****     CY_SET_XTND_REG32((void CYFAR *)(CYREG_CLK_IMO_CONFIG),reg2);
 172              		.loc 1 126 0
 173 00d4 0B4B     		ldr	r3, .L5+4
 174 00d6 BA69     		ldr	r2, [r7, #24]
 175 00d8 1A60     		str	r2, [r3]
 127:WriteUserSFlash.c ****     CY_SET_XTND_REG32((void CYFAR *)(CYREG_PWR_BG_TRIM4),reg3);
 176              		.loc 1 127 0
 177 00da 0B4B     		ldr	r3, .L5+8
 178 00dc 7A69     		ldr	r2, [r7, #20]
 179 00de 1A60     		str	r2, [r3]
 128:WriteUserSFlash.c ****     CY_SET_XTND_REG32((void CYFAR *)(CYREG_PWR_BG_TRIM5),reg4);
 180              		.loc 1 128 0
 181 00e0 0A4B     		ldr	r3, .L5+12
 182 00e2 3A69     		ldr	r2, [r7, #16]
 183 00e4 1A60     		str	r2, [r3]
 129:WriteUserSFlash.c ****     CY_SET_XTND_REG32((void CYFAR *)(CYREG_CLK_IMO_TRIM1),reg5);
 184              		.loc 1 129 0
 185 00e6 0A4B     		ldr	r3, .L5+16
 186 00e8 FA68     		ldr	r2, [r7, #12]
 187 00ea 1A60     		str	r2, [r3]
 130:WriteUserSFlash.c ****     CY_SET_XTND_REG32((void CYFAR *)(CYREG_CLK_IMO_TRIM2),reg6);  
 188              		.loc 1 130 0
 189 00ec 094B     		ldr	r3, .L5+20
 190 00ee BA68     		ldr	r2, [r7, #8]
 191 00f0 1A60     		str	r2, [r3]
 131:WriteUserSFlash.c ****     
 132:WriteUserSFlash.c ****     return retValue;
 192              		.loc 1 132 0
 193 00f2 A823     		movs	r3, #168
 194 00f4 FB18     		adds	r3, r7, r3
 195 00f6 1B68     		ldr	r3, [r3]
 133:WriteUserSFlash.c **** }
 196              		.loc 1 133 0
 197 00f8 1800     		movs	r0, r3
 198              	.LVL4:
 199 00fa BD46     		mov	sp, r7
 200              	.LVL5:
 201 00fc 2CB0     		add	sp, sp, #176
 202              	.LVL6:
 203              		@ sp needed
 204              	.LVL7:
 205 00fe 80BD     		pop	{r7, pc}
 206              	.L6:
 207              		.align	2
ARM GAS  C:\Users\diego\AppData\Local\Temp\ccNmoqMP.s 			page 7


 208              	.L5:
 209 0100 00010B40 		.word	1074462976
 210 0104 08010B40 		.word	1074462984
 211 0108 1CFF0B40 		.word	1074528028
 212 010c 20FF0B40 		.word	1074528032
 213 0110 28FF0B40 		.word	1074528040
 214 0114 2CFF0B40 		.word	1074528044
 215 0118 08001040 		.word	1074790408
 216 011c B6E80000 		.word	59574
 217 0120 04001040 		.word	1074790404
 218 0124 15000080 		.word	-2147483627
 219 0128 B6D70000 		.word	55222
 220 012c 04000080 		.word	-2147483644
 221 0130 B6EB0000 		.word	60342
 222 0134 18000080 		.word	-2147483624
 223              		.cfi_endproc
 224              	.LFE35:
 225              		.size	WriteUserSFlashRow, .-WriteUserSFlashRow
 226              		.text
 227              	.Letext0:
 228              		.file 2 "e:\\cypress\\psoc creator\\4.3\\psoc creator\\import\\gnu\\arm\\5.4.1\\arm-none-eabi\\inc
 229              		.file 3 "e:\\cypress\\psoc creator\\4.3\\psoc creator\\import\\gnu\\arm\\5.4.1\\arm-none-eabi\\inc
 230              		.file 4 "Generated_Source\\PSoC4/cytypes.h"
