ARM GAS  C:\Users\diego\AppData\Local\Temp\ccCExYgt.s 			page 1


   1              		.syntax unified
   2              		.cpu cortex-m0
   3              		.fpu softvfp
   4              		.eabi_attribute 20, 1
   5              		.eabi_attribute 21, 1
   6              		.eabi_attribute 23, 3
   7              		.eabi_attribute 24, 1
   8              		.eabi_attribute 25, 1
   9              		.eabi_attribute 26, 1
  10              		.eabi_attribute 30, 6
  11              		.eabi_attribute 34, 0
  12              		.eabi_attribute 18, 4
  13              		.thumb
  14              		.syntax unified
  15              		.file	"ADC_PM.c"
  16              		.text
  17              	.Ltext0:
  18              		.cfi_sections	.debug_frame
  19              		.bss
  20              		.align	2
  21              	ADC_backup:
  22 0000 00000000 		.space	8
  22      00000000 
  23              		.section	.text.ADC_SaveConfig,"ax",%progbits
  24              		.align	2
  25              		.global	ADC_SaveConfig
  26              		.code	16
  27              		.thumb_func
  28              		.type	ADC_SaveConfig, %function
  29              	ADC_SaveConfig:
  30              	.LFB2:
  31              		.file 1 "Generated_Source\\PSoC4\\ADC_PM.c"
   1:Generated_Source\PSoC4/ADC_PM.c **** /*******************************************************************************
   2:Generated_Source\PSoC4/ADC_PM.c **** * File Name: ADC_PM.c
   3:Generated_Source\PSoC4/ADC_PM.c **** * Version 2.50
   4:Generated_Source\PSoC4/ADC_PM.c **** *
   5:Generated_Source\PSoC4/ADC_PM.c **** * Description:
   6:Generated_Source\PSoC4/ADC_PM.c **** *  This file provides Sleep/WakeUp APIs functionality.
   7:Generated_Source\PSoC4/ADC_PM.c **** *
   8:Generated_Source\PSoC4/ADC_PM.c **** * Note:
   9:Generated_Source\PSoC4/ADC_PM.c **** *
  10:Generated_Source\PSoC4/ADC_PM.c **** ********************************************************************************
  11:Generated_Source\PSoC4/ADC_PM.c **** * Copyright 2008-2017, Cypress Semiconductor Corporation.  All rights reserved.
  12:Generated_Source\PSoC4/ADC_PM.c **** * You may use this file only in accordance with the license, terms, conditions,
  13:Generated_Source\PSoC4/ADC_PM.c **** * disclaimers, and limitations in the end user license agreement accompanying
  14:Generated_Source\PSoC4/ADC_PM.c **** * the software package with which this file was provided.
  15:Generated_Source\PSoC4/ADC_PM.c **** *******************************************************************************/
  16:Generated_Source\PSoC4/ADC_PM.c **** 
  17:Generated_Source\PSoC4/ADC_PM.c **** #include "ADC.h"
  18:Generated_Source\PSoC4/ADC_PM.c **** 
  19:Generated_Source\PSoC4/ADC_PM.c **** 
  20:Generated_Source\PSoC4/ADC_PM.c **** /***************************************
  21:Generated_Source\PSoC4/ADC_PM.c **** * Local data allocation
  22:Generated_Source\PSoC4/ADC_PM.c **** ***************************************/
  23:Generated_Source\PSoC4/ADC_PM.c **** 
  24:Generated_Source\PSoC4/ADC_PM.c **** static ADC_BACKUP_STRUCT  ADC_backup =
  25:Generated_Source\PSoC4/ADC_PM.c **** {
ARM GAS  C:\Users\diego\AppData\Local\Temp\ccCExYgt.s 			page 2


  26:Generated_Source\PSoC4/ADC_PM.c ****     ADC_DISABLED,
  27:Generated_Source\PSoC4/ADC_PM.c ****     0u    
  28:Generated_Source\PSoC4/ADC_PM.c **** };
  29:Generated_Source\PSoC4/ADC_PM.c **** 
  30:Generated_Source\PSoC4/ADC_PM.c **** 
  31:Generated_Source\PSoC4/ADC_PM.c **** /*******************************************************************************
  32:Generated_Source\PSoC4/ADC_PM.c **** * Function Name: ADC_SaveConfig
  33:Generated_Source\PSoC4/ADC_PM.c **** ********************************************************************************
  34:Generated_Source\PSoC4/ADC_PM.c **** *
  35:Generated_Source\PSoC4/ADC_PM.c **** * Summary:
  36:Generated_Source\PSoC4/ADC_PM.c **** *  Saves the current user configuration.
  37:Generated_Source\PSoC4/ADC_PM.c **** *
  38:Generated_Source\PSoC4/ADC_PM.c **** * Parameters:
  39:Generated_Source\PSoC4/ADC_PM.c **** *  None.
  40:Generated_Source\PSoC4/ADC_PM.c **** *
  41:Generated_Source\PSoC4/ADC_PM.c **** * Return:
  42:Generated_Source\PSoC4/ADC_PM.c **** *  None.
  43:Generated_Source\PSoC4/ADC_PM.c **** *
  44:Generated_Source\PSoC4/ADC_PM.c **** *******************************************************************************/
  45:Generated_Source\PSoC4/ADC_PM.c **** void ADC_SaveConfig(void)
  46:Generated_Source\PSoC4/ADC_PM.c **** {
  32              		.loc 1 46 0
  33              		.cfi_startproc
  34              		@ args = 0, pretend = 0, frame = 0
  35              		@ frame_needed = 1, uses_anonymous_args = 0
  36 0000 80B5     		push	{r7, lr}
  37              		.cfi_def_cfa_offset 8
  38              		.cfi_offset 7, -8
  39              		.cfi_offset 14, -4
  40 0002 00AF     		add	r7, sp, #0
  41              		.cfi_def_cfa_register 7
  47:Generated_Source\PSoC4/ADC_PM.c ****     /* All configuration registers are marked as [reset_all_retention] */
  48:Generated_Source\PSoC4/ADC_PM.c **** }
  42              		.loc 1 48 0
  43 0004 C046     		nop
  44 0006 BD46     		mov	sp, r7
  45              		@ sp needed
  46 0008 80BD     		pop	{r7, pc}
  47              		.cfi_endproc
  48              	.LFE2:
  49              		.size	ADC_SaveConfig, .-ADC_SaveConfig
  50 000a C046     		.section	.text.ADC_RestoreConfig,"ax",%progbits
  51              		.align	2
  52              		.global	ADC_RestoreConfig
  53              		.code	16
  54              		.thumb_func
  55              		.type	ADC_RestoreConfig, %function
  56              	ADC_RestoreConfig:
  57              	.LFB3:
  49:Generated_Source\PSoC4/ADC_PM.c **** 
  50:Generated_Source\PSoC4/ADC_PM.c **** 
  51:Generated_Source\PSoC4/ADC_PM.c **** /*******************************************************************************
  52:Generated_Source\PSoC4/ADC_PM.c **** * Function Name: ADC_RestoreConfig
  53:Generated_Source\PSoC4/ADC_PM.c **** ********************************************************************************
  54:Generated_Source\PSoC4/ADC_PM.c **** *
  55:Generated_Source\PSoC4/ADC_PM.c **** * Summary:
  56:Generated_Source\PSoC4/ADC_PM.c **** *  Restores the current user configuration.
ARM GAS  C:\Users\diego\AppData\Local\Temp\ccCExYgt.s 			page 3


  57:Generated_Source\PSoC4/ADC_PM.c **** *
  58:Generated_Source\PSoC4/ADC_PM.c **** * Parameters:
  59:Generated_Source\PSoC4/ADC_PM.c **** *  None.
  60:Generated_Source\PSoC4/ADC_PM.c **** *
  61:Generated_Source\PSoC4/ADC_PM.c **** * Return:
  62:Generated_Source\PSoC4/ADC_PM.c **** *  None.
  63:Generated_Source\PSoC4/ADC_PM.c **** *
  64:Generated_Source\PSoC4/ADC_PM.c **** *******************************************************************************/
  65:Generated_Source\PSoC4/ADC_PM.c **** void ADC_RestoreConfig(void)
  66:Generated_Source\PSoC4/ADC_PM.c **** {
  58              		.loc 1 66 0
  59              		.cfi_startproc
  60              		@ args = 0, pretend = 0, frame = 0
  61              		@ frame_needed = 1, uses_anonymous_args = 0
  62 0000 80B5     		push	{r7, lr}
  63              		.cfi_def_cfa_offset 8
  64              		.cfi_offset 7, -8
  65              		.cfi_offset 14, -4
  66 0002 00AF     		add	r7, sp, #0
  67              		.cfi_def_cfa_register 7
  67:Generated_Source\PSoC4/ADC_PM.c ****     /* All configuration registers are marked as [reset_all_retention] */
  68:Generated_Source\PSoC4/ADC_PM.c **** }
  68              		.loc 1 68 0
  69 0004 C046     		nop
  70 0006 BD46     		mov	sp, r7
  71              		@ sp needed
  72 0008 80BD     		pop	{r7, pc}
  73              		.cfi_endproc
  74              	.LFE3:
  75              		.size	ADC_RestoreConfig, .-ADC_RestoreConfig
  76              		.section	.text.ADC_Sleep,"ax",%progbits
  77              		.align	2
  78              		.global	ADC_Sleep
  79              		.code	16
  80              		.thumb_func
  81              		.type	ADC_Sleep, %function
  82              	ADC_Sleep:
  83              	.LFB4:
  69:Generated_Source\PSoC4/ADC_PM.c **** 
  70:Generated_Source\PSoC4/ADC_PM.c **** 
  71:Generated_Source\PSoC4/ADC_PM.c **** /*******************************************************************************
  72:Generated_Source\PSoC4/ADC_PM.c **** * Function Name: ADC_Sleep
  73:Generated_Source\PSoC4/ADC_PM.c **** ********************************************************************************
  74:Generated_Source\PSoC4/ADC_PM.c **** *
  75:Generated_Source\PSoC4/ADC_PM.c **** * Summary:
  76:Generated_Source\PSoC4/ADC_PM.c **** *  Stops the ADC operation and saves the configuration registers and component
  77:Generated_Source\PSoC4/ADC_PM.c **** *  enable state. Should be called just prior to entering sleep.
  78:Generated_Source\PSoC4/ADC_PM.c **** *
  79:Generated_Source\PSoC4/ADC_PM.c **** * Parameters:
  80:Generated_Source\PSoC4/ADC_PM.c **** *  None.
  81:Generated_Source\PSoC4/ADC_PM.c **** *
  82:Generated_Source\PSoC4/ADC_PM.c **** * Return:
  83:Generated_Source\PSoC4/ADC_PM.c **** *  None.
  84:Generated_Source\PSoC4/ADC_PM.c **** *
  85:Generated_Source\PSoC4/ADC_PM.c **** * Global Variables:
  86:Generated_Source\PSoC4/ADC_PM.c **** *  ADC_backup - modified.
  87:Generated_Source\PSoC4/ADC_PM.c **** *
ARM GAS  C:\Users\diego\AppData\Local\Temp\ccCExYgt.s 			page 4


  88:Generated_Source\PSoC4/ADC_PM.c **** *******************************************************************************/
  89:Generated_Source\PSoC4/ADC_PM.c **** void ADC_Sleep(void)
  90:Generated_Source\PSoC4/ADC_PM.c **** {
  84              		.loc 1 90 0
  85              		.cfi_startproc
  86              		@ args = 0, pretend = 0, frame = 0
  87              		@ frame_needed = 1, uses_anonymous_args = 0
  88 0000 80B5     		push	{r7, lr}
  89              		.cfi_def_cfa_offset 8
  90              		.cfi_offset 7, -8
  91              		.cfi_offset 14, -4
  92 0002 00AF     		add	r7, sp, #0
  93              		.cfi_def_cfa_register 7
  91:Generated_Source\PSoC4/ADC_PM.c ****     /* During deepsleep/ hibernate mode keep SARMUX active, i.e. do not open
  92:Generated_Source\PSoC4/ADC_PM.c ****     *   all switches (disconnect), to be used for ADFT
  93:Generated_Source\PSoC4/ADC_PM.c ****     */
  94:Generated_Source\PSoC4/ADC_PM.c ****     ADC_backup.dftRegVal = ADC_SAR_DFT_CTRL_REG & (uint32)~ADC_ADFT_OVERRIDE;
  94              		.loc 1 94 0
  95 0004 1D4B     		ldr	r3, .L10
  96 0006 1B68     		ldr	r3, [r3]
  97 0008 5B00     		lsls	r3, r3, #1
  98 000a 5A08     		lsrs	r2, r3, #1
  99 000c 1C4B     		ldr	r3, .L10+4
 100 000e 5A60     		str	r2, [r3, #4]
  95:Generated_Source\PSoC4/ADC_PM.c ****     ADC_SAR_DFT_CTRL_REG |= ADC_ADFT_OVERRIDE;
 101              		.loc 1 95 0
 102 0010 1A4B     		ldr	r3, .L10
 103 0012 1A4A     		ldr	r2, .L10
 104 0014 1268     		ldr	r2, [r2]
 105 0016 8021     		movs	r1, #128
 106 0018 0906     		lsls	r1, r1, #24
 107 001a 0A43     		orrs	r2, r1
 108 001c 1A60     		str	r2, [r3]
  96:Generated_Source\PSoC4/ADC_PM.c ****     if((ADC_SAR_CTRL_REG  & ADC_ENABLE) != 0u)
 109              		.loc 1 96 0
 110 001e 194B     		ldr	r3, .L10+8
 111 0020 1B68     		ldr	r3, [r3]
 112 0022 002B     		cmp	r3, #0
 113 0024 24DA     		bge	.L4
  97:Generated_Source\PSoC4/ADC_PM.c ****     {
  98:Generated_Source\PSoC4/ADC_PM.c ****         if((ADC_SAR_SAMPLE_CTRL_REG & ADC_CONTINUOUS_EN) != 0u)
 114              		.loc 1 98 0
 115 0026 184B     		ldr	r3, .L10+12
 116 0028 1A68     		ldr	r2, [r3]
 117 002a 8023     		movs	r3, #128
 118 002c 5B02     		lsls	r3, r3, #9
 119 002e 1340     		ands	r3, r2
 120 0030 03D0     		beq	.L5
  99:Generated_Source\PSoC4/ADC_PM.c ****         {
 100:Generated_Source\PSoC4/ADC_PM.c ****             ADC_backup.enableState = ADC_ENABLED | ADC_STARTED;
 121              		.loc 1 100 0
 122 0032 134B     		ldr	r3, .L10+4
 123 0034 0322     		movs	r2, #3
 124 0036 1A70     		strb	r2, [r3]
 125 0038 02E0     		b	.L6
 126              	.L5:
 101:Generated_Source\PSoC4/ADC_PM.c ****         }
ARM GAS  C:\Users\diego\AppData\Local\Temp\ccCExYgt.s 			page 5


 102:Generated_Source\PSoC4/ADC_PM.c ****         else
 103:Generated_Source\PSoC4/ADC_PM.c ****         {
 104:Generated_Source\PSoC4/ADC_PM.c ****             ADC_backup.enableState = ADC_ENABLED;
 127              		.loc 1 104 0
 128 003a 114B     		ldr	r3, .L10+4
 129 003c 0122     		movs	r2, #1
 130 003e 1A70     		strb	r2, [r3]
 131              	.L6:
 105:Generated_Source\PSoC4/ADC_PM.c ****         }
 106:Generated_Source\PSoC4/ADC_PM.c ****         ADC_StopConvert();
 132              		.loc 1 106 0
 133 0040 FFF7FEFF 		bl	ADC_StopConvert
 107:Generated_Source\PSoC4/ADC_PM.c ****         ADC_Stop();
 134              		.loc 1 107 0
 135 0044 FFF7FEFF 		bl	ADC_Stop
 108:Generated_Source\PSoC4/ADC_PM.c ****         
 109:Generated_Source\PSoC4/ADC_PM.c ****         /* Disable the SAR internal pump before entering the chip low power mode */
 110:Generated_Source\PSoC4/ADC_PM.c ****         if((ADC_SAR_CTRL_REG & ADC_BOOSTPUMP_EN) != 0u)
 136              		.loc 1 110 0
 137 0048 0E4B     		ldr	r3, .L10+8
 138 004a 1A68     		ldr	r2, [r3]
 139 004c 8023     		movs	r3, #128
 140 004e 5B03     		lsls	r3, r3, #13
 141 0050 1340     		ands	r3, r2
 142 0052 10D0     		beq	.L9
 111:Generated_Source\PSoC4/ADC_PM.c ****         {
 112:Generated_Source\PSoC4/ADC_PM.c ****             ADC_SAR_CTRL_REG &= (uint32)~ADC_BOOSTPUMP_EN;
 143              		.loc 1 112 0
 144 0054 0B4B     		ldr	r3, .L10+8
 145 0056 0B4A     		ldr	r2, .L10+8
 146 0058 1268     		ldr	r2, [r2]
 147 005a 0C49     		ldr	r1, .L10+16
 148 005c 0A40     		ands	r2, r1
 149 005e 1A60     		str	r2, [r3]
 113:Generated_Source\PSoC4/ADC_PM.c ****             ADC_backup.enableState |= ADC_BOOSTPUMP_ENABLED;
 150              		.loc 1 113 0
 151 0060 074B     		ldr	r3, .L10+4
 152 0062 1B78     		ldrb	r3, [r3]
 153 0064 0422     		movs	r2, #4
 154 0066 1343     		orrs	r3, r2
 155 0068 DAB2     		uxtb	r2, r3
 156 006a 054B     		ldr	r3, .L10+4
 157 006c 1A70     		strb	r2, [r3]
 114:Generated_Source\PSoC4/ADC_PM.c ****         }
 115:Generated_Source\PSoC4/ADC_PM.c ****     }
 116:Generated_Source\PSoC4/ADC_PM.c ****     else
 117:Generated_Source\PSoC4/ADC_PM.c ****     {
 118:Generated_Source\PSoC4/ADC_PM.c ****         ADC_backup.enableState = ADC_DISABLED;
 119:Generated_Source\PSoC4/ADC_PM.c ****     }
 120:Generated_Source\PSoC4/ADC_PM.c **** }
 158              		.loc 1 120 0
 159 006e 02E0     		b	.L9
 160              	.L4:
 118:Generated_Source\PSoC4/ADC_PM.c ****     }
 161              		.loc 1 118 0
 162 0070 034B     		ldr	r3, .L10+4
 163 0072 0022     		movs	r2, #0
ARM GAS  C:\Users\diego\AppData\Local\Temp\ccCExYgt.s 			page 6


 164 0074 1A70     		strb	r2, [r3]
 165              	.L9:
 166              		.loc 1 120 0
 167 0076 C046     		nop
 168 0078 BD46     		mov	sp, r7
 169              		@ sp needed
 170 007a 80BD     		pop	{r7, pc}
 171              	.L11:
 172              		.align	2
 173              	.L10:
 174 007c 30003A40 		.word	1077542960
 175 0080 00000000 		.word	ADC_backup
 176 0084 00003A40 		.word	1077542912
 177 0088 04003A40 		.word	1077542916
 178 008c FFFFEFFF 		.word	-1048577
 179              		.cfi_endproc
 180              	.LFE4:
 181              		.size	ADC_Sleep, .-ADC_Sleep
 182              		.section	.text.ADC_Wakeup,"ax",%progbits
 183              		.align	2
 184              		.global	ADC_Wakeup
 185              		.code	16
 186              		.thumb_func
 187              		.type	ADC_Wakeup, %function
 188              	ADC_Wakeup:
 189              	.LFB5:
 121:Generated_Source\PSoC4/ADC_PM.c **** 
 122:Generated_Source\PSoC4/ADC_PM.c **** 
 123:Generated_Source\PSoC4/ADC_PM.c **** /*******************************************************************************
 124:Generated_Source\PSoC4/ADC_PM.c **** * Function Name: ADC_Wakeup
 125:Generated_Source\PSoC4/ADC_PM.c **** ********************************************************************************
 126:Generated_Source\PSoC4/ADC_PM.c **** *
 127:Generated_Source\PSoC4/ADC_PM.c **** * Summary:
 128:Generated_Source\PSoC4/ADC_PM.c **** *  Restores the component enable state and configuration registers.
 129:Generated_Source\PSoC4/ADC_PM.c **** *  This should be called just after awaking from sleep mode.
 130:Generated_Source\PSoC4/ADC_PM.c **** *
 131:Generated_Source\PSoC4/ADC_PM.c **** * Parameters:
 132:Generated_Source\PSoC4/ADC_PM.c **** *  None.
 133:Generated_Source\PSoC4/ADC_PM.c **** *
 134:Generated_Source\PSoC4/ADC_PM.c **** * Return:
 135:Generated_Source\PSoC4/ADC_PM.c **** *  None.
 136:Generated_Source\PSoC4/ADC_PM.c **** *
 137:Generated_Source\PSoC4/ADC_PM.c **** * Global Variables:
 138:Generated_Source\PSoC4/ADC_PM.c **** *  ADC_backup - used.
 139:Generated_Source\PSoC4/ADC_PM.c **** *
 140:Generated_Source\PSoC4/ADC_PM.c **** *******************************************************************************/
 141:Generated_Source\PSoC4/ADC_PM.c **** void ADC_Wakeup(void)
 142:Generated_Source\PSoC4/ADC_PM.c **** {
 190              		.loc 1 142 0
 191              		.cfi_startproc
 192              		@ args = 0, pretend = 0, frame = 0
 193              		@ frame_needed = 1, uses_anonymous_args = 0
 194 0000 80B5     		push	{r7, lr}
 195              		.cfi_def_cfa_offset 8
 196              		.cfi_offset 7, -8
 197              		.cfi_offset 14, -4
 198 0002 00AF     		add	r7, sp, #0
ARM GAS  C:\Users\diego\AppData\Local\Temp\ccCExYgt.s 			page 7


 199              		.cfi_def_cfa_register 7
 143:Generated_Source\PSoC4/ADC_PM.c ****     ADC_SAR_DFT_CTRL_REG = ADC_backup.dftRegVal;
 200              		.loc 1 143 0
 201 0004 104A     		ldr	r2, .L16
 202 0006 114B     		ldr	r3, .L16+4
 203 0008 5B68     		ldr	r3, [r3, #4]
 204 000a 1360     		str	r3, [r2]
 144:Generated_Source\PSoC4/ADC_PM.c ****     if(ADC_backup.enableState != ADC_DISABLED)
 205              		.loc 1 144 0
 206 000c 0F4B     		ldr	r3, .L16+4
 207 000e 1B78     		ldrb	r3, [r3]
 208 0010 002B     		cmp	r3, #0
 209 0012 16D0     		beq	.L15
 145:Generated_Source\PSoC4/ADC_PM.c ****     {
 146:Generated_Source\PSoC4/ADC_PM.c ****         /* Enable the SAR internal pump  */
 147:Generated_Source\PSoC4/ADC_PM.c ****         if((ADC_backup.enableState & ADC_BOOSTPUMP_ENABLED) != 0u)
 210              		.loc 1 147 0
 211 0014 0D4B     		ldr	r3, .L16+4
 212 0016 1B78     		ldrb	r3, [r3]
 213 0018 1A00     		movs	r2, r3
 214 001a 0423     		movs	r3, #4
 215 001c 1340     		ands	r3, r2
 216 001e 06D0     		beq	.L14
 148:Generated_Source\PSoC4/ADC_PM.c ****         {
 149:Generated_Source\PSoC4/ADC_PM.c ****             ADC_SAR_CTRL_REG |= ADC_BOOSTPUMP_EN;
 217              		.loc 1 149 0
 218 0020 0B4B     		ldr	r3, .L16+8
 219 0022 0B4A     		ldr	r2, .L16+8
 220 0024 1268     		ldr	r2, [r2]
 221 0026 8021     		movs	r1, #128
 222 0028 4903     		lsls	r1, r1, #13
 223 002a 0A43     		orrs	r2, r1
 224 002c 1A60     		str	r2, [r3]
 225              	.L14:
 150:Generated_Source\PSoC4/ADC_PM.c ****         }
 151:Generated_Source\PSoC4/ADC_PM.c ****         ADC_Enable();
 226              		.loc 1 151 0
 227 002e FFF7FEFF 		bl	ADC_Enable
 152:Generated_Source\PSoC4/ADC_PM.c ****         if((ADC_backup.enableState & ADC_STARTED) != 0u)
 228              		.loc 1 152 0
 229 0032 064B     		ldr	r3, .L16+4
 230 0034 1B78     		ldrb	r3, [r3]
 231 0036 1A00     		movs	r2, r3
 232 0038 0223     		movs	r3, #2
 233 003a 1340     		ands	r3, r2
 234 003c 01D0     		beq	.L15
 153:Generated_Source\PSoC4/ADC_PM.c ****         {
 154:Generated_Source\PSoC4/ADC_PM.c ****             ADC_StartConvert();
 235              		.loc 1 154 0
 236 003e FFF7FEFF 		bl	ADC_StartConvert
 237              	.L15:
 155:Generated_Source\PSoC4/ADC_PM.c ****         }
 156:Generated_Source\PSoC4/ADC_PM.c ****     }
 157:Generated_Source\PSoC4/ADC_PM.c **** }
 238              		.loc 1 157 0
 239 0042 C046     		nop
 240 0044 BD46     		mov	sp, r7
ARM GAS  C:\Users\diego\AppData\Local\Temp\ccCExYgt.s 			page 8


 241              		@ sp needed
 242 0046 80BD     		pop	{r7, pc}
 243              	.L17:
 244              		.align	2
 245              	.L16:
 246 0048 30003A40 		.word	1077542960
 247 004c 00000000 		.word	ADC_backup
 248 0050 00003A40 		.word	1077542912
 249              		.cfi_endproc
 250              	.LFE5:
 251              		.size	ADC_Wakeup, .-ADC_Wakeup
 252              		.text
 253              	.Letext0:
 254              		.file 2 "Generated_Source\\PSoC4\\cytypes.h"
 255              		.file 3 "Generated_Source\\PSoC4\\ADC.h"
