ARM GAS  C:\Users\diego\AppData\Local\Temp\ccaLbWCT.s 			page 1


   1              		.syntax unified
   2              		.cpu cortex-m0
   3              		.fpu softvfp
   4              		.eabi_attribute 20, 1
   5              		.eabi_attribute 21, 1
   6              		.eabi_attribute 23, 3
   7              		.eabi_attribute 24, 1
   8              		.eabi_attribute 25, 1
   9              		.eabi_attribute 26, 1
  10              		.eabi_attribute 30, 6
  11              		.eabi_attribute 34, 0
  12              		.eabi_attribute 18, 4
  13              		.thumb
  14              		.syntax unified
  15              		.file	"BLE_eventHandler.c"
  16              		.text
  17              	.Ltext0:
  18              		.cfi_sections	.debug_frame
  19              		.comm	cyBle_connHandle,2,4
  20              		.comm	cyBle_eventHandlerFlag,1,1
  21              		.comm	cyBle_busyStatus,1,1
  22              		.global	cyBle_gaps
  23              		.section	.rodata
  24              		.align	2
  25              		.type	cyBle_gaps, %object
  26              		.size	cyBle_gaps, 12
  27              	cyBle_gaps:
  28 0000 0100     		.short	1
  29 0002 0300     		.short	3
  30 0004 0500     		.short	5
  31 0006 0700     		.short	7
  32 0008 0000     		.short	0
  33 000a 0000     		.short	0
  34              		.comm	cyBle_advertisingIntervalType,1,1
  35              		.global	cyBle_authInfo
  36              		.data
  37              		.align	2
  38              		.type	cyBle_authInfo, %object
  39              		.size	cyBle_authInfo, 5
  40              	cyBle_authInfo:
  41 0000 11       		.byte	17
  42 0001 00       		.byte	0
  43 0002 10       		.byte	16
  44 0003 00       		.byte	0
  45 0004 00       		.byte	0
  46              		.section	.text.CyBle_WriteReqHandler,"ax",%progbits
  47              		.align	2
  48              		.code	16
  49              		.thumb_func
  50              		.type	CyBle_WriteReqHandler, %function
  51              	CyBle_WriteReqHandler:
  52              	.LFB2:
  53              		.file 1 "Generated_Source\\PSoC4\\BLE_eventHandler.c"
   1:Generated_Source\PSoC4/BLE_eventHandler.c **** /***************************************************************************//**
   2:Generated_Source\PSoC4/BLE_eventHandler.c **** * \file CYBLE_eventHandler.c
   3:Generated_Source\PSoC4/BLE_eventHandler.c **** * \version 3.30
   4:Generated_Source\PSoC4/BLE_eventHandler.c **** * 
ARM GAS  C:\Users\diego\AppData\Local\Temp\ccaLbWCT.s 			page 2


   5:Generated_Source\PSoC4/BLE_eventHandler.c **** * \brief
   6:Generated_Source\PSoC4/BLE_eventHandler.c **** *  This file contains the source code for the Event Handler State Machine
   7:Generated_Source\PSoC4/BLE_eventHandler.c **** *  of the BLE Component.
   8:Generated_Source\PSoC4/BLE_eventHandler.c **** * 
   9:Generated_Source\PSoC4/BLE_eventHandler.c **** ********************************************************************************
  10:Generated_Source\PSoC4/BLE_eventHandler.c **** * \copyright
  11:Generated_Source\PSoC4/BLE_eventHandler.c **** * Copyright 2014-2016, Cypress Semiconductor Corporation.  All rights reserved.
  12:Generated_Source\PSoC4/BLE_eventHandler.c **** * You may use this file only in accordance with the license, terms, conditions,
  13:Generated_Source\PSoC4/BLE_eventHandler.c **** * disclaimers, and limitations in the end user license agreement accompanying
  14:Generated_Source\PSoC4/BLE_eventHandler.c **** * the software package with which this file was provided.
  15:Generated_Source\PSoC4/BLE_eventHandler.c **** *******************************************************************************/
  16:Generated_Source\PSoC4/BLE_eventHandler.c **** 
  17:Generated_Source\PSoC4/BLE_eventHandler.c **** #include "BLE_eventHandler.h"
  18:Generated_Source\PSoC4/BLE_eventHandler.c **** 
  19:Generated_Source\PSoC4/BLE_eventHandler.c **** 
  20:Generated_Source\PSoC4/BLE_eventHandler.c **** /***************************************
  21:Generated_Source\PSoC4/BLE_eventHandler.c **** * Private Function Prototypes
  22:Generated_Source\PSoC4/BLE_eventHandler.c **** ***************************************/
  23:Generated_Source\PSoC4/BLE_eventHandler.c **** 
  24:Generated_Source\PSoC4/BLE_eventHandler.c **** static void CyBle_GattDisconnectEventHandler(void);
  25:Generated_Source\PSoC4/BLE_eventHandler.c **** static void CyBle_TimeOutEventHandler(const CYBLE_TO_REASON_CODE_T *eventParam);
  26:Generated_Source\PSoC4/BLE_eventHandler.c **** static void CyBle_GattConnectReqHandler(void);
  27:Generated_Source\PSoC4/BLE_eventHandler.c **** static void CyBle_L2Cap_ConnParamUpdateRspEventHandler(uint16 response);
  28:Generated_Source\PSoC4/BLE_eventHandler.c **** static void CyBle_GapConnUpdateCompleteEventHandler(const CYBLE_GAP_CONN_PARAM_UPDATED_IN_CONTROLLE
  29:Generated_Source\PSoC4/BLE_eventHandler.c **** 
  30:Generated_Source\PSoC4/BLE_eventHandler.c **** 
  31:Generated_Source\PSoC4/BLE_eventHandler.c **** #if (CYBLE_GATT_ROLE_SERVER)
  32:Generated_Source\PSoC4/BLE_eventHandler.c **** 
  33:Generated_Source\PSoC4/BLE_eventHandler.c **** static void CyBle_WriteReqHandler(CYBLE_GATTS_WRITE_REQ_PARAM_T *eventParam);
  34:Generated_Source\PSoC4/BLE_eventHandler.c **** static void CyBle_ValueConfirmation(const CYBLE_CONN_HANDLE_T *eventParam);
  35:Generated_Source\PSoC4/BLE_eventHandler.c **** 
  36:Generated_Source\PSoC4/BLE_eventHandler.c **** #endif /* CYBLE_GATT_ROLE_SERVER */
  37:Generated_Source\PSoC4/BLE_eventHandler.c **** 
  38:Generated_Source\PSoC4/BLE_eventHandler.c **** #if (CYBLE_GATT_ROLE_CLIENT)
  39:Generated_Source\PSoC4/BLE_eventHandler.c **** 
  40:Generated_Source\PSoC4/BLE_eventHandler.c **** static void CyBle_GapcDiscoverCharacteristicsEventHandler(CYBLE_DISC_CHAR_INFO_T *discCharInfo);
  41:Generated_Source\PSoC4/BLE_eventHandler.c **** static CYBLE_GATT_ATTR_HANDLE_RANGE_T CyBle_GetCharRange(void);
  42:Generated_Source\PSoC4/BLE_eventHandler.c **** static void CyBle_GattcWriteResponseEventHandler(const CYBLE_CONN_HANDLE_T *eventParam);
  43:Generated_Source\PSoC4/BLE_eventHandler.c **** static void CyBle_NotificationEventHandler(CYBLE_GATTC_HANDLE_VALUE_NTF_PARAM_T *eventParam);
  44:Generated_Source\PSoC4/BLE_eventHandler.c **** static void CyBle_IndicationEventHandler(CYBLE_GATTC_HANDLE_VALUE_IND_PARAM_T *eventParam);
  45:Generated_Source\PSoC4/BLE_eventHandler.c **** static void CyBle_ReadResponseEventHandler(CYBLE_GATTC_READ_RSP_PARAM_T *eventParam);
  46:Generated_Source\PSoC4/BLE_eventHandler.c **** static void CyBle_ReadMultipleResponseEventHandler(CYBLE_GATTC_READ_RSP_PARAM_T *eventParam);
  47:Generated_Source\PSoC4/BLE_eventHandler.c **** 
  48:Generated_Source\PSoC4/BLE_eventHandler.c **** #endif /* CYBLE_GATT_ROLE_CLIENT */
  49:Generated_Source\PSoC4/BLE_eventHandler.c **** 
  50:Generated_Source\PSoC4/BLE_eventHandler.c **** 
  51:Generated_Source\PSoC4/BLE_eventHandler.c **** /***************************************
  52:Generated_Source\PSoC4/BLE_eventHandler.c **** * Global Variables
  53:Generated_Source\PSoC4/BLE_eventHandler.c **** ***************************************/
  54:Generated_Source\PSoC4/BLE_eventHandler.c **** 
  55:Generated_Source\PSoC4/BLE_eventHandler.c **** /* This global variable is initialized after connection with peer device, 
  56:Generated_Source\PSoC4/BLE_eventHandler.c ****    after CYBLE_EVT_GATT_CONNECT_IND event, and could be used by application code
  57:Generated_Source\PSoC4/BLE_eventHandler.c ****    to send data to peer device. 
  58:Generated_Source\PSoC4/BLE_eventHandler.c **** */
  59:Generated_Source\PSoC4/BLE_eventHandler.c **** CYBLE_CONN_HANDLE_T cyBle_connHandle;
  60:Generated_Source\PSoC4/BLE_eventHandler.c **** 
  61:Generated_Source\PSoC4/BLE_eventHandler.c **** volatile uint8 cyBle_eventHandlerFlag;
ARM GAS  C:\Users\diego\AppData\Local\Temp\ccaLbWCT.s 			page 3


  62:Generated_Source\PSoC4/BLE_eventHandler.c **** volatile uint8 cyBle_busyStatus;
  63:Generated_Source\PSoC4/BLE_eventHandler.c **** 
  64:Generated_Source\PSoC4/BLE_eventHandler.c **** const CYBLE_GAPS_T cyBle_gaps =
  65:Generated_Source\PSoC4/BLE_eventHandler.c **** {
  66:Generated_Source\PSoC4/BLE_eventHandler.c ****     0x0001u,    /* Handle of the GAP service */
  67:Generated_Source\PSoC4/BLE_eventHandler.c ****     0x0003u,    /* Handle of the Device Name characteristic */
  68:Generated_Source\PSoC4/BLE_eventHandler.c ****     0x0005u,    /* Handle of the Appearance characteristic */
  69:Generated_Source\PSoC4/BLE_eventHandler.c ****     0x0007u,    /* Handle of the Peripheral Preferred Connection Parameters characteristic */
  70:Generated_Source\PSoC4/BLE_eventHandler.c ****     CYBLE_GATT_INVALID_ATTR_HANDLE_VALUE, /* Handle of the Central Address Resolution characteristi
  71:Generated_Source\PSoC4/BLE_eventHandler.c ****     CYBLE_GATT_INVALID_ATTR_HANDLE_VALUE, /* Handle of the Resolvable Private Address Only characte
  72:Generated_Source\PSoC4/BLE_eventHandler.c **** };
  73:Generated_Source\PSoC4/BLE_eventHandler.c **** 
  74:Generated_Source\PSoC4/BLE_eventHandler.c **** 
  75:Generated_Source\PSoC4/BLE_eventHandler.c **** #if(CYBLE_GAP_ROLE_PERIPHERAL || CYBLE_GAP_ROLE_BROADCASTER) 
  76:Generated_Source\PSoC4/BLE_eventHandler.c ****     uint8 cyBle_advertisingIntervalType;
  77:Generated_Source\PSoC4/BLE_eventHandler.c **** #endif /* CYBLE_GAP_ROLE_PERIPHERAL || CYBLE_GAP_ROLE_BROADCASTER) */
  78:Generated_Source\PSoC4/BLE_eventHandler.c **** 
  79:Generated_Source\PSoC4/BLE_eventHandler.c **** #if(CYBLE_GAP_ROLE_CENTRAL || CYBLE_GAP_ROLE_OBSERVER) 
  80:Generated_Source\PSoC4/BLE_eventHandler.c ****     uint8 cyBle_scanningIntervalType;
  81:Generated_Source\PSoC4/BLE_eventHandler.c **** #endif /* CYBLE_GAP_ROLE_CENTRAL || CYBLE_GAP_ROLE_OBSERVER */
  82:Generated_Source\PSoC4/BLE_eventHandler.c **** 
  83:Generated_Source\PSoC4/BLE_eventHandler.c **** #if(CYBLE_GATT_ROLE_SERVER)
  84:Generated_Source\PSoC4/BLE_eventHandler.c **** #if defined CYBLE_CTS_SERVER || defined CYBLE_ESS_SERVER
  85:Generated_Source\PSoC4/BLE_eventHandler.c **** CYBLE_GATT_ERR_CODE_T cyBle_gattError;
  86:Generated_Source\PSoC4/BLE_eventHandler.c **** #endif /* defined CYBLE_CTS_SERVER || defined CYBLE_ESS_SERVER */
  87:Generated_Source\PSoC4/BLE_eventHandler.c **** #endif /* CYBLE_GATT_ROLE_SERVER */
  88:Generated_Source\PSoC4/BLE_eventHandler.c **** 
  89:Generated_Source\PSoC4/BLE_eventHandler.c **** #if(CYBLE_GATT_ROLE_CLIENT)
  90:Generated_Source\PSoC4/BLE_eventHandler.c **** uint8 cyBle_disCount; /* Counter for discovery procedures */
  91:Generated_Source\PSoC4/BLE_eventHandler.c **** 
  92:Generated_Source\PSoC4/BLE_eventHandler.c **** #ifdef CYBLE_CUSTOM_CLIENT
  93:Generated_Source\PSoC4/BLE_eventHandler.c **** /* Discovery included service information, used for 128-bit UUID read response handle 
  94:Generated_Source\PSoC4/BLE_eventHandler.c ****    and for continue discovery. 
  95:Generated_Source\PSoC4/BLE_eventHandler.c **** */
  96:Generated_Source\PSoC4/BLE_eventHandler.c **** static CYBLE_DISC_INCL_INFO_T cyBle_discInclInfo;
  97:Generated_Source\PSoC4/BLE_eventHandler.c **** #endif /* CYBLE_CUSTOM_CLIENT */
  98:Generated_Source\PSoC4/BLE_eventHandler.c **** 
  99:Generated_Source\PSoC4/BLE_eventHandler.c **** #ifdef CYBLE_HIDS_CLIENT
 100:Generated_Source\PSoC4/BLE_eventHandler.c ****     static uint8 disServiceIndex;      /* To discovery descriptors for multiple HID service instanc
 101:Generated_Source\PSoC4/BLE_eventHandler.c **** #endif /* CYBLE_HIDS_CLIENT */
 102:Generated_Source\PSoC4/BLE_eventHandler.c **** 
 103:Generated_Source\PSoC4/BLE_eventHandler.c **** CYBLE_DISC_SRVC_INFO_T cyBle_serverInfo[CYBLE_SRVI_COUNT] = /*5*/
 104:Generated_Source\PSoC4/BLE_eventHandler.c **** {
 105:Generated_Source\PSoC4/BLE_eventHandler.c ****     {{CYBLE_GATT_INVALID_ATTR_HANDLE_VALUE, CYBLE_GATT_INVALID_ATTR_HANDLE_VALUE}, CYBLE_UUID_GAP_S
 106:Generated_Source\PSoC4/BLE_eventHandler.c ****     {{CYBLE_GATT_INVALID_ATTR_HANDLE_VALUE, CYBLE_GATT_INVALID_ATTR_HANDLE_VALUE}, CYBLE_UUID_GATT_
 107:Generated_Source\PSoC4/BLE_eventHandler.c **** #ifdef CYBLE_AIOS_CLIENT
 108:Generated_Source\PSoC4/BLE_eventHandler.c ****     {{CYBLE_GATT_INVALID_ATTR_HANDLE_VALUE, CYBLE_GATT_INVALID_ATTR_HANDLE_VALUE}, CYBLE_UUID_AUTOM
 109:Generated_Source\PSoC4/BLE_eventHandler.c **** #endif /* CYBLE_BCS_CLIENT */
 110:Generated_Source\PSoC4/BLE_eventHandler.c **** #ifdef CYBLE_ANCS_CLIENT
 111:Generated_Source\PSoC4/BLE_eventHandler.c ****     {{CYBLE_GATT_INVALID_ATTR_HANDLE_VALUE, CYBLE_GATT_INVALID_ATTR_HANDLE_VALUE}, 0x0000u},
 112:Generated_Source\PSoC4/BLE_eventHandler.c **** #endif /* CYBLE_ANCS_CLIENT */
 113:Generated_Source\PSoC4/BLE_eventHandler.c **** #ifdef CYBLE_ANS_CLIENT
 114:Generated_Source\PSoC4/BLE_eventHandler.c ****     {{CYBLE_GATT_INVALID_ATTR_HANDLE_VALUE, CYBLE_GATT_INVALID_ATTR_HANDLE_VALUE}, 
 115:Generated_Source\PSoC4/BLE_eventHandler.c ****         CYBLE_UUID_ALERT_NOTIFICATION_SERVICE},
 116:Generated_Source\PSoC4/BLE_eventHandler.c **** #endif /* CYBLE_ANS_CLIENT */
 117:Generated_Source\PSoC4/BLE_eventHandler.c **** #ifdef CYBLE_BAS_CLIENT
 118:Generated_Source\PSoC4/BLE_eventHandler.c ****     {{CYBLE_GATT_INVALID_ATTR_HANDLE_VALUE, CYBLE_GATT_INVALID_ATTR_HANDLE_VALUE}, CYBLE_UUID_BAS_S
ARM GAS  C:\Users\diego\AppData\Local\Temp\ccaLbWCT.s 			page 4


 119:Generated_Source\PSoC4/BLE_eventHandler.c ****     #if(CYBLE_BASC_SERVICE_COUNT > 1u) /* Generate it by GUI */
 120:Generated_Source\PSoC4/BLE_eventHandler.c ****         
 121:Generated_Source\PSoC4/BLE_eventHandler.c ****     #endif /* CYBLE_BASC_SERVICE_COUNT > 1u */
 122:Generated_Source\PSoC4/BLE_eventHandler.c **** #endif /* CYBLE_BAS_CLIENT */
 123:Generated_Source\PSoC4/BLE_eventHandler.c **** #ifdef CYBLE_BCS_CLIENT
 124:Generated_Source\PSoC4/BLE_eventHandler.c ****     {{CYBLE_GATT_INVALID_ATTR_HANDLE_VALUE, CYBLE_GATT_INVALID_ATTR_HANDLE_VALUE}, CYBLE_UUID_BODY_
 125:Generated_Source\PSoC4/BLE_eventHandler.c **** #endif /* CYBLE_BCS_CLIENT */
 126:Generated_Source\PSoC4/BLE_eventHandler.c **** #ifdef CYBLE_BLS_CLIENT
 127:Generated_Source\PSoC4/BLE_eventHandler.c ****     {{CYBLE_GATT_INVALID_ATTR_HANDLE_VALUE, CYBLE_GATT_INVALID_ATTR_HANDLE_VALUE}, CYBLE_UUID_BLOOD
 128:Generated_Source\PSoC4/BLE_eventHandler.c **** #endif /* CYBLE_BLS_CLIENT */
 129:Generated_Source\PSoC4/BLE_eventHandler.c **** #ifdef CYBLE_BMS_CLIENT
 130:Generated_Source\PSoC4/BLE_eventHandler.c ****     {{CYBLE_GATT_INVALID_ATTR_HANDLE_VALUE, CYBLE_GATT_INVALID_ATTR_HANDLE_VALUE}, CYBLE_UUID_BOND_
 131:Generated_Source\PSoC4/BLE_eventHandler.c **** #endif /* CYBLE_BMS_CLIENT */
 132:Generated_Source\PSoC4/BLE_eventHandler.c **** #ifdef CYBLE_CGMS_CLIENT
 133:Generated_Source\PSoC4/BLE_eventHandler.c ****     {{CYBLE_GATT_INVALID_ATTR_HANDLE_VALUE, CYBLE_GATT_INVALID_ATTR_HANDLE_VALUE}, CYBLE_UUID_CGM_S
 134:Generated_Source\PSoC4/BLE_eventHandler.c **** #endif /* CYBLE_CGMS_CLIENT */
 135:Generated_Source\PSoC4/BLE_eventHandler.c **** #ifdef CYBLE_CPS_CLIENT
 136:Generated_Source\PSoC4/BLE_eventHandler.c ****     {{CYBLE_GATT_INVALID_ATTR_HANDLE_VALUE, CYBLE_GATT_INVALID_ATTR_HANDLE_VALUE}, CYBLE_UUID_CPS_S
 137:Generated_Source\PSoC4/BLE_eventHandler.c **** #endif /* CYBLE_CPS_CLIENT */
 138:Generated_Source\PSoC4/BLE_eventHandler.c **** #ifdef CYBLE_CSCS_CLIENT
 139:Generated_Source\PSoC4/BLE_eventHandler.c ****     {{CYBLE_GATT_INVALID_ATTR_HANDLE_VALUE, CYBLE_GATT_INVALID_ATTR_HANDLE_VALUE}, 
 140:Generated_Source\PSoC4/BLE_eventHandler.c ****         CYBLE_UUID_CYCLING_SPEED_AND_CADENCE_SERVICE},
 141:Generated_Source\PSoC4/BLE_eventHandler.c **** #endif /* CYBLE_CSCS_CLIENT */
 142:Generated_Source\PSoC4/BLE_eventHandler.c **** #ifdef CYBLE_CTS_CLIENT
 143:Generated_Source\PSoC4/BLE_eventHandler.c ****     {{CYBLE_GATT_INVALID_ATTR_HANDLE_VALUE, CYBLE_GATT_INVALID_ATTR_HANDLE_VALUE}, CYBLE_UUID_CURRE
 144:Generated_Source\PSoC4/BLE_eventHandler.c **** #endif /* CYBLE_CTS_CLIENT */
 145:Generated_Source\PSoC4/BLE_eventHandler.c **** #ifdef CYBLE_CUSTOM_CLIENT
 146:Generated_Source\PSoC4/BLE_eventHandler.c ****     
 147:Generated_Source\PSoC4/BLE_eventHandler.c **** #endif /* CYBLE_CUSTOM_CLIENT */
 148:Generated_Source\PSoC4/BLE_eventHandler.c **** #ifdef CYBLE_DIS_CLIENT
 149:Generated_Source\PSoC4/BLE_eventHandler.c ****     {{CYBLE_GATT_INVALID_ATTR_HANDLE_VALUE, CYBLE_GATT_INVALID_ATTR_HANDLE_VALUE}, CYBLE_UUID_DEVIC
 150:Generated_Source\PSoC4/BLE_eventHandler.c **** #endif /* CYBLE_DIS_CLIENT */
 151:Generated_Source\PSoC4/BLE_eventHandler.c **** #ifdef CYBLE_ESS_CLIENT
 152:Generated_Source\PSoC4/BLE_eventHandler.c ****     {{CYBLE_GATT_INVALID_ATTR_HANDLE_VALUE, CYBLE_GATT_INVALID_ATTR_HANDLE_VALUE}, 
 153:Generated_Source\PSoC4/BLE_eventHandler.c ****         CYBLE_UUID_ENVIRONMENTAL_SENSING_SERVICE},
 154:Generated_Source\PSoC4/BLE_eventHandler.c **** #endif /* CYBLE_ESS_CLIENT */
 155:Generated_Source\PSoC4/BLE_eventHandler.c **** #ifdef CYBLE_GLS_CLIENT
 156:Generated_Source\PSoC4/BLE_eventHandler.c ****     {{CYBLE_GATT_INVALID_ATTR_HANDLE_VALUE, CYBLE_GATT_INVALID_ATTR_HANDLE_VALUE}, CYBLE_UUID_GLUCO
 157:Generated_Source\PSoC4/BLE_eventHandler.c **** #endif /* CYBLE_GLS_CLIENT */
 158:Generated_Source\PSoC4/BLE_eventHandler.c **** #ifdef CYBLE_HIDS_CLIENT
 159:Generated_Source\PSoC4/BLE_eventHandler.c ****     {{CYBLE_GATT_INVALID_ATTR_HANDLE_VALUE, CYBLE_GATT_INVALID_ATTR_HANDLE_VALUE}, CYBLE_UUID_HIDS_
 160:Generated_Source\PSoC4/BLE_eventHandler.c ****     #if(CYBLE_HIDSC_SERVICE_COUNT > 1u) /* Generate it by GUI */
 161:Generated_Source\PSoC4/BLE_eventHandler.c ****         
 162:Generated_Source\PSoC4/BLE_eventHandler.c ****     #endif /* CYBLE_HIDSC_SERVICE_COUNT > 1u */
 163:Generated_Source\PSoC4/BLE_eventHandler.c **** #endif /* CYBLE_HIDS_CLIENT */
 164:Generated_Source\PSoC4/BLE_eventHandler.c **** #ifdef CYBLE_HPS_CLIENT
 165:Generated_Source\PSoC4/BLE_eventHandler.c ****     {{CYBLE_GATT_INVALID_ATTR_HANDLE_VALUE, CYBLE_GATT_INVALID_ATTR_HANDLE_VALUE}, CYBLE_UUID_HTTP_
 166:Generated_Source\PSoC4/BLE_eventHandler.c **** #endif /* CYBLE_HPS_CLIENT */
 167:Generated_Source\PSoC4/BLE_eventHandler.c **** #ifdef CYBLE_HRS_CLIENT
 168:Generated_Source\PSoC4/BLE_eventHandler.c ****     {{CYBLE_GATT_INVALID_ATTR_HANDLE_VALUE, CYBLE_GATT_INVALID_ATTR_HANDLE_VALUE}, CYBLE_UUID_HEART
 169:Generated_Source\PSoC4/BLE_eventHandler.c **** #endif /* CYBLE_HRS_CLIENT */
 170:Generated_Source\PSoC4/BLE_eventHandler.c **** #ifdef CYBLE_HTS_CLIENT
 171:Generated_Source\PSoC4/BLE_eventHandler.c ****     {{CYBLE_GATT_INVALID_ATTR_HANDLE_VALUE, CYBLE_GATT_INVALID_ATTR_HANDLE_VALUE}, CYBLE_UUID_HEALT
 172:Generated_Source\PSoC4/BLE_eventHandler.c **** #endif /* CYBLE_HTS_CLIENT */
 173:Generated_Source\PSoC4/BLE_eventHandler.c **** #ifdef CYBLE_IAS_CLIENT
 174:Generated_Source\PSoC4/BLE_eventHandler.c ****     {{CYBLE_GATT_INVALID_ATTR_HANDLE_VALUE, CYBLE_GATT_INVALID_ATTR_HANDLE_VALUE}, CYBLE_UUID_IMMED
 175:Generated_Source\PSoC4/BLE_eventHandler.c **** #endif /* CYBLE_IAS_CLIENT */
ARM GAS  C:\Users\diego\AppData\Local\Temp\ccaLbWCT.s 			page 5


 176:Generated_Source\PSoC4/BLE_eventHandler.c **** #ifdef CYBLE_IPS_CLIENT
 177:Generated_Source\PSoC4/BLE_eventHandler.c ****     {{CYBLE_GATT_INVALID_ATTR_HANDLE_VALUE, CYBLE_GATT_INVALID_ATTR_HANDLE_VALUE}, CYBLE_UUID_IPS_S
 178:Generated_Source\PSoC4/BLE_eventHandler.c **** #endif /* CYBLE_IPS_CLIENT */
 179:Generated_Source\PSoC4/BLE_eventHandler.c **** #ifdef CYBLE_LLS_CLIENT
 180:Generated_Source\PSoC4/BLE_eventHandler.c ****     {{CYBLE_GATT_INVALID_ATTR_HANDLE_VALUE, CYBLE_GATT_INVALID_ATTR_HANDLE_VALUE}, CYBLE_UUID_LINK_
 181:Generated_Source\PSoC4/BLE_eventHandler.c **** #endif /* CYBLE_LLS_CLIENT */
 182:Generated_Source\PSoC4/BLE_eventHandler.c **** #ifdef CYBLE_LNS_CLIENT
 183:Generated_Source\PSoC4/BLE_eventHandler.c ****     {{CYBLE_GATT_INVALID_ATTR_HANDLE_VALUE, CYBLE_GATT_INVALID_ATTR_HANDLE_VALUE}, CYBLE_UUID_LOCAT
 184:Generated_Source\PSoC4/BLE_eventHandler.c **** #endif /* CYBLE_LNS_CLIENT */
 185:Generated_Source\PSoC4/BLE_eventHandler.c **** #ifdef CYBLE_NDCS_CLIENT
 186:Generated_Source\PSoC4/BLE_eventHandler.c ****     {{CYBLE_GATT_INVALID_ATTR_HANDLE_VALUE, CYBLE_GATT_INVALID_ATTR_HANDLE_VALUE}, CYBLE_UUID_NEXT_
 187:Generated_Source\PSoC4/BLE_eventHandler.c **** #endif /* CYBLE_NDCS_CLIENT */
 188:Generated_Source\PSoC4/BLE_eventHandler.c **** #ifdef CYBLE_IPSS_CLIENT
 189:Generated_Source\PSoC4/BLE_eventHandler.c ****     {{CYBLE_GATT_INVALID_ATTR_HANDLE_VALUE, CYBLE_GATT_INVALID_ATTR_HANDLE_VALUE}, CYBLE_UUID_INTER
 190:Generated_Source\PSoC4/BLE_eventHandler.c **** #endif /* CYBLE_IPSS_CLIENT */
 191:Generated_Source\PSoC4/BLE_eventHandler.c **** #ifdef CYBLE_PASS_CLIENT
 192:Generated_Source\PSoC4/BLE_eventHandler.c ****     {{CYBLE_GATT_INVALID_ATTR_HANDLE_VALUE, CYBLE_GATT_INVALID_ATTR_HANDLE_VALUE}, CYBLE_UUID_PHONE
 193:Generated_Source\PSoC4/BLE_eventHandler.c **** #endif /* CYBLE_PASS_CLIENT */
 194:Generated_Source\PSoC4/BLE_eventHandler.c **** #ifdef CYBLE_PLXS_CLIENT
 195:Generated_Source\PSoC4/BLE_eventHandler.c ****     {{CYBLE_GATT_INVALID_ATTR_HANDLE_VALUE, CYBLE_GATT_INVALID_ATTR_HANDLE_VALUE}, CYBLE_UUID_PLXS_
 196:Generated_Source\PSoC4/BLE_eventHandler.c **** #endif /* CYBLE_PLXS_CLIENT */
 197:Generated_Source\PSoC4/BLE_eventHandler.c **** #ifdef CYBLE_RSCS_CLIENT
 198:Generated_Source\PSoC4/BLE_eventHandler.c ****     {{CYBLE_GATT_INVALID_ATTR_HANDLE_VALUE, CYBLE_GATT_INVALID_ATTR_HANDLE_VALUE}, CYBLE_UUID_RUNNI
 199:Generated_Source\PSoC4/BLE_eventHandler.c **** #endif /* CYBLE_RSCS_CLIENT */
 200:Generated_Source\PSoC4/BLE_eventHandler.c **** #ifdef CYBLE_RTUS_CLIENT
 201:Generated_Source\PSoC4/BLE_eventHandler.c ****     {{CYBLE_GATT_INVALID_ATTR_HANDLE_VALUE, CYBLE_GATT_INVALID_ATTR_HANDLE_VALUE}, CYBLE_UUID_REF_T
 202:Generated_Source\PSoC4/BLE_eventHandler.c **** #endif /* CYBLE_RTUS_CLIENT */
 203:Generated_Source\PSoC4/BLE_eventHandler.c **** #ifdef CYBLE_SCPS_CLIENT
 204:Generated_Source\PSoC4/BLE_eventHandler.c ****     {{CYBLE_GATT_INVALID_ATTR_HANDLE_VALUE, CYBLE_GATT_INVALID_ATTR_HANDLE_VALUE}, CYBLE_UUID_SCAN_
 205:Generated_Source\PSoC4/BLE_eventHandler.c **** #endif /* CYBLE_SCPS_CLIENT */
 206:Generated_Source\PSoC4/BLE_eventHandler.c **** #ifdef CYBLE_TPS_CLIENT
 207:Generated_Source\PSoC4/BLE_eventHandler.c ****     {{CYBLE_GATT_INVALID_ATTR_HANDLE_VALUE, CYBLE_GATT_INVALID_ATTR_HANDLE_VALUE}, CYBLE_UUID_TX_PO
 208:Generated_Source\PSoC4/BLE_eventHandler.c **** #endif /* CYBLE_TPS_CLIENT */
 209:Generated_Source\PSoC4/BLE_eventHandler.c **** #ifdef CYBLE_UDS_CLIENT
 210:Generated_Source\PSoC4/BLE_eventHandler.c ****     {{CYBLE_GATT_INVALID_ATTR_HANDLE_VALUE, CYBLE_GATT_INVALID_ATTR_HANDLE_VALUE}, CYBLE_UUID_USER_
 211:Generated_Source\PSoC4/BLE_eventHandler.c **** #endif /* CYBLE_UDS_CLIENT */
 212:Generated_Source\PSoC4/BLE_eventHandler.c **** #ifdef CYBLE_WSS_CLIENT
 213:Generated_Source\PSoC4/BLE_eventHandler.c ****     {{CYBLE_GATT_INVALID_ATTR_HANDLE_VALUE, CYBLE_GATT_INVALID_ATTR_HANDLE_VALUE}, CYBLE_UUID_WEIGH
 214:Generated_Source\PSoC4/BLE_eventHandler.c **** #endif /* CYBLE_WSS_CLIENT */
 215:Generated_Source\PSoC4/BLE_eventHandler.c **** #ifdef CYBLE_WPTS_CLIENT
 216:Generated_Source\PSoC4/BLE_eventHandler.c ****     {{CYBLE_GATT_INVALID_ATTR_HANDLE_VALUE, CYBLE_GATT_INVALID_ATTR_HANDLE_VALUE}, CYBLE_UUID_WIREL
 217:Generated_Source\PSoC4/BLE_eventHandler.c **** #endif /* CYBLE_WPTS_CLIENT */
 218:Generated_Source\PSoC4/BLE_eventHandler.c **** };
 219:Generated_Source\PSoC4/BLE_eventHandler.c **** 
 220:Generated_Source\PSoC4/BLE_eventHandler.c **** CYBLE_GAPC_T cyBle_gapc;
 221:Generated_Source\PSoC4/BLE_eventHandler.c **** 
 222:Generated_Source\PSoC4/BLE_eventHandler.c **** #endif /* CYBLE_GATT_ROLE_CLIENT */
 223:Generated_Source\PSoC4/BLE_eventHandler.c **** 
 224:Generated_Source\PSoC4/BLE_eventHandler.c **** /* Default device security */
 225:Generated_Source\PSoC4/BLE_eventHandler.c **** CYBLE_GAP_AUTH_INFO_T cyBle_authInfo =
 226:Generated_Source\PSoC4/BLE_eventHandler.c **** {
 227:Generated_Source\PSoC4/BLE_eventHandler.c ****     (CYBLE_GAP_SEC_MODE_1 | CYBLE_GAP_SEC_LEVEL_2 ), /* uint8 security */
 228:Generated_Source\PSoC4/BLE_eventHandler.c ****     CYBLE_GAP_BONDING_NONE, /* uint8 bonding */
 229:Generated_Source\PSoC4/BLE_eventHandler.c ****     0x10u,      /* uint8 ekeySize */
 230:Generated_Source\PSoC4/BLE_eventHandler.c ****     CYBLE_GAP_AUTH_ERROR_NONE, /* CYBLE_AUTH_FAILED_REASON_T authErr */
 231:Generated_Source\PSoC4/BLE_eventHandler.c ****     0x00u,      /* uint8 pairingProperties */
 232:Generated_Source\PSoC4/BLE_eventHandler.c **** };
ARM GAS  C:\Users\diego\AppData\Local\Temp\ccaLbWCT.s 			page 6


 233:Generated_Source\PSoC4/BLE_eventHandler.c **** 
 234:Generated_Source\PSoC4/BLE_eventHandler.c **** #if(CYBLE_GATT_ROLE_SERVER)
 235:Generated_Source\PSoC4/BLE_eventHandler.c **** 
 236:Generated_Source\PSoC4/BLE_eventHandler.c **** 
 237:Generated_Source\PSoC4/BLE_eventHandler.c **** /******************************************************************************    
 238:Generated_Source\PSoC4/BLE_eventHandler.c **** * Function Name: CyBle_WriteReqHandler
 239:Generated_Source\PSoC4/BLE_eventHandler.c **** ***************************************************************************//**
 240:Generated_Source\PSoC4/BLE_eventHandler.c **** * 
 241:Generated_Source\PSoC4/BLE_eventHandler.c **** *  Handles the Write Request event from BLE stack.
 242:Generated_Source\PSoC4/BLE_eventHandler.c **** * 
 243:Generated_Source\PSoC4/BLE_eventHandler.c **** *  CYBLE_GATTS_WRITE_REQ_PARAM_T * eventParam - event parameter
 244:Generated_Source\PSoC4/BLE_eventHandler.c **** * 
 245:Generated_Source\PSoC4/BLE_eventHandler.c **** * \return
 246:Generated_Source\PSoC4/BLE_eventHandler.c **** *  None
 247:Generated_Source\PSoC4/BLE_eventHandler.c **** * 
 248:Generated_Source\PSoC4/BLE_eventHandler.c **** ******************************************************************************/
 249:Generated_Source\PSoC4/BLE_eventHandler.c **** static void CyBle_WriteReqHandler(CYBLE_GATTS_WRITE_REQ_PARAM_T *eventParam)
 250:Generated_Source\PSoC4/BLE_eventHandler.c **** {
  54              		.loc 1 250 0
  55              		.cfi_startproc
  56              		@ args = 0, pretend = 0, frame = 16
  57              		@ frame_needed = 1, uses_anonymous_args = 0
  58 0000 90B5     		push	{r4, r7, lr}
  59              		.cfi_def_cfa_offset 12
  60              		.cfi_offset 4, -12
  61              		.cfi_offset 7, -8
  62              		.cfi_offset 14, -4
  63 0002 85B0     		sub	sp, sp, #20
  64              		.cfi_def_cfa_offset 32
  65 0004 00AF     		add	r7, sp, #0
  66              		.cfi_def_cfa_register 7
  67 0006 7860     		str	r0, [r7, #4]
 251:Generated_Source\PSoC4/BLE_eventHandler.c ****     CYBLE_GATT_ERR_CODE_T gattErr;
 252:Generated_Source\PSoC4/BLE_eventHandler.c **** #if defined CYBLE_CTS_SERVER || defined CYBLE_ESS_SERVER
 253:Generated_Source\PSoC4/BLE_eventHandler.c ****     cyBle_gattError = CYBLE_GATT_ERR_NONE;
 254:Generated_Source\PSoC4/BLE_eventHandler.c **** #endif /* defined CYBLE_CTS_SERVER || defined CYBLE_ESS_SERVER */
 255:Generated_Source\PSoC4/BLE_eventHandler.c ****     
 256:Generated_Source\PSoC4/BLE_eventHandler.c ****     gattErr = CyBle_GattsWriteEventHandler(eventParam);
  68              		.loc 1 256 0
  69 0008 0F23     		movs	r3, #15
  70 000a FC18     		adds	r4, r7, r3
  71 000c 7B68     		ldr	r3, [r7, #4]
  72 000e 1800     		movs	r0, r3
  73 0010 FFF7FEFF 		bl	CyBle_GattsWriteEventHandler
  74 0014 0300     		movs	r3, r0
  75 0016 2370     		strb	r3, [r4]
 257:Generated_Source\PSoC4/BLE_eventHandler.c **** #ifdef CYBLE_AIOS_SERVER
 258:Generated_Source\PSoC4/BLE_eventHandler.c ****     if(((cyBle_eventHandlerFlag & CYBLE_CALLBACK) != 0u) && (gattErr == CYBLE_GATT_ERR_NONE))
 259:Generated_Source\PSoC4/BLE_eventHandler.c ****     {
 260:Generated_Source\PSoC4/BLE_eventHandler.c ****         gattErr = CyBle_AiossWriteEventHandler(eventParam);
 261:Generated_Source\PSoC4/BLE_eventHandler.c ****     }
 262:Generated_Source\PSoC4/BLE_eventHandler.c **** #endif /* CYBLE_AIOS_SERVER */
 263:Generated_Source\PSoC4/BLE_eventHandler.c **** #ifdef CYBLE_ANCS_SERVER
 264:Generated_Source\PSoC4/BLE_eventHandler.c ****     if(((cyBle_eventHandlerFlag & CYBLE_CALLBACK) != 0u) && (gattErr == CYBLE_GATT_ERR_NONE))
 265:Generated_Source\PSoC4/BLE_eventHandler.c ****     {
 266:Generated_Source\PSoC4/BLE_eventHandler.c ****         gattErr = CyBle_AncssWriteEventHandler(eventParam);
 267:Generated_Source\PSoC4/BLE_eventHandler.c ****     }
ARM GAS  C:\Users\diego\AppData\Local\Temp\ccaLbWCT.s 			page 7


 268:Generated_Source\PSoC4/BLE_eventHandler.c **** #endif /* CYBLE_ANCS_SERVER */
 269:Generated_Source\PSoC4/BLE_eventHandler.c **** #ifdef CYBLE_ANS_SERVER
 270:Generated_Source\PSoC4/BLE_eventHandler.c ****     if(((cyBle_eventHandlerFlag & CYBLE_CALLBACK) != 0u) && (gattErr == CYBLE_GATT_ERR_NONE))
 271:Generated_Source\PSoC4/BLE_eventHandler.c ****     {
 272:Generated_Source\PSoC4/BLE_eventHandler.c ****         gattErr = CyBle_AnssWriteEventHandler(eventParam);
 273:Generated_Source\PSoC4/BLE_eventHandler.c ****     }
 274:Generated_Source\PSoC4/BLE_eventHandler.c **** #endif /* CYBLE_ANS_SERVER */
 275:Generated_Source\PSoC4/BLE_eventHandler.c **** #ifdef CYBLE_BAS_SERVER
 276:Generated_Source\PSoC4/BLE_eventHandler.c ****     if(((cyBle_eventHandlerFlag & CYBLE_CALLBACK) != 0u) && (gattErr == CYBLE_GATT_ERR_NONE))
  76              		.loc 1 276 0
  77 0018 294B     		ldr	r3, .L7
  78 001a 1B78     		ldrb	r3, [r3]
  79 001c DBB2     		uxtb	r3, r3
  80 001e 1A00     		movs	r2, r3
  81 0020 0123     		movs	r3, #1
  82 0022 1340     		ands	r3, r2
  83 0024 0CD0     		beq	.L2
  84              		.loc 1 276 0 is_stmt 0 discriminator 1
  85 0026 0F23     		movs	r3, #15
  86 0028 FB18     		adds	r3, r7, r3
  87 002a 1B78     		ldrb	r3, [r3]
  88 002c 002B     		cmp	r3, #0
  89 002e 07D1     		bne	.L2
 277:Generated_Source\PSoC4/BLE_eventHandler.c ****     {
 278:Generated_Source\PSoC4/BLE_eventHandler.c ****         gattErr = CyBle_BassWriteEventHandler(eventParam);
  90              		.loc 1 278 0 is_stmt 1
  91 0030 0F23     		movs	r3, #15
  92 0032 FC18     		adds	r4, r7, r3
  93 0034 7B68     		ldr	r3, [r7, #4]
  94 0036 1800     		movs	r0, r3
  95 0038 FFF7FEFF 		bl	CyBle_BassWriteEventHandler
  96 003c 0300     		movs	r3, r0
  97 003e 2370     		strb	r3, [r4]
  98              	.L2:
 279:Generated_Source\PSoC4/BLE_eventHandler.c ****     }
 280:Generated_Source\PSoC4/BLE_eventHandler.c **** #endif /* CYBLE_BAS_SERVER */
 281:Generated_Source\PSoC4/BLE_eventHandler.c **** #ifdef CYBLE_BCS_SERVER
 282:Generated_Source\PSoC4/BLE_eventHandler.c ****     if(((cyBle_eventHandlerFlag & CYBLE_CALLBACK) != 0u) && (gattErr == CYBLE_GATT_ERR_NONE))
 283:Generated_Source\PSoC4/BLE_eventHandler.c ****     {
 284:Generated_Source\PSoC4/BLE_eventHandler.c ****         gattErr = CyBle_BcssWriteEventHandler(eventParam);
 285:Generated_Source\PSoC4/BLE_eventHandler.c ****     }
 286:Generated_Source\PSoC4/BLE_eventHandler.c **** #endif /* CYBLE_BCS_SERVER */
 287:Generated_Source\PSoC4/BLE_eventHandler.c **** #ifdef CYBLE_BLS_SERVER
 288:Generated_Source\PSoC4/BLE_eventHandler.c ****     if(((cyBle_eventHandlerFlag & CYBLE_CALLBACK) != 0u) && (gattErr == CYBLE_GATT_ERR_NONE))
 289:Generated_Source\PSoC4/BLE_eventHandler.c ****     {
 290:Generated_Source\PSoC4/BLE_eventHandler.c ****         gattErr = CyBle_BlssWriteEventHandler(eventParam);
 291:Generated_Source\PSoC4/BLE_eventHandler.c ****     }
 292:Generated_Source\PSoC4/BLE_eventHandler.c **** #endif /* CYBLE_BLS_SERVER */
 293:Generated_Source\PSoC4/BLE_eventHandler.c **** #ifdef CYBLE_BMS_SERVER
 294:Generated_Source\PSoC4/BLE_eventHandler.c ****     if(((cyBle_eventHandlerFlag & CYBLE_CALLBACK) != 0u) && (gattErr == CYBLE_GATT_ERR_NONE))
 295:Generated_Source\PSoC4/BLE_eventHandler.c ****     {
 296:Generated_Source\PSoC4/BLE_eventHandler.c ****         gattErr = CyBle_BmssWriteEventHandler(eventParam);
 297:Generated_Source\PSoC4/BLE_eventHandler.c ****     }
 298:Generated_Source\PSoC4/BLE_eventHandler.c **** #endif /* CYBLE_BMS_SERVER */
 299:Generated_Source\PSoC4/BLE_eventHandler.c **** #ifdef CYBLE_BTS_SERVER
 300:Generated_Source\PSoC4/BLE_eventHandler.c ****     if((cyBle_eventHandlerFlag & CYBLE_CALLBACK) != 0u)
 301:Generated_Source\PSoC4/BLE_eventHandler.c ****     {
ARM GAS  C:\Users\diego\AppData\Local\Temp\ccaLbWCT.s 			page 8


 302:Generated_Source\PSoC4/BLE_eventHandler.c ****         gattErr = CyBle_BtsWriteEventHandler(eventParam);
 303:Generated_Source\PSoC4/BLE_eventHandler.c ****     }
 304:Generated_Source\PSoC4/BLE_eventHandler.c **** #endif /* CYBLE_BTS_SERVER */
 305:Generated_Source\PSoC4/BLE_eventHandler.c **** #ifdef CYBLE_CGMS_SERVER
 306:Generated_Source\PSoC4/BLE_eventHandler.c ****     if(((cyBle_eventHandlerFlag & CYBLE_CALLBACK) != 0u) && (gattErr == CYBLE_GATT_ERR_NONE))
 307:Generated_Source\PSoC4/BLE_eventHandler.c ****     {
 308:Generated_Source\PSoC4/BLE_eventHandler.c ****         gattErr = CyBle_CgmssWriteEventHandler(eventParam);
 309:Generated_Source\PSoC4/BLE_eventHandler.c ****     }
 310:Generated_Source\PSoC4/BLE_eventHandler.c **** #endif /* CYBLE_CGMS_SERVER */
 311:Generated_Source\PSoC4/BLE_eventHandler.c **** #ifdef CYBLE_CPS_SERVER
 312:Generated_Source\PSoC4/BLE_eventHandler.c ****     if(((cyBle_eventHandlerFlag & CYBLE_CALLBACK) != 0u) && (gattErr == CYBLE_GATT_ERR_NONE))
 313:Generated_Source\PSoC4/BLE_eventHandler.c ****     {
 314:Generated_Source\PSoC4/BLE_eventHandler.c ****         gattErr = CyBle_CpssWriteEventHandler(eventParam);
 315:Generated_Source\PSoC4/BLE_eventHandler.c ****     }
 316:Generated_Source\PSoC4/BLE_eventHandler.c **** #endif /* CYBLE_CPS_SERVER */
 317:Generated_Source\PSoC4/BLE_eventHandler.c **** #ifdef CYBLE_CSCS_SERVER
 318:Generated_Source\PSoC4/BLE_eventHandler.c ****     if(((cyBle_eventHandlerFlag & CYBLE_CALLBACK) != 0u) && (gattErr == CYBLE_GATT_ERR_NONE))
 319:Generated_Source\PSoC4/BLE_eventHandler.c ****     {
 320:Generated_Source\PSoC4/BLE_eventHandler.c ****         gattErr = CyBle_CscssWriteEventHandler(eventParam);
 321:Generated_Source\PSoC4/BLE_eventHandler.c ****     }
 322:Generated_Source\PSoC4/BLE_eventHandler.c **** #endif /* CYBLE_CSCS_SERVER */
 323:Generated_Source\PSoC4/BLE_eventHandler.c **** #ifdef CYBLE_CTS_SERVER
 324:Generated_Source\PSoC4/BLE_eventHandler.c ****     if(((cyBle_eventHandlerFlag & CYBLE_CALLBACK) != 0u) && (gattErr == CYBLE_GATT_ERR_NONE))
 325:Generated_Source\PSoC4/BLE_eventHandler.c ****     {
 326:Generated_Source\PSoC4/BLE_eventHandler.c ****         gattErr = CyBle_CtssWriteEventHandler(eventParam);
 327:Generated_Source\PSoC4/BLE_eventHandler.c ****     }
 328:Generated_Source\PSoC4/BLE_eventHandler.c **** #endif /* CYBLE_CTS_SERVER */
 329:Generated_Source\PSoC4/BLE_eventHandler.c **** #ifdef CYBLE_ESS_SERVER
 330:Generated_Source\PSoC4/BLE_eventHandler.c ****     if(((cyBle_eventHandlerFlag & CYBLE_CALLBACK) != 0u) && (gattErr == CYBLE_GATT_ERR_NONE))
 331:Generated_Source\PSoC4/BLE_eventHandler.c ****     {
 332:Generated_Source\PSoC4/BLE_eventHandler.c ****         gattErr = CyBle_EsssWriteEventHandler(eventParam);
 333:Generated_Source\PSoC4/BLE_eventHandler.c ****     }
 334:Generated_Source\PSoC4/BLE_eventHandler.c **** #endif /* CYBLE_ESS_SERVER */
 335:Generated_Source\PSoC4/BLE_eventHandler.c **** #ifdef CYBLE_GLS_SERVER
 336:Generated_Source\PSoC4/BLE_eventHandler.c ****     if(((cyBle_eventHandlerFlag & CYBLE_CALLBACK) != 0u) && (gattErr == CYBLE_GATT_ERR_NONE))
 337:Generated_Source\PSoC4/BLE_eventHandler.c ****     {
 338:Generated_Source\PSoC4/BLE_eventHandler.c ****         gattErr = CyBle_GlssWriteEventHandler(eventParam);
 339:Generated_Source\PSoC4/BLE_eventHandler.c ****     }
 340:Generated_Source\PSoC4/BLE_eventHandler.c **** #endif /* CYBLE_GLS_SERVER */
 341:Generated_Source\PSoC4/BLE_eventHandler.c **** #ifdef CYBLE_HIDS_SERVER
 342:Generated_Source\PSoC4/BLE_eventHandler.c ****     if(((cyBle_eventHandlerFlag & CYBLE_CALLBACK) != 0u) && (gattErr == CYBLE_GATT_ERR_NONE))
 343:Generated_Source\PSoC4/BLE_eventHandler.c ****     {
 344:Generated_Source\PSoC4/BLE_eventHandler.c ****         gattErr = CyBle_HidssWriteEventHandler(eventParam);
 345:Generated_Source\PSoC4/BLE_eventHandler.c ****     }
 346:Generated_Source\PSoC4/BLE_eventHandler.c **** #endif /* CYBLE_HIDS_SERVER */
 347:Generated_Source\PSoC4/BLE_eventHandler.c **** #ifdef CYBLE_HPS_SERVER
 348:Generated_Source\PSoC4/BLE_eventHandler.c ****     if(((cyBle_eventHandlerFlag & CYBLE_CALLBACK) != 0u) && (gattErr == CYBLE_GATT_ERR_NONE))
 349:Generated_Source\PSoC4/BLE_eventHandler.c ****     {
 350:Generated_Source\PSoC4/BLE_eventHandler.c ****         gattErr = CyBle_HpssWriteEventHandler(eventParam);
 351:Generated_Source\PSoC4/BLE_eventHandler.c ****     }
 352:Generated_Source\PSoC4/BLE_eventHandler.c **** #endif /* CYBLE_HPS_SERVER */
 353:Generated_Source\PSoC4/BLE_eventHandler.c **** #ifdef CYBLE_HRS_SERVER
 354:Generated_Source\PSoC4/BLE_eventHandler.c ****     if(((cyBle_eventHandlerFlag & CYBLE_CALLBACK) != 0u) && (gattErr == CYBLE_GATT_ERR_NONE))
 355:Generated_Source\PSoC4/BLE_eventHandler.c ****     {
 356:Generated_Source\PSoC4/BLE_eventHandler.c ****         gattErr = CyBle_HrssWriteEventHandler(eventParam);
 357:Generated_Source\PSoC4/BLE_eventHandler.c ****     }
 358:Generated_Source\PSoC4/BLE_eventHandler.c **** #endif /* CYBLE_HRS_SERVER */
ARM GAS  C:\Users\diego\AppData\Local\Temp\ccaLbWCT.s 			page 9


 359:Generated_Source\PSoC4/BLE_eventHandler.c **** #ifdef CYBLE_HTS_SERVER
 360:Generated_Source\PSoC4/BLE_eventHandler.c ****     if(((cyBle_eventHandlerFlag & CYBLE_CALLBACK) != 0u) && (gattErr == CYBLE_GATT_ERR_NONE))
  99              		.loc 1 360 0
 100 0040 1F4B     		ldr	r3, .L7
 101 0042 1B78     		ldrb	r3, [r3]
 102 0044 DBB2     		uxtb	r3, r3
 103 0046 1A00     		movs	r2, r3
 104 0048 0123     		movs	r3, #1
 105 004a 1340     		ands	r3, r2
 106 004c 0CD0     		beq	.L3
 107              		.loc 1 360 0 is_stmt 0 discriminator 1
 108 004e 0F23     		movs	r3, #15
 109 0050 FB18     		adds	r3, r7, r3
 110 0052 1B78     		ldrb	r3, [r3]
 111 0054 002B     		cmp	r3, #0
 112 0056 07D1     		bne	.L3
 361:Generated_Source\PSoC4/BLE_eventHandler.c ****     {
 362:Generated_Source\PSoC4/BLE_eventHandler.c ****         gattErr = CyBle_HtssWriteEventHandler(eventParam);
 113              		.loc 1 362 0 is_stmt 1
 114 0058 0F23     		movs	r3, #15
 115 005a FC18     		adds	r4, r7, r3
 116 005c 7B68     		ldr	r3, [r7, #4]
 117 005e 1800     		movs	r0, r3
 118 0060 FFF7FEFF 		bl	CyBle_HtssWriteEventHandler
 119 0064 0300     		movs	r3, r0
 120 0066 2370     		strb	r3, [r4]
 121              	.L3:
 363:Generated_Source\PSoC4/BLE_eventHandler.c ****     }
 364:Generated_Source\PSoC4/BLE_eventHandler.c **** #endif /* CYBLE_HTS_SERVER */
 365:Generated_Source\PSoC4/BLE_eventHandler.c **** #ifdef CYBLE_IPS_SERVER
 366:Generated_Source\PSoC4/BLE_eventHandler.c ****     if(((cyBle_eventHandlerFlag & CYBLE_CALLBACK) != 0u) && (gattErr == CYBLE_GATT_ERR_NONE))
 367:Generated_Source\PSoC4/BLE_eventHandler.c ****     {
 368:Generated_Source\PSoC4/BLE_eventHandler.c ****         gattErr = CyBle_IpssWriteEventHandler(eventParam);
 369:Generated_Source\PSoC4/BLE_eventHandler.c ****     }
 370:Generated_Source\PSoC4/BLE_eventHandler.c **** #endif /* CYBLE_IPS_SERVER */
 371:Generated_Source\PSoC4/BLE_eventHandler.c **** #ifdef CYBLE_LLS_SERVER
 372:Generated_Source\PSoC4/BLE_eventHandler.c ****     if(((cyBle_eventHandlerFlag & CYBLE_CALLBACK) != 0u) && (gattErr == CYBLE_GATT_ERR_NONE))
 373:Generated_Source\PSoC4/BLE_eventHandler.c ****     {
 374:Generated_Source\PSoC4/BLE_eventHandler.c ****         gattErr = CyBle_LlssWriteEventHandler(eventParam);
 375:Generated_Source\PSoC4/BLE_eventHandler.c ****     }
 376:Generated_Source\PSoC4/BLE_eventHandler.c **** #endif /* CYBLE_LLS_SERVER */
 377:Generated_Source\PSoC4/BLE_eventHandler.c **** #ifdef CYBLE_LNS_SERVER
 378:Generated_Source\PSoC4/BLE_eventHandler.c ****     if(((cyBle_eventHandlerFlag & CYBLE_CALLBACK) != 0u) && (gattErr == CYBLE_GATT_ERR_NONE))
 379:Generated_Source\PSoC4/BLE_eventHandler.c ****     {
 380:Generated_Source\PSoC4/BLE_eventHandler.c ****         gattErr = CyBle_LnssWriteEventHandler(eventParam);
 381:Generated_Source\PSoC4/BLE_eventHandler.c ****     }
 382:Generated_Source\PSoC4/BLE_eventHandler.c **** #endif /* CYBLE_LNS_SERVER */
 383:Generated_Source\PSoC4/BLE_eventHandler.c **** #ifdef CYBLE_PASS_SERVER
 384:Generated_Source\PSoC4/BLE_eventHandler.c ****     if(((cyBle_eventHandlerFlag & CYBLE_CALLBACK) != 0u) && (gattErr == CYBLE_GATT_ERR_NONE))
 385:Generated_Source\PSoC4/BLE_eventHandler.c ****     {
 386:Generated_Source\PSoC4/BLE_eventHandler.c ****         gattErr = CyBle_PasssWriteEventHandler(eventParam);
 387:Generated_Source\PSoC4/BLE_eventHandler.c ****     }
 388:Generated_Source\PSoC4/BLE_eventHandler.c **** #endif /* CYBLE_PASS_SERVER */
 389:Generated_Source\PSoC4/BLE_eventHandler.c **** #ifdef CYBLE_PLXS_SERVER
 390:Generated_Source\PSoC4/BLE_eventHandler.c ****     if(((cyBle_eventHandlerFlag & CYBLE_CALLBACK) != 0u) && (gattErr == CYBLE_GATT_ERR_NONE))
 391:Generated_Source\PSoC4/BLE_eventHandler.c ****     {
 392:Generated_Source\PSoC4/BLE_eventHandler.c ****         gattErr = CyBle_PlxssWriteEventHandler(eventParam);
ARM GAS  C:\Users\diego\AppData\Local\Temp\ccaLbWCT.s 			page 10


 393:Generated_Source\PSoC4/BLE_eventHandler.c ****     }
 394:Generated_Source\PSoC4/BLE_eventHandler.c **** #endif /* CYBLE_PLXS_SERVER */    
 395:Generated_Source\PSoC4/BLE_eventHandler.c **** #ifdef CYBLE_RSCS_SERVER
 396:Generated_Source\PSoC4/BLE_eventHandler.c ****     if(((cyBle_eventHandlerFlag & CYBLE_CALLBACK) != 0u) && (gattErr == CYBLE_GATT_ERR_NONE))
 397:Generated_Source\PSoC4/BLE_eventHandler.c ****     {
 398:Generated_Source\PSoC4/BLE_eventHandler.c ****         gattErr = CyBle_RscssWriteEventHandler(eventParam);
 399:Generated_Source\PSoC4/BLE_eventHandler.c ****     }
 400:Generated_Source\PSoC4/BLE_eventHandler.c **** #endif /* CYBLE_RSCS_SERVER */
 401:Generated_Source\PSoC4/BLE_eventHandler.c **** #ifdef CYBLE_SCPS_SERVER
 402:Generated_Source\PSoC4/BLE_eventHandler.c ****     if(((cyBle_eventHandlerFlag & CYBLE_CALLBACK) != 0u) && (gattErr == CYBLE_GATT_ERR_NONE))
 403:Generated_Source\PSoC4/BLE_eventHandler.c ****     {
 404:Generated_Source\PSoC4/BLE_eventHandler.c ****         gattErr = CyBle_ScpssWriteEventHandler(eventParam);
 405:Generated_Source\PSoC4/BLE_eventHandler.c ****     }
 406:Generated_Source\PSoC4/BLE_eventHandler.c **** #endif /* CYBLE_SCPS_SERVER */
 407:Generated_Source\PSoC4/BLE_eventHandler.c **** #ifdef CYBLE_TPS_SERVER
 408:Generated_Source\PSoC4/BLE_eventHandler.c ****     if(((cyBle_eventHandlerFlag & CYBLE_CALLBACK) != 0u) && (gattErr == CYBLE_GATT_ERR_NONE))
 409:Generated_Source\PSoC4/BLE_eventHandler.c ****     {
 410:Generated_Source\PSoC4/BLE_eventHandler.c ****         gattErr = CyBle_TpssWriteEventHandler(eventParam);
 411:Generated_Source\PSoC4/BLE_eventHandler.c ****     }
 412:Generated_Source\PSoC4/BLE_eventHandler.c **** #endif /* CYBLE_TPS_SERVER */
 413:Generated_Source\PSoC4/BLE_eventHandler.c **** #ifdef CYBLE_UDS_SERVER
 414:Generated_Source\PSoC4/BLE_eventHandler.c ****     if(((cyBle_eventHandlerFlag & CYBLE_CALLBACK) != 0u) && (gattErr == CYBLE_GATT_ERR_NONE))
 415:Generated_Source\PSoC4/BLE_eventHandler.c ****     {
 416:Generated_Source\PSoC4/BLE_eventHandler.c ****         gattErr = CyBle_UdssWriteEventHandler(eventParam);
 417:Generated_Source\PSoC4/BLE_eventHandler.c ****     }
 418:Generated_Source\PSoC4/BLE_eventHandler.c **** #endif /* CYBLE_UDS_SERVER */
 419:Generated_Source\PSoC4/BLE_eventHandler.c **** #ifdef CYBLE_WPTS_SERVER
 420:Generated_Source\PSoC4/BLE_eventHandler.c ****     if(((cyBle_eventHandlerFlag & CYBLE_CALLBACK) != 0u) && (gattErr == CYBLE_GATT_ERR_NONE))
 421:Generated_Source\PSoC4/BLE_eventHandler.c ****     {
 422:Generated_Source\PSoC4/BLE_eventHandler.c ****         gattErr = CyBle_WptssWriteEventHandler(eventParam);
 423:Generated_Source\PSoC4/BLE_eventHandler.c ****     }
 424:Generated_Source\PSoC4/BLE_eventHandler.c **** #endif /* CYBLE_WPTS_SERVER */
 425:Generated_Source\PSoC4/BLE_eventHandler.c **** #ifdef CYBLE_WSS_SERVER
 426:Generated_Source\PSoC4/BLE_eventHandler.c ****     if(((cyBle_eventHandlerFlag & CYBLE_CALLBACK) != 0u) && (gattErr == CYBLE_GATT_ERR_NONE))
 427:Generated_Source\PSoC4/BLE_eventHandler.c ****     {
 428:Generated_Source\PSoC4/BLE_eventHandler.c ****         gattErr = CyBle_WsssWriteEventHandler(eventParam);
 429:Generated_Source\PSoC4/BLE_eventHandler.c ****     }
 430:Generated_Source\PSoC4/BLE_eventHandler.c **** #endif /* CYBLE_WSS_SERVER */
 431:Generated_Source\PSoC4/BLE_eventHandler.c **** 
 432:Generated_Source\PSoC4/BLE_eventHandler.c ****     /* Send response when event was handled by service */
 433:Generated_Source\PSoC4/BLE_eventHandler.c ****     if((cyBle_eventHandlerFlag & CYBLE_CALLBACK) == 0u)
 122              		.loc 1 433 0
 123 0068 154B     		ldr	r3, .L7
 124 006a 1B78     		ldrb	r3, [r3]
 125 006c DBB2     		uxtb	r3, r3
 126 006e 1A00     		movs	r2, r3
 127 0070 0123     		movs	r3, #1
 128 0072 1340     		ands	r3, r2
 129 0074 1FD1     		bne	.L6
 434:Generated_Source\PSoC4/BLE_eventHandler.c ****     {
 435:Generated_Source\PSoC4/BLE_eventHandler.c ****         if(gattErr != CYBLE_GATT_ERR_NONE)
 130              		.loc 1 435 0
 131 0076 0F23     		movs	r3, #15
 132 0078 FB18     		adds	r3, r7, r3
 133 007a 1B78     		ldrb	r3, [r3]
 134 007c 002B     		cmp	r3, #0
 135 007e 16D0     		beq	.L5
ARM GAS  C:\Users\diego\AppData\Local\Temp\ccaLbWCT.s 			page 11


 136              	.LBB2:
 436:Generated_Source\PSoC4/BLE_eventHandler.c ****         {
 437:Generated_Source\PSoC4/BLE_eventHandler.c ****             CYBLE_GATTS_ERR_PARAM_T err_param;
 438:Generated_Source\PSoC4/BLE_eventHandler.c ****             
 439:Generated_Source\PSoC4/BLE_eventHandler.c ****             err_param.opcode = (uint8) CYBLE_GATT_WRITE_REQ;
 137              		.loc 1 439 0
 138 0080 0823     		movs	r3, #8
 139 0082 FB18     		adds	r3, r7, r3
 140 0084 1222     		movs	r2, #18
 141 0086 9A70     		strb	r2, [r3, #2]
 440:Generated_Source\PSoC4/BLE_eventHandler.c ****             err_param.attrHandle = eventParam->handleValPair.attrHandle;
 142              		.loc 1 440 0
 143 0088 7B68     		ldr	r3, [r7, #4]
 144 008a 9A89     		ldrh	r2, [r3, #12]
 145 008c 0823     		movs	r3, #8
 146 008e FB18     		adds	r3, r7, r3
 147 0090 1A80     		strh	r2, [r3]
 441:Generated_Source\PSoC4/BLE_eventHandler.c ****             err_param.errorCode = gattErr;
 148              		.loc 1 441 0
 149 0092 0823     		movs	r3, #8
 150 0094 FB18     		adds	r3, r7, r3
 151 0096 0F22     		movs	r2, #15
 152 0098 BA18     		adds	r2, r7, r2
 153 009a 1278     		ldrb	r2, [r2]
 154 009c DA70     		strb	r2, [r3, #3]
 442:Generated_Source\PSoC4/BLE_eventHandler.c **** 
 443:Generated_Source\PSoC4/BLE_eventHandler.c ****             /* Send Error Response */
 444:Generated_Source\PSoC4/BLE_eventHandler.c ****             (void)CyBle_GattsErrorRsp(eventParam->connHandle, &err_param);
 155              		.loc 1 444 0
 156 009e 0823     		movs	r3, #8
 157 00a0 FA18     		adds	r2, r7, r3
 158 00a2 7B68     		ldr	r3, [r7, #4]
 159 00a4 1100     		movs	r1, r2
 160 00a6 1868     		ldr	r0, [r3]
 161 00a8 FFF7FEFF 		bl	CyBle_GattsErrorRsp
 162              	.LBE2:
 445:Generated_Source\PSoC4/BLE_eventHandler.c ****         }
 446:Generated_Source\PSoC4/BLE_eventHandler.c ****         else
 447:Generated_Source\PSoC4/BLE_eventHandler.c ****         {
 448:Generated_Source\PSoC4/BLE_eventHandler.c ****             (void)CyBle_GattsWriteRsp(eventParam->connHandle);
 449:Generated_Source\PSoC4/BLE_eventHandler.c ****         }
 450:Generated_Source\PSoC4/BLE_eventHandler.c ****     }
 451:Generated_Source\PSoC4/BLE_eventHandler.c **** }
 163              		.loc 1 451 0
 164 00ac 03E0     		b	.L6
 165              	.L5:
 448:Generated_Source\PSoC4/BLE_eventHandler.c ****         }
 166              		.loc 1 448 0
 167 00ae 7B68     		ldr	r3, [r7, #4]
 168 00b0 1868     		ldr	r0, [r3]
 169 00b2 FFF7FEFF 		bl	CyBle_GattsWriteRsp
 170              	.L6:
 171              		.loc 1 451 0
 172 00b6 C046     		nop
 173 00b8 BD46     		mov	sp, r7
 174 00ba 05B0     		add	sp, sp, #20
 175              		@ sp needed
ARM GAS  C:\Users\diego\AppData\Local\Temp\ccaLbWCT.s 			page 12


 176 00bc 90BD     		pop	{r4, r7, pc}
 177              	.L8:
 178 00be C046     		.align	2
 179              	.L7:
 180 00c0 00000000 		.word	cyBle_eventHandlerFlag
 181              		.cfi_endproc
 182              	.LFE2:
 183              		.size	CyBle_WriteReqHandler, .-CyBle_WriteReqHandler
 184              		.section	.text.CyBle_ValueConfirmation,"ax",%progbits
 185              		.align	2
 186              		.code	16
 187              		.thumb_func
 188              		.type	CyBle_ValueConfirmation, %function
 189              	CyBle_ValueConfirmation:
 190              	.LFB3:
 452:Generated_Source\PSoC4/BLE_eventHandler.c **** 
 453:Generated_Source\PSoC4/BLE_eventHandler.c **** 
 454:Generated_Source\PSoC4/BLE_eventHandler.c **** /****************************************************************************** 
 455:Generated_Source\PSoC4/BLE_eventHandler.c **** * Function Name: CyBle_ValueConfirmation
 456:Generated_Source\PSoC4/BLE_eventHandler.c **** ***************************************************************************//**
 457:Generated_Source\PSoC4/BLE_eventHandler.c **** * 
 458:Generated_Source\PSoC4/BLE_eventHandler.c **** *  Handles the Value Confirmation request event from the BLE stack.
 459:Generated_Source\PSoC4/BLE_eventHandler.c **** * 
 460:Generated_Source\PSoC4/BLE_eventHandler.c **** *  \param eventParam: Pointer to a structure of type 'CYBLE_CONN_HANDLE_T'
 461:Generated_Source\PSoC4/BLE_eventHandler.c **** * 
 462:Generated_Source\PSoC4/BLE_eventHandler.c **** * \return
 463:Generated_Source\PSoC4/BLE_eventHandler.c **** *  None
 464:Generated_Source\PSoC4/BLE_eventHandler.c **** * 
 465:Generated_Source\PSoC4/BLE_eventHandler.c **** ******************************************************************************/
 466:Generated_Source\PSoC4/BLE_eventHandler.c **** static void CyBle_ValueConfirmation(const CYBLE_CONN_HANDLE_T *eventParam)
 467:Generated_Source\PSoC4/BLE_eventHandler.c **** {
 191              		.loc 1 467 0
 192              		.cfi_startproc
 193              		@ args = 0, pretend = 0, frame = 8
 194              		@ frame_needed = 1, uses_anonymous_args = 0
 195 0000 80B5     		push	{r7, lr}
 196              		.cfi_def_cfa_offset 8
 197              		.cfi_offset 7, -8
 198              		.cfi_offset 14, -4
 199 0002 82B0     		sub	sp, sp, #8
 200              		.cfi_def_cfa_offset 16
 201 0004 00AF     		add	r7, sp, #0
 202              		.cfi_def_cfa_register 7
 203 0006 7860     		str	r0, [r7, #4]
 468:Generated_Source\PSoC4/BLE_eventHandler.c ****     if(eventParam != NULL)
 204              		.loc 1 468 0
 205 0008 7B68     		ldr	r3, [r7, #4]
 206 000a 002B     		cmp	r3, #0
 207 000c 0AD0     		beq	.L11
 469:Generated_Source\PSoC4/BLE_eventHandler.c ****     {
 470:Generated_Source\PSoC4/BLE_eventHandler.c ****     #ifdef CYBLE_AIOS_SERVER
 471:Generated_Source\PSoC4/BLE_eventHandler.c ****         if((cyBle_eventHandlerFlag & CYBLE_CALLBACK) != 0u)
 472:Generated_Source\PSoC4/BLE_eventHandler.c ****         {
 473:Generated_Source\PSoC4/BLE_eventHandler.c ****             CyBle_AiossConfirmationEventHandler(eventParam);
 474:Generated_Source\PSoC4/BLE_eventHandler.c ****         }
 475:Generated_Source\PSoC4/BLE_eventHandler.c ****     #endif /* CYBLE_AIOS_SERVER */
 476:Generated_Source\PSoC4/BLE_eventHandler.c ****     #ifdef CYBLE_BCS_SERVER
ARM GAS  C:\Users\diego\AppData\Local\Temp\ccaLbWCT.s 			page 13


 477:Generated_Source\PSoC4/BLE_eventHandler.c ****         CyBle_BcssConfirmationEventHandler(eventParam);
 478:Generated_Source\PSoC4/BLE_eventHandler.c ****     #endif /* CYBLE_BCS_SERVER */
 479:Generated_Source\PSoC4/BLE_eventHandler.c ****     #ifdef CYBLE_BLS_SERVER
 480:Generated_Source\PSoC4/BLE_eventHandler.c ****         if((cyBle_eventHandlerFlag & CYBLE_CALLBACK) != 0u)
 481:Generated_Source\PSoC4/BLE_eventHandler.c ****         {
 482:Generated_Source\PSoC4/BLE_eventHandler.c ****             CyBle_BlssConfirmationEventHandler(eventParam);
 483:Generated_Source\PSoC4/BLE_eventHandler.c ****         }
 484:Generated_Source\PSoC4/BLE_eventHandler.c ****     #endif /* CYBLE_BLS_SERVER */
 485:Generated_Source\PSoC4/BLE_eventHandler.c ****     
 486:Generated_Source\PSoC4/BLE_eventHandler.c ****     #ifdef CYBLE_CGMS_SERVER
 487:Generated_Source\PSoC4/BLE_eventHandler.c ****         if((cyBle_eventHandlerFlag & CYBLE_CALLBACK) != 0u)
 488:Generated_Source\PSoC4/BLE_eventHandler.c ****         {
 489:Generated_Source\PSoC4/BLE_eventHandler.c ****             CyBle_CgmssConfirmationEventHandler(eventParam);
 490:Generated_Source\PSoC4/BLE_eventHandler.c ****         }
 491:Generated_Source\PSoC4/BLE_eventHandler.c ****     #endif /* CYBLE_CGMS_SERVER */
 492:Generated_Source\PSoC4/BLE_eventHandler.c ****     
 493:Generated_Source\PSoC4/BLE_eventHandler.c ****     #ifdef CYBLE_CPS_SERVER
 494:Generated_Source\PSoC4/BLE_eventHandler.c ****         if((cyBle_eventHandlerFlag & CYBLE_CALLBACK) != 0u)
 495:Generated_Source\PSoC4/BLE_eventHandler.c ****         {
 496:Generated_Source\PSoC4/BLE_eventHandler.c ****             CyBle_CpssConfirmationEventHandler(eventParam);
 497:Generated_Source\PSoC4/BLE_eventHandler.c ****         }
 498:Generated_Source\PSoC4/BLE_eventHandler.c ****     #endif /* CYBLE_CPS_SERVER */
 499:Generated_Source\PSoC4/BLE_eventHandler.c ****     
 500:Generated_Source\PSoC4/BLE_eventHandler.c ****     #ifdef CYBLE_CSCS_SERVER
 501:Generated_Source\PSoC4/BLE_eventHandler.c ****         if((cyBle_eventHandlerFlag & CYBLE_CALLBACK) != 0u)
 502:Generated_Source\PSoC4/BLE_eventHandler.c ****         {
 503:Generated_Source\PSoC4/BLE_eventHandler.c ****             CyBle_CscssConfirmationEventHandler(eventParam);
 504:Generated_Source\PSoC4/BLE_eventHandler.c ****         }
 505:Generated_Source\PSoC4/BLE_eventHandler.c ****     #endif /* CYBLE_CSCS_SERVER */
 506:Generated_Source\PSoC4/BLE_eventHandler.c ****     
 507:Generated_Source\PSoC4/BLE_eventHandler.c ****     #ifdef CYBLE_ESS_SERVER
 508:Generated_Source\PSoC4/BLE_eventHandler.c ****         if((cyBle_eventHandlerFlag & CYBLE_CALLBACK) != 0u)
 509:Generated_Source\PSoC4/BLE_eventHandler.c ****         {
 510:Generated_Source\PSoC4/BLE_eventHandler.c ****             CyBle_EsssConfirmationEventHandler(eventParam);
 511:Generated_Source\PSoC4/BLE_eventHandler.c ****         }
 512:Generated_Source\PSoC4/BLE_eventHandler.c ****     #endif /* CYBLE_ESS_SERVER */
 513:Generated_Source\PSoC4/BLE_eventHandler.c ****     
 514:Generated_Source\PSoC4/BLE_eventHandler.c ****     #ifdef CYBLE_GLS_SERVER
 515:Generated_Source\PSoC4/BLE_eventHandler.c ****         if((cyBle_eventHandlerFlag & CYBLE_CALLBACK) != 0u)
 516:Generated_Source\PSoC4/BLE_eventHandler.c ****         {
 517:Generated_Source\PSoC4/BLE_eventHandler.c ****             CyBle_GlssConfirmationEventHandler(eventParam);
 518:Generated_Source\PSoC4/BLE_eventHandler.c ****         }
 519:Generated_Source\PSoC4/BLE_eventHandler.c ****     #endif /* CYBLE_GLS_SERVER */
 520:Generated_Source\PSoC4/BLE_eventHandler.c ****     
 521:Generated_Source\PSoC4/BLE_eventHandler.c ****     #ifdef CYBLE_HTS_SERVER
 522:Generated_Source\PSoC4/BLE_eventHandler.c ****         if((cyBle_eventHandlerFlag & CYBLE_CALLBACK) != 0u)
 208              		.loc 1 522 0
 209 000e 074B     		ldr	r3, .L12
 210 0010 1B78     		ldrb	r3, [r3]
 211 0012 DBB2     		uxtb	r3, r3
 212 0014 1A00     		movs	r2, r3
 213 0016 0123     		movs	r3, #1
 214 0018 1340     		ands	r3, r2
 215 001a 03D0     		beq	.L11
 523:Generated_Source\PSoC4/BLE_eventHandler.c ****         {
 524:Generated_Source\PSoC4/BLE_eventHandler.c ****             CyBle_HtssConfirmationEventHandler(eventParam);
 216              		.loc 1 524 0
ARM GAS  C:\Users\diego\AppData\Local\Temp\ccaLbWCT.s 			page 14


 217 001c 7B68     		ldr	r3, [r7, #4]
 218 001e 1800     		movs	r0, r3
 219 0020 FFF7FEFF 		bl	CyBle_HtssConfirmationEventHandler
 220              	.L11:
 525:Generated_Source\PSoC4/BLE_eventHandler.c ****         }
 526:Generated_Source\PSoC4/BLE_eventHandler.c ****     #endif /* CYBLE_HTS_SERVER */
 527:Generated_Source\PSoC4/BLE_eventHandler.c **** 
 528:Generated_Source\PSoC4/BLE_eventHandler.c ****     #ifdef CYBLE_LNS_SERVER
 529:Generated_Source\PSoC4/BLE_eventHandler.c ****         if((cyBle_eventHandlerFlag & CYBLE_CALLBACK) != 0u)
 530:Generated_Source\PSoC4/BLE_eventHandler.c ****         {
 531:Generated_Source\PSoC4/BLE_eventHandler.c ****             CyBle_LnssConfirmationEventHandler(eventParam);
 532:Generated_Source\PSoC4/BLE_eventHandler.c ****         }
 533:Generated_Source\PSoC4/BLE_eventHandler.c ****     #endif /* CYBLE_LNS_SERVER */
 534:Generated_Source\PSoC4/BLE_eventHandler.c ****     
 535:Generated_Source\PSoC4/BLE_eventHandler.c ****     #ifdef CYBLE_RSCS_SERVER
 536:Generated_Source\PSoC4/BLE_eventHandler.c ****         if((cyBle_eventHandlerFlag & CYBLE_CALLBACK) != 0u)
 537:Generated_Source\PSoC4/BLE_eventHandler.c ****         {
 538:Generated_Source\PSoC4/BLE_eventHandler.c ****             CyBle_RscssConfirmationEventHandler(eventParam);
 539:Generated_Source\PSoC4/BLE_eventHandler.c ****         }
 540:Generated_Source\PSoC4/BLE_eventHandler.c ****     #endif /* CYBLE_RSCS_SERVER */
 541:Generated_Source\PSoC4/BLE_eventHandler.c ****     
 542:Generated_Source\PSoC4/BLE_eventHandler.c ****     #ifdef CYBLE_UDS_SERVER
 543:Generated_Source\PSoC4/BLE_eventHandler.c ****         if((cyBle_eventHandlerFlag & CYBLE_CALLBACK) != 0u)
 544:Generated_Source\PSoC4/BLE_eventHandler.c ****         {
 545:Generated_Source\PSoC4/BLE_eventHandler.c ****             CyBle_UdssConfirmationEventHandler(eventParam);
 546:Generated_Source\PSoC4/BLE_eventHandler.c ****         }
 547:Generated_Source\PSoC4/BLE_eventHandler.c ****     #endif /* CYBLE_UDS_SERVER */
 548:Generated_Source\PSoC4/BLE_eventHandler.c ****     
 549:Generated_Source\PSoC4/BLE_eventHandler.c ****     #ifdef CYBLE_WPTS_SERVER
 550:Generated_Source\PSoC4/BLE_eventHandler.c ****         if((cyBle_eventHandlerFlag & CYBLE_CALLBACK) != 0u)
 551:Generated_Source\PSoC4/BLE_eventHandler.c ****         {
 552:Generated_Source\PSoC4/BLE_eventHandler.c ****             CyBle_WptssConfirmationEventHandler(eventParam);
 553:Generated_Source\PSoC4/BLE_eventHandler.c ****         }
 554:Generated_Source\PSoC4/BLE_eventHandler.c ****     #endif /* CYBLE_WPTS_SERVER */
 555:Generated_Source\PSoC4/BLE_eventHandler.c ****     
 556:Generated_Source\PSoC4/BLE_eventHandler.c ****     #ifdef CYBLE_WSS_SERVER
 557:Generated_Source\PSoC4/BLE_eventHandler.c ****         if((cyBle_eventHandlerFlag & CYBLE_CALLBACK) != 0u)
 558:Generated_Source\PSoC4/BLE_eventHandler.c ****         {
 559:Generated_Source\PSoC4/BLE_eventHandler.c ****             CyBle_WsssConfirmationEventHandler(eventParam);
 560:Generated_Source\PSoC4/BLE_eventHandler.c ****         }
 561:Generated_Source\PSoC4/BLE_eventHandler.c ****     #endif /* CYBLE_WSS_SERVER */
 562:Generated_Source\PSoC4/BLE_eventHandler.c ****     }
 563:Generated_Source\PSoC4/BLE_eventHandler.c **** }
 221              		.loc 1 563 0
 222 0024 C046     		nop
 223 0026 BD46     		mov	sp, r7
 224 0028 02B0     		add	sp, sp, #8
 225              		@ sp needed
 226 002a 80BD     		pop	{r7, pc}
 227              	.L13:
 228              		.align	2
 229              	.L12:
 230 002c 00000000 		.word	cyBle_eventHandlerFlag
 231              		.cfi_endproc
 232              	.LFE3:
 233              		.size	CyBle_ValueConfirmation, .-CyBle_ValueConfirmation
 234              		.section	.text.CyBle_GattDisconnectEventHandler,"ax",%progbits
ARM GAS  C:\Users\diego\AppData\Local\Temp\ccaLbWCT.s 			page 15


 235              		.align	2
 236              		.code	16
 237              		.thumb_func
 238              		.type	CyBle_GattDisconnectEventHandler, %function
 239              	CyBle_GattDisconnectEventHandler:
 240              	.LFB4:
 564:Generated_Source\PSoC4/BLE_eventHandler.c **** 
 565:Generated_Source\PSoC4/BLE_eventHandler.c **** #endif /* CYBLE_GATT_ROLE_SERVER */
 566:Generated_Source\PSoC4/BLE_eventHandler.c **** 
 567:Generated_Source\PSoC4/BLE_eventHandler.c **** 
 568:Generated_Source\PSoC4/BLE_eventHandler.c **** #if (CYBLE_GATT_ROLE_CLIENT)
 569:Generated_Source\PSoC4/BLE_eventHandler.c **** 
 570:Generated_Source\PSoC4/BLE_eventHandler.c **** /****************************************************************************** 
 571:Generated_Source\PSoC4/BLE_eventHandler.c **** * Function Name: CyBle_GattcWriteResponseEventHandler
 572:Generated_Source\PSoC4/BLE_eventHandler.c **** ***************************************************************************//**
 573:Generated_Source\PSoC4/BLE_eventHandler.c **** * 
 574:Generated_Source\PSoC4/BLE_eventHandler.c **** *  Handles the Write response event from the BLE stack.
 575:Generated_Source\PSoC4/BLE_eventHandler.c **** * 
 576:Generated_Source\PSoC4/BLE_eventHandler.c **** *  \param eventParam: Pointer to a structure of type 'CYBLE_CONN_HANDLE_T'
 577:Generated_Source\PSoC4/BLE_eventHandler.c **** * 
 578:Generated_Source\PSoC4/BLE_eventHandler.c **** * \return
 579:Generated_Source\PSoC4/BLE_eventHandler.c **** *  None
 580:Generated_Source\PSoC4/BLE_eventHandler.c **** * 
 581:Generated_Source\PSoC4/BLE_eventHandler.c **** ******************************************************************************/
 582:Generated_Source\PSoC4/BLE_eventHandler.c **** static void CyBle_GattcWriteResponseEventHandler(const CYBLE_CONN_HANDLE_T *eventParam)
 583:Generated_Source\PSoC4/BLE_eventHandler.c **** {
 584:Generated_Source\PSoC4/BLE_eventHandler.c **** 
 585:Generated_Source\PSoC4/BLE_eventHandler.c **** #ifdef CYBLE_AIOS_CLIENT
 586:Generated_Source\PSoC4/BLE_eventHandler.c ****     if((cyBle_eventHandlerFlag & CYBLE_CALLBACK) != 0u)
 587:Generated_Source\PSoC4/BLE_eventHandler.c ****     {
 588:Generated_Source\PSoC4/BLE_eventHandler.c ****         CyBle_AioscWriteResponseEventHandler(eventParam);
 589:Generated_Source\PSoC4/BLE_eventHandler.c ****     }
 590:Generated_Source\PSoC4/BLE_eventHandler.c **** #endif /* CYBLE_AIOS_CLIENT */
 591:Generated_Source\PSoC4/BLE_eventHandler.c **** 
 592:Generated_Source\PSoC4/BLE_eventHandler.c **** #ifdef CYBLE_ANCS_CLIENT
 593:Generated_Source\PSoC4/BLE_eventHandler.c ****     CyBle_AncscWriteResponseEventHandler(eventParam);
 594:Generated_Source\PSoC4/BLE_eventHandler.c **** #endif /* CYBLE_ANCS_CLIENT */
 595:Generated_Source\PSoC4/BLE_eventHandler.c **** 
 596:Generated_Source\PSoC4/BLE_eventHandler.c **** #ifdef CYBLE_ANS_CLIENT
 597:Generated_Source\PSoC4/BLE_eventHandler.c ****     if((cyBle_eventHandlerFlag & CYBLE_CALLBACK) != 0u)
 598:Generated_Source\PSoC4/BLE_eventHandler.c ****     {
 599:Generated_Source\PSoC4/BLE_eventHandler.c ****         CyBle_AnscWriteResponseEventHandler(eventParam);
 600:Generated_Source\PSoC4/BLE_eventHandler.c ****     }
 601:Generated_Source\PSoC4/BLE_eventHandler.c **** #endif /* CYBLE_ANS_CLIENT */
 602:Generated_Source\PSoC4/BLE_eventHandler.c **** 
 603:Generated_Source\PSoC4/BLE_eventHandler.c **** #ifdef CYBLE_BAS_CLIENT
 604:Generated_Source\PSoC4/BLE_eventHandler.c ****     if((cyBle_eventHandlerFlag & CYBLE_CALLBACK) != 0u)
 605:Generated_Source\PSoC4/BLE_eventHandler.c ****     {
 606:Generated_Source\PSoC4/BLE_eventHandler.c ****         CyBle_BascWriteResponseEventHandler(eventParam);
 607:Generated_Source\PSoC4/BLE_eventHandler.c ****     }
 608:Generated_Source\PSoC4/BLE_eventHandler.c **** #endif /* CYBLE_BAS_CLIENT */
 609:Generated_Source\PSoC4/BLE_eventHandler.c **** 
 610:Generated_Source\PSoC4/BLE_eventHandler.c **** #ifdef CYBLE_BCS_CLIENT
 611:Generated_Source\PSoC4/BLE_eventHandler.c ****     if((cyBle_eventHandlerFlag & CYBLE_CALLBACK) != 0u)
 612:Generated_Source\PSoC4/BLE_eventHandler.c ****     {
 613:Generated_Source\PSoC4/BLE_eventHandler.c ****         CyBle_BcscWriteResponseEventHandler(eventParam);
 614:Generated_Source\PSoC4/BLE_eventHandler.c ****     }
ARM GAS  C:\Users\diego\AppData\Local\Temp\ccaLbWCT.s 			page 16


 615:Generated_Source\PSoC4/BLE_eventHandler.c **** #endif /* CYBLE_BCS_CLIENT */
 616:Generated_Source\PSoC4/BLE_eventHandler.c **** 
 617:Generated_Source\PSoC4/BLE_eventHandler.c **** #ifdef CYBLE_BLS_CLIENT
 618:Generated_Source\PSoC4/BLE_eventHandler.c ****     if((cyBle_eventHandlerFlag & CYBLE_CALLBACK) != 0u)
 619:Generated_Source\PSoC4/BLE_eventHandler.c ****     {
 620:Generated_Source\PSoC4/BLE_eventHandler.c ****         CyBle_BlscWriteResponseEventHandler(eventParam);
 621:Generated_Source\PSoC4/BLE_eventHandler.c ****     }
 622:Generated_Source\PSoC4/BLE_eventHandler.c **** #endif /* CYBLE_BLS_CLIENT */
 623:Generated_Source\PSoC4/BLE_eventHandler.c **** 
 624:Generated_Source\PSoC4/BLE_eventHandler.c **** #ifdef CYBLE_BMS_CLIENT
 625:Generated_Source\PSoC4/BLE_eventHandler.c ****     if((cyBle_eventHandlerFlag & CYBLE_CALLBACK) != 0u)
 626:Generated_Source\PSoC4/BLE_eventHandler.c ****     {
 627:Generated_Source\PSoC4/BLE_eventHandler.c ****         CyBle_BmscWriteResponseEventHandler(eventParam);
 628:Generated_Source\PSoC4/BLE_eventHandler.c ****     }
 629:Generated_Source\PSoC4/BLE_eventHandler.c **** #endif /* CYBLE_BMS_CLIENT */
 630:Generated_Source\PSoC4/BLE_eventHandler.c **** 
 631:Generated_Source\PSoC4/BLE_eventHandler.c **** #ifdef CYBLE_CGMS_CLIENT
 632:Generated_Source\PSoC4/BLE_eventHandler.c ****     if((cyBle_eventHandlerFlag & CYBLE_CALLBACK) != 0u)
 633:Generated_Source\PSoC4/BLE_eventHandler.c ****     {
 634:Generated_Source\PSoC4/BLE_eventHandler.c ****         CyBle_CgmscWriteResponseEventHandler(eventParam);
 635:Generated_Source\PSoC4/BLE_eventHandler.c ****     }
 636:Generated_Source\PSoC4/BLE_eventHandler.c **** #endif /* CYBLE_CGMS_CLIENT */
 637:Generated_Source\PSoC4/BLE_eventHandler.c **** 
 638:Generated_Source\PSoC4/BLE_eventHandler.c **** #ifdef CYBLE_CPS_CLIENT
 639:Generated_Source\PSoC4/BLE_eventHandler.c ****     if((cyBle_eventHandlerFlag & CYBLE_CALLBACK) != 0u)
 640:Generated_Source\PSoC4/BLE_eventHandler.c ****     {
 641:Generated_Source\PSoC4/BLE_eventHandler.c ****         CyBle_CpscWriteResponseEventHandler(eventParam);
 642:Generated_Source\PSoC4/BLE_eventHandler.c ****     }
 643:Generated_Source\PSoC4/BLE_eventHandler.c **** #endif /* CYBLE_CPS_CLIENT */
 644:Generated_Source\PSoC4/BLE_eventHandler.c **** 
 645:Generated_Source\PSoC4/BLE_eventHandler.c **** #ifdef CYBLE_CSCS_CLIENT
 646:Generated_Source\PSoC4/BLE_eventHandler.c ****     if((cyBle_eventHandlerFlag & CYBLE_CALLBACK) != 0u)
 647:Generated_Source\PSoC4/BLE_eventHandler.c ****     {
 648:Generated_Source\PSoC4/BLE_eventHandler.c ****         CyBle_CscscWriteResponseEventHandler(eventParam);
 649:Generated_Source\PSoC4/BLE_eventHandler.c ****     }
 650:Generated_Source\PSoC4/BLE_eventHandler.c **** #endif /* CYBLE_CSCS_CLIENT */
 651:Generated_Source\PSoC4/BLE_eventHandler.c **** 
 652:Generated_Source\PSoC4/BLE_eventHandler.c **** #ifdef CYBLE_CTS_CLIENT
 653:Generated_Source\PSoC4/BLE_eventHandler.c ****     if((cyBle_eventHandlerFlag & CYBLE_CALLBACK) != 0u)
 654:Generated_Source\PSoC4/BLE_eventHandler.c ****     {
 655:Generated_Source\PSoC4/BLE_eventHandler.c ****         CyBle_CtscWriteResponseEventHandler(eventParam);
 656:Generated_Source\PSoC4/BLE_eventHandler.c ****     }
 657:Generated_Source\PSoC4/BLE_eventHandler.c **** #endif /* CYBLE_CTS_CLIENT */
 658:Generated_Source\PSoC4/BLE_eventHandler.c **** 
 659:Generated_Source\PSoC4/BLE_eventHandler.c **** #ifdef CYBLE_ESS_CLIENT
 660:Generated_Source\PSoC4/BLE_eventHandler.c ****     if((cyBle_eventHandlerFlag & CYBLE_CALLBACK) != 0u)
 661:Generated_Source\PSoC4/BLE_eventHandler.c ****     {
 662:Generated_Source\PSoC4/BLE_eventHandler.c ****         CyBle_EsscWriteResponseEventHandler(eventParam);
 663:Generated_Source\PSoC4/BLE_eventHandler.c ****     }
 664:Generated_Source\PSoC4/BLE_eventHandler.c **** #endif /* CYBLE_ESS_CLIENT */
 665:Generated_Source\PSoC4/BLE_eventHandler.c **** 
 666:Generated_Source\PSoC4/BLE_eventHandler.c **** #ifdef CYBLE_GLS_CLIENT
 667:Generated_Source\PSoC4/BLE_eventHandler.c ****     if((cyBle_eventHandlerFlag & CYBLE_CALLBACK) != 0u)
 668:Generated_Source\PSoC4/BLE_eventHandler.c ****     {
 669:Generated_Source\PSoC4/BLE_eventHandler.c ****         CyBle_GlscWriteResponseEventHandler(eventParam);
 670:Generated_Source\PSoC4/BLE_eventHandler.c ****     }
 671:Generated_Source\PSoC4/BLE_eventHandler.c **** #endif /* CYBLE_GLS_CLIENT */
ARM GAS  C:\Users\diego\AppData\Local\Temp\ccaLbWCT.s 			page 17


 672:Generated_Source\PSoC4/BLE_eventHandler.c **** 
 673:Generated_Source\PSoC4/BLE_eventHandler.c **** #ifdef CYBLE_HIDS_CLIENT
 674:Generated_Source\PSoC4/BLE_eventHandler.c ****     if((cyBle_eventHandlerFlag & CYBLE_CALLBACK) != 0u)
 675:Generated_Source\PSoC4/BLE_eventHandler.c ****     {
 676:Generated_Source\PSoC4/BLE_eventHandler.c ****         CyBle_HidscWriteResponseEventHandler(eventParam);
 677:Generated_Source\PSoC4/BLE_eventHandler.c ****     }
 678:Generated_Source\PSoC4/BLE_eventHandler.c **** #endif /* CYBLE_HIDS_CLIENT */
 679:Generated_Source\PSoC4/BLE_eventHandler.c **** 
 680:Generated_Source\PSoC4/BLE_eventHandler.c **** #ifdef CYBLE_HPS_CLIENT
 681:Generated_Source\PSoC4/BLE_eventHandler.c ****     if((cyBle_eventHandlerFlag & CYBLE_CALLBACK) != 0u)
 682:Generated_Source\PSoC4/BLE_eventHandler.c ****     {
 683:Generated_Source\PSoC4/BLE_eventHandler.c ****         CyBle_HpscWriteResponseEventHandler(eventParam);
 684:Generated_Source\PSoC4/BLE_eventHandler.c ****     }
 685:Generated_Source\PSoC4/BLE_eventHandler.c **** #endif /* CYBLE_HPS_CLIENT */
 686:Generated_Source\PSoC4/BLE_eventHandler.c **** 
 687:Generated_Source\PSoC4/BLE_eventHandler.c **** #ifdef CYBLE_HRS_CLIENT
 688:Generated_Source\PSoC4/BLE_eventHandler.c ****     if((cyBle_eventHandlerFlag & CYBLE_CALLBACK) != 0u)
 689:Generated_Source\PSoC4/BLE_eventHandler.c ****     {
 690:Generated_Source\PSoC4/BLE_eventHandler.c ****         CyBle_HrscWriteResponseEventHandler(eventParam);
 691:Generated_Source\PSoC4/BLE_eventHandler.c ****     }
 692:Generated_Source\PSoC4/BLE_eventHandler.c **** #endif /* CYBLE_HRS_CLIENT */
 693:Generated_Source\PSoC4/BLE_eventHandler.c **** 
 694:Generated_Source\PSoC4/BLE_eventHandler.c **** #ifdef CYBLE_HTS_CLIENT
 695:Generated_Source\PSoC4/BLE_eventHandler.c ****     if((cyBle_eventHandlerFlag & CYBLE_CALLBACK) != 0u)
 696:Generated_Source\PSoC4/BLE_eventHandler.c ****     {
 697:Generated_Source\PSoC4/BLE_eventHandler.c ****         CyBle_HtscWriteResponseEventHandler(eventParam);
 698:Generated_Source\PSoC4/BLE_eventHandler.c ****     }
 699:Generated_Source\PSoC4/BLE_eventHandler.c **** #endif /* CYBLE_HTS_CLIENT */
 700:Generated_Source\PSoC4/BLE_eventHandler.c **** 
 701:Generated_Source\PSoC4/BLE_eventHandler.c **** #ifdef CYBLE_IPS_CLIENT
 702:Generated_Source\PSoC4/BLE_eventHandler.c ****     if((cyBle_eventHandlerFlag & CYBLE_CALLBACK) != 0u)
 703:Generated_Source\PSoC4/BLE_eventHandler.c ****     {
 704:Generated_Source\PSoC4/BLE_eventHandler.c ****         CyBle_IpscWriteResponseEventHandler(eventParam);
 705:Generated_Source\PSoC4/BLE_eventHandler.c ****     }
 706:Generated_Source\PSoC4/BLE_eventHandler.c **** #endif /* CYBLE_IPS_CLIENT */
 707:Generated_Source\PSoC4/BLE_eventHandler.c **** 
 708:Generated_Source\PSoC4/BLE_eventHandler.c **** #ifdef CYBLE_LLS_CLIENT
 709:Generated_Source\PSoC4/BLE_eventHandler.c ****     if((cyBle_eventHandlerFlag & CYBLE_CALLBACK) != 0u)
 710:Generated_Source\PSoC4/BLE_eventHandler.c ****     {
 711:Generated_Source\PSoC4/BLE_eventHandler.c ****         CyBle_LlscWriteResponseEventHandler(eventParam);
 712:Generated_Source\PSoC4/BLE_eventHandler.c ****     }
 713:Generated_Source\PSoC4/BLE_eventHandler.c **** #endif /* CYBLE_LLS_CLIENT */
 714:Generated_Source\PSoC4/BLE_eventHandler.c **** 
 715:Generated_Source\PSoC4/BLE_eventHandler.c **** #ifdef CYBLE_LNS_CLIENT
 716:Generated_Source\PSoC4/BLE_eventHandler.c ****     if((cyBle_eventHandlerFlag & CYBLE_CALLBACK) != 0u)
 717:Generated_Source\PSoC4/BLE_eventHandler.c ****     {
 718:Generated_Source\PSoC4/BLE_eventHandler.c ****         CyBle_LnscWriteResponseEventHandler(eventParam);
 719:Generated_Source\PSoC4/BLE_eventHandler.c ****     }
 720:Generated_Source\PSoC4/BLE_eventHandler.c **** #endif /* CYBLE_LNS_CLIENT */
 721:Generated_Source\PSoC4/BLE_eventHandler.c **** 
 722:Generated_Source\PSoC4/BLE_eventHandler.c **** #ifdef CYBLE_PASS_CLIENT
 723:Generated_Source\PSoC4/BLE_eventHandler.c ****     if((cyBle_eventHandlerFlag & CYBLE_CALLBACK) != 0u)
 724:Generated_Source\PSoC4/BLE_eventHandler.c ****     {
 725:Generated_Source\PSoC4/BLE_eventHandler.c ****         CyBle_PasscWriteResponseEventHandler(eventParam);
 726:Generated_Source\PSoC4/BLE_eventHandler.c ****     }
 727:Generated_Source\PSoC4/BLE_eventHandler.c **** #endif /* CYBLE_PASS_CLIENT */
 728:Generated_Source\PSoC4/BLE_eventHandler.c **** 
ARM GAS  C:\Users\diego\AppData\Local\Temp\ccaLbWCT.s 			page 18


 729:Generated_Source\PSoC4/BLE_eventHandler.c **** #ifdef CYBLE_PLXS_CLIENT
 730:Generated_Source\PSoC4/BLE_eventHandler.c ****     if((cyBle_eventHandlerFlag & CYBLE_CALLBACK) != 0u)
 731:Generated_Source\PSoC4/BLE_eventHandler.c ****     {
 732:Generated_Source\PSoC4/BLE_eventHandler.c ****         CyBle_PlxscWriteResponseEventHandler(eventParam);
 733:Generated_Source\PSoC4/BLE_eventHandler.c ****     }
 734:Generated_Source\PSoC4/BLE_eventHandler.c **** #endif /* CYBLE_PASS_CLIENT */
 735:Generated_Source\PSoC4/BLE_eventHandler.c **** 
 736:Generated_Source\PSoC4/BLE_eventHandler.c **** #ifdef CYBLE_RSCS_CLIENT
 737:Generated_Source\PSoC4/BLE_eventHandler.c ****     if((cyBle_eventHandlerFlag & CYBLE_CALLBACK) != 0u)
 738:Generated_Source\PSoC4/BLE_eventHandler.c ****     {
 739:Generated_Source\PSoC4/BLE_eventHandler.c ****         CyBle_RscscWriteResponseEventHandler(eventParam);
 740:Generated_Source\PSoC4/BLE_eventHandler.c ****     }
 741:Generated_Source\PSoC4/BLE_eventHandler.c **** #endif /* CYBLE_RSCS_CLIENT */
 742:Generated_Source\PSoC4/BLE_eventHandler.c **** 
 743:Generated_Source\PSoC4/BLE_eventHandler.c **** #ifdef CYBLE_SCPS_CLIENT
 744:Generated_Source\PSoC4/BLE_eventHandler.c ****     if((cyBle_eventHandlerFlag & CYBLE_CALLBACK) != 0u)
 745:Generated_Source\PSoC4/BLE_eventHandler.c ****     {
 746:Generated_Source\PSoC4/BLE_eventHandler.c ****         CyBle_ScpscWriteResponseEventHandler(eventParam);
 747:Generated_Source\PSoC4/BLE_eventHandler.c ****     }
 748:Generated_Source\PSoC4/BLE_eventHandler.c **** #endif /* CYBLE_SCPS_CLIENT */
 749:Generated_Source\PSoC4/BLE_eventHandler.c **** 
 750:Generated_Source\PSoC4/BLE_eventHandler.c **** #ifdef CYBLE_TPS_CLIENT
 751:Generated_Source\PSoC4/BLE_eventHandler.c ****     if((cyBle_eventHandlerFlag & CYBLE_CALLBACK) != 0u)
 752:Generated_Source\PSoC4/BLE_eventHandler.c ****     {
 753:Generated_Source\PSoC4/BLE_eventHandler.c ****         CyBle_TpscWriteResponseEventHandler(eventParam);
 754:Generated_Source\PSoC4/BLE_eventHandler.c ****     }
 755:Generated_Source\PSoC4/BLE_eventHandler.c **** #endif /* CYBLE_TPS_CLIENT */
 756:Generated_Source\PSoC4/BLE_eventHandler.c **** 
 757:Generated_Source\PSoC4/BLE_eventHandler.c **** #ifdef CYBLE_UDS_CLIENT
 758:Generated_Source\PSoC4/BLE_eventHandler.c ****     if((cyBle_eventHandlerFlag & CYBLE_CALLBACK) != 0u)
 759:Generated_Source\PSoC4/BLE_eventHandler.c ****     {
 760:Generated_Source\PSoC4/BLE_eventHandler.c ****         CyBle_UdscWriteResponseEventHandler(eventParam);
 761:Generated_Source\PSoC4/BLE_eventHandler.c ****     }
 762:Generated_Source\PSoC4/BLE_eventHandler.c **** #endif /* CYBLE_UDS_CLIENT */
 763:Generated_Source\PSoC4/BLE_eventHandler.c **** #ifdef CYBLE_WPTS_CLIENT
 764:Generated_Source\PSoC4/BLE_eventHandler.c ****     if((cyBle_eventHandlerFlag & CYBLE_CALLBACK) != 0u)
 765:Generated_Source\PSoC4/BLE_eventHandler.c ****     {
 766:Generated_Source\PSoC4/BLE_eventHandler.c ****         CyBle_WptscWriteResponseEventHandler(eventParam);
 767:Generated_Source\PSoC4/BLE_eventHandler.c ****     }
 768:Generated_Source\PSoC4/BLE_eventHandler.c **** #endif /* CYBLE_WPTS_CLIENT */
 769:Generated_Source\PSoC4/BLE_eventHandler.c **** #ifdef CYBLE_WSS_CLIENT
 770:Generated_Source\PSoC4/BLE_eventHandler.c ****     if((cyBle_eventHandlerFlag & CYBLE_CALLBACK) != 0u)
 771:Generated_Source\PSoC4/BLE_eventHandler.c ****     {
 772:Generated_Source\PSoC4/BLE_eventHandler.c ****         CyBle_WsscWriteResponseEventHandler(eventParam);
 773:Generated_Source\PSoC4/BLE_eventHandler.c ****     }
 774:Generated_Source\PSoC4/BLE_eventHandler.c **** #endif /* CYBLE_WSS_CLIENT */
 775:Generated_Source\PSoC4/BLE_eventHandler.c **** }
 776:Generated_Source\PSoC4/BLE_eventHandler.c **** 
 777:Generated_Source\PSoC4/BLE_eventHandler.c **** 
 778:Generated_Source\PSoC4/BLE_eventHandler.c **** /******************************************************************************    
 779:Generated_Source\PSoC4/BLE_eventHandler.c **** * Function Name: CyBle_NotificationEventHandler
 780:Generated_Source\PSoC4/BLE_eventHandler.c **** ***************************************************************************//**
 781:Generated_Source\PSoC4/BLE_eventHandler.c **** * 
 782:Generated_Source\PSoC4/BLE_eventHandler.c **** *  Handles the Notification event from BLE stack.
 783:Generated_Source\PSoC4/BLE_eventHandler.c **** * 
 784:Generated_Source\PSoC4/BLE_eventHandler.c **** *  \param eventParam: event parameter
 785:Generated_Source\PSoC4/BLE_eventHandler.c **** * 
ARM GAS  C:\Users\diego\AppData\Local\Temp\ccaLbWCT.s 			page 19


 786:Generated_Source\PSoC4/BLE_eventHandler.c **** * \return
 787:Generated_Source\PSoC4/BLE_eventHandler.c **** *  None
 788:Generated_Source\PSoC4/BLE_eventHandler.c **** * 
 789:Generated_Source\PSoC4/BLE_eventHandler.c **** ******************************************************************************/
 790:Generated_Source\PSoC4/BLE_eventHandler.c **** static void CyBle_NotificationEventHandler(CYBLE_GATTC_HANDLE_VALUE_NTF_PARAM_T *eventParam)
 791:Generated_Source\PSoC4/BLE_eventHandler.c **** {
 792:Generated_Source\PSoC4/BLE_eventHandler.c **** #ifdef CYBLE_AIOS_CLIENT
 793:Generated_Source\PSoC4/BLE_eventHandler.c ****     if((cyBle_eventHandlerFlag & CYBLE_CALLBACK) != 0u)
 794:Generated_Source\PSoC4/BLE_eventHandler.c ****     {
 795:Generated_Source\PSoC4/BLE_eventHandler.c ****         CyBle_AioscNotificationEventHandler(eventParam);
 796:Generated_Source\PSoC4/BLE_eventHandler.c ****     }
 797:Generated_Source\PSoC4/BLE_eventHandler.c **** #endif /* CYBLE_AIOS_CLIENT */
 798:Generated_Source\PSoC4/BLE_eventHandler.c **** #ifdef CYBLE_ANCS_CLIENT
 799:Generated_Source\PSoC4/BLE_eventHandler.c ****     CyBle_AncscNotificationEventHandler(eventParam);
 800:Generated_Source\PSoC4/BLE_eventHandler.c **** #endif /* CYBLE_ANCS_CLIENT */
 801:Generated_Source\PSoC4/BLE_eventHandler.c **** #ifdef CYBLE_ANS_CLIENT
 802:Generated_Source\PSoC4/BLE_eventHandler.c ****     if((cyBle_eventHandlerFlag & CYBLE_CALLBACK) != 0u)
 803:Generated_Source\PSoC4/BLE_eventHandler.c ****     {
 804:Generated_Source\PSoC4/BLE_eventHandler.c ****         CyBle_AnscNotificationEventHandler(eventParam);
 805:Generated_Source\PSoC4/BLE_eventHandler.c ****     }
 806:Generated_Source\PSoC4/BLE_eventHandler.c **** #endif /* CYBLE_ANS_CLIENT */
 807:Generated_Source\PSoC4/BLE_eventHandler.c **** #ifdef CYBLE_BAS_CLIENT
 808:Generated_Source\PSoC4/BLE_eventHandler.c ****     if((cyBle_eventHandlerFlag & CYBLE_CALLBACK) != 0u)
 809:Generated_Source\PSoC4/BLE_eventHandler.c ****     {
 810:Generated_Source\PSoC4/BLE_eventHandler.c ****         CyBle_BascNotificationEventHandler(eventParam);
 811:Generated_Source\PSoC4/BLE_eventHandler.c ****     }
 812:Generated_Source\PSoC4/BLE_eventHandler.c **** #endif /* CYBLE_BAS_CLIENT */
 813:Generated_Source\PSoC4/BLE_eventHandler.c **** #ifdef CYBLE_BLS_CLIENT
 814:Generated_Source\PSoC4/BLE_eventHandler.c ****     if((cyBle_eventHandlerFlag & CYBLE_CALLBACK) != 0u)
 815:Generated_Source\PSoC4/BLE_eventHandler.c ****     {
 816:Generated_Source\PSoC4/BLE_eventHandler.c ****         CyBle_BlscNotificationEventHandler(eventParam);
 817:Generated_Source\PSoC4/BLE_eventHandler.c ****     }
 818:Generated_Source\PSoC4/BLE_eventHandler.c **** #endif /* CYBLE_BLS_CLIENT */
 819:Generated_Source\PSoC4/BLE_eventHandler.c **** #ifdef CYBLE_CGMS_CLIENT
 820:Generated_Source\PSoC4/BLE_eventHandler.c ****     if((cyBle_eventHandlerFlag & CYBLE_CALLBACK) != 0u)
 821:Generated_Source\PSoC4/BLE_eventHandler.c ****     {
 822:Generated_Source\PSoC4/BLE_eventHandler.c ****         CyBle_CgmscNotificationEventHandler(eventParam);
 823:Generated_Source\PSoC4/BLE_eventHandler.c ****     }
 824:Generated_Source\PSoC4/BLE_eventHandler.c **** #endif /* CYBLE_CGMS_CLIENT */
 825:Generated_Source\PSoC4/BLE_eventHandler.c **** #ifdef CYBLE_CPS_CLIENT
 826:Generated_Source\PSoC4/BLE_eventHandler.c ****     if((cyBle_eventHandlerFlag & CYBLE_CALLBACK) != 0u)
 827:Generated_Source\PSoC4/BLE_eventHandler.c ****     {
 828:Generated_Source\PSoC4/BLE_eventHandler.c ****         CyBle_CpscNotificationEventHandler(eventParam);
 829:Generated_Source\PSoC4/BLE_eventHandler.c ****     }
 830:Generated_Source\PSoC4/BLE_eventHandler.c **** #endif /* CYBLE_CPS_CLIENT */
 831:Generated_Source\PSoC4/BLE_eventHandler.c **** #ifdef CYBLE_CSCS_CLIENT
 832:Generated_Source\PSoC4/BLE_eventHandler.c ****     if((cyBle_eventHandlerFlag & CYBLE_CALLBACK) != 0u)
 833:Generated_Source\PSoC4/BLE_eventHandler.c ****     {
 834:Generated_Source\PSoC4/BLE_eventHandler.c ****         CyBle_CscscNotificationEventHandler(eventParam);
 835:Generated_Source\PSoC4/BLE_eventHandler.c ****     }
 836:Generated_Source\PSoC4/BLE_eventHandler.c **** #endif /* CYBLE_CSCS_CLIENT */
 837:Generated_Source\PSoC4/BLE_eventHandler.c **** #ifdef CYBLE_CTS_CLIENT
 838:Generated_Source\PSoC4/BLE_eventHandler.c ****     if((cyBle_eventHandlerFlag & CYBLE_CALLBACK) != 0u)
 839:Generated_Source\PSoC4/BLE_eventHandler.c ****     {
 840:Generated_Source\PSoC4/BLE_eventHandler.c ****         CyBle_CtscNotificationEventHandler(eventParam);
 841:Generated_Source\PSoC4/BLE_eventHandler.c ****     }
 842:Generated_Source\PSoC4/BLE_eventHandler.c **** #endif /* CYBLE_CTS_CLIENT */
ARM GAS  C:\Users\diego\AppData\Local\Temp\ccaLbWCT.s 			page 20


 843:Generated_Source\PSoC4/BLE_eventHandler.c **** #ifdef CYBLE_ESS_CLIENT
 844:Generated_Source\PSoC4/BLE_eventHandler.c ****     if((cyBle_eventHandlerFlag & CYBLE_CALLBACK) != 0u)
 845:Generated_Source\PSoC4/BLE_eventHandler.c ****     {
 846:Generated_Source\PSoC4/BLE_eventHandler.c ****         CyBle_EsscNotificationEventHandler(eventParam);
 847:Generated_Source\PSoC4/BLE_eventHandler.c ****     }
 848:Generated_Source\PSoC4/BLE_eventHandler.c **** #endif /* CYBLE_ESS_CLIENT */
 849:Generated_Source\PSoC4/BLE_eventHandler.c **** #ifdef CYBLE_GLS_CLIENT
 850:Generated_Source\PSoC4/BLE_eventHandler.c ****     if((cyBle_eventHandlerFlag & CYBLE_CALLBACK) != 0u)
 851:Generated_Source\PSoC4/BLE_eventHandler.c ****     {
 852:Generated_Source\PSoC4/BLE_eventHandler.c ****         CyBle_GlscNotificationEventHandler(eventParam);
 853:Generated_Source\PSoC4/BLE_eventHandler.c ****     }
 854:Generated_Source\PSoC4/BLE_eventHandler.c **** #endif /* CYBLE_GLS_CLIENT */
 855:Generated_Source\PSoC4/BLE_eventHandler.c **** #ifdef CYBLE_HIDS_CLIENT
 856:Generated_Source\PSoC4/BLE_eventHandler.c ****     if((cyBle_eventHandlerFlag & CYBLE_CALLBACK) != 0u)
 857:Generated_Source\PSoC4/BLE_eventHandler.c ****     {
 858:Generated_Source\PSoC4/BLE_eventHandler.c ****         CyBle_HidscNotificationEventHandler(eventParam);
 859:Generated_Source\PSoC4/BLE_eventHandler.c ****     }
 860:Generated_Source\PSoC4/BLE_eventHandler.c **** #endif /* CYBLE_HIDS_CLIENT */
 861:Generated_Source\PSoC4/BLE_eventHandler.c **** #ifdef CYBLE_HPS_CLIENT
 862:Generated_Source\PSoC4/BLE_eventHandler.c ****     if((cyBle_eventHandlerFlag & CYBLE_CALLBACK) != 0u)
 863:Generated_Source\PSoC4/BLE_eventHandler.c ****     {
 864:Generated_Source\PSoC4/BLE_eventHandler.c ****         CyBle_HpscNotificationEventHandler(eventParam);
 865:Generated_Source\PSoC4/BLE_eventHandler.c ****     }
 866:Generated_Source\PSoC4/BLE_eventHandler.c **** #endif /* CYBLE_HPS_CLIENT */
 867:Generated_Source\PSoC4/BLE_eventHandler.c **** #ifdef CYBLE_HRS_CLIENT
 868:Generated_Source\PSoC4/BLE_eventHandler.c ****     if((cyBle_eventHandlerFlag & CYBLE_CALLBACK) != 0u)
 869:Generated_Source\PSoC4/BLE_eventHandler.c ****     {
 870:Generated_Source\PSoC4/BLE_eventHandler.c ****         CyBle_HrscNotificationEventHandler(eventParam);
 871:Generated_Source\PSoC4/BLE_eventHandler.c ****     }
 872:Generated_Source\PSoC4/BLE_eventHandler.c **** #endif /* CYBLE_HRS_CLIENT */
 873:Generated_Source\PSoC4/BLE_eventHandler.c **** #ifdef CYBLE_HTS_CLIENT
 874:Generated_Source\PSoC4/BLE_eventHandler.c ****     if((cyBle_eventHandlerFlag & CYBLE_CALLBACK) != 0u)
 875:Generated_Source\PSoC4/BLE_eventHandler.c ****     {
 876:Generated_Source\PSoC4/BLE_eventHandler.c ****         CyBle_HtscNotificationEventHandler(eventParam);
 877:Generated_Source\PSoC4/BLE_eventHandler.c ****     }
 878:Generated_Source\PSoC4/BLE_eventHandler.c **** #endif /* CYBLE_HTS_CLIENT */
 879:Generated_Source\PSoC4/BLE_eventHandler.c **** #ifdef CYBLE_LNS_CLIENT
 880:Generated_Source\PSoC4/BLE_eventHandler.c ****     if((cyBle_eventHandlerFlag & CYBLE_CALLBACK) != 0u)
 881:Generated_Source\PSoC4/BLE_eventHandler.c ****     {
 882:Generated_Source\PSoC4/BLE_eventHandler.c ****         CyBle_LnscNotificationEventHandler(eventParam);
 883:Generated_Source\PSoC4/BLE_eventHandler.c ****     }
 884:Generated_Source\PSoC4/BLE_eventHandler.c **** #endif /* CYBLE_LNS_CLIENT */
 885:Generated_Source\PSoC4/BLE_eventHandler.c **** #ifdef CYBLE_PASS_CLIENT
 886:Generated_Source\PSoC4/BLE_eventHandler.c ****     if((cyBle_eventHandlerFlag & CYBLE_CALLBACK) != 0u)
 887:Generated_Source\PSoC4/BLE_eventHandler.c ****     {
 888:Generated_Source\PSoC4/BLE_eventHandler.c ****         CyBle_PasscNotificationEventHandler(eventParam);
 889:Generated_Source\PSoC4/BLE_eventHandler.c ****     }
 890:Generated_Source\PSoC4/BLE_eventHandler.c **** #endif /* CYBLE_PASS_CLIENT */
 891:Generated_Source\PSoC4/BLE_eventHandler.c **** #ifdef CYBLE_RSCS_CLIENT
 892:Generated_Source\PSoC4/BLE_eventHandler.c ****     if((cyBle_eventHandlerFlag & CYBLE_CALLBACK) != 0u)
 893:Generated_Source\PSoC4/BLE_eventHandler.c ****     {
 894:Generated_Source\PSoC4/BLE_eventHandler.c ****         CyBle_RscscNotificationEventHandler(eventParam);
 895:Generated_Source\PSoC4/BLE_eventHandler.c ****     }
 896:Generated_Source\PSoC4/BLE_eventHandler.c **** #endif /* CYBLE_RSCS_CLIENT */
 897:Generated_Source\PSoC4/BLE_eventHandler.c **** #ifdef CYBLE_SCPS_CLIENT
 898:Generated_Source\PSoC4/BLE_eventHandler.c ****     if((cyBle_eventHandlerFlag & CYBLE_CALLBACK) != 0u)
 899:Generated_Source\PSoC4/BLE_eventHandler.c ****     {
ARM GAS  C:\Users\diego\AppData\Local\Temp\ccaLbWCT.s 			page 21


 900:Generated_Source\PSoC4/BLE_eventHandler.c ****         CyBle_ScpscNotificationEventHandler(eventParam);
 901:Generated_Source\PSoC4/BLE_eventHandler.c ****     }
 902:Generated_Source\PSoC4/BLE_eventHandler.c **** #endif /* CYBLE_SCPS_CLIENT */
 903:Generated_Source\PSoC4/BLE_eventHandler.c **** #ifdef CYBLE_TPS_CLIENT
 904:Generated_Source\PSoC4/BLE_eventHandler.c ****     if((cyBle_eventHandlerFlag & CYBLE_CALLBACK) != 0u)
 905:Generated_Source\PSoC4/BLE_eventHandler.c ****     {
 906:Generated_Source\PSoC4/BLE_eventHandler.c ****         CyBle_TpscNotificationEventHandler(eventParam);
 907:Generated_Source\PSoC4/BLE_eventHandler.c ****     }
 908:Generated_Source\PSoC4/BLE_eventHandler.c **** #endif /* CYBLE_TPS_CLIENT */
 909:Generated_Source\PSoC4/BLE_eventHandler.c **** #ifdef CYBLE_UDS_CLIENT
 910:Generated_Source\PSoC4/BLE_eventHandler.c ****     if((cyBle_eventHandlerFlag & CYBLE_CALLBACK) != 0u)
 911:Generated_Source\PSoC4/BLE_eventHandler.c ****     {
 912:Generated_Source\PSoC4/BLE_eventHandler.c ****         CyBle_UdscNotificationEventHandler(eventParam);
 913:Generated_Source\PSoC4/BLE_eventHandler.c ****     }
 914:Generated_Source\PSoC4/BLE_eventHandler.c **** #endif /* CYBLE_UDS_CLIENT */
 915:Generated_Source\PSoC4/BLE_eventHandler.c **** #ifdef CYBLE_WPTS_CLIENT
 916:Generated_Source\PSoC4/BLE_eventHandler.c ****     if((cyBle_eventHandlerFlag & CYBLE_CALLBACK) != 0u)
 917:Generated_Source\PSoC4/BLE_eventHandler.c ****     {
 918:Generated_Source\PSoC4/BLE_eventHandler.c ****         CyBle_WptscNotificationEventHandler(eventParam);
 919:Generated_Source\PSoC4/BLE_eventHandler.c ****     }
 920:Generated_Source\PSoC4/BLE_eventHandler.c **** #endif /* CYBLE_WPTS_CLIENT */
 921:Generated_Source\PSoC4/BLE_eventHandler.c **** }
 922:Generated_Source\PSoC4/BLE_eventHandler.c **** 
 923:Generated_Source\PSoC4/BLE_eventHandler.c **** 
 924:Generated_Source\PSoC4/BLE_eventHandler.c **** /******************************************************************************    
 925:Generated_Source\PSoC4/BLE_eventHandler.c **** * Function Name: CyBle_IndicationEventHandler
 926:Generated_Source\PSoC4/BLE_eventHandler.c **** ***************************************************************************//**
 927:Generated_Source\PSoC4/BLE_eventHandler.c **** * 
 928:Generated_Source\PSoC4/BLE_eventHandler.c **** *  Handles the Indication event from BLE stack.
 929:Generated_Source\PSoC4/BLE_eventHandler.c **** * 
 930:Generated_Source\PSoC4/BLE_eventHandler.c **** *  \param eventParam: event parameter
 931:Generated_Source\PSoC4/BLE_eventHandler.c **** * 
 932:Generated_Source\PSoC4/BLE_eventHandler.c **** * \return
 933:Generated_Source\PSoC4/BLE_eventHandler.c **** *  None
 934:Generated_Source\PSoC4/BLE_eventHandler.c **** * 
 935:Generated_Source\PSoC4/BLE_eventHandler.c **** ******************************************************************************/
 936:Generated_Source\PSoC4/BLE_eventHandler.c **** static void CyBle_IndicationEventHandler(CYBLE_GATTC_HANDLE_VALUE_IND_PARAM_T *eventParam)
 937:Generated_Source\PSoC4/BLE_eventHandler.c **** {
 938:Generated_Source\PSoC4/BLE_eventHandler.c **** #ifdef CYBLE_AIOS_CLIENT
 939:Generated_Source\PSoC4/BLE_eventHandler.c ****     if((cyBle_eventHandlerFlag & CYBLE_CALLBACK) != 0u)
 940:Generated_Source\PSoC4/BLE_eventHandler.c ****     {
 941:Generated_Source\PSoC4/BLE_eventHandler.c ****         CyBle_AioscIndicationEventHandler(eventParam);
 942:Generated_Source\PSoC4/BLE_eventHandler.c ****     }
 943:Generated_Source\PSoC4/BLE_eventHandler.c **** #endif /* CYBLE_AIOS_CLIENT */
 944:Generated_Source\PSoC4/BLE_eventHandler.c **** #ifdef CYBLE_BCS_CLIENT
 945:Generated_Source\PSoC4/BLE_eventHandler.c ****     if((cyBle_eventHandlerFlag & CYBLE_CALLBACK) != 0u)
 946:Generated_Source\PSoC4/BLE_eventHandler.c ****     {
 947:Generated_Source\PSoC4/BLE_eventHandler.c ****         CyBle_BcscIndicationEventHandler(eventParam);
 948:Generated_Source\PSoC4/BLE_eventHandler.c ****     }
 949:Generated_Source\PSoC4/BLE_eventHandler.c **** #endif /* CYBLE_BCS_CLIENT */
 950:Generated_Source\PSoC4/BLE_eventHandler.c **** #ifdef CYBLE_BLS_CLIENT
 951:Generated_Source\PSoC4/BLE_eventHandler.c ****     if((cyBle_eventHandlerFlag & CYBLE_CALLBACK) != 0u)
 952:Generated_Source\PSoC4/BLE_eventHandler.c ****     {
 953:Generated_Source\PSoC4/BLE_eventHandler.c ****         CyBle_BlscIndicationEventHandler(eventParam);
 954:Generated_Source\PSoC4/BLE_eventHandler.c ****     }
 955:Generated_Source\PSoC4/BLE_eventHandler.c **** #endif /* CYBLE_BLS_CLIENT */
 956:Generated_Source\PSoC4/BLE_eventHandler.c **** #ifdef CYBLE_CGMS_CLIENT
ARM GAS  C:\Users\diego\AppData\Local\Temp\ccaLbWCT.s 			page 22


 957:Generated_Source\PSoC4/BLE_eventHandler.c ****     if((cyBle_eventHandlerFlag & CYBLE_CALLBACK) != 0u)
 958:Generated_Source\PSoC4/BLE_eventHandler.c ****     {
 959:Generated_Source\PSoC4/BLE_eventHandler.c ****         CyBle_CgmscIndicationEventHandler(eventParam);
 960:Generated_Source\PSoC4/BLE_eventHandler.c ****     }
 961:Generated_Source\PSoC4/BLE_eventHandler.c **** #endif /* CYBLE_CGMS_CLIENT */
 962:Generated_Source\PSoC4/BLE_eventHandler.c **** #ifdef CYBLE_CPS_CLIENT
 963:Generated_Source\PSoC4/BLE_eventHandler.c ****     if((cyBle_eventHandlerFlag & CYBLE_CALLBACK) != 0u)
 964:Generated_Source\PSoC4/BLE_eventHandler.c ****     {
 965:Generated_Source\PSoC4/BLE_eventHandler.c ****         CyBle_CpscIndicationEventHandler(eventParam);
 966:Generated_Source\PSoC4/BLE_eventHandler.c ****     }
 967:Generated_Source\PSoC4/BLE_eventHandler.c **** #endif /* CYBLE_CPS_CLIENT */
 968:Generated_Source\PSoC4/BLE_eventHandler.c **** #ifdef CYBLE_CSCS_CLIENT
 969:Generated_Source\PSoC4/BLE_eventHandler.c ****     if((cyBle_eventHandlerFlag & CYBLE_CALLBACK) != 0u)
 970:Generated_Source\PSoC4/BLE_eventHandler.c ****     {
 971:Generated_Source\PSoC4/BLE_eventHandler.c ****         CyBle_CscscIndicationEventHandler(eventParam);
 972:Generated_Source\PSoC4/BLE_eventHandler.c ****     }
 973:Generated_Source\PSoC4/BLE_eventHandler.c **** #endif /* CYBLE_CSCS_CLIENT */
 974:Generated_Source\PSoC4/BLE_eventHandler.c **** #ifdef CYBLE_ESS_CLIENT
 975:Generated_Source\PSoC4/BLE_eventHandler.c ****     if((cyBle_eventHandlerFlag & CYBLE_CALLBACK) != 0u)
 976:Generated_Source\PSoC4/BLE_eventHandler.c ****     {
 977:Generated_Source\PSoC4/BLE_eventHandler.c ****         CyBle_EsscIndicationEventHandler(eventParam);
 978:Generated_Source\PSoC4/BLE_eventHandler.c ****     }
 979:Generated_Source\PSoC4/BLE_eventHandler.c **** #endif /* CYBLE_ESS_CLIENT */
 980:Generated_Source\PSoC4/BLE_eventHandler.c **** #ifdef CYBLE_GLS_CLIENT
 981:Generated_Source\PSoC4/BLE_eventHandler.c ****     if((cyBle_eventHandlerFlag & CYBLE_CALLBACK) != 0u)
 982:Generated_Source\PSoC4/BLE_eventHandler.c ****     {
 983:Generated_Source\PSoC4/BLE_eventHandler.c ****         CyBle_GlscIndicationEventHandler(eventParam);
 984:Generated_Source\PSoC4/BLE_eventHandler.c ****     }
 985:Generated_Source\PSoC4/BLE_eventHandler.c **** #endif /* CYBLE_GLS_CLIENT */
 986:Generated_Source\PSoC4/BLE_eventHandler.c **** #ifdef CYBLE_HTS_CLIENT
 987:Generated_Source\PSoC4/BLE_eventHandler.c ****     if((cyBle_eventHandlerFlag & CYBLE_CALLBACK) != 0u)
 988:Generated_Source\PSoC4/BLE_eventHandler.c ****     {
 989:Generated_Source\PSoC4/BLE_eventHandler.c ****         CyBle_HtscIndicationEventHandler(eventParam);
 990:Generated_Source\PSoC4/BLE_eventHandler.c ****     }
 991:Generated_Source\PSoC4/BLE_eventHandler.c **** #endif /* CYBLE_HTS_CLIENT */
 992:Generated_Source\PSoC4/BLE_eventHandler.c **** #ifdef CYBLE_LNS_CLIENT
 993:Generated_Source\PSoC4/BLE_eventHandler.c ****     if((cyBle_eventHandlerFlag & CYBLE_CALLBACK) != 0u)
 994:Generated_Source\PSoC4/BLE_eventHandler.c ****     {
 995:Generated_Source\PSoC4/BLE_eventHandler.c ****         CyBle_LnscIndicationEventHandler(eventParam);
 996:Generated_Source\PSoC4/BLE_eventHandler.c ****     }
 997:Generated_Source\PSoC4/BLE_eventHandler.c **** #endif /* CYBLE_LNS_CLIENT */
 998:Generated_Source\PSoC4/BLE_eventHandler.c **** #ifdef CYBLE_RSCS_CLIENT
 999:Generated_Source\PSoC4/BLE_eventHandler.c ****     if((cyBle_eventHandlerFlag & CYBLE_CALLBACK) != 0u)
1000:Generated_Source\PSoC4/BLE_eventHandler.c ****     {
1001:Generated_Source\PSoC4/BLE_eventHandler.c ****         CyBle_RscscIndicationEventHandler(eventParam);
1002:Generated_Source\PSoC4/BLE_eventHandler.c ****     }
1003:Generated_Source\PSoC4/BLE_eventHandler.c **** #endif /* CYBLE_RSCS_CLIENT */
1004:Generated_Source\PSoC4/BLE_eventHandler.c **** #ifdef CYBLE_UDS_CLIENT
1005:Generated_Source\PSoC4/BLE_eventHandler.c ****     if((cyBle_eventHandlerFlag & CYBLE_CALLBACK) != 0u)
1006:Generated_Source\PSoC4/BLE_eventHandler.c ****     {
1007:Generated_Source\PSoC4/BLE_eventHandler.c ****         CyBle_UdscIndicationEventHandler(eventParam);
1008:Generated_Source\PSoC4/BLE_eventHandler.c ****     }
1009:Generated_Source\PSoC4/BLE_eventHandler.c **** #endif /* CYBLE_UDS_CLIENT */
1010:Generated_Source\PSoC4/BLE_eventHandler.c **** #ifdef CYBLE_WPTS_CLIENT
1011:Generated_Source\PSoC4/BLE_eventHandler.c ****     if((cyBle_eventHandlerFlag & CYBLE_CALLBACK) != 0u)
1012:Generated_Source\PSoC4/BLE_eventHandler.c ****     {
1013:Generated_Source\PSoC4/BLE_eventHandler.c ****         CyBle_WptscIndicationEventHandler(eventParam);
ARM GAS  C:\Users\diego\AppData\Local\Temp\ccaLbWCT.s 			page 23


1014:Generated_Source\PSoC4/BLE_eventHandler.c ****     }
1015:Generated_Source\PSoC4/BLE_eventHandler.c **** #endif /* CYBLE_WPTS_CLIENT */
1016:Generated_Source\PSoC4/BLE_eventHandler.c **** #ifdef CYBLE_WSS_CLIENT
1017:Generated_Source\PSoC4/BLE_eventHandler.c ****     if((cyBle_eventHandlerFlag & CYBLE_CALLBACK) != 0u)
1018:Generated_Source\PSoC4/BLE_eventHandler.c ****     {
1019:Generated_Source\PSoC4/BLE_eventHandler.c ****         CyBle_WsscIndicationEventHandler(eventParam);
1020:Generated_Source\PSoC4/BLE_eventHandler.c ****     }
1021:Generated_Source\PSoC4/BLE_eventHandler.c **** #endif /* CYBLE_WSS_CLIENT */
1022:Generated_Source\PSoC4/BLE_eventHandler.c **** }
1023:Generated_Source\PSoC4/BLE_eventHandler.c **** 
1024:Generated_Source\PSoC4/BLE_eventHandler.c **** /******************************************************************************    
1025:Generated_Source\PSoC4/BLE_eventHandler.c **** * Function Name: CyBle_ReadResponseEventHandler
1026:Generated_Source\PSoC4/BLE_eventHandler.c **** ***************************************************************************//**
1027:Generated_Source\PSoC4/BLE_eventHandler.c **** * 
1028:Generated_Source\PSoC4/BLE_eventHandler.c **** *  Handles the Read Response event from BLE stack.
1029:Generated_Source\PSoC4/BLE_eventHandler.c **** * 
1030:Generated_Source\PSoC4/BLE_eventHandler.c **** *  \param eventParam: event parameter
1031:Generated_Source\PSoC4/BLE_eventHandler.c **** * 
1032:Generated_Source\PSoC4/BLE_eventHandler.c **** * \return
1033:Generated_Source\PSoC4/BLE_eventHandler.c **** *  None
1034:Generated_Source\PSoC4/BLE_eventHandler.c **** * 
1035:Generated_Source\PSoC4/BLE_eventHandler.c **** ******************************************************************************/
1036:Generated_Source\PSoC4/BLE_eventHandler.c **** static void CyBle_ReadResponseEventHandler(CYBLE_GATTC_READ_RSP_PARAM_T *eventParam)
1037:Generated_Source\PSoC4/BLE_eventHandler.c **** {
1038:Generated_Source\PSoC4/BLE_eventHandler.c **** #ifdef CYBLE_CUSTOM_CLIENT
1039:Generated_Source\PSoC4/BLE_eventHandler.c ****     /* Read response with 128-bit included service uuid */
1040:Generated_Source\PSoC4/BLE_eventHandler.c ****     if((CyBle_GetClientState() == CYBLE_CLIENT_STATE_INCL_DISCOVERING) &&
1041:Generated_Source\PSoC4/BLE_eventHandler.c ****        (cyBle_discInclInfo.inclDefHandle != 0u))
1042:Generated_Source\PSoC4/BLE_eventHandler.c ****     {
1043:Generated_Source\PSoC4/BLE_eventHandler.c ****         CYBLE_DISC_SRVC128_INFO_T discServInfo;
1044:Generated_Source\PSoC4/BLE_eventHandler.c **** 
1045:Generated_Source\PSoC4/BLE_eventHandler.c ****         /* Store service range */
1046:Generated_Source\PSoC4/BLE_eventHandler.c ****         discServInfo.range = cyBle_discInclInfo.inclHandleRange;
1047:Generated_Source\PSoC4/BLE_eventHandler.c ****         (void)memcpy((void *) discServInfo.uuid.uuid128.value, (void *)eventParam->value.val, event
1048:Generated_Source\PSoC4/BLE_eventHandler.c ****         CyBle_CustomcDiscoverServiceEventHandler(&discServInfo);
1049:Generated_Source\PSoC4/BLE_eventHandler.c ****         
1050:Generated_Source\PSoC4/BLE_eventHandler.c ****         /* Re-initiate CyBle_GattcFindIncludedServices function, setting the start
1051:Generated_Source\PSoC4/BLE_eventHandler.c ****            handle to the attribute handle which is placed next to the one used in
1052:Generated_Source\PSoC4/BLE_eventHandler.c ****            the above step.
1053:Generated_Source\PSoC4/BLE_eventHandler.c ****         */
1054:Generated_Source\PSoC4/BLE_eventHandler.c ****         discServInfo.range.startHandle = cyBle_discInclInfo.inclDefHandle + 1u;
1055:Generated_Source\PSoC4/BLE_eventHandler.c ****         discServInfo.range.endHandle = cyBle_serverInfo[cyBle_disCount].range.endHandle;
1056:Generated_Source\PSoC4/BLE_eventHandler.c ****         if(discServInfo.range.startHandle <= discServInfo.range.endHandle)
1057:Generated_Source\PSoC4/BLE_eventHandler.c ****         {
1058:Generated_Source\PSoC4/BLE_eventHandler.c ****             if(CYBLE_ERROR_OK != CyBle_GattcFindIncludedServices(cyBle_connHandle, &discServInfo.ra
1059:Generated_Source\PSoC4/BLE_eventHandler.c ****             {
1060:Generated_Source\PSoC4/BLE_eventHandler.c ****                 CyBle_ApplCallback(CYBLE_EVT_GATTC_INCL_DISCOVERY_FAILED, NULL);
1061:Generated_Source\PSoC4/BLE_eventHandler.c ****                 cyBle_eventHandlerFlag &= (uint8)~CYBLE_AUTO_DISCOVERY;
1062:Generated_Source\PSoC4/BLE_eventHandler.c ****             }
1063:Generated_Source\PSoC4/BLE_eventHandler.c ****         }
1064:Generated_Source\PSoC4/BLE_eventHandler.c ****         else /* Continue discovery of the following service */
1065:Generated_Source\PSoC4/BLE_eventHandler.c ****         {
1066:Generated_Source\PSoC4/BLE_eventHandler.c ****             CyBle_NextInclDiscovery(CYBLE_DISCOVERY_CONTINUE);
1067:Generated_Source\PSoC4/BLE_eventHandler.c ****         }
1068:Generated_Source\PSoC4/BLE_eventHandler.c ****         
1069:Generated_Source\PSoC4/BLE_eventHandler.c ****         cyBle_eventHandlerFlag &= (uint8)~CYBLE_CALLBACK;
1070:Generated_Source\PSoC4/BLE_eventHandler.c ****     #ifdef CYBLE_CUSTOM_CLIENT
ARM GAS  C:\Users\diego\AppData\Local\Temp\ccaLbWCT.s 			page 24


1071:Generated_Source\PSoC4/BLE_eventHandler.c ****         cyBle_discInclInfo.inclDefHandle = 0u;
1072:Generated_Source\PSoC4/BLE_eventHandler.c ****     #endif /* CYBLE_CUSTOM_CLIENT */
1073:Generated_Source\PSoC4/BLE_eventHandler.c ****     }
1074:Generated_Source\PSoC4/BLE_eventHandler.c **** #endif /* CYBLE_CUSTOM_CLIENT */
1075:Generated_Source\PSoC4/BLE_eventHandler.c **** #ifdef CYBLE_AIOS_CLIENT
1076:Generated_Source\PSoC4/BLE_eventHandler.c ****     if((cyBle_eventHandlerFlag & CYBLE_CALLBACK) != 0u)
1077:Generated_Source\PSoC4/BLE_eventHandler.c ****     {
1078:Generated_Source\PSoC4/BLE_eventHandler.c ****         CyBle_AioscReadResponseEventHandler(eventParam);
1079:Generated_Source\PSoC4/BLE_eventHandler.c ****     }
1080:Generated_Source\PSoC4/BLE_eventHandler.c **** #endif /* CYBLE_AIOS_CLIENT */
1081:Generated_Source\PSoC4/BLE_eventHandler.c **** #ifdef CYBLE_ANCS_CLIENT
1082:Generated_Source\PSoC4/BLE_eventHandler.c ****     if((cyBle_eventHandlerFlag & CYBLE_CALLBACK) != 0u)
1083:Generated_Source\PSoC4/BLE_eventHandler.c ****     {
1084:Generated_Source\PSoC4/BLE_eventHandler.c ****         CyBle_AncscReadResponseEventHandler(eventParam);
1085:Generated_Source\PSoC4/BLE_eventHandler.c ****     }
1086:Generated_Source\PSoC4/BLE_eventHandler.c **** #endif /* CYBLE_ANCS_CLIENT */
1087:Generated_Source\PSoC4/BLE_eventHandler.c **** #ifdef CYBLE_ANS_CLIENT
1088:Generated_Source\PSoC4/BLE_eventHandler.c ****     if((cyBle_eventHandlerFlag & CYBLE_CALLBACK) != 0u)
1089:Generated_Source\PSoC4/BLE_eventHandler.c ****     {
1090:Generated_Source\PSoC4/BLE_eventHandler.c ****         CyBle_AnscReadResponseEventHandler(eventParam);
1091:Generated_Source\PSoC4/BLE_eventHandler.c ****     }
1092:Generated_Source\PSoC4/BLE_eventHandler.c **** #endif /* CYBLE_ANS_CLIENT */
1093:Generated_Source\PSoC4/BLE_eventHandler.c **** #ifdef CYBLE_BAS_CLIENT
1094:Generated_Source\PSoC4/BLE_eventHandler.c ****     if((cyBle_eventHandlerFlag & CYBLE_CALLBACK) != 0u)
1095:Generated_Source\PSoC4/BLE_eventHandler.c ****     {
1096:Generated_Source\PSoC4/BLE_eventHandler.c ****         CyBle_BascReadResponseEventHandler(eventParam);
1097:Generated_Source\PSoC4/BLE_eventHandler.c ****     }
1098:Generated_Source\PSoC4/BLE_eventHandler.c **** #endif /* CYBLE_BAS_CLIENT */
1099:Generated_Source\PSoC4/BLE_eventHandler.c **** #ifdef CYBLE_BLS_CLIENT
1100:Generated_Source\PSoC4/BLE_eventHandler.c ****     if((cyBle_eventHandlerFlag & CYBLE_CALLBACK) != 0u)
1101:Generated_Source\PSoC4/BLE_eventHandler.c ****     {
1102:Generated_Source\PSoC4/BLE_eventHandler.c ****         CyBle_BlscReadResponseEventHandler(eventParam);
1103:Generated_Source\PSoC4/BLE_eventHandler.c ****     }
1104:Generated_Source\PSoC4/BLE_eventHandler.c **** #endif /* CYBLE_BLS_CLIENT */
1105:Generated_Source\PSoC4/BLE_eventHandler.c **** #ifdef CYBLE_BCS_CLIENT
1106:Generated_Source\PSoC4/BLE_eventHandler.c ****     if((cyBle_eventHandlerFlag & CYBLE_CALLBACK) != 0u)
1107:Generated_Source\PSoC4/BLE_eventHandler.c ****     {
1108:Generated_Source\PSoC4/BLE_eventHandler.c ****         CyBle_BcscReadResponseEventHandler(eventParam);
1109:Generated_Source\PSoC4/BLE_eventHandler.c ****     }
1110:Generated_Source\PSoC4/BLE_eventHandler.c **** #endif /* CYBLE_BCS_CLIENT */
1111:Generated_Source\PSoC4/BLE_eventHandler.c **** #ifdef CYBLE_BMS_CLIENT
1112:Generated_Source\PSoC4/BLE_eventHandler.c ****     if((cyBle_eventHandlerFlag & CYBLE_CALLBACK) != 0u)
1113:Generated_Source\PSoC4/BLE_eventHandler.c ****     {
1114:Generated_Source\PSoC4/BLE_eventHandler.c ****         CyBle_BmscReadResponseEventHandler(eventParam);
1115:Generated_Source\PSoC4/BLE_eventHandler.c ****     }
1116:Generated_Source\PSoC4/BLE_eventHandler.c **** #endif /* CYBLE_BMS_CLIENT */
1117:Generated_Source\PSoC4/BLE_eventHandler.c **** #ifdef CYBLE_CGMS_CLIENT
1118:Generated_Source\PSoC4/BLE_eventHandler.c ****     if((cyBle_eventHandlerFlag & CYBLE_CALLBACK) != 0u)
1119:Generated_Source\PSoC4/BLE_eventHandler.c ****     {
1120:Generated_Source\PSoC4/BLE_eventHandler.c ****         CyBle_CgmscReadResponseEventHandler(eventParam);
1121:Generated_Source\PSoC4/BLE_eventHandler.c ****     }
1122:Generated_Source\PSoC4/BLE_eventHandler.c **** #endif /* CYBLE_CGMS_CLIENT */
1123:Generated_Source\PSoC4/BLE_eventHandler.c **** #ifdef CYBLE_CPS_CLIENT
1124:Generated_Source\PSoC4/BLE_eventHandler.c ****     if((cyBle_eventHandlerFlag & CYBLE_CALLBACK) != 0u)
1125:Generated_Source\PSoC4/BLE_eventHandler.c ****     {
1126:Generated_Source\PSoC4/BLE_eventHandler.c ****         CyBle_CpscReadResponseEventHandler(eventParam);
1127:Generated_Source\PSoC4/BLE_eventHandler.c ****     }
ARM GAS  C:\Users\diego\AppData\Local\Temp\ccaLbWCT.s 			page 25


1128:Generated_Source\PSoC4/BLE_eventHandler.c **** #endif /* CYBLE_CPS_CLIENT */
1129:Generated_Source\PSoC4/BLE_eventHandler.c **** #ifdef CYBLE_CSCS_CLIENT
1130:Generated_Source\PSoC4/BLE_eventHandler.c ****     if((cyBle_eventHandlerFlag & CYBLE_CALLBACK) != 0u)
1131:Generated_Source\PSoC4/BLE_eventHandler.c ****     {
1132:Generated_Source\PSoC4/BLE_eventHandler.c ****         CyBle_CscscReadResponseEventHandler(eventParam);
1133:Generated_Source\PSoC4/BLE_eventHandler.c ****     }
1134:Generated_Source\PSoC4/BLE_eventHandler.c **** #endif /* CYBLE_CSCS_CLIENT */
1135:Generated_Source\PSoC4/BLE_eventHandler.c **** #ifdef CYBLE_CTS_CLIENT
1136:Generated_Source\PSoC4/BLE_eventHandler.c ****     if((cyBle_eventHandlerFlag & CYBLE_CALLBACK) != 0u)
1137:Generated_Source\PSoC4/BLE_eventHandler.c ****     {
1138:Generated_Source\PSoC4/BLE_eventHandler.c ****         CyBle_CtscReadResponseEventHandler(eventParam);
1139:Generated_Source\PSoC4/BLE_eventHandler.c ****     }
1140:Generated_Source\PSoC4/BLE_eventHandler.c **** #endif /* CYBLE_BAS_CLIENT */
1141:Generated_Source\PSoC4/BLE_eventHandler.c **** #ifdef CYBLE_DIS_CLIENT
1142:Generated_Source\PSoC4/BLE_eventHandler.c ****     if((cyBle_eventHandlerFlag & CYBLE_CALLBACK) != 0u)
1143:Generated_Source\PSoC4/BLE_eventHandler.c ****     {
1144:Generated_Source\PSoC4/BLE_eventHandler.c ****         CyBle_DiscReadResponseEventHandler(eventParam);
1145:Generated_Source\PSoC4/BLE_eventHandler.c ****     }
1146:Generated_Source\PSoC4/BLE_eventHandler.c **** #endif /* CYBLE_DIS_CLIENT */
1147:Generated_Source\PSoC4/BLE_eventHandler.c **** #ifdef CYBLE_ESS_CLIENT
1148:Generated_Source\PSoC4/BLE_eventHandler.c ****     if((cyBle_eventHandlerFlag & CYBLE_CALLBACK) != 0u)
1149:Generated_Source\PSoC4/BLE_eventHandler.c ****     {
1150:Generated_Source\PSoC4/BLE_eventHandler.c ****         CyBle_EsscReadResponseEventHandler(eventParam);
1151:Generated_Source\PSoC4/BLE_eventHandler.c ****     }
1152:Generated_Source\PSoC4/BLE_eventHandler.c **** #endif /* CYBLE_ESS_CLIENT */
1153:Generated_Source\PSoC4/BLE_eventHandler.c **** #ifdef CYBLE_GLS_CLIENT
1154:Generated_Source\PSoC4/BLE_eventHandler.c ****     if((cyBle_eventHandlerFlag & CYBLE_CALLBACK) != 0u)
1155:Generated_Source\PSoC4/BLE_eventHandler.c ****     {
1156:Generated_Source\PSoC4/BLE_eventHandler.c ****         CyBle_GlscReadResponseEventHandler(eventParam);
1157:Generated_Source\PSoC4/BLE_eventHandler.c ****     }
1158:Generated_Source\PSoC4/BLE_eventHandler.c **** #endif /* CYBLE_GLS_CLIENT */
1159:Generated_Source\PSoC4/BLE_eventHandler.c **** #ifdef CYBLE_HIDS_CLIENT
1160:Generated_Source\PSoC4/BLE_eventHandler.c ****     if((cyBle_eventHandlerFlag & CYBLE_CALLBACK) != 0u)
1161:Generated_Source\PSoC4/BLE_eventHandler.c ****     {
1162:Generated_Source\PSoC4/BLE_eventHandler.c ****         CyBle_HidscReadResponseEventHandler(eventParam);
1163:Generated_Source\PSoC4/BLE_eventHandler.c ****     }
1164:Generated_Source\PSoC4/BLE_eventHandler.c **** #endif /* CYBLE_HIDS_CLIENT */
1165:Generated_Source\PSoC4/BLE_eventHandler.c **** #ifdef CYBLE_HPS_CLIENT
1166:Generated_Source\PSoC4/BLE_eventHandler.c ****     if((cyBle_eventHandlerFlag & CYBLE_CALLBACK) != 0u)
1167:Generated_Source\PSoC4/BLE_eventHandler.c ****     {
1168:Generated_Source\PSoC4/BLE_eventHandler.c ****         CyBle_HpscReadResponseEventHandler(eventParam);
1169:Generated_Source\PSoC4/BLE_eventHandler.c ****     }
1170:Generated_Source\PSoC4/BLE_eventHandler.c **** #endif /* CYBLE_HPS_CLIENT */
1171:Generated_Source\PSoC4/BLE_eventHandler.c **** #ifdef CYBLE_HRS_CLIENT
1172:Generated_Source\PSoC4/BLE_eventHandler.c ****     if((cyBle_eventHandlerFlag & CYBLE_CALLBACK) != 0u)
1173:Generated_Source\PSoC4/BLE_eventHandler.c ****     {
1174:Generated_Source\PSoC4/BLE_eventHandler.c ****         CyBle_HrscReadResponseEventHandler(eventParam);
1175:Generated_Source\PSoC4/BLE_eventHandler.c ****     }
1176:Generated_Source\PSoC4/BLE_eventHandler.c **** #endif /* CYBLE_HRS_CLIENT */
1177:Generated_Source\PSoC4/BLE_eventHandler.c **** #ifdef CYBLE_HTS_CLIENT
1178:Generated_Source\PSoC4/BLE_eventHandler.c ****     if((cyBle_eventHandlerFlag & CYBLE_CALLBACK) != 0u)
1179:Generated_Source\PSoC4/BLE_eventHandler.c ****     {
1180:Generated_Source\PSoC4/BLE_eventHandler.c ****         CyBle_HtscReadResponseEventHandler(eventParam);
1181:Generated_Source\PSoC4/BLE_eventHandler.c ****     }
1182:Generated_Source\PSoC4/BLE_eventHandler.c **** #endif /* CYBLE_HTS_CLIENT */
1183:Generated_Source\PSoC4/BLE_eventHandler.c **** #ifdef CYBLE_IPS_CLIENT
1184:Generated_Source\PSoC4/BLE_eventHandler.c ****     if((cyBle_eventHandlerFlag & CYBLE_CALLBACK) != 0u)
ARM GAS  C:\Users\diego\AppData\Local\Temp\ccaLbWCT.s 			page 26


1185:Generated_Source\PSoC4/BLE_eventHandler.c ****     {
1186:Generated_Source\PSoC4/BLE_eventHandler.c ****         CyBle_IpscReadResponseEventHandler(eventParam);
1187:Generated_Source\PSoC4/BLE_eventHandler.c ****     }
1188:Generated_Source\PSoC4/BLE_eventHandler.c **** #endif /* CYBLE_IPS_CLIENT */
1189:Generated_Source\PSoC4/BLE_eventHandler.c **** #ifdef CYBLE_LLS_CLIENT
1190:Generated_Source\PSoC4/BLE_eventHandler.c ****     if((cyBle_eventHandlerFlag & CYBLE_CALLBACK) != 0u)
1191:Generated_Source\PSoC4/BLE_eventHandler.c ****     {
1192:Generated_Source\PSoC4/BLE_eventHandler.c ****         CyBle_LlscReadResponseEventHandler(eventParam);
1193:Generated_Source\PSoC4/BLE_eventHandler.c ****     }
1194:Generated_Source\PSoC4/BLE_eventHandler.c **** #endif /* CYBLE_LLS_CLIENT */
1195:Generated_Source\PSoC4/BLE_eventHandler.c **** #ifdef CYBLE_LNS_CLIENT
1196:Generated_Source\PSoC4/BLE_eventHandler.c ****     if((cyBle_eventHandlerFlag & CYBLE_CALLBACK) != 0u)
1197:Generated_Source\PSoC4/BLE_eventHandler.c ****     {
1198:Generated_Source\PSoC4/BLE_eventHandler.c ****         CyBle_LnscReadResponseEventHandler(eventParam);
1199:Generated_Source\PSoC4/BLE_eventHandler.c ****     }
1200:Generated_Source\PSoC4/BLE_eventHandler.c **** #endif /* CYBLE_LNS_CLIENT */
1201:Generated_Source\PSoC4/BLE_eventHandler.c **** #ifdef CYBLE_NDCS_CLIENT
1202:Generated_Source\PSoC4/BLE_eventHandler.c ****     if((cyBle_eventHandlerFlag & CYBLE_CALLBACK) != 0u)
1203:Generated_Source\PSoC4/BLE_eventHandler.c ****     {
1204:Generated_Source\PSoC4/BLE_eventHandler.c ****         CyBle_NdcscReadResponseEventHandler(eventParam);
1205:Generated_Source\PSoC4/BLE_eventHandler.c ****     }
1206:Generated_Source\PSoC4/BLE_eventHandler.c **** #endif /* CYBLE_NDCS_CLIENT */
1207:Generated_Source\PSoC4/BLE_eventHandler.c **** #ifdef CYBLE_PASS_CLIENT
1208:Generated_Source\PSoC4/BLE_eventHandler.c ****     if((cyBle_eventHandlerFlag & CYBLE_CALLBACK) != 0u)
1209:Generated_Source\PSoC4/BLE_eventHandler.c ****     {
1210:Generated_Source\PSoC4/BLE_eventHandler.c ****         CyBle_PasscReadResponseEventHandler(eventParam);
1211:Generated_Source\PSoC4/BLE_eventHandler.c ****     }
1212:Generated_Source\PSoC4/BLE_eventHandler.c **** #endif /* CYBLE_PASS_CLIENT */
1213:Generated_Source\PSoC4/BLE_eventHandler.c **** #ifdef CYBLE_PLXS_CLIENT
1214:Generated_Source\PSoC4/BLE_eventHandler.c ****     if((cyBle_eventHandlerFlag & CYBLE_CALLBACK) != 0u)
1215:Generated_Source\PSoC4/BLE_eventHandler.c ****     {
1216:Generated_Source\PSoC4/BLE_eventHandler.c ****         CyBle_PlxscReadResponseEventHandler(eventParam);
1217:Generated_Source\PSoC4/BLE_eventHandler.c ****     }
1218:Generated_Source\PSoC4/BLE_eventHandler.c **** #endif /* CYBLE_PLXS_CLIENT */
1219:Generated_Source\PSoC4/BLE_eventHandler.c **** #ifdef CYBLE_RSCS_CLIENT
1220:Generated_Source\PSoC4/BLE_eventHandler.c ****     if((cyBle_eventHandlerFlag & CYBLE_CALLBACK) != 0u)
1221:Generated_Source\PSoC4/BLE_eventHandler.c ****     {
1222:Generated_Source\PSoC4/BLE_eventHandler.c ****         CyBle_RscscReadResponseEventHandler(eventParam);
1223:Generated_Source\PSoC4/BLE_eventHandler.c ****     }
1224:Generated_Source\PSoC4/BLE_eventHandler.c **** #endif /* CYBLE_RSCS_CLIENT */
1225:Generated_Source\PSoC4/BLE_eventHandler.c **** #ifdef CYBLE_RTUS_CLIENT
1226:Generated_Source\PSoC4/BLE_eventHandler.c ****     if((cyBle_eventHandlerFlag & CYBLE_CALLBACK) != 0u)
1227:Generated_Source\PSoC4/BLE_eventHandler.c ****     {
1228:Generated_Source\PSoC4/BLE_eventHandler.c ****         CyBle_RtuscReadResponseEventHandler(eventParam);
1229:Generated_Source\PSoC4/BLE_eventHandler.c ****     }
1230:Generated_Source\PSoC4/BLE_eventHandler.c **** #endif /* CYBLE_RTUS_CLIENT */
1231:Generated_Source\PSoC4/BLE_eventHandler.c **** #ifdef CYBLE_SCPS_CLIENT
1232:Generated_Source\PSoC4/BLE_eventHandler.c ****     if((cyBle_eventHandlerFlag & CYBLE_CALLBACK) != 0u)
1233:Generated_Source\PSoC4/BLE_eventHandler.c ****     {
1234:Generated_Source\PSoC4/BLE_eventHandler.c ****         CyBle_ScpscReadResponseEventHandler(eventParam);
1235:Generated_Source\PSoC4/BLE_eventHandler.c ****     }
1236:Generated_Source\PSoC4/BLE_eventHandler.c **** #endif /* CYBLE_SCPS_CLIENT */
1237:Generated_Source\PSoC4/BLE_eventHandler.c **** #ifdef CYBLE_TPS_CLIENT
1238:Generated_Source\PSoC4/BLE_eventHandler.c ****     if((cyBle_eventHandlerFlag & CYBLE_CALLBACK) != 0u)
1239:Generated_Source\PSoC4/BLE_eventHandler.c ****     {
1240:Generated_Source\PSoC4/BLE_eventHandler.c ****         CyBle_TpscReadResponseEventHandler(eventParam);
1241:Generated_Source\PSoC4/BLE_eventHandler.c ****     }
ARM GAS  C:\Users\diego\AppData\Local\Temp\ccaLbWCT.s 			page 27


1242:Generated_Source\PSoC4/BLE_eventHandler.c **** #endif /* CYBLE_TPS_CLIENT */
1243:Generated_Source\PSoC4/BLE_eventHandler.c **** #ifdef CYBLE_UDS_CLIENT
1244:Generated_Source\PSoC4/BLE_eventHandler.c ****     if((cyBle_eventHandlerFlag & CYBLE_CALLBACK) != 0u)
1245:Generated_Source\PSoC4/BLE_eventHandler.c ****     {
1246:Generated_Source\PSoC4/BLE_eventHandler.c ****         CyBle_UdscReadResponseEventHandler(eventParam);
1247:Generated_Source\PSoC4/BLE_eventHandler.c ****     }
1248:Generated_Source\PSoC4/BLE_eventHandler.c **** #endif /* CYBLE_UDS_CLIENT */
1249:Generated_Source\PSoC4/BLE_eventHandler.c **** #ifdef CYBLE_WPTS_CLIENT
1250:Generated_Source\PSoC4/BLE_eventHandler.c ****     if((cyBle_eventHandlerFlag & CYBLE_CALLBACK) != 0u)
1251:Generated_Source\PSoC4/BLE_eventHandler.c ****     {
1252:Generated_Source\PSoC4/BLE_eventHandler.c ****         CyBle_WptscReadResponseEventHandler(eventParam);
1253:Generated_Source\PSoC4/BLE_eventHandler.c ****     }
1254:Generated_Source\PSoC4/BLE_eventHandler.c **** #endif /* CYBLE_WPTS_CLIENT */
1255:Generated_Source\PSoC4/BLE_eventHandler.c **** #ifdef CYBLE_WSS_CLIENT
1256:Generated_Source\PSoC4/BLE_eventHandler.c ****     if((cyBle_eventHandlerFlag & CYBLE_CALLBACK) != 0u)
1257:Generated_Source\PSoC4/BLE_eventHandler.c ****     {
1258:Generated_Source\PSoC4/BLE_eventHandler.c ****         CyBle_WsscReadResponseEventHandler(eventParam);
1259:Generated_Source\PSoC4/BLE_eventHandler.c ****     }
1260:Generated_Source\PSoC4/BLE_eventHandler.c **** #endif /* CYBLE_WSS_CLIENT */
1261:Generated_Source\PSoC4/BLE_eventHandler.c **** }
1262:Generated_Source\PSoC4/BLE_eventHandler.c **** 
1263:Generated_Source\PSoC4/BLE_eventHandler.c **** /******************************************************************************    
1264:Generated_Source\PSoC4/BLE_eventHandler.c **** * Function Name: CyBle_ReadMultipleResponseEventHandler
1265:Generated_Source\PSoC4/BLE_eventHandler.c **** ***************************************************************************//**
1266:Generated_Source\PSoC4/BLE_eventHandler.c **** * 
1267:Generated_Source\PSoC4/BLE_eventHandler.c **** *  Handles the Read Multiple Response event from BLE stack.
1268:Generated_Source\PSoC4/BLE_eventHandler.c **** * 
1269:Generated_Source\PSoC4/BLE_eventHandler.c **** *  \param eventParam: event parameter
1270:Generated_Source\PSoC4/BLE_eventHandler.c **** * 
1271:Generated_Source\PSoC4/BLE_eventHandler.c **** * \return
1272:Generated_Source\PSoC4/BLE_eventHandler.c **** *  None
1273:Generated_Source\PSoC4/BLE_eventHandler.c **** * 
1274:Generated_Source\PSoC4/BLE_eventHandler.c **** ******************************************************************************/
1275:Generated_Source\PSoC4/BLE_eventHandler.c **** static void CyBle_ReadMultipleResponseEventHandler(CYBLE_GATTC_READ_RSP_PARAM_T *eventParam)
1276:Generated_Source\PSoC4/BLE_eventHandler.c **** {
1277:Generated_Source\PSoC4/BLE_eventHandler.c **** #ifdef CYBLE_CUSTOM_CLIENT
1278:Generated_Source\PSoC4/BLE_eventHandler.c ****     /* Read response with 128-bit included service uuid */
1279:Generated_Source\PSoC4/BLE_eventHandler.c ****     if((CYBLE_CLIENT_STATE_INCL_DISCOVERING == CyBle_GetClientState()) &&
1280:Generated_Source\PSoC4/BLE_eventHandler.c ****        (cyBle_discInclInfo.inclDefHandle != 0u))
1281:Generated_Source\PSoC4/BLE_eventHandler.c ****     {
1282:Generated_Source\PSoC4/BLE_eventHandler.c ****         CYBLE_DISC_SRVC128_INFO_T discServInfo;
1283:Generated_Source\PSoC4/BLE_eventHandler.c **** 
1284:Generated_Source\PSoC4/BLE_eventHandler.c ****         /* Store service range */
1285:Generated_Source\PSoC4/BLE_eventHandler.c ****         discServInfo.range = cyBle_discInclInfo.inclHandleRange;
1286:Generated_Source\PSoC4/BLE_eventHandler.c ****         (void)memcpy((void *) discServInfo.uuid.uuid128.value, (void *)eventParam->value.val, event
1287:Generated_Source\PSoC4/BLE_eventHandler.c ****         CyBle_CustomcDiscoverServiceEventHandler(&discServInfo);
1288:Generated_Source\PSoC4/BLE_eventHandler.c ****         
1289:Generated_Source\PSoC4/BLE_eventHandler.c ****         /* Re-initiate CyBle_GattcFindIncludedServices function, setting the start
1290:Generated_Source\PSoC4/BLE_eventHandler.c ****            handle to the attribute handle which is placed next to the one used in
1291:Generated_Source\PSoC4/BLE_eventHandler.c ****            the above step.
1292:Generated_Source\PSoC4/BLE_eventHandler.c ****         */
1293:Generated_Source\PSoC4/BLE_eventHandler.c ****         discServInfo.range.startHandle = cyBle_discInclInfo.inclDefHandle + 1;
1294:Generated_Source\PSoC4/BLE_eventHandler.c ****         discServInfo.range.endHandle = cyBle_serverInfo[cyBle_disCount].range.endHandle;
1295:Generated_Source\PSoC4/BLE_eventHandler.c ****         if(discServInfo.range.startHandle <= discServInfo.range.endHandle)
1296:Generated_Source\PSoC4/BLE_eventHandler.c ****         {
1297:Generated_Source\PSoC4/BLE_eventHandler.c ****             if(CYBLE_ERROR_OK != CyBle_GattcFindIncludedServices(cyBle_connHandle, &discServInfo.ra
1298:Generated_Source\PSoC4/BLE_eventHandler.c ****             {
ARM GAS  C:\Users\diego\AppData\Local\Temp\ccaLbWCT.s 			page 28


1299:Generated_Source\PSoC4/BLE_eventHandler.c ****                 CyBle_ApplCallback(CYBLE_EVT_GATTC_INCL_DISCOVERY_FAILED, NULL);
1300:Generated_Source\PSoC4/BLE_eventHandler.c ****                 cyBle_eventHandlerFlag &= (uint8)~CYBLE_AUTO_DISCOVERY;
1301:Generated_Source\PSoC4/BLE_eventHandler.c ****             }
1302:Generated_Source\PSoC4/BLE_eventHandler.c ****         }
1303:Generated_Source\PSoC4/BLE_eventHandler.c ****         else /* Continue discovery of the following service */
1304:Generated_Source\PSoC4/BLE_eventHandler.c ****         {
1305:Generated_Source\PSoC4/BLE_eventHandler.c ****             CyBle_NextInclDiscovery(CYBLE_DISCOVERY_CONTINUE);
1306:Generated_Source\PSoC4/BLE_eventHandler.c ****         }
1307:Generated_Source\PSoC4/BLE_eventHandler.c ****         
1308:Generated_Source\PSoC4/BLE_eventHandler.c ****         cyBle_eventHandlerFlag &= (uint8)~CYBLE_CALLBACK;
1309:Generated_Source\PSoC4/BLE_eventHandler.c ****     #ifdef CYBLE_CUSTOM_CLIENT
1310:Generated_Source\PSoC4/BLE_eventHandler.c ****         cyBle_discInclInfo.inclDefHandle = 0u;
1311:Generated_Source\PSoC4/BLE_eventHandler.c ****     #endif /* CYBLE_CUSTOM_CLIENT */
1312:Generated_Source\PSoC4/BLE_eventHandler.c ****     }
1313:Generated_Source\PSoC4/BLE_eventHandler.c **** #endif /* CYBLE_CUSTOM_CLIENT */
1314:Generated_Source\PSoC4/BLE_eventHandler.c **** #ifdef CYBLE_IPS_CLIENT
1315:Generated_Source\PSoC4/BLE_eventHandler.c ****     if((cyBle_eventHandlerFlag & CYBLE_CALLBACK) != 0u)
1316:Generated_Source\PSoC4/BLE_eventHandler.c ****     {
1317:Generated_Source\PSoC4/BLE_eventHandler.c ****         CyBle_IpscReadMultipleResponseEventHandler(eventParam);
1318:Generated_Source\PSoC4/BLE_eventHandler.c ****     }
1319:Generated_Source\PSoC4/BLE_eventHandler.c **** #endif /* CYBLE_IPS_CLIENT */
1320:Generated_Source\PSoC4/BLE_eventHandler.c ****     /* MISRA 16.7 violation workaround */
1321:Generated_Source\PSoC4/BLE_eventHandler.c ****     eventParam = eventParam;
1322:Generated_Source\PSoC4/BLE_eventHandler.c **** }
1323:Generated_Source\PSoC4/BLE_eventHandler.c **** #endif /* CYBLE_GATT_ROLE_CLIENT */
1324:Generated_Source\PSoC4/BLE_eventHandler.c **** 
1325:Generated_Source\PSoC4/BLE_eventHandler.c **** 
1326:Generated_Source\PSoC4/BLE_eventHandler.c **** /****************************************************************************** 
1327:Generated_Source\PSoC4/BLE_eventHandler.c **** * Function Name: CyBle_DisconnectEventHandler
1328:Generated_Source\PSoC4/BLE_eventHandler.c **** ***************************************************************************//**
1329:Generated_Source\PSoC4/BLE_eventHandler.c **** * 
1330:Generated_Source\PSoC4/BLE_eventHandler.c **** *  Handles the GATT Disconnection event from the BLE stack.
1331:Generated_Source\PSoC4/BLE_eventHandler.c **** * 
1332:Generated_Source\PSoC4/BLE_eventHandler.c **** * \return
1333:Generated_Source\PSoC4/BLE_eventHandler.c **** *  None
1334:Generated_Source\PSoC4/BLE_eventHandler.c **** * 
1335:Generated_Source\PSoC4/BLE_eventHandler.c **** ******************************************************************************/
1336:Generated_Source\PSoC4/BLE_eventHandler.c **** static void CyBle_GattDisconnectEventHandler(void)
1337:Generated_Source\PSoC4/BLE_eventHandler.c **** {
 241              		.loc 1 1337 0
 242              		.cfi_startproc
 243              		@ args = 0, pretend = 0, frame = 0
 244              		@ frame_needed = 1, uses_anonymous_args = 0
 245 0000 80B5     		push	{r7, lr}
 246              		.cfi_def_cfa_offset 8
 247              		.cfi_offset 7, -8
 248              		.cfi_offset 14, -4
 249 0002 00AF     		add	r7, sp, #0
 250              		.cfi_def_cfa_register 7
1338:Generated_Source\PSoC4/BLE_eventHandler.c ****     cyBle_connHandle.attId = 0u;
 251              		.loc 1 1338 0
 252 0004 044B     		ldr	r3, .L15
 253 0006 0022     		movs	r2, #0
 254 0008 5A70     		strb	r2, [r3, #1]
1339:Generated_Source\PSoC4/BLE_eventHandler.c ****     cyBle_connHandle.bdHandle = 0u;
 255              		.loc 1 1339 0
 256 000a 034B     		ldr	r3, .L15
ARM GAS  C:\Users\diego\AppData\Local\Temp\ccaLbWCT.s 			page 29


 257 000c 0022     		movs	r2, #0
 258 000e 1A70     		strb	r2, [r3]
1340:Generated_Source\PSoC4/BLE_eventHandler.c ****     
1341:Generated_Source\PSoC4/BLE_eventHandler.c ****     #if (CYBLE_GATT_ROLE_CLIENT)
1342:Generated_Source\PSoC4/BLE_eventHandler.c ****         if(CyBle_GetClientState() == CYBLE_CLIENT_STATE_DISCOVERED)
1343:Generated_Source\PSoC4/BLE_eventHandler.c ****         {
1344:Generated_Source\PSoC4/BLE_eventHandler.c ****             CyBle_SetClientState(CYBLE_CLIENT_STATE_DISCONNECTED_DISCOVERED);
1345:Generated_Source\PSoC4/BLE_eventHandler.c ****         }
1346:Generated_Source\PSoC4/BLE_eventHandler.c ****         else
1347:Generated_Source\PSoC4/BLE_eventHandler.c ****         {
1348:Generated_Source\PSoC4/BLE_eventHandler.c ****             CyBle_SetClientState(CYBLE_CLIENT_STATE_DISCONNECTED);
1349:Generated_Source\PSoC4/BLE_eventHandler.c ****         }
1350:Generated_Source\PSoC4/BLE_eventHandler.c ****     #endif /* CYBLE_GATT_ROLE_CLIENT */
1351:Generated_Source\PSoC4/BLE_eventHandler.c ****         
1352:Generated_Source\PSoC4/BLE_eventHandler.c ****     #ifdef CYBLE_CPS_SERVER
1353:Generated_Source\PSoC4/BLE_eventHandler.c ****         #if CYBLE_GAP_ROLE_BROADCASTER
1354:Generated_Source\PSoC4/BLE_eventHandler.c ****             CyBle_CpssDisconnectEventHandler();
1355:Generated_Source\PSoC4/BLE_eventHandler.c ****         #endif /* CYBLE_GAP_ROLE_BROADCASTER */
1356:Generated_Source\PSoC4/BLE_eventHandler.c ****     #endif /* CYBLE_CPS_SERVER */
1357:Generated_Source\PSoC4/BLE_eventHandler.c **** 
1358:Generated_Source\PSoC4/BLE_eventHandler.c ****     #ifdef CYBLE_CPS_CLIENT
1359:Generated_Source\PSoC4/BLE_eventHandler.c ****         CyBle_CpscDisconnectEventHandler();
1360:Generated_Source\PSoC4/BLE_eventHandler.c ****     #endif /* CYBLE_CPS_CLIENT */
1361:Generated_Source\PSoC4/BLE_eventHandler.c **** 
1362:Generated_Source\PSoC4/BLE_eventHandler.c ****     #ifdef CYBLE_IAS_SERVER
1363:Generated_Source\PSoC4/BLE_eventHandler.c ****         CyBle_IassDisconnectEventHandler();
1364:Generated_Source\PSoC4/BLE_eventHandler.c ****     #endif /* CYBLE_IAS_SERVER */
1365:Generated_Source\PSoC4/BLE_eventHandler.c ****     
1366:Generated_Source\PSoC4/BLE_eventHandler.c ****     #ifdef CYBLE_GLS_SERVER
1367:Generated_Source\PSoC4/BLE_eventHandler.c ****         CyBle_GlsInit();
1368:Generated_Source\PSoC4/BLE_eventHandler.c ****     #endif /* CYBLE_GLS_SERVER */
1369:Generated_Source\PSoC4/BLE_eventHandler.c ****     
1370:Generated_Source\PSoC4/BLE_eventHandler.c ****     #ifdef CYBLE_LNS_SERVER
1371:Generated_Source\PSoC4/BLE_eventHandler.c ****         CyBle_LnsInit();
1372:Generated_Source\PSoC4/BLE_eventHandler.c ****     #endif /* CYBLE_LNS_SERVER */
1373:Generated_Source\PSoC4/BLE_eventHandler.c ****     
1374:Generated_Source\PSoC4/BLE_eventHandler.c ****     #ifdef CYBLE_UDS_SERVER
1375:Generated_Source\PSoC4/BLE_eventHandler.c ****         CyBle_UdsInit();
1376:Generated_Source\PSoC4/BLE_eventHandler.c ****     #endif /* CYBLE_UDS_SERVER */
1377:Generated_Source\PSoC4/BLE_eventHandler.c **** }
 259              		.loc 1 1377 0
 260 0010 C046     		nop
 261 0012 BD46     		mov	sp, r7
 262              		@ sp needed
 263 0014 80BD     		pop	{r7, pc}
 264              	.L16:
 265 0016 C046     		.align	2
 266              	.L15:
 267 0018 00000000 		.word	cyBle_connHandle
 268              		.cfi_endproc
 269              	.LFE4:
 270              		.size	CyBle_GattDisconnectEventHandler, .-CyBle_GattDisconnectEventHandler
 271              		.section	.text.CyBle_TimeOutEventHandler,"ax",%progbits
 272              		.align	2
 273              		.code	16
 274              		.thumb_func
 275              		.type	CyBle_TimeOutEventHandler, %function
ARM GAS  C:\Users\diego\AppData\Local\Temp\ccaLbWCT.s 			page 30


 276              	CyBle_TimeOutEventHandler:
 277              	.LFB5:
1378:Generated_Source\PSoC4/BLE_eventHandler.c **** 
1379:Generated_Source\PSoC4/BLE_eventHandler.c **** 
1380:Generated_Source\PSoC4/BLE_eventHandler.c **** /****************************************************************************** 
1381:Generated_Source\PSoC4/BLE_eventHandler.c **** * Function Name: CyBle_TimeOutEventHandler
1382:Generated_Source\PSoC4/BLE_eventHandler.c **** ***************************************************************************//**
1383:Generated_Source\PSoC4/BLE_eventHandler.c **** * 
1384:Generated_Source\PSoC4/BLE_eventHandler.c **** *  Handles the CYBLE_EVT_TIMEOUT event from the BLE stack.
1385:Generated_Source\PSoC4/BLE_eventHandler.c **** * 
1386:Generated_Source\PSoC4/BLE_eventHandler.c **** *  \param eventParam: The pointer to a structure of type CYBLE_TO_REASON_CODE_T.
1387:Generated_Source\PSoC4/BLE_eventHandler.c **** * 
1388:Generated_Source\PSoC4/BLE_eventHandler.c **** * \return
1389:Generated_Source\PSoC4/BLE_eventHandler.c **** *  None
1390:Generated_Source\PSoC4/BLE_eventHandler.c **** * 
1391:Generated_Source\PSoC4/BLE_eventHandler.c **** ******************************************************************************/
1392:Generated_Source\PSoC4/BLE_eventHandler.c **** static void CyBle_TimeOutEventHandler(const CYBLE_TO_REASON_CODE_T *eventParam)
1393:Generated_Source\PSoC4/BLE_eventHandler.c **** {
 278              		.loc 1 1393 0
 279              		.cfi_startproc
 280              		@ args = 0, pretend = 0, frame = 8
 281              		@ frame_needed = 1, uses_anonymous_args = 0
 282 0000 80B5     		push	{r7, lr}
 283              		.cfi_def_cfa_offset 8
 284              		.cfi_offset 7, -8
 285              		.cfi_offset 14, -4
 286 0002 82B0     		sub	sp, sp, #8
 287              		.cfi_def_cfa_offset 16
 288 0004 00AF     		add	r7, sp, #0
 289              		.cfi_def_cfa_register 7
 290 0006 7860     		str	r0, [r7, #4]
1394:Generated_Source\PSoC4/BLE_eventHandler.c ****     if(*eventParam == CYBLE_GATT_RSP_TO)
1395:Generated_Source\PSoC4/BLE_eventHandler.c ****     {
1396:Generated_Source\PSoC4/BLE_eventHandler.c ****     #if (CYBLE_GATT_ROLE_CLIENT)
1397:Generated_Source\PSoC4/BLE_eventHandler.c ****         if((cyBle_eventHandlerFlag & CYBLE_AUTO_DISCOVERY) != 0u)
1398:Generated_Source\PSoC4/BLE_eventHandler.c ****         {
1399:Generated_Source\PSoC4/BLE_eventHandler.c ****             switch(CyBle_GetClientState())
1400:Generated_Source\PSoC4/BLE_eventHandler.c ****             {
1401:Generated_Source\PSoC4/BLE_eventHandler.c ****                 case CYBLE_CLIENT_STATE_SRVC_DISCOVERING:
1402:Generated_Source\PSoC4/BLE_eventHandler.c ****                     CyBle_ApplCallback(CYBLE_EVT_GATTC_SRVC_DISCOVERY_FAILED, NULL);
1403:Generated_Source\PSoC4/BLE_eventHandler.c ****                     break;
1404:Generated_Source\PSoC4/BLE_eventHandler.c ****                 case CYBLE_CLIENT_STATE_INCL_DISCOVERING:
1405:Generated_Source\PSoC4/BLE_eventHandler.c ****                     CyBle_ApplCallback(CYBLE_EVT_GATTC_INCL_DISCOVERY_FAILED, NULL);
1406:Generated_Source\PSoC4/BLE_eventHandler.c ****                     break;
1407:Generated_Source\PSoC4/BLE_eventHandler.c ****                 case CYBLE_CLIENT_STATE_CHAR_DISCOVERING:
1408:Generated_Source\PSoC4/BLE_eventHandler.c ****                     CyBle_ApplCallback(CYBLE_EVT_GATTC_CHAR_DISCOVERY_FAILED, NULL);
1409:Generated_Source\PSoC4/BLE_eventHandler.c ****                     break;
1410:Generated_Source\PSoC4/BLE_eventHandler.c ****                 case CYBLE_CLIENT_STATE_DESCR_DISCOVERING:
1411:Generated_Source\PSoC4/BLE_eventHandler.c ****                     CyBle_ApplCallback(CYBLE_EVT_GATTC_DESCR_DISCOVERY_FAILED, NULL);
1412:Generated_Source\PSoC4/BLE_eventHandler.c ****                     break;
1413:Generated_Source\PSoC4/BLE_eventHandler.c ****                 default:        /* Other states should not be set in Auto discovery mode */
1414:Generated_Source\PSoC4/BLE_eventHandler.c ****                     break;
1415:Generated_Source\PSoC4/BLE_eventHandler.c ****             }
1416:Generated_Source\PSoC4/BLE_eventHandler.c ****             cyBle_eventHandlerFlag &= (uint8)~CYBLE_AUTO_DISCOVERY;
1417:Generated_Source\PSoC4/BLE_eventHandler.c ****             CyBle_SetClientState(CYBLE_CLIENT_STATE_CONNECTED);
1418:Generated_Source\PSoC4/BLE_eventHandler.c ****         }
1419:Generated_Source\PSoC4/BLE_eventHandler.c ****     #endif /* CYBLE_GATT_ROLE_CLIENT */
ARM GAS  C:\Users\diego\AppData\Local\Temp\ccaLbWCT.s 			page 31


1420:Generated_Source\PSoC4/BLE_eventHandler.c ****     #ifdef CYBLE_CPS_SERVER
1421:Generated_Source\PSoC4/BLE_eventHandler.c ****         CyBle_CpssTimeOutEventHandler();
1422:Generated_Source\PSoC4/BLE_eventHandler.c ****     #endif /* CYBLE_CPS_SERVER */
1423:Generated_Source\PSoC4/BLE_eventHandler.c ****     }
1424:Generated_Source\PSoC4/BLE_eventHandler.c ****     
1425:Generated_Source\PSoC4/BLE_eventHandler.c ****     /* Connection procedure timeout */
1426:Generated_Source\PSoC4/BLE_eventHandler.c ****     if(*eventParam == CYBLE_GENERIC_TO)
1427:Generated_Source\PSoC4/BLE_eventHandler.c ****     {
1428:Generated_Source\PSoC4/BLE_eventHandler.c ****     #if(CYBLE_GAP_ROLE_CENTRAL)
1429:Generated_Source\PSoC4/BLE_eventHandler.c ****         if(CyBle_GetState() == CYBLE_STATE_CONNECTING)
1430:Generated_Source\PSoC4/BLE_eventHandler.c ****         {
1431:Generated_Source\PSoC4/BLE_eventHandler.c ****             (void)CyBle_GapcCancelDeviceConnection();
1432:Generated_Source\PSoC4/BLE_eventHandler.c ****         }
1433:Generated_Source\PSoC4/BLE_eventHandler.c ****     #endif /* CYBLE_GAP_ROLE_CENTRAL */
1434:Generated_Source\PSoC4/BLE_eventHandler.c ****     }
1435:Generated_Source\PSoC4/BLE_eventHandler.c **** }
 291              		.loc 1 1435 0
 292 0008 C046     		nop
 293 000a BD46     		mov	sp, r7
 294 000c 02B0     		add	sp, sp, #8
 295              		@ sp needed
 296 000e 80BD     		pop	{r7, pc}
 297              		.cfi_endproc
 298              	.LFE5:
 299              		.size	CyBle_TimeOutEventHandler, .-CyBle_TimeOutEventHandler
 300              		.section	.text.CyBle_GattConnectReqHandler,"ax",%progbits
 301              		.align	2
 302              		.code	16
 303              		.thumb_func
 304              		.type	CyBle_GattConnectReqHandler, %function
 305              	CyBle_GattConnectReqHandler:
 306              	.LFB6:
1436:Generated_Source\PSoC4/BLE_eventHandler.c **** 
1437:Generated_Source\PSoC4/BLE_eventHandler.c **** 
1438:Generated_Source\PSoC4/BLE_eventHandler.c **** /****************************************************************************** 
1439:Generated_Source\PSoC4/BLE_eventHandler.c **** * Function Name: CyBle_GattConnectReqHandler
1440:Generated_Source\PSoC4/BLE_eventHandler.c **** ***************************************************************************//**
1441:Generated_Source\PSoC4/BLE_eventHandler.c **** * 
1442:Generated_Source\PSoC4/BLE_eventHandler.c **** *  Handles the GATT connect event from the BLE stack.
1443:Generated_Source\PSoC4/BLE_eventHandler.c **** * 
1444:Generated_Source\PSoC4/BLE_eventHandler.c **** * \return
1445:Generated_Source\PSoC4/BLE_eventHandler.c **** *  None
1446:Generated_Source\PSoC4/BLE_eventHandler.c **** * 
1447:Generated_Source\PSoC4/BLE_eventHandler.c **** ******************************************************************************/
1448:Generated_Source\PSoC4/BLE_eventHandler.c **** static void CyBle_GattConnectReqHandler(void)
1449:Generated_Source\PSoC4/BLE_eventHandler.c **** {
 307              		.loc 1 1449 0
 308              		.cfi_startproc
 309              		@ args = 0, pretend = 0, frame = 0
 310              		@ frame_needed = 1, uses_anonymous_args = 0
 311 0000 80B5     		push	{r7, lr}
 312              		.cfi_def_cfa_offset 8
 313              		.cfi_offset 7, -8
 314              		.cfi_offset 14, -4
 315 0002 00AF     		add	r7, sp, #0
 316              		.cfi_def_cfa_register 7
1450:Generated_Source\PSoC4/BLE_eventHandler.c ****     #ifdef CYBLE_CGMS_SERVER
ARM GAS  C:\Users\diego\AppData\Local\Temp\ccaLbWCT.s 			page 32


1451:Generated_Source\PSoC4/BLE_eventHandler.c ****         CyBle_CgmsInit();
1452:Generated_Source\PSoC4/BLE_eventHandler.c ****     #endif /* CYBLE_CGMS_SERVER */
1453:Generated_Source\PSoC4/BLE_eventHandler.c ****     
1454:Generated_Source\PSoC4/BLE_eventHandler.c ****     #ifdef CYBLE_CPS_SERVER
1455:Generated_Source\PSoC4/BLE_eventHandler.c ****         CyBle_CpssConnectEventHandler();
1456:Generated_Source\PSoC4/BLE_eventHandler.c ****     #endif /* CYBLE_CPS_SERVER */
1457:Generated_Source\PSoC4/BLE_eventHandler.c ****     
1458:Generated_Source\PSoC4/BLE_eventHandler.c ****     #ifdef CYBLE_CSCS_SERVER
1459:Generated_Source\PSoC4/BLE_eventHandler.c ****             CyBle_CscsInit();
1460:Generated_Source\PSoC4/BLE_eventHandler.c ****     #endif /* CYBLE_CSCS_SERVER */
1461:Generated_Source\PSoC4/BLE_eventHandler.c ****     
1462:Generated_Source\PSoC4/BLE_eventHandler.c ****     #ifdef CYBLE_LLS_SERVER
1463:Generated_Source\PSoC4/BLE_eventHandler.c ****         CyBle_LlssConnectEventHandler();
1464:Generated_Source\PSoC4/BLE_eventHandler.c ****     #endif /* CYBLE_LLS_SERVER */
1465:Generated_Source\PSoC4/BLE_eventHandler.c ****     
1466:Generated_Source\PSoC4/BLE_eventHandler.c ****     #ifdef CYBLE_HIDS_SERVER
1467:Generated_Source\PSoC4/BLE_eventHandler.c ****         CyBle_HidssOnDeviceConnected();
1468:Generated_Source\PSoC4/BLE_eventHandler.c ****     #endif /* CYBLE_HIDS_SERVER */
1469:Generated_Source\PSoC4/BLE_eventHandler.c **** 
1470:Generated_Source\PSoC4/BLE_eventHandler.c ****     #ifdef CYBLE_RSCS_SERVER
1471:Generated_Source\PSoC4/BLE_eventHandler.c ****         CyBle_RscsInit();
1472:Generated_Source\PSoC4/BLE_eventHandler.c ****     #endif /* CYBLE_RSCS_SERVER */
1473:Generated_Source\PSoC4/BLE_eventHandler.c **** }
 317              		.loc 1 1473 0
 318 0004 C046     		nop
 319 0006 BD46     		mov	sp, r7
 320              		@ sp needed
 321 0008 80BD     		pop	{r7, pc}
 322              		.cfi_endproc
 323              	.LFE6:
 324              		.size	CyBle_GattConnectReqHandler, .-CyBle_GattConnectReqHandler
 325 000a C046     		.section	.text.CyBle_IsDeviceAddressValid,"ax",%progbits
 326              		.align	2
 327              		.global	CyBle_IsDeviceAddressValid
 328              		.code	16
 329              		.thumb_func
 330              		.type	CyBle_IsDeviceAddressValid, %function
 331              	CyBle_IsDeviceAddressValid:
 332              	.LFB7:
1474:Generated_Source\PSoC4/BLE_eventHandler.c **** 
1475:Generated_Source\PSoC4/BLE_eventHandler.c **** 
1476:Generated_Source\PSoC4/BLE_eventHandler.c **** #if (CYBLE_GATT_ROLE_SERVER || CYBLE_GATT_ROLE_CLIENT)
1477:Generated_Source\PSoC4/BLE_eventHandler.c **** 
1478:Generated_Source\PSoC4/BLE_eventHandler.c **** /****************************************************************************** 
1479:Generated_Source\PSoC4/BLE_eventHandler.c **** * Function Name: CyBle_IsDeviceAddressValid
1480:Generated_Source\PSoC4/BLE_eventHandler.c **** ***************************************************************************//**
1481:Generated_Source\PSoC4/BLE_eventHandler.c **** * 
1482:Generated_Source\PSoC4/BLE_eventHandler.c **** *  This function verifies that BLE public address has been programmed to SFLASH 
1483:Generated_Source\PSoC4/BLE_eventHandler.c **** *  during manufacture. It could be used to verify if public device address is 
1484:Generated_Source\PSoC4/BLE_eventHandler.c **** *  programmed to flash memory.
1485:Generated_Source\PSoC4/BLE_eventHandler.c **** * 
1486:Generated_Source\PSoC4/BLE_eventHandler.c **** *  \param deviceAddress: the pointer to the BD address of type CYBLE_GAP_BD_ADDR_T. 
1487:Generated_Source\PSoC4/BLE_eventHandler.c **** * 
1488:Generated_Source\PSoC4/BLE_eventHandler.c **** * \return
1489:Generated_Source\PSoC4/BLE_eventHandler.c **** *  Non zero value when a device address differs from the default SFLASH content.
1490:Generated_Source\PSoC4/BLE_eventHandler.c **** * 
1491:Generated_Source\PSoC4/BLE_eventHandler.c **** ******************************************************************************/
ARM GAS  C:\Users\diego\AppData\Local\Temp\ccaLbWCT.s 			page 33


1492:Generated_Source\PSoC4/BLE_eventHandler.c **** uint8 CyBle_IsDeviceAddressValid(const CYBLE_GAP_BD_ADDR_T *deviceAddress)
1493:Generated_Source\PSoC4/BLE_eventHandler.c **** {
 333              		.loc 1 1493 0
 334              		.cfi_startproc
 335              		@ args = 0, pretend = 0, frame = 16
 336              		@ frame_needed = 1, uses_anonymous_args = 0
 337 0000 80B5     		push	{r7, lr}
 338              		.cfi_def_cfa_offset 8
 339              		.cfi_offset 7, -8
 340              		.cfi_offset 14, -4
 341 0002 84B0     		sub	sp, sp, #16
 342              		.cfi_def_cfa_offset 24
 343 0004 00AF     		add	r7, sp, #0
 344              		.cfi_def_cfa_register 7
 345 0006 7860     		str	r0, [r7, #4]
1494:Generated_Source\PSoC4/BLE_eventHandler.c ****     uint8 i;
1495:Generated_Source\PSoC4/BLE_eventHandler.c ****     uint8 addressValid = 0u;
 346              		.loc 1 1495 0
 347 0008 0E23     		movs	r3, #14
 348 000a FB18     		adds	r3, r7, r3
 349 000c 0022     		movs	r2, #0
 350 000e 1A70     		strb	r2, [r3]
1496:Generated_Source\PSoC4/BLE_eventHandler.c ****     
1497:Generated_Source\PSoC4/BLE_eventHandler.c ****     if(deviceAddress -> type == CYBLE_GAP_ADDR_TYPE_PUBLIC)  
 351              		.loc 1 1497 0
 352 0010 7B68     		ldr	r3, [r7, #4]
 353 0012 9B79     		ldrb	r3, [r3, #6]
 354 0014 002B     		cmp	r3, #0
 355 0016 1CD1     		bne	.L20
1498:Generated_Source\PSoC4/BLE_eventHandler.c ****     {
1499:Generated_Source\PSoC4/BLE_eventHandler.c ****         for(i = 0u; i < CYBLE_GAP_BD_ADDR_SIZE; i++)
 356              		.loc 1 1499 0
 357 0018 0F23     		movs	r3, #15
 358 001a FB18     		adds	r3, r7, r3
 359 001c 0022     		movs	r2, #0
 360 001e 1A70     		strb	r2, [r3]
 361 0020 12E0     		b	.L21
 362              	.L23:
1500:Generated_Source\PSoC4/BLE_eventHandler.c ****         {
1501:Generated_Source\PSoC4/BLE_eventHandler.c ****             if(deviceAddress->bdAddr[i] != 0u)
 363              		.loc 1 1501 0
 364 0022 0F23     		movs	r3, #15
 365 0024 FB18     		adds	r3, r7, r3
 366 0026 1B78     		ldrb	r3, [r3]
 367 0028 7A68     		ldr	r2, [r7, #4]
 368 002a D35C     		ldrb	r3, [r2, r3]
 369 002c 002B     		cmp	r3, #0
 370 002e 04D0     		beq	.L22
1502:Generated_Source\PSoC4/BLE_eventHandler.c ****             {
1503:Generated_Source\PSoC4/BLE_eventHandler.c ****                 addressValid = 1u;
 371              		.loc 1 1503 0
 372 0030 0E23     		movs	r3, #14
 373 0032 FB18     		adds	r3, r7, r3
 374 0034 0122     		movs	r2, #1
 375 0036 1A70     		strb	r2, [r3]
1504:Generated_Source\PSoC4/BLE_eventHandler.c ****                 break;
 376              		.loc 1 1504 0
ARM GAS  C:\Users\diego\AppData\Local\Temp\ccaLbWCT.s 			page 34


 377 0038 0BE0     		b	.L20
 378              	.L22:
1499:Generated_Source\PSoC4/BLE_eventHandler.c ****         {
 379              		.loc 1 1499 0 discriminator 2
 380 003a 0F23     		movs	r3, #15
 381 003c FB18     		adds	r3, r7, r3
 382 003e 1A78     		ldrb	r2, [r3]
 383 0040 0F23     		movs	r3, #15
 384 0042 FB18     		adds	r3, r7, r3
 385 0044 0132     		adds	r2, r2, #1
 386 0046 1A70     		strb	r2, [r3]
 387              	.L21:
1499:Generated_Source\PSoC4/BLE_eventHandler.c ****         {
 388              		.loc 1 1499 0 is_stmt 0 discriminator 1
 389 0048 0F23     		movs	r3, #15
 390 004a FB18     		adds	r3, r7, r3
 391 004c 1B78     		ldrb	r3, [r3]
 392 004e 052B     		cmp	r3, #5
 393 0050 E7D9     		bls	.L23
 394              	.L20:
1505:Generated_Source\PSoC4/BLE_eventHandler.c ****             }
1506:Generated_Source\PSoC4/BLE_eventHandler.c ****         }
1507:Generated_Source\PSoC4/BLE_eventHandler.c ****     }
1508:Generated_Source\PSoC4/BLE_eventHandler.c ****     return (addressValid);
 395              		.loc 1 1508 0 is_stmt 1
 396 0052 0E23     		movs	r3, #14
 397 0054 FB18     		adds	r3, r7, r3
 398 0056 1B78     		ldrb	r3, [r3]
1509:Generated_Source\PSoC4/BLE_eventHandler.c **** }
 399              		.loc 1 1509 0
 400 0058 1800     		movs	r0, r3
 401 005a BD46     		mov	sp, r7
 402 005c 04B0     		add	sp, sp, #16
 403              		@ sp needed
 404 005e 80BD     		pop	{r7, pc}
 405              		.cfi_endproc
 406              	.LFE7:
 407              		.size	CyBle_IsDeviceAddressValid, .-CyBle_IsDeviceAddressValid
 408              		.section	.text.CyBle_L2Cap_ConnParamUpdateRspEventHandler,"ax",%progbits
 409              		.align	2
 410              		.code	16
 411              		.thumb_func
 412              		.type	CyBle_L2Cap_ConnParamUpdateRspEventHandler, %function
 413              	CyBle_L2Cap_ConnParamUpdateRspEventHandler:
 414              	.LFB8:
1510:Generated_Source\PSoC4/BLE_eventHandler.c **** #endif /* CYBLE_GATT_ROLE_SERVER || CYBLE_GATT_ROLE_CLIENT */
1511:Generated_Source\PSoC4/BLE_eventHandler.c **** 
1512:Generated_Source\PSoC4/BLE_eventHandler.c **** 
1513:Generated_Source\PSoC4/BLE_eventHandler.c **** /****************************************************************************** 
1514:Generated_Source\PSoC4/BLE_eventHandler.c **** * Function Name: CyBle_L2Cap_ConnParamUpdateRspHandler
1515:Generated_Source\PSoC4/BLE_eventHandler.c **** ***************************************************************************//**
1516:Generated_Source\PSoC4/BLE_eventHandler.c **** * 
1517:Generated_Source\PSoC4/BLE_eventHandler.c **** *  Handles the L2CAP connection parameter response event from
1518:Generated_Source\PSoC4/BLE_eventHandler.c **** *  the BLE stack.
1519:Generated_Source\PSoC4/BLE_eventHandler.c **** * 
1520:Generated_Source\PSoC4/BLE_eventHandler.c **** *  \param response:
1521:Generated_Source\PSoC4/BLE_eventHandler.c **** *      * Accepted = 0x0000
ARM GAS  C:\Users\diego\AppData\Local\Temp\ccaLbWCT.s 			page 35


1522:Generated_Source\PSoC4/BLE_eventHandler.c **** *      * Rejected = 0x0001
1523:Generated_Source\PSoC4/BLE_eventHandler.c **** * 
1524:Generated_Source\PSoC4/BLE_eventHandler.c **** * \return
1525:Generated_Source\PSoC4/BLE_eventHandler.c **** *  None
1526:Generated_Source\PSoC4/BLE_eventHandler.c **** * 
1527:Generated_Source\PSoC4/BLE_eventHandler.c **** ******************************************************************************/
1528:Generated_Source\PSoC4/BLE_eventHandler.c **** static void CyBle_L2Cap_ConnParamUpdateRspEventHandler(uint16 response)
1529:Generated_Source\PSoC4/BLE_eventHandler.c **** {
 415              		.loc 1 1529 0
 416              		.cfi_startproc
 417              		@ args = 0, pretend = 0, frame = 8
 418              		@ frame_needed = 1, uses_anonymous_args = 0
 419 0000 80B5     		push	{r7, lr}
 420              		.cfi_def_cfa_offset 8
 421              		.cfi_offset 7, -8
 422              		.cfi_offset 14, -4
 423 0002 82B0     		sub	sp, sp, #8
 424              		.cfi_def_cfa_offset 16
 425 0004 00AF     		add	r7, sp, #0
 426              		.cfi_def_cfa_register 7
 427 0006 0200     		movs	r2, r0
 428 0008 BB1D     		adds	r3, r7, #6
 429 000a 1A80     		strh	r2, [r3]
1530:Generated_Source\PSoC4/BLE_eventHandler.c ****     #ifdef CYBLE_CPS_SERVER
1531:Generated_Source\PSoC4/BLE_eventHandler.c ****         CyBle_CpssConnParamUpdateRspEventHandler(response);
1532:Generated_Source\PSoC4/BLE_eventHandler.c ****     #endif /* CYBLE_CPS_SERVER */
1533:Generated_Source\PSoC4/BLE_eventHandler.c ****     
1534:Generated_Source\PSoC4/BLE_eventHandler.c ****     /* Unreferenced variable warning workaround */
1535:Generated_Source\PSoC4/BLE_eventHandler.c ****     if(response != 0u)
1536:Generated_Source\PSoC4/BLE_eventHandler.c ****     {
1537:Generated_Source\PSoC4/BLE_eventHandler.c ****     }
1538:Generated_Source\PSoC4/BLE_eventHandler.c **** }
 430              		.loc 1 1538 0
 431 000c C046     		nop
 432 000e BD46     		mov	sp, r7
 433 0010 02B0     		add	sp, sp, #8
 434              		@ sp needed
 435 0012 80BD     		pop	{r7, pc}
 436              		.cfi_endproc
 437              	.LFE8:
 438              		.size	CyBle_L2Cap_ConnParamUpdateRspEventHandler, .-CyBle_L2Cap_ConnParamUpdateRspEventHandler
 439              		.section	.text.CyBle_GapConnUpdateCompleteEventHandler,"ax",%progbits
 440              		.align	2
 441              		.code	16
 442              		.thumb_func
 443              		.type	CyBle_GapConnUpdateCompleteEventHandler, %function
 444              	CyBle_GapConnUpdateCompleteEventHandler:
 445              	.LFB9:
1539:Generated_Source\PSoC4/BLE_eventHandler.c **** 
1540:Generated_Source\PSoC4/BLE_eventHandler.c **** 
1541:Generated_Source\PSoC4/BLE_eventHandler.c **** /****************************************************************************** 
1542:Generated_Source\PSoC4/BLE_eventHandler.c **** * Function Name: CyBle_GapConnUpdateCompleteEventHandler
1543:Generated_Source\PSoC4/BLE_eventHandler.c **** ***************************************************************************//**
1544:Generated_Source\PSoC4/BLE_eventHandler.c **** * 
1545:Generated_Source\PSoC4/BLE_eventHandler.c **** *  Handles the CYBLE_EVT_GAP_CONNECTION_UPDATE_COMPLETE event from
1546:Generated_Source\PSoC4/BLE_eventHandler.c **** *  the BLE stack.
1547:Generated_Source\PSoC4/BLE_eventHandler.c **** * 
ARM GAS  C:\Users\diego\AppData\Local\Temp\ccaLbWCT.s 			page 36


1548:Generated_Source\PSoC4/BLE_eventHandler.c **** *  \param eventParam: The pointer to the data structure specified by the event.
1549:Generated_Source\PSoC4/BLE_eventHandler.c **** * 
1550:Generated_Source\PSoC4/BLE_eventHandler.c **** * \return
1551:Generated_Source\PSoC4/BLE_eventHandler.c **** *  None
1552:Generated_Source\PSoC4/BLE_eventHandler.c **** * 
1553:Generated_Source\PSoC4/BLE_eventHandler.c **** ******************************************************************************/
1554:Generated_Source\PSoC4/BLE_eventHandler.c **** static void CyBle_GapConnUpdateCompleteEventHandler(const CYBLE_GAP_CONN_PARAM_UPDATED_IN_CONTROLLE
1555:Generated_Source\PSoC4/BLE_eventHandler.c **** {
 446              		.loc 1 1555 0
 447              		.cfi_startproc
 448              		@ args = 0, pretend = 0, frame = 8
 449              		@ frame_needed = 1, uses_anonymous_args = 0
 450 0000 80B5     		push	{r7, lr}
 451              		.cfi_def_cfa_offset 8
 452              		.cfi_offset 7, -8
 453              		.cfi_offset 14, -4
 454 0002 82B0     		sub	sp, sp, #8
 455              		.cfi_def_cfa_offset 16
 456 0004 00AF     		add	r7, sp, #0
 457              		.cfi_def_cfa_register 7
 458 0006 7860     		str	r0, [r7, #4]
1556:Generated_Source\PSoC4/BLE_eventHandler.c ****     #ifdef CYBLE_CPS_SERVER
1557:Generated_Source\PSoC4/BLE_eventHandler.c ****         CyBle_CpssConnUpdateCompleteEventHandler(eventParam);
1558:Generated_Source\PSoC4/BLE_eventHandler.c ****     #endif /* CYBLE_CPS_SERVER */
1559:Generated_Source\PSoC4/BLE_eventHandler.c ****     
1560:Generated_Source\PSoC4/BLE_eventHandler.c ****     /* Unreferenced variable warning workaround */
1561:Generated_Source\PSoC4/BLE_eventHandler.c ****     if(eventParam != 0u)
1562:Generated_Source\PSoC4/BLE_eventHandler.c ****     {
1563:Generated_Source\PSoC4/BLE_eventHandler.c ****     }
1564:Generated_Source\PSoC4/BLE_eventHandler.c **** }
 459              		.loc 1 1564 0
 460 0008 C046     		nop
 461 000a BD46     		mov	sp, r7
 462 000c 02B0     		add	sp, sp, #8
 463              		@ sp needed
 464 000e 80BD     		pop	{r7, pc}
 465              		.cfi_endproc
 466              	.LFE9:
 467              		.size	CyBle_GapConnUpdateCompleteEventHandler, .-CyBle_GapConnUpdateCompleteEventHandler
 468              		.section	.text.CyBle_EventHandler,"ax",%progbits
 469              		.align	2
 470              		.global	CyBle_EventHandler
 471              		.code	16
 472              		.thumb_func
 473              		.type	CyBle_EventHandler, %function
 474              	CyBle_EventHandler:
 475              	.LFB10:
1565:Generated_Source\PSoC4/BLE_eventHandler.c **** 
1566:Generated_Source\PSoC4/BLE_eventHandler.c **** 
1567:Generated_Source\PSoC4/BLE_eventHandler.c **** /****************************************************************************** 
1568:Generated_Source\PSoC4/BLE_eventHandler.c **** * Function Name: CyBle_EventHandler
1569:Generated_Source\PSoC4/BLE_eventHandler.c **** ***************************************************************************//**
1570:Generated_Source\PSoC4/BLE_eventHandler.c **** * 
1571:Generated_Source\PSoC4/BLE_eventHandler.c **** *  Handles the events from the BLE stack
1572:Generated_Source\PSoC4/BLE_eventHandler.c **** * 
1573:Generated_Source\PSoC4/BLE_eventHandler.c **** *  \param eventCode:    the event code
1574:Generated_Source\PSoC4/BLE_eventHandler.c **** *  \param eventParam:  the event parameters
ARM GAS  C:\Users\diego\AppData\Local\Temp\ccaLbWCT.s 			page 37


1575:Generated_Source\PSoC4/BLE_eventHandler.c **** * 
1576:Generated_Source\PSoC4/BLE_eventHandler.c **** * \return
1577:Generated_Source\PSoC4/BLE_eventHandler.c **** *  None.
1578:Generated_Source\PSoC4/BLE_eventHandler.c **** * 
1579:Generated_Source\PSoC4/BLE_eventHandler.c **** ******************************************************************************/
1580:Generated_Source\PSoC4/BLE_eventHandler.c **** void CyBle_EventHandler(uint8 eventCode, void *eventParam)
1581:Generated_Source\PSoC4/BLE_eventHandler.c **** {
 476              		.loc 1 1581 0
 477              		.cfi_startproc
 478              		@ args = 0, pretend = 0, frame = 32
 479              		@ frame_needed = 1, uses_anonymous_args = 0
 480 0000 80B5     		push	{r7, lr}
 481              		.cfi_def_cfa_offset 8
 482              		.cfi_offset 7, -8
 483              		.cfi_offset 14, -4
 484 0002 88B0     		sub	sp, sp, #32
 485              		.cfi_def_cfa_offset 40
 486 0004 00AF     		add	r7, sp, #0
 487              		.cfi_def_cfa_register 7
 488 0006 0200     		movs	r2, r0
 489 0008 3960     		str	r1, [r7]
 490 000a FB1D     		adds	r3, r7, #7
 491 000c 1A70     		strb	r2, [r3]
1582:Generated_Source\PSoC4/BLE_eventHandler.c ****     cyBle_eventHandlerFlag |= CYBLE_CALLBACK;
 492              		.loc 1 1582 0
 493 000e BE4B     		ldr	r3, .L70
 494 0010 1B78     		ldrb	r3, [r3]
 495 0012 DBB2     		uxtb	r3, r3
 496 0014 0122     		movs	r2, #1
 497 0016 1343     		orrs	r3, r2
 498 0018 DAB2     		uxtb	r2, r3
 499 001a BB4B     		ldr	r3, .L70
 500 001c 1A70     		strb	r2, [r3]
1583:Generated_Source\PSoC4/BLE_eventHandler.c **** 
1584:Generated_Source\PSoC4/BLE_eventHandler.c ****     /* Common Profile event handling */
1585:Generated_Source\PSoC4/BLE_eventHandler.c ****     switch(eventCode)
 501              		.loc 1 1585 0
 502 001e FB1D     		adds	r3, r7, #7
 503 0020 1B78     		ldrb	r3, [r3]
 504 0022 712B     		cmp	r3, #113
 505 0024 00D9     		bls	.LCB397
 506 0026 4EE1     		b	.L65	@long jump
 507              	.LCB397:
 508 0028 9A00     		lsls	r2, r3, #2
 509 002a B84B     		ldr	r3, .L70+4
 510 002c D318     		adds	r3, r2, r3
 511 002e 1B68     		ldr	r3, [r3]
 512 0030 9F46     		mov	pc, r3
 513              		.section	.rodata
 514              		.align	2
 515              	.L30:
 516 000c C6020000 		.word	.L65
 517 0010 32000000 		.word	.L29
 518 0014 E6000000 		.word	.L31
 519 0018 C6020000 		.word	.L65
 520 001c C6020000 		.word	.L65
 521 0020 F0000000 		.word	.L32
ARM GAS  C:\Users\diego\AppData\Local\Temp\ccaLbWCT.s 			page 38


 522 0024 FA000000 		.word	.L33
 523 0028 C6020000 		.word	.L65
 524 002c C6020000 		.word	.L65
 525 0030 C6020000 		.word	.L65
 526 0034 C6020000 		.word	.L65
 527 0038 C6020000 		.word	.L65
 528 003c C6020000 		.word	.L65
 529 0040 C6020000 		.word	.L65
 530 0044 C6020000 		.word	.L65
 531 0048 C6020000 		.word	.L65
 532 004c C6020000 		.word	.L65
 533 0050 C6020000 		.word	.L65
 534 0054 C6020000 		.word	.L65
 535 0058 C6020000 		.word	.L65
 536 005c C6020000 		.word	.L65
 537 0060 C6020000 		.word	.L65
 538 0064 C6020000 		.word	.L65
 539 0068 C6020000 		.word	.L65
 540 006c C6020000 		.word	.L65
 541 0070 C6020000 		.word	.L65
 542 0074 C6020000 		.word	.L65
 543 0078 C6020000 		.word	.L65
 544 007c C6020000 		.word	.L65
 545 0080 C6020000 		.word	.L65
 546 0084 C6020000 		.word	.L65
 547 0088 C6020000 		.word	.L65
 548 008c C6020000 		.word	.L65
 549 0090 3A010000 		.word	.L34
 550 0094 C6020000 		.word	.L65
 551 0098 C6020000 		.word	.L65
 552 009c C6020000 		.word	.L65
 553 00a0 C6020000 		.word	.L65
 554 00a4 BC010000 		.word	.L36
 555 00a8 A4010000 		.word	.L37
 556 00ac B4010000 		.word	.L38
 557 00b0 C6020000 		.word	.L65
 558 00b4 9A010000 		.word	.L39
 559 00b8 C6020000 		.word	.L65
 560 00bc C6020000 		.word	.L65
 561 00c0 C6020000 		.word	.L65
 562 00c4 C6020000 		.word	.L65
 563 00c8 C6020000 		.word	.L65
 564 00cc C6020000 		.word	.L65
 565 00d0 C6020000 		.word	.L65
 566 00d4 C6020000 		.word	.L65
 567 00d8 C6020000 		.word	.L65
 568 00dc C6020000 		.word	.L65
 569 00e0 C6020000 		.word	.L65
 570 00e4 C6020000 		.word	.L65
 571 00e8 C6020000 		.word	.L65
 572 00ec C6020000 		.word	.L65
 573 00f0 C6020000 		.word	.L65
 574 00f4 C6020000 		.word	.L65
 575 00f8 C6020000 		.word	.L65
 576 00fc C6020000 		.word	.L65
 577 0100 C6020000 		.word	.L65
 578 0104 C6020000 		.word	.L65
ARM GAS  C:\Users\diego\AppData\Local\Temp\ccaLbWCT.s 			page 39


 579 0108 C6020000 		.word	.L65
 580 010c C6020000 		.word	.L65
 581 0110 56020000 		.word	.L40
 582 0114 72020000 		.word	.L41
 583 0118 78020000 		.word	.L42
 584 011c C6020000 		.word	.L65
 585 0120 C6020000 		.word	.L65
 586 0124 C6020000 		.word	.L65
 587 0128 C6020000 		.word	.L65
 588 012c C6020000 		.word	.L65
 589 0130 C6020000 		.word	.L65
 590 0134 C6020000 		.word	.L65
 591 0138 C6020000 		.word	.L65
 592 013c B2020000 		.word	.L43
 593 0140 C6020000 		.word	.L65
 594 0144 C6020000 		.word	.L65
 595 0148 C6020000 		.word	.L65
 596 014c C6020000 		.word	.L65
 597 0150 C6020000 		.word	.L65
 598 0154 C6020000 		.word	.L65
 599 0158 C6020000 		.word	.L65
 600 015c BC020000 		.word	.L47
 601 0160 C6020000 		.word	.L65
 602 0164 C6020000 		.word	.L65
 603 0168 C6020000 		.word	.L65
 604 016c C6020000 		.word	.L65
 605 0170 C6020000 		.word	.L65
 606 0174 C6020000 		.word	.L65
 607 0178 C6020000 		.word	.L65
 608 017c C6020000 		.word	.L65
 609 0180 C6020000 		.word	.L65
 610 0184 C6020000 		.word	.L65
 611 0188 C6020000 		.word	.L65
 612 018c C6020000 		.word	.L65
 613 0190 C6020000 		.word	.L65
 614 0194 C6020000 		.word	.L65
 615 0198 C6020000 		.word	.L65
 616 019c C6020000 		.word	.L65
 617 01a0 C6020000 		.word	.L65
 618 01a4 C6020000 		.word	.L65
 619 01a8 C6020000 		.word	.L65
 620 01ac C6020000 		.word	.L65
 621 01b0 C6020000 		.word	.L65
 622 01b4 C6020000 		.word	.L65
 623 01b8 C6020000 		.word	.L65
 624 01bc C6020000 		.word	.L65
 625 01c0 C6020000 		.word	.L65
 626 01c4 C6020000 		.word	.L65
 627 01c8 C6020000 		.word	.L65
 628 01cc C6020000 		.word	.L65
 629 01d0 4A020000 		.word	.L49
 630              		.section	.text.CyBle_EventHandler
 631              	.L29:
 632              	.LBB3:
1586:Generated_Source\PSoC4/BLE_eventHandler.c ****     {
1587:Generated_Source\PSoC4/BLE_eventHandler.c ****         /**********************************************************
1588:Generated_Source\PSoC4/BLE_eventHandler.c ****         * General events
ARM GAS  C:\Users\diego\AppData\Local\Temp\ccaLbWCT.s 			page 40


1589:Generated_Source\PSoC4/BLE_eventHandler.c ****         ************************************************************/
1590:Generated_Source\PSoC4/BLE_eventHandler.c ****         case CYBLE_EVT_STACK_ON:
1591:Generated_Source\PSoC4/BLE_eventHandler.c ****         #if(CYBLE_MODE_PROFILE)
1592:Generated_Source\PSoC4/BLE_eventHandler.c ****         {
1593:Generated_Source\PSoC4/BLE_eventHandler.c ****             CYBLE_BLESS_PWR_IN_DB_T bleSsPowerLevel;
1594:Generated_Source\PSoC4/BLE_eventHandler.c ****             
1595:Generated_Source\PSoC4/BLE_eventHandler.c ****             /* Set Tx Power Level for advertising and connection channels */
1596:Generated_Source\PSoC4/BLE_eventHandler.c ****             bleSsPowerLevel.blePwrLevelInDbm = CYBLE_TX_POWER_LEVEL_ADV;
 633              		.loc 1 1596 0
 634 0032 1423     		movs	r3, #20
 635 0034 FB18     		adds	r3, r7, r3
 636 0036 0722     		movs	r2, #7
 637 0038 1A70     		strb	r2, [r3]
1597:Generated_Source\PSoC4/BLE_eventHandler.c ****             bleSsPowerLevel.bleSsChId = CYBLE_LL_ADV_CH_TYPE;
 638              		.loc 1 1597 0
 639 003a 1423     		movs	r3, #20
 640 003c FB18     		adds	r3, r7, r3
 641 003e 0022     		movs	r2, #0
 642 0040 5A70     		strb	r2, [r3, #1]
1598:Generated_Source\PSoC4/BLE_eventHandler.c ****             (void) CyBle_SetTxPowerLevel (&bleSsPowerLevel);
 643              		.loc 1 1598 0
 644 0042 1423     		movs	r3, #20
 645 0044 FB18     		adds	r3, r7, r3
 646 0046 1800     		movs	r0, r3
 647 0048 FFF7FEFF 		bl	CyBle_SetTxPowerLevel
1599:Generated_Source\PSoC4/BLE_eventHandler.c ****             bleSsPowerLevel.blePwrLevelInDbm = CYBLE_TX_POWER_LEVEL_CONN;
 648              		.loc 1 1599 0
 649 004c 1423     		movs	r3, #20
 650 004e FB18     		adds	r3, r7, r3
 651 0050 0722     		movs	r2, #7
 652 0052 1A70     		strb	r2, [r3]
1600:Generated_Source\PSoC4/BLE_eventHandler.c ****             bleSsPowerLevel.bleSsChId = CYBLE_LL_CONN_CH_TYPE;
 653              		.loc 1 1600 0
 654 0054 1423     		movs	r3, #20
 655 0056 FB18     		adds	r3, r7, r3
 656 0058 0122     		movs	r2, #1
 657 005a 5A70     		strb	r2, [r3, #1]
1601:Generated_Source\PSoC4/BLE_eventHandler.c ****             (void) CyBle_SetTxPowerLevel (&bleSsPowerLevel);
 658              		.loc 1 1601 0
 659 005c 1423     		movs	r3, #20
 660 005e FB18     		adds	r3, r7, r3
 661 0060 1800     		movs	r0, r3
 662 0062 FFF7FEFF 		bl	CyBle_SetTxPowerLevel
1602:Generated_Source\PSoC4/BLE_eventHandler.c ****             
1603:Generated_Source\PSoC4/BLE_eventHandler.c ****             #if (CYBLE_GATT_ROLE_SERVER)
1604:Generated_Source\PSoC4/BLE_eventHandler.c ****                 /* As per Privacy Errata a call to CyBle_EnableDefaultDevicePrivacy() is
1605:Generated_Source\PSoC4/BLE_eventHandler.c ****                   required to set a device to use device privacy instead of network privacy
1606:Generated_Source\PSoC4/BLE_eventHandler.c ****                   that is enabled by default starting from BLE Stack 3.3.
1607:Generated_Source\PSoC4/BLE_eventHandler.c ****                 */
1608:Generated_Source\PSoC4/BLE_eventHandler.c ****                 if(cyBle_gaps.rpaOnlyCharHandle != CYBLE_GATT_INVALID_ATTR_HANDLE_VALUE)
 663              		.loc 1 1608 0
 664 0066 0023     		movs	r3, #0
 665 0068 002B     		cmp	r3, #0
 666 006a 01D0     		beq	.L50
1609:Generated_Source\PSoC4/BLE_eventHandler.c ****                 {
1610:Generated_Source\PSoC4/BLE_eventHandler.c ****                     CyBle_EnableDefaultDevicePrivacy();
 667              		.loc 1 1610 0
ARM GAS  C:\Users\diego\AppData\Local\Temp\ccaLbWCT.s 			page 41


 668 006c FFF7FEFF 		bl	CyBle_EnableDefaultDevicePrivacy
 669              	.L50:
 670              	.LBE3:
1611:Generated_Source\PSoC4/BLE_eventHandler.c ****                 }
1612:Generated_Source\PSoC4/BLE_eventHandler.c ****             #endif /* (CYBLE_GATT_ROLE_SERVER) */
1613:Generated_Source\PSoC4/BLE_eventHandler.c ****             
1614:Generated_Source\PSoC4/BLE_eventHandler.c ****             #if (CYBLE_STRICT_PAIRING_ENABLED)
1615:Generated_Source\PSoC4/BLE_eventHandler.c ****                 (void) CyBle_GapSetSecurityRequirements(CYBLE_STRICT_PAIRING_REQ_VALUE, CYBLE_SECUR
1616:Generated_Source\PSoC4/BLE_eventHandler.c ****             #endif /* (CYBLE_STRICT_PAIRING_ENABLED) */
1617:Generated_Source\PSoC4/BLE_eventHandler.c ****             
1618:Generated_Source\PSoC4/BLE_eventHandler.c ****         }
1619:Generated_Source\PSoC4/BLE_eventHandler.c ****         #endif /* CYBLE_MODE_PROFILE */
1620:Generated_Source\PSoC4/BLE_eventHandler.c ****         #if (CYBLE_GATT_ROLE_SERVER || CYBLE_GATT_ROLE_CLIENT)
1621:Generated_Source\PSoC4/BLE_eventHandler.c ****             /* Set device Address  */
1622:Generated_Source\PSoC4/BLE_eventHandler.c ****             if(CyBle_IsDeviceAddressValid(cyBle_sflashDeviceAddress) != 0u)
 671              		.loc 1 1622 0
 672 0070 A74B     		ldr	r3, .L70+8
 673 0072 1B68     		ldr	r3, [r3]
 674 0074 1800     		movs	r0, r3
 675 0076 FFF7FEFF 		bl	CyBle_IsDeviceAddressValid
 676 007a 031E     		subs	r3, r0, #0
 677 007c 11D0     		beq	.L51
1623:Generated_Source\PSoC4/BLE_eventHandler.c ****             {
1624:Generated_Source\PSoC4/BLE_eventHandler.c ****                 (void) CyBle_SetDeviceAddress(cyBle_sflashDeviceAddress);
 678              		.loc 1 1624 0
 679 007e A44B     		ldr	r3, .L70+8
 680 0080 1B68     		ldr	r3, [r3]
 681 0082 1800     		movs	r0, r3
 682 0084 FFF7FEFF 		bl	CyBle_SetDeviceAddress
1625:Generated_Source\PSoC4/BLE_eventHandler.c ****                 #if(CYBLE_GAP_ROLE_PERIPHERAL || CYBLE_GAP_ROLE_BROADCASTER)
1626:Generated_Source\PSoC4/BLE_eventHandler.c ****                     CyBle_ChangeAdDeviceAddress(cyBle_sflashDeviceAddress, 0u);
 683              		.loc 1 1626 0
 684 0088 A14B     		ldr	r3, .L70+8
 685 008a 1B68     		ldr	r3, [r3]
 686 008c 0021     		movs	r1, #0
 687 008e 1800     		movs	r0, r3
 688 0090 FFF7FEFF 		bl	CyBle_ChangeAdDeviceAddress
1627:Generated_Source\PSoC4/BLE_eventHandler.c ****                     CyBle_ChangeAdDeviceAddress(cyBle_sflashDeviceAddress, 1u);
 689              		.loc 1 1627 0
 690 0094 9E4B     		ldr	r3, .L70+8
 691 0096 1B68     		ldr	r3, [r3]
 692 0098 0121     		movs	r1, #1
 693 009a 1800     		movs	r0, r3
 694 009c FFF7FEFF 		bl	CyBle_ChangeAdDeviceAddress
 695 00a0 0DE0     		b	.L52
 696              	.L51:
1628:Generated_Source\PSoC4/BLE_eventHandler.c ****                 #endif /* CYBLE_GAP_ROLE_PERIPHERAL || CYBLE_GAP_ROLE_BROADCASTER */    
1629:Generated_Source\PSoC4/BLE_eventHandler.c ****             }
1630:Generated_Source\PSoC4/BLE_eventHandler.c ****             else
1631:Generated_Source\PSoC4/BLE_eventHandler.c ****             {
1632:Generated_Source\PSoC4/BLE_eventHandler.c ****             #if (SILICON_GENERATED_DEVICE_ADDRESS != 0u)
1633:Generated_Source\PSoC4/BLE_eventHandler.c ****             {
1634:Generated_Source\PSoC4/BLE_eventHandler.c ****                 uint32 bdAddrLoc;
1635:Generated_Source\PSoC4/BLE_eventHandler.c ****                 bdAddrLoc = (CYBLE_SFLASH_DIE_X_REG & CYBLE_SFLASH_DIE_X_MASK) |
1636:Generated_Source\PSoC4/BLE_eventHandler.c ****                     ((uint32)(((uint32)CYBLE_SFLASH_DIE_Y_REG) & ((uint32)CYBLE_SFLASH_DIE_Y_MASK))
1637:Generated_Source\PSoC4/BLE_eventHandler.c ****                         CYBLE_SFLASH_DIE_X_BITS) |
1638:Generated_Source\PSoC4/BLE_eventHandler.c ****                     ((uint32)(((uint32)CYBLE_SFLASH_DIE_WAFER_REG) & ((uint32)CYBLE_SFLASH_DIE_WAFE
ARM GAS  C:\Users\diego\AppData\Local\Temp\ccaLbWCT.s 			page 42


1639:Generated_Source\PSoC4/BLE_eventHandler.c ****                         CYBLE_SFLASH_DIE_XY_BITS) |
1640:Generated_Source\PSoC4/BLE_eventHandler.c ****                     ((uint32)(((uint32)CYBLE_SFLASH_DIE_LOT_REG) & ((uint32)CYBLE_SFLASH_DIE_LOT_MA
1641:Generated_Source\PSoC4/BLE_eventHandler.c ****                         CYBLE_SFLASH_DIE_XYWAFER_BITS);
1642:Generated_Source\PSoC4/BLE_eventHandler.c ****                             
1643:Generated_Source\PSoC4/BLE_eventHandler.c ****                 cyBle_deviceAddress.bdAddr[0] = (uint8)bdAddrLoc;
1644:Generated_Source\PSoC4/BLE_eventHandler.c ****                 cyBle_deviceAddress.bdAddr[1] = (uint8)(bdAddrLoc >> 8u);
1645:Generated_Source\PSoC4/BLE_eventHandler.c ****                 cyBle_deviceAddress.bdAddr[2] = (uint8)(bdAddrLoc >> 16u);
1646:Generated_Source\PSoC4/BLE_eventHandler.c ****             }
1647:Generated_Source\PSoC4/BLE_eventHandler.c ****             #endif /* SILICON_GENERATED_DEVICE_ADDRESS != 0u */
1648:Generated_Source\PSoC4/BLE_eventHandler.c ****                 (void) CyBle_SetDeviceAddress(&cyBle_deviceAddress);
 697              		.loc 1 1648 0
 698 00a2 9C4B     		ldr	r3, .L70+12
 699 00a4 1800     		movs	r0, r3
 700 00a6 FFF7FEFF 		bl	CyBle_SetDeviceAddress
1649:Generated_Source\PSoC4/BLE_eventHandler.c ****                 #if(CYBLE_GAP_ROLE_PERIPHERAL || CYBLE_GAP_ROLE_BROADCASTER)
1650:Generated_Source\PSoC4/BLE_eventHandler.c ****                     CyBle_ChangeAdDeviceAddress(&cyBle_deviceAddress, 0u);
 701              		.loc 1 1650 0
 702 00aa 9A4B     		ldr	r3, .L70+12
 703 00ac 0021     		movs	r1, #0
 704 00ae 1800     		movs	r0, r3
 705 00b0 FFF7FEFF 		bl	CyBle_ChangeAdDeviceAddress
1651:Generated_Source\PSoC4/BLE_eventHandler.c ****                     CyBle_ChangeAdDeviceAddress(&cyBle_deviceAddress, 1u);
 706              		.loc 1 1651 0
 707 00b4 974B     		ldr	r3, .L70+12
 708 00b6 0121     		movs	r1, #1
 709 00b8 1800     		movs	r0, r3
 710 00ba FFF7FEFF 		bl	CyBle_ChangeAdDeviceAddress
 711              	.L52:
1652:Generated_Source\PSoC4/BLE_eventHandler.c ****                 #endif /* CYBLE_GAP_ROLE_PERIPHERAL || CYBLE_GAP_ROLE_BROADCASTER */    
1653:Generated_Source\PSoC4/BLE_eventHandler.c ****             }
1654:Generated_Source\PSoC4/BLE_eventHandler.c ****             /* Set device IO Capability  */
1655:Generated_Source\PSoC4/BLE_eventHandler.c ****             (void) CyBle_GapSetIoCap(CYBLE_IO_CAPABILITY);    
 712              		.loc 1 1655 0
 713 00be 0320     		movs	r0, #3
 714 00c0 FFF7FEFF 		bl	CyBle_GapSetIoCap
 715              	.LBB4:
1656:Generated_Source\PSoC4/BLE_eventHandler.c ****             {
1657:Generated_Source\PSoC4/BLE_eventHandler.c ****                 /* Enable all 4.1 events and configured 4.2 events */
1658:Generated_Source\PSoC4/BLE_eventHandler.c ****                 uint8 leMask[CYBLE_LE_MASK_LENGTH] = {LO8(CYBLE_LE_MASK), HI8(CYBLE_LE_MASK)};
 716              		.loc 1 1658 0
 717 00c4 1023     		movs	r3, #16
 718 00c6 FB18     		adds	r3, r7, r3
 719 00c8 3F22     		movs	r2, #63
 720 00ca 1A70     		strb	r2, [r3]
 721 00cc 1023     		movs	r3, #16
 722 00ce FB18     		adds	r3, r7, r3
 723 00d0 0022     		movs	r2, #0
 724 00d2 5A70     		strb	r2, [r3, #1]
1659:Generated_Source\PSoC4/BLE_eventHandler.c ****                 (void) CyBle_GapSetLeEventMask(leMask);
 725              		.loc 1 1659 0
 726 00d4 1023     		movs	r3, #16
 727 00d6 FB18     		adds	r3, r7, r3
 728 00d8 1800     		movs	r0, r3
 729 00da FFF7FEFF 		bl	CyBle_GapSetLeEventMask
 730              	.LBE4:
1660:Generated_Source\PSoC4/BLE_eventHandler.c ****             }
1661:Generated_Source\PSoC4/BLE_eventHandler.c ****         #if(CYBLE_DLE_FEATURE_ENABLED)
ARM GAS  C:\Users\diego\AppData\Local\Temp\ccaLbWCT.s 			page 43


1662:Generated_Source\PSoC4/BLE_eventHandler.c ****         {
1663:Generated_Source\PSoC4/BLE_eventHandler.c ****             /* Set maximum suggested TX payload size */
1664:Generated_Source\PSoC4/BLE_eventHandler.c ****             uint16 payloadTime = CYBLE_LL_MAX_TX_TIME;
1665:Generated_Source\PSoC4/BLE_eventHandler.c ****             (void) CyBle_GapConvertOctetToTime(CYBLE_GAP_PHY_1MBPS, CYBLE_LL_MAX_TX_PAYLOAD_SIZE, &
1666:Generated_Source\PSoC4/BLE_eventHandler.c ****             (void) CyBle_GapSetSuggestedDataLength(CYBLE_LL_MAX_TX_PAYLOAD_SIZE, payloadTime); 
1667:Generated_Source\PSoC4/BLE_eventHandler.c ****         }
1668:Generated_Source\PSoC4/BLE_eventHandler.c ****         #endif /* CYBLE_DLE_FEATURE != 0u */
1669:Generated_Source\PSoC4/BLE_eventHandler.c ****         
1670:Generated_Source\PSoC4/BLE_eventHandler.c ****         #endif /* CYBLE_GATT_ROLE_SERVER || CYBLE_GATT_ROLE_CLIENT */
1671:Generated_Source\PSoC4/BLE_eventHandler.c ****             CyBle_SetState(CYBLE_STATE_DISCONNECTED);
 731              		.loc 1 1671 0
 732 00de 8E4B     		ldr	r3, .L70+16
 733 00e0 0422     		movs	r2, #4
 734 00e2 1A70     		strb	r2, [r3]
1672:Generated_Source\PSoC4/BLE_eventHandler.c ****             break;
 735              		.loc 1 1672 0
 736 00e4 F6E0     		b	.L53
 737              	.L31:
1673:Generated_Source\PSoC4/BLE_eventHandler.c ****         case CYBLE_EVT_TIMEOUT:
1674:Generated_Source\PSoC4/BLE_eventHandler.c ****             CyBle_TimeOutEventHandler((CYBLE_TO_REASON_CODE_T *)eventParam);
 738              		.loc 1 1674 0
 739 00e6 3B68     		ldr	r3, [r7]
 740 00e8 1800     		movs	r0, r3
 741 00ea FFF7FEFF 		bl	CyBle_TimeOutEventHandler
1675:Generated_Source\PSoC4/BLE_eventHandler.c ****             break;
 742              		.loc 1 1675 0
 743 00ee F1E0     		b	.L53
 744              	.L32:
1676:Generated_Source\PSoC4/BLE_eventHandler.c ****     	case CYBLE_EVT_STACK_BUSY_STATUS:
1677:Generated_Source\PSoC4/BLE_eventHandler.c ****             cyBle_busyStatus = *(uint8 *)eventParam;
 745              		.loc 1 1677 0
 746 00f0 3B68     		ldr	r3, [r7]
 747 00f2 1A78     		ldrb	r2, [r3]
 748 00f4 894B     		ldr	r3, .L70+20
 749 00f6 1A70     		strb	r2, [r3]
1678:Generated_Source\PSoC4/BLE_eventHandler.c ****             break;
 750              		.loc 1 1678 0
 751 00f8 ECE0     		b	.L53
 752              	.L33:
 753              	.LBB5:
1679:Generated_Source\PSoC4/BLE_eventHandler.c ****     	case CYBLE_EVT_MEMORY_REQUEST:
1680:Generated_Source\PSoC4/BLE_eventHandler.c ****         #if(CYBLE_MODE_PROFILE)
1681:Generated_Source\PSoC4/BLE_eventHandler.c ****         {
1682:Generated_Source\PSoC4/BLE_eventHandler.c ****             CYBLE_MEMORY_REQUEST_T *memReq = (CYBLE_MEMORY_REQUEST_T *)eventParam;
 754              		.loc 1 1682 0
 755 00fa 3B68     		ldr	r3, [r7]
 756 00fc BB61     		str	r3, [r7, #24]
1683:Generated_Source\PSoC4/BLE_eventHandler.c ****             if(memReq->request == CYBLE_PREPARED_WRITE_REQUEST)
 757              		.loc 1 1683 0
 758 00fe BB69     		ldr	r3, [r7, #24]
 759 0100 1B78     		ldrb	r3, [r3]
 760 0102 002B     		cmp	r3, #0
 761 0104 00D0     		beq	.LCB523
 762 0106 E0E0     		b	.L66	@long jump
 763              	.LCB523:
1684:Generated_Source\PSoC4/BLE_eventHandler.c ****             {  
1685:Generated_Source\PSoC4/BLE_eventHandler.c ****             #if(CYBLE_GATT_ENABLE_EXTERNAL_PREP_WRITE_BUFF == 0u)
ARM GAS  C:\Users\diego\AppData\Local\Temp\ccaLbWCT.s 			page 44


1686:Generated_Source\PSoC4/BLE_eventHandler.c ****                 /* Stack requests to provide memory to process remote request */
1687:Generated_Source\PSoC4/BLE_eventHandler.c ****                 if(memReq->allocFree == CYBLE_ALLOC_MEMORY)
 764              		.loc 1 1687 0
 765 0108 BB69     		ldr	r3, [r7, #24]
 766 010a 5B78     		ldrb	r3, [r3, #1]
 767 010c 002B     		cmp	r3, #0
 768 010e 0BD1     		bne	.L55
 769              	.LBB6:
1688:Generated_Source\PSoC4/BLE_eventHandler.c ****                 {
1689:Generated_Source\PSoC4/BLE_eventHandler.c ****                     static CYBLE_PREPARE_WRITE_REQUEST_MEMORY_T gPrepWriteReqMem;
1690:Generated_Source\PSoC4/BLE_eventHandler.c ****                     
1691:Generated_Source\PSoC4/BLE_eventHandler.c ****                     /* Configure and return statically allocated buffer at the end of cyBle_stackMe
1692:Generated_Source\PSoC4/BLE_eventHandler.c ****                     gPrepWriteReqMem.prepareWriteQueueSize = CYBLE_GATT_MAX_PREPARE_BUFF_COUNT;
 770              		.loc 1 1692 0
 771 0110 834B     		ldr	r3, .L70+24
 772 0112 0222     		movs	r2, #2
 773 0114 DA80     		strh	r2, [r3, #6]
1693:Generated_Source\PSoC4/BLE_eventHandler.c ****                     gPrepWriteReqMem.totalAttrValueLength = CYBLE_GATT_PREPARE_LENGTH_ALIGN;
 774              		.loc 1 1693 0
 775 0116 824B     		ldr	r3, .L70+24
 776 0118 1822     		movs	r2, #24
 777 011a 9A80     		strh	r2, [r3, #4]
1694:Generated_Source\PSoC4/BLE_eventHandler.c ****                     gPrepWriteReqMem.queueBuffer = &cyBle_stackMemoryRam[CYBLE_STACK_RAM_SIZE - 
 778              		.loc 1 1694 0
 779 011c 804B     		ldr	r3, .L70+24
 780 011e 814A     		ldr	r2, .L70+28
 781 0120 1A60     		str	r2, [r3]
1695:Generated_Source\PSoC4/BLE_eventHandler.c ****                                                                          CYBLE_GATT_PREPARE_WRITE_B
1696:Generated_Source\PSoC4/BLE_eventHandler.c ****                     memReq->configMemory = &gPrepWriteReqMem;  
 782              		.loc 1 1696 0
 783 0122 BB69     		ldr	r3, [r7, #24]
 784 0124 7E4A     		ldr	r2, .L70+24
 785 0126 5A60     		str	r2, [r3, #4]
 786              	.L55:
 787              	.LBE6:
1697:Generated_Source\PSoC4/BLE_eventHandler.c ****                 }                
1698:Generated_Source\PSoC4/BLE_eventHandler.c ****                 /* Clear CYBLE_CALLBACK flag not to provide handled event to application */
1699:Generated_Source\PSoC4/BLE_eventHandler.c ****                 cyBle_eventHandlerFlag &= (uint8)~CYBLE_CALLBACK;
 788              		.loc 1 1699 0
 789 0128 774B     		ldr	r3, .L70
 790 012a 1B78     		ldrb	r3, [r3]
 791 012c DBB2     		uxtb	r3, r3
 792 012e 0122     		movs	r2, #1
 793 0130 9343     		bics	r3, r2
 794 0132 DAB2     		uxtb	r2, r3
 795 0134 744B     		ldr	r3, .L70
 796 0136 1A70     		strb	r2, [r3]
 797              	.LBE5:
1700:Generated_Source\PSoC4/BLE_eventHandler.c ****             #endif  /* CYBLE_GATT_ENABLE_EXTERNAL_PREP_WRITE_BUFF == 0u */
1701:Generated_Source\PSoC4/BLE_eventHandler.c ****             }
1702:Generated_Source\PSoC4/BLE_eventHandler.c ****         }
1703:Generated_Source\PSoC4/BLE_eventHandler.c ****         #endif /* CYBLE_MODE_PROFILE */
1704:Generated_Source\PSoC4/BLE_eventHandler.c ****             break;
 798              		.loc 1 1704 0
 799 0138 C7E0     		b	.L66
 800              	.L34:
1705:Generated_Source\PSoC4/BLE_eventHandler.c ****         /**********************************************************
ARM GAS  C:\Users\diego\AppData\Local\Temp\ccaLbWCT.s 			page 45


1706:Generated_Source\PSoC4/BLE_eventHandler.c ****         * GAP events
1707:Generated_Source\PSoC4/BLE_eventHandler.c ****         ************************************************************/
1708:Generated_Source\PSoC4/BLE_eventHandler.c ****         case CYBLE_EVT_GAP_AUTH_REQ:
1709:Generated_Source\PSoC4/BLE_eventHandler.c ****         #if(CYBLE_MODE_PROFILE)
1710:Generated_Source\PSoC4/BLE_eventHandler.c ****             if((cyBle_eventHandlerFlag & CYBLE_DISABLE_AUTOMATIC_AUTH) == 0u)
 801              		.loc 1 1710 0
 802 013a 734B     		ldr	r3, .L70
 803 013c 1B78     		ldrb	r3, [r3]
 804 013e DBB2     		uxtb	r3, r3
 805 0140 1A00     		movs	r2, r3
 806 0142 2023     		movs	r3, #32
 807 0144 1340     		ands	r3, r2
 808 0146 00D0     		beq	.LCB564
 809 0148 C1E0     		b	.L67	@long jump
 810              	.LCB564:
1711:Generated_Source\PSoC4/BLE_eventHandler.c ****             {
1712:Generated_Source\PSoC4/BLE_eventHandler.c ****                 /* If the responding device does not support pairing then the responding 
1713:Generated_Source\PSoC4/BLE_eventHandler.c ****                    device shall respond using the Pairing Failed message with the error 
1714:Generated_Source\PSoC4/BLE_eventHandler.c ****                    code "Pairing Not Supported" otherwise it responds with a Pairing 
1715:Generated_Source\PSoC4/BLE_eventHandler.c ****                    Response message.
1716:Generated_Source\PSoC4/BLE_eventHandler.c ****                 */
1717:Generated_Source\PSoC4/BLE_eventHandler.c ****                 if(cyBle_authInfo.security == (CYBLE_GAP_SEC_MODE_1 | CYBLE_GAP_SEC_LEVEL_1))
 811              		.loc 1 1717 0
 812 014a 774B     		ldr	r3, .L70+32
 813 014c 1B78     		ldrb	r3, [r3]
 814 014e 102B     		cmp	r3, #16
 815 0150 02D1     		bne	.L57
1718:Generated_Source\PSoC4/BLE_eventHandler.c ****                 {
1719:Generated_Source\PSoC4/BLE_eventHandler.c ****                     cyBle_authInfo.authErr = CYBLE_GAP_AUTH_ERROR_PAIRING_NOT_SUPPORTED;
 816              		.loc 1 1719 0
 817 0152 754B     		ldr	r3, .L70+32
 818 0154 0522     		movs	r2, #5
 819 0156 DA70     		strb	r2, [r3, #3]
 820              	.L57:
 821              	.LBB7:
1720:Generated_Source\PSoC4/BLE_eventHandler.c ****                 }    
1721:Generated_Source\PSoC4/BLE_eventHandler.c ****             #if(CYBLE_GAP_ROLE_PERIPHERAL)
1722:Generated_Source\PSoC4/BLE_eventHandler.c ****                 {
1723:Generated_Source\PSoC4/BLE_eventHandler.c ****                     CYBLE_API_RESULT_T apiResult;
1724:Generated_Source\PSoC4/BLE_eventHandler.c ****                     
1725:Generated_Source\PSoC4/BLE_eventHandler.c ****                     apiResult = CyBle_GappAuthReqReply(cyBle_connHandle.bdHandle, &cyBle_authInfo);
 822              		.loc 1 1725 0
 823 0158 744B     		ldr	r3, .L70+36
 824 015a 1B78     		ldrb	r3, [r3]
 825 015c 724A     		ldr	r2, .L70+32
 826 015e 1100     		movs	r1, r2
 827 0160 1800     		movs	r0, r3
 828 0162 FFF7FEFF 		bl	CyBle_GappAuthReqReply
 829 0166 0300     		movs	r3, r0
 830 0168 1A00     		movs	r2, r3
 831 016a 0E23     		movs	r3, #14
 832 016c FB18     		adds	r3, r7, r3
 833 016e 1A80     		strh	r2, [r3]
1726:Generated_Source\PSoC4/BLE_eventHandler.c ****                     /* Setting callback flag again as CyBle_GappAuthReqReply() will generate
1727:Generated_Source\PSoC4/BLE_eventHandler.c ****                     * CYBLE_EVT_GAP_SMP_NEGOTIATED_AUTH_INFO event which will clear the callback
1728:Generated_Source\PSoC4/BLE_eventHandler.c ****                     * flag.
1729:Generated_Source\PSoC4/BLE_eventHandler.c ****                     */
ARM GAS  C:\Users\diego\AppData\Local\Temp\ccaLbWCT.s 			page 46


1730:Generated_Source\PSoC4/BLE_eventHandler.c ****                     if (apiResult != CYBLE_ERROR_OK)
 834              		.loc 1 1730 0
 835 0170 0E23     		movs	r3, #14
 836 0172 FB18     		adds	r3, r7, r3
 837 0174 1B88     		ldrh	r3, [r3]
 838 0176 002B     		cmp	r3, #0
 839 0178 06D0     		beq	.L58
1731:Generated_Source\PSoC4/BLE_eventHandler.c ****                     {   
1732:Generated_Source\PSoC4/BLE_eventHandler.c ****                         CyBle_ApplCallback(CYBLE_EVT_GAP_AUTH_REQ_REPLY_ERR , &apiResult);
 840              		.loc 1 1732 0
 841 017a 6D4B     		ldr	r3, .L70+40
 842 017c 1B68     		ldr	r3, [r3]
 843 017e 0E22     		movs	r2, #14
 844 0180 BA18     		adds	r2, r7, r2
 845 0182 1100     		movs	r1, r2
 846 0184 3620     		movs	r0, #54
 847 0186 9847     		blx	r3
 848              	.L58:
1733:Generated_Source\PSoC4/BLE_eventHandler.c ****                     }
1734:Generated_Source\PSoC4/BLE_eventHandler.c ****                     cyBle_eventHandlerFlag |= CYBLE_CALLBACK;
 849              		.loc 1 1734 0
 850 0188 5F4B     		ldr	r3, .L70
 851 018a 1B78     		ldrb	r3, [r3]
 852 018c DBB2     		uxtb	r3, r3
 853 018e 0122     		movs	r2, #1
 854 0190 1343     		orrs	r3, r2
 855 0192 DAB2     		uxtb	r2, r3
 856 0194 5C4B     		ldr	r3, .L70
 857 0196 1A70     		strb	r2, [r3]
 858              	.LBE7:
1735:Generated_Source\PSoC4/BLE_eventHandler.c ****                 }
1736:Generated_Source\PSoC4/BLE_eventHandler.c ****             #endif /* CYBLE_GAP_ROLE_PERIPHERAL */
1737:Generated_Source\PSoC4/BLE_eventHandler.c ****             #if (CYBLE_GAP_ROLE_CENTRAL)
1738:Generated_Source\PSoC4/BLE_eventHandler.c ****                 (void)CyBle_GapAuthReq(cyBle_connHandle.bdHandle, &cyBle_authInfo);
1739:Generated_Source\PSoC4/BLE_eventHandler.c ****             #endif /* CYBLE_GAP_ROLE_CENTRAL */
1740:Generated_Source\PSoC4/BLE_eventHandler.c ****             }
1741:Generated_Source\PSoC4/BLE_eventHandler.c ****         #endif /* CYBLE_MODE_PROFILE */
1742:Generated_Source\PSoC4/BLE_eventHandler.c ****             break;
 859              		.loc 1 1742 0
 860 0198 99E0     		b	.L67
 861              	.L39:
1743:Generated_Source\PSoC4/BLE_eventHandler.c ****         
1744:Generated_Source\PSoC4/BLE_eventHandler.c ****         case CYBLE_EVT_GAP_AUTH_COMPLETE:
1745:Generated_Source\PSoC4/BLE_eventHandler.c ****         #if((CYBLE_GAP_ROLE_PERIPHERAL || CYBLE_GAP_ROLE_CENTRAL) && (CYBLE_BONDING_REQUIREMENT == 
1746:Generated_Source\PSoC4/BLE_eventHandler.c ****             cyBle_peerBonding = ((CYBLE_GAP_AUTH_INFO_T *)eventParam)->bonding;
1747:Generated_Source\PSoC4/BLE_eventHandler.c ****         #endif  /* CYBLE_BONDING_REQUIREMENT == CYBLE_BONDING_YES */
1748:Generated_Source\PSoC4/BLE_eventHandler.c ****             break;
1749:Generated_Source\PSoC4/BLE_eventHandler.c ****         
1750:Generated_Source\PSoC4/BLE_eventHandler.c ****         case CYBLE_EVT_GAP_CONNECTION_UPDATE_COMPLETE:
1751:Generated_Source\PSoC4/BLE_eventHandler.c ****             CyBle_GapConnUpdateCompleteEventHandler((const CYBLE_GAP_CONN_PARAM_UPDATED_IN_CONTROLL
 862              		.loc 1 1751 0
 863 019a 3B68     		ldr	r3, [r7]
 864 019c 1800     		movs	r0, r3
 865 019e FFF7FEFF 		bl	CyBle_GapConnUpdateCompleteEventHandler
1752:Generated_Source\PSoC4/BLE_eventHandler.c ****             break;
 866              		.loc 1 1752 0
 867 01a2 97E0     		b	.L53
ARM GAS  C:\Users\diego\AppData\Local\Temp\ccaLbWCT.s 			page 47


 868              	.L37:
1753:Generated_Source\PSoC4/BLE_eventHandler.c ****             
1754:Generated_Source\PSoC4/BLE_eventHandler.c ****     #if(CYBLE_LL_PRIVACY_FEATURE != 0u)        
1755:Generated_Source\PSoC4/BLE_eventHandler.c ****         case CYBLE_EVT_GAP_ENHANCE_CONN_COMPLETE:
1756:Generated_Source\PSoC4/BLE_eventHandler.c ****         {
1757:Generated_Source\PSoC4/BLE_eventHandler.c ****             CYBLE_GAP_CONN_PARAM_UPDATED_IN_CONTROLLER_T  connCParam;
1758:Generated_Source\PSoC4/BLE_eventHandler.c ****             CYBLE_GAP_ENHANCE_CONN_COMPLETE_T *connEnhanceParam;
1759:Generated_Source\PSoC4/BLE_eventHandler.c ****             
1760:Generated_Source\PSoC4/BLE_eventHandler.c ****             connEnhanceParam = (CYBLE_GAP_ENHANCE_CONN_COMPLETE_T *)eventParam;
1761:Generated_Source\PSoC4/BLE_eventHandler.c ****             connCParam.status = connEnhanceParam->status;
1762:Generated_Source\PSoC4/BLE_eventHandler.c ****             connCParam.connIntv = connEnhanceParam->connIntv;
1763:Generated_Source\PSoC4/BLE_eventHandler.c ****             connCParam.connLatency = connEnhanceParam->connLatency;
1764:Generated_Source\PSoC4/BLE_eventHandler.c ****             connCParam.supervisionTO = connEnhanceParam->supervisionTo;
1765:Generated_Source\PSoC4/BLE_eventHandler.c ****             CyBle_GapConnUpdateCompleteEventHandler((const CYBLE_GAP_CONN_PARAM_UPDATED_IN_CONTROLL
1766:Generated_Source\PSoC4/BLE_eventHandler.c ****             
1767:Generated_Source\PSoC4/BLE_eventHandler.c ****             #if(CYBLE_GAP_ROLE_CENTRAL)
1768:Generated_Source\PSoC4/BLE_eventHandler.c ****                 if(cyBle_connectingTimeout != 0u)
1769:Generated_Source\PSoC4/BLE_eventHandler.c ****                 {
1770:Generated_Source\PSoC4/BLE_eventHandler.c ****                    (void)CyBle_StopTimer();
1771:Generated_Source\PSoC4/BLE_eventHandler.c ****                 }
1772:Generated_Source\PSoC4/BLE_eventHandler.c ****             #endif /* CYBLE_GAP_ROLE_CENTRAL */
1773:Generated_Source\PSoC4/BLE_eventHandler.c ****             CyBle_SetState(CYBLE_STATE_CONNECTED);
1774:Generated_Source\PSoC4/BLE_eventHandler.c ****         }
1775:Generated_Source\PSoC4/BLE_eventHandler.c ****             break;
1776:Generated_Source\PSoC4/BLE_eventHandler.c ****     #endif /* CYBLE_LL_PRIVACY_FEATURE != 0u */      
1777:Generated_Source\PSoC4/BLE_eventHandler.c ****             
1778:Generated_Source\PSoC4/BLE_eventHandler.c ****         case CYBLE_EVT_GAP_DEVICE_CONNECTED:
1779:Generated_Source\PSoC4/BLE_eventHandler.c ****             CyBle_GapConnUpdateCompleteEventHandler((const CYBLE_GAP_CONN_PARAM_UPDATED_IN_CONTROLL
 869              		.loc 1 1779 0
 870 01a4 3B68     		ldr	r3, [r7]
 871 01a6 1800     		movs	r0, r3
 872 01a8 FFF7FEFF 		bl	CyBle_GapConnUpdateCompleteEventHandler
1780:Generated_Source\PSoC4/BLE_eventHandler.c ****             #if(CYBLE_GAP_ROLE_CENTRAL)
1781:Generated_Source\PSoC4/BLE_eventHandler.c ****                 if(cyBle_connectingTimeout != 0u)
1782:Generated_Source\PSoC4/BLE_eventHandler.c ****                 {
1783:Generated_Source\PSoC4/BLE_eventHandler.c ****                    (void)CyBle_StopTimer();
1784:Generated_Source\PSoC4/BLE_eventHandler.c ****                 }
1785:Generated_Source\PSoC4/BLE_eventHandler.c ****             #endif /* CYBLE_GAP_ROLE_CENTRAL */
1786:Generated_Source\PSoC4/BLE_eventHandler.c ****             CyBle_SetState(CYBLE_STATE_CONNECTED);
 873              		.loc 1 1786 0
 874 01ac 5A4B     		ldr	r3, .L70+16
 875 01ae 0222     		movs	r2, #2
 876 01b0 1A70     		strb	r2, [r3]
1787:Generated_Source\PSoC4/BLE_eventHandler.c ****             break;
 877              		.loc 1 1787 0
 878 01b2 8FE0     		b	.L53
 879              	.L38:
1788:Generated_Source\PSoC4/BLE_eventHandler.c **** 
1789:Generated_Source\PSoC4/BLE_eventHandler.c ****         case CYBLE_EVT_GAP_DEVICE_DISCONNECTED:
1790:Generated_Source\PSoC4/BLE_eventHandler.c ****             CyBle_SetState(CYBLE_STATE_DISCONNECTED);
 880              		.loc 1 1790 0
 881 01b4 584B     		ldr	r3, .L70+16
 882 01b6 0422     		movs	r2, #4
 883 01b8 1A70     		strb	r2, [r3]
1791:Generated_Source\PSoC4/BLE_eventHandler.c ****             break;
 884              		.loc 1 1791 0
 885 01ba 8BE0     		b	.L53
ARM GAS  C:\Users\diego\AppData\Local\Temp\ccaLbWCT.s 			page 48


 886              	.L36:
1792:Generated_Source\PSoC4/BLE_eventHandler.c ****         #if(CYBLE_GAP_ROLE_PERIPHERAL || CYBLE_GAP_ROLE_BROADCASTER)
1793:Generated_Source\PSoC4/BLE_eventHandler.c ****             
1794:Generated_Source\PSoC4/BLE_eventHandler.c ****         case CYBLE_EVT_GAPP_ADVERTISEMENT_START_STOP:
1795:Generated_Source\PSoC4/BLE_eventHandler.c ****             #ifdef CYBLE_CPS_SERVER
1796:Generated_Source\PSoC4/BLE_eventHandler.c ****                 #if(CYBLE_GAP_ROLE_BROADCASTER)
1797:Generated_Source\PSoC4/BLE_eventHandler.c ****                     CyBle_CpssAdvertisementStartStopEventHandler();
1798:Generated_Source\PSoC4/BLE_eventHandler.c ****                 #endif /* CYBLE_GAP_ROLE_BROADCASTER */
1799:Generated_Source\PSoC4/BLE_eventHandler.c ****             #endif /* CYBLE_CPS_SERVER */
1800:Generated_Source\PSoC4/BLE_eventHandler.c ****             
1801:Generated_Source\PSoC4/BLE_eventHandler.c ****             if((CYBLE_STATE_CONNECTED != CyBle_GetState()) && ((cyBle_eventHandlerFlag & CYBLE_CALL
 887              		.loc 1 1801 0
 888 01bc 564B     		ldr	r3, .L70+16
 889 01be 1B78     		ldrb	r3, [r3]
 890 01c0 022B     		cmp	r3, #2
 891 01c2 00D1     		bne	.LCB640
 892 01c4 85E0     		b	.L68	@long jump
 893              	.LCB640:
 894              		.loc 1 1801 0 is_stmt 0 discriminator 1
 895 01c6 504B     		ldr	r3, .L70
 896 01c8 1B78     		ldrb	r3, [r3]
 897 01ca DBB2     		uxtb	r3, r3
 898 01cc 1A00     		movs	r2, r3
 899 01ce 0123     		movs	r3, #1
 900 01d0 1340     		ands	r3, r2
 901 01d2 00D1     		bne	.LCB648
 902 01d4 7DE0     		b	.L68	@long jump
 903              	.LCB648:
1802:Generated_Source\PSoC4/BLE_eventHandler.c ****             {
1803:Generated_Source\PSoC4/BLE_eventHandler.c ****                 /* After CyBle_GappStartAdvertisement first event indicates that advertising has be
1804:Generated_Source\PSoC4/BLE_eventHandler.c ****                 if(0u != (cyBle_eventHandlerFlag & CYBLE_START_FLAG))
 904              		.loc 1 1804 0 is_stmt 1
 905 01d6 4C4B     		ldr	r3, .L70
 906 01d8 1B78     		ldrb	r3, [r3]
 907 01da DBB2     		uxtb	r3, r3
 908 01dc 1A00     		movs	r2, r3
 909 01de 0423     		movs	r3, #4
 910 01e0 1340     		ands	r3, r2
 911 01e2 0BD0     		beq	.L60
1805:Generated_Source\PSoC4/BLE_eventHandler.c ****                 {
1806:Generated_Source\PSoC4/BLE_eventHandler.c ****                     CyBle_SetState(CYBLE_STATE_ADVERTISING);
 912              		.loc 1 1806 0
 913 01e4 4C4B     		ldr	r3, .L70+16
 914 01e6 0322     		movs	r2, #3
 915 01e8 1A70     		strb	r2, [r3]
1807:Generated_Source\PSoC4/BLE_eventHandler.c ****                     cyBle_eventHandlerFlag &= (uint8)~CYBLE_START_FLAG;
 916              		.loc 1 1807 0
 917 01ea 474B     		ldr	r3, .L70
 918 01ec 1B78     		ldrb	r3, [r3]
 919 01ee DBB2     		uxtb	r3, r3
 920 01f0 0422     		movs	r2, #4
 921 01f2 9343     		bics	r3, r2
 922 01f4 DAB2     		uxtb	r2, r3
 923 01f6 444B     		ldr	r3, .L70
 924 01f8 1A70     		strb	r2, [r3]
1808:Generated_Source\PSoC4/BLE_eventHandler.c ****                 }
1809:Generated_Source\PSoC4/BLE_eventHandler.c ****                 /* When application initiated stop advertisement */
ARM GAS  C:\Users\diego\AppData\Local\Temp\ccaLbWCT.s 			page 49


1810:Generated_Source\PSoC4/BLE_eventHandler.c ****                 else if(0u != (cyBle_eventHandlerFlag & CYBLE_STOP_FLAG))
1811:Generated_Source\PSoC4/BLE_eventHandler.c ****                 {
1812:Generated_Source\PSoC4/BLE_eventHandler.c ****                     CyBle_SetState(CYBLE_STATE_DISCONNECTED);  
1813:Generated_Source\PSoC4/BLE_eventHandler.c ****                     cyBle_eventHandlerFlag &= (uint8)~CYBLE_STOP_FLAG;
1814:Generated_Source\PSoC4/BLE_eventHandler.c ****                 }
1815:Generated_Source\PSoC4/BLE_eventHandler.c ****                 else /* Following event indicates that advertising has been stopped */
1816:Generated_Source\PSoC4/BLE_eventHandler.c ****                 {
1817:Generated_Source\PSoC4/BLE_eventHandler.c ****                     if(CyBle_GetState() == CYBLE_STATE_ADVERTISING)
1818:Generated_Source\PSoC4/BLE_eventHandler.c ****                     {
1819:Generated_Source\PSoC4/BLE_eventHandler.c ****                         CyBle_SetState(CYBLE_STATE_DISCONNECTED);
1820:Generated_Source\PSoC4/BLE_eventHandler.c ****                     #if ((CYBLE_SLOW_ADV_ENABLED != 0u) && (CYBLE_FAST_ADV_TIMEOUT != 0u))
1821:Generated_Source\PSoC4/BLE_eventHandler.c ****                         if(cyBle_advertisingIntervalType == CYBLE_ADVERTISING_FAST)
1822:Generated_Source\PSoC4/BLE_eventHandler.c ****                         {
1823:Generated_Source\PSoC4/BLE_eventHandler.c ****                             /* When fast advertising time out occur: Start slow advertising */
1824:Generated_Source\PSoC4/BLE_eventHandler.c ****                             if(CyBle_GappStartAdvertisement(CYBLE_ADVERTISING_SLOW) == CYBLE_ERROR_
1825:Generated_Source\PSoC4/BLE_eventHandler.c ****                             {
1826:Generated_Source\PSoC4/BLE_eventHandler.c ****                                 CyBle_SetState(CYBLE_STATE_ADVERTISING);
1827:Generated_Source\PSoC4/BLE_eventHandler.c ****                             }
1828:Generated_Source\PSoC4/BLE_eventHandler.c ****                         }
1829:Generated_Source\PSoC4/BLE_eventHandler.c ****                     #endif /* CYBLE_SLOW_ADV_ENABLED */
1830:Generated_Source\PSoC4/BLE_eventHandler.c ****                     }
1831:Generated_Source\PSoC4/BLE_eventHandler.c ****                 }
1832:Generated_Source\PSoC4/BLE_eventHandler.c ****             }
1833:Generated_Source\PSoC4/BLE_eventHandler.c ****             break;
 925              		.loc 1 1833 0
 926 01fa 6AE0     		b	.L68
 927              	.L60:
1810:Generated_Source\PSoC4/BLE_eventHandler.c ****                 {
 928              		.loc 1 1810 0
 929 01fc 424B     		ldr	r3, .L70
 930 01fe 1B78     		ldrb	r3, [r3]
 931 0200 DBB2     		uxtb	r3, r3
 932 0202 1A00     		movs	r2, r3
 933 0204 0823     		movs	r3, #8
 934 0206 1340     		ands	r3, r2
 935 0208 0BD0     		beq	.L61
1812:Generated_Source\PSoC4/BLE_eventHandler.c ****                     cyBle_eventHandlerFlag &= (uint8)~CYBLE_STOP_FLAG;
 936              		.loc 1 1812 0
 937 020a 434B     		ldr	r3, .L70+16
 938 020c 0422     		movs	r2, #4
 939 020e 1A70     		strb	r2, [r3]
1813:Generated_Source\PSoC4/BLE_eventHandler.c ****                 }
 940              		.loc 1 1813 0
 941 0210 3D4B     		ldr	r3, .L70
 942 0212 1B78     		ldrb	r3, [r3]
 943 0214 DBB2     		uxtb	r3, r3
 944 0216 0822     		movs	r2, #8
 945 0218 9343     		bics	r3, r2
 946 021a DAB2     		uxtb	r2, r3
 947 021c 3A4B     		ldr	r3, .L70
 948 021e 1A70     		strb	r2, [r3]
 949              		.loc 1 1833 0
 950 0220 57E0     		b	.L68
 951              	.L61:
1817:Generated_Source\PSoC4/BLE_eventHandler.c ****                     {
 952              		.loc 1 1817 0
 953 0222 3D4B     		ldr	r3, .L70+16
ARM GAS  C:\Users\diego\AppData\Local\Temp\ccaLbWCT.s 			page 50


 954 0224 1B78     		ldrb	r3, [r3]
 955 0226 032B     		cmp	r3, #3
 956 0228 53D1     		bne	.L68
1819:Generated_Source\PSoC4/BLE_eventHandler.c ****                     #if ((CYBLE_SLOW_ADV_ENABLED != 0u) && (CYBLE_FAST_ADV_TIMEOUT != 0u))
 957              		.loc 1 1819 0
 958 022a 3B4B     		ldr	r3, .L70+16
 959 022c 0422     		movs	r2, #4
 960 022e 1A70     		strb	r2, [r3]
1821:Generated_Source\PSoC4/BLE_eventHandler.c ****                         {
 961              		.loc 1 1821 0
 962 0230 404B     		ldr	r3, .L70+44
 963 0232 1B78     		ldrb	r3, [r3]
 964 0234 002B     		cmp	r3, #0
 965 0236 4CD1     		bne	.L68
1824:Generated_Source\PSoC4/BLE_eventHandler.c ****                             {
 966              		.loc 1 1824 0
 967 0238 0120     		movs	r0, #1
 968 023a FFF7FEFF 		bl	CyBle_GappStartAdvertisement
 969 023e 031E     		subs	r3, r0, #0
 970 0240 47D1     		bne	.L68
1826:Generated_Source\PSoC4/BLE_eventHandler.c ****                             }
 971              		.loc 1 1826 0
 972 0242 354B     		ldr	r3, .L70+16
 973 0244 0322     		movs	r2, #3
 974 0246 1A70     		strb	r2, [r3]
 975              		.loc 1 1833 0
 976 0248 43E0     		b	.L68
 977              	.L49:
