ARM GAS  C:\Users\diego\AppData\Local\Temp\ccQgq9yq.s 			page 1


   1              		.syntax unified
   2              		.cpu cortex-m0
   3              		.fpu softvfp
   4              		.eabi_attribute 20, 1
   5              		.eabi_attribute 21, 1
   6              		.eabi_attribute 23, 3
   7              		.eabi_attribute 24, 1
   8              		.eabi_attribute 25, 1
   9              		.eabi_attribute 26, 1
  10              		.eabi_attribute 30, 6
  11              		.eabi_attribute 34, 0
  12              		.eabi_attribute 18, 4
  13              		.thumb
  14              		.syntax unified
  15              		.file	"CyFlash.c"
  16              		.text
  17              	.Ltext0:
  18              		.cfi_sections	.debug_frame
  19              		.bss
  20              		.align	2
  21              	cySysFlashBackup:
  22 0000 00000000 		.space	20
  22      00000000 
  22      00000000 
  22      00000000 
  22      00000000 
  23              		.section	.text.CySysFlashWriteRow,"ax",%progbits
  24              		.align	2
  25              		.global	CySysFlashWriteRow
  26              		.code	16
  27              		.thumb_func
  28              		.type	CySysFlashWriteRow, %function
  29              	CySysFlashWriteRow:
  30              	.LFB2:
  31              		.file 1 "Generated_Source\\PSoC4\\CyFlash.c"
   1:Generated_Source\PSoC4/CyFlash.c **** /***************************************************************************//**
   2:Generated_Source\PSoC4/CyFlash.c **** * \file CyFlash.c
   3:Generated_Source\PSoC4/CyFlash.c **** * \version 5.60
   4:Generated_Source\PSoC4/CyFlash.c **** *
   5:Generated_Source\PSoC4/CyFlash.c **** * \brief Provides an API for the FLASH.
   6:Generated_Source\PSoC4/CyFlash.c **** *
   7:Generated_Source\PSoC4/CyFlash.c **** * \note This code is endian agnostic.
   8:Generated_Source\PSoC4/CyFlash.c **** *
   9:Generated_Source\PSoC4/CyFlash.c **** * \note Documentation of the API's in this file is located in the System
  10:Generated_Source\PSoC4/CyFlash.c **** * Reference Guide provided with PSoC Creator.
  11:Generated_Source\PSoC4/CyFlash.c **** *
  12:Generated_Source\PSoC4/CyFlash.c **** ********************************************************************************
  13:Generated_Source\PSoC4/CyFlash.c **** * \copyright
  14:Generated_Source\PSoC4/CyFlash.c **** * Copyright 2010-2017, Cypress Semiconductor Corporation.  All rights reserved.
  15:Generated_Source\PSoC4/CyFlash.c **** * You may use this file only in accordance with the license, terms, conditions,
  16:Generated_Source\PSoC4/CyFlash.c **** * disclaimers, and limitations in the end user license agreement accompanying
  17:Generated_Source\PSoC4/CyFlash.c **** * the software package with which this file was provided.
  18:Generated_Source\PSoC4/CyFlash.c **** *******************************************************************************/
  19:Generated_Source\PSoC4/CyFlash.c **** 
  20:Generated_Source\PSoC4/CyFlash.c **** #include "CyFlash.h"
  21:Generated_Source\PSoC4/CyFlash.c **** 
  22:Generated_Source\PSoC4/CyFlash.c **** 
ARM GAS  C:\Users\diego\AppData\Local\Temp\ccQgq9yq.s 			page 2


  23:Generated_Source\PSoC4/CyFlash.c **** /*******************************************************************************
  24:Generated_Source\PSoC4/CyFlash.c **** * Cypress identified a defect with the Flash write functionality of the
  25:Generated_Source\PSoC4/CyFlash.c **** * PSoC 4000, PSoC 4000U, PSoC 4100, and PSoC 4200 devices. The 
  26:Generated_Source\PSoC4/CyFlash.c **** * CySysFlashWriteRow() function now checks the data to be written and, if 
  27:Generated_Source\PSoC4/CyFlash.c **** * necessary, modifies it to have a non-zero checksum. After writing to Flash, 
  28:Generated_Source\PSoC4/CyFlash.c **** * the modified data is replaced (Flash program) with 
  29:Generated_Source\PSoC4/CyFlash.c **** * the correct (original) data.
  30:Generated_Source\PSoC4/CyFlash.c **** *******************************************************************************/
  31:Generated_Source\PSoC4/CyFlash.c **** #define CY_FLASH_CHECKSUM_WORKAROUND    (CY_PSOC4_4000 || CY_PSOC4_4100 || CY_PSOC4_4200 || CY_PSOC
  32:Generated_Source\PSoC4/CyFlash.c **** 
  33:Generated_Source\PSoC4/CyFlash.c **** #if (CY_IP_FM || ((!CY_PSOC4_4000) && CY_IP_SPCIF_SYNCHRONOUS) || (!CY_IP_FM) && CY_PSOC4_4000)
  34:Generated_Source\PSoC4/CyFlash.c ****     static CY_SYS_FLASH_CLOCK_BACKUP_STRUCT cySysFlashBackup;
  35:Generated_Source\PSoC4/CyFlash.c **** #endif /* (CY_IP_FM || ((!CY_PSOC4_4000) && CY_IP_SPCIF_SYNCHRONOUS) || (!CY_IP_FM) && CY_PSOC4_400
  36:Generated_Source\PSoC4/CyFlash.c **** 
  37:Generated_Source\PSoC4/CyFlash.c **** static cystatus CySysFlashClockBackup(void);
  38:Generated_Source\PSoC4/CyFlash.c **** static cystatus CySysFlashClockRestore(void);
  39:Generated_Source\PSoC4/CyFlash.c **** #if(CY_IP_SPCIF_SYNCHRONOUS)
  40:Generated_Source\PSoC4/CyFlash.c ****     static cystatus CySysFlashClockConfig(void);
  41:Generated_Source\PSoC4/CyFlash.c **** #endif  /* (CY_IP_SPCIF_SYNCHRONOUS) */
  42:Generated_Source\PSoC4/CyFlash.c **** 
  43:Generated_Source\PSoC4/CyFlash.c **** 
  44:Generated_Source\PSoC4/CyFlash.c **** /*******************************************************************************
  45:Generated_Source\PSoC4/CyFlash.c **** * Function Name: CySysFlashWriteRow
  46:Generated_Source\PSoC4/CyFlash.c **** ****************************************************************************//**
  47:Generated_Source\PSoC4/CyFlash.c **** *
  48:Generated_Source\PSoC4/CyFlash.c **** * Erases a row of Flash and programs it with the new data.
  49:Generated_Source\PSoC4/CyFlash.c **** *
  50:Generated_Source\PSoC4/CyFlash.c **** * The IMO must be enabled before calling this function. The operation of the
  51:Generated_Source\PSoC4/CyFlash.c **** * flash writing hardware is dependent on the IMO.
  52:Generated_Source\PSoC4/CyFlash.c **** *
  53:Generated_Source\PSoC4/CyFlash.c **** * For PSoC 4000, PSoC 4100 BLE and PSoC 4200 BLE devices (PSoC 4100 BLE and
  54:Generated_Source\PSoC4/CyFlash.c **** * PSoC 4200 BLE devices with 256K of Flash memory are not affected), this API
  55:Generated_Source\PSoC4/CyFlash.c **** * will automatically modify the clock settings for the device. Writing to
  56:Generated_Source\PSoC4/CyFlash.c **** * flash requires that changes be made to the IMO and HFCLK settings. The
  57:Generated_Source\PSoC4/CyFlash.c **** * configuration is restored before returning. This will impact the operation
  58:Generated_Source\PSoC4/CyFlash.c **** * of most of the hardware in the device.
  59:Generated_Source\PSoC4/CyFlash.c **** *
  60:Generated_Source\PSoC4/CyFlash.c **** * For PSoC 4000 devices this API will automatically modify the clock settings
  61:Generated_Source\PSoC4/CyFlash.c **** * for the device. Writing to flash requires that changes be made to the IMO
  62:Generated_Source\PSoC4/CyFlash.c **** * and HFCLK settings. The configuration is restored before returning. HFCLK
  63:Generated_Source\PSoC4/CyFlash.c **** * will have several frequency changes during the operation of this API between
  64:Generated_Source\PSoC4/CyFlash.c **** * a minimum frequency of the current IMO frequency divided by 8 and a maximum
  65:Generated_Source\PSoC4/CyFlash.c **** * frequency of 12 MHz. This will impact the operation of most of the hardware
  66:Generated_Source\PSoC4/CyFlash.c **** * in the device.
  67:Generated_Source\PSoC4/CyFlash.c **** *
  68:Generated_Source\PSoC4/CyFlash.c **** * \param rowNum The flash row number. The number of the flash rows is defined by
  69:Generated_Source\PSoC4/CyFlash.c **** * the \ref CY_FLASH_NUMBER_ROWS macro for the selected device. Refer to the
  70:Generated_Source\PSoC4/CyFlash.c **** * device datasheet for the details.
  71:Generated_Source\PSoC4/CyFlash.c **** * \note The target flash array is calculated based on the specified flash row.
  72:Generated_Source\PSoC4/CyFlash.c **** *
  73:Generated_Source\PSoC4/CyFlash.c **** * \param rowData Array of bytes to write. The size of the array must be equal to
  74:Generated_Source\PSoC4/CyFlash.c **** * the flash row size. The flash row size for the selected device is defined by
  75:Generated_Source\PSoC4/CyFlash.c **** * the \ref CY_FLASH_SIZEOF_ROW macro. Refer to the device datasheet for the
  76:Generated_Source\PSoC4/CyFlash.c **** * details.
  77:Generated_Source\PSoC4/CyFlash.c **** *
  78:Generated_Source\PSoC4/CyFlash.c **** * \return \ref group_flash_status_codes
  79:Generated_Source\PSoC4/CyFlash.c **** *
ARM GAS  C:\Users\diego\AppData\Local\Temp\ccQgq9yq.s 			page 3


  80:Generated_Source\PSoC4/CyFlash.c **** *******************************************************************************/
  81:Generated_Source\PSoC4/CyFlash.c **** uint32 CySysFlashWriteRow(uint32 rowNum, const uint8 rowData[])
  82:Generated_Source\PSoC4/CyFlash.c **** {
  32              		.loc 1 82 0
  33              		.cfi_startproc
  34              		@ args = 0, pretend = 0, frame = 160
  35              		@ frame_needed = 1, uses_anonymous_args = 0
  36 0000 90B5     		push	{r4, r7, lr}
  37              		.cfi_def_cfa_offset 12
  38              		.cfi_offset 4, -12
  39              		.cfi_offset 7, -8
  40              		.cfi_offset 14, -4
  41 0002 A9B0     		sub	sp, sp, #164
  42              		.cfi_def_cfa_offset 176
  43 0004 00AF     		add	r7, sp, #0
  44              		.cfi_def_cfa_register 7
  45 0006 7860     		str	r0, [r7, #4]
  46 0008 3960     		str	r1, [r7]
  83:Generated_Source\PSoC4/CyFlash.c ****     volatile uint32 retValue = CY_SYS_FLASH_SUCCESS;
  47              		.loc 1 83 0
  48 000a 0023     		movs	r3, #0
  49 000c 9822     		movs	r2, #152
  50 000e BA18     		adds	r2, r7, r2
  51 0010 1360     		str	r3, [r2]
  84:Generated_Source\PSoC4/CyFlash.c ****     volatile uint32 clkCnfRetValue = CY_SYS_FLASH_SUCCESS;
  52              		.loc 1 84 0
  53 0012 0023     		movs	r3, #0
  54 0014 9422     		movs	r2, #148
  55 0016 BA18     		adds	r2, r7, r2
  56 0018 1360     		str	r3, [r2]
  85:Generated_Source\PSoC4/CyFlash.c ****     volatile uint32 parameters[(CY_FLASH_SIZEOF_ROW + CY_FLASH_SRAM_ROM_DATA) / sizeof(uint32)];
  86:Generated_Source\PSoC4/CyFlash.c ****     uint8  interruptState;
  87:Generated_Source\PSoC4/CyFlash.c **** 
  88:Generated_Source\PSoC4/CyFlash.c ****     #if (CY_FLASH_CHECKSUM_WORKAROUND)
  89:Generated_Source\PSoC4/CyFlash.c ****         uint32 needChecksumWorkaround = 0u;
  90:Generated_Source\PSoC4/CyFlash.c ****         uint32 savedIndex = 0u;
  91:Generated_Source\PSoC4/CyFlash.c ****         uint32 savedValue = 0u;
  92:Generated_Source\PSoC4/CyFlash.c ****         uint32 checksum = 0u;
  93:Generated_Source\PSoC4/CyFlash.c ****         uint32 bits = 0u;
  94:Generated_Source\PSoC4/CyFlash.c ****         uint32 i;
  95:Generated_Source\PSoC4/CyFlash.c ****     #endif  /* (CY_FLASH_CHECKSUM_WORKAROUND) */
  96:Generated_Source\PSoC4/CyFlash.c **** 
  97:Generated_Source\PSoC4/CyFlash.c ****     if ((rowNum < CY_FLASH_NUMBER_ROWS) && (rowData != 0u))
  57              		.loc 1 97 0
  58 001a 7B68     		ldr	r3, [r7, #4]
  59 001c 604A     		ldr	r2, .L19
  60 001e 9342     		cmp	r3, r2
  61 0020 00D9     		bls	.LCB26
  62 0022 B1E0     		b	.L2	@long jump
  63              	.LCB26:
  64              		.loc 1 97 0 is_stmt 0 discriminator 1
  65 0024 3B68     		ldr	r3, [r7]
  66 0026 002B     		cmp	r3, #0
  67 0028 00D1     		bne	.LCB29
  68 002a ADE0     		b	.L2	@long jump
  69              	.LCB29:
  98:Generated_Source\PSoC4/CyFlash.c ****     {
ARM GAS  C:\Users\diego\AppData\Local\Temp\ccQgq9yq.s 			page 4


  99:Generated_Source\PSoC4/CyFlash.c ****         /* Copy data to be written into internal variable */
 100:Generated_Source\PSoC4/CyFlash.c ****         (void)memcpy((void *)&parameters[2u], rowData, CY_FLASH_SIZEOF_ROW);
  70              		.loc 1 100 0 is_stmt 1
  71 002c 3968     		ldr	r1, [r7]
  72 002e 0C23     		movs	r3, #12
  73 0030 FB18     		adds	r3, r7, r3
  74 0032 0833     		adds	r3, r3, #8
  75 0034 8022     		movs	r2, #128
  76 0036 1800     		movs	r0, r3
  77 0038 FFF7FEFF 		bl	memcpy
 101:Generated_Source\PSoC4/CyFlash.c **** 
 102:Generated_Source\PSoC4/CyFlash.c ****         #if (CY_FLASH_CHECKSUM_WORKAROUND)
 103:Generated_Source\PSoC4/CyFlash.c **** 
 104:Generated_Source\PSoC4/CyFlash.c ****             for (i = 2u; i < ((CY_FLASH_SIZEOF_ROW / sizeof(uint32)) + 2u); i++)
 105:Generated_Source\PSoC4/CyFlash.c ****             {
 106:Generated_Source\PSoC4/CyFlash.c ****                 uint32 tmp = parameters[i];
 107:Generated_Source\PSoC4/CyFlash.c ****                 if (tmp != 0u)
 108:Generated_Source\PSoC4/CyFlash.c ****                 {
 109:Generated_Source\PSoC4/CyFlash.c ****                     checksum += tmp;
 110:Generated_Source\PSoC4/CyFlash.c ****                     bits |= tmp;
 111:Generated_Source\PSoC4/CyFlash.c ****                     savedIndex = i;
 112:Generated_Source\PSoC4/CyFlash.c ****                 }
 113:Generated_Source\PSoC4/CyFlash.c ****             }
 114:Generated_Source\PSoC4/CyFlash.c **** 
 115:Generated_Source\PSoC4/CyFlash.c ****             needChecksumWorkaround = ((checksum == 0u) && (bits != 0u)) ? 1u : 0u;
 116:Generated_Source\PSoC4/CyFlash.c ****             if (needChecksumWorkaround != 0u)
 117:Generated_Source\PSoC4/CyFlash.c ****             {
 118:Generated_Source\PSoC4/CyFlash.c ****                 savedValue = parameters[savedIndex];
 119:Generated_Source\PSoC4/CyFlash.c ****                 parameters[savedIndex] = 0u;
 120:Generated_Source\PSoC4/CyFlash.c ****             }
 121:Generated_Source\PSoC4/CyFlash.c ****         #endif  /* (CY_FLASH_CHECKSUM_WORKAROUND) */
 122:Generated_Source\PSoC4/CyFlash.c **** 
 123:Generated_Source\PSoC4/CyFlash.c ****         /* Load Flash Bytes */
 124:Generated_Source\PSoC4/CyFlash.c ****         parameters[0u] = (uint32) (CY_FLASH_GET_MACRO_FROM_ROW(rowNum)        << CY_FLASH_PARAM_MAC
 125:Generated_Source\PSoC4/CyFlash.c ****                          (uint32) (CY_FLASH_PAGE_LATCH_START_ADDR             << CY_FLASH_PARAM_ADD
 126:Generated_Source\PSoC4/CyFlash.c ****                          (uint32) (CY_FLASH_KEY_TWO(CY_FLASH_API_OPCODE_LOAD) << CY_FLASH_PARAM_KEY
  78              		.loc 1 126 0
  79 003c 7B68     		ldr	r3, [r7, #4]
  80 003e 594A     		ldr	r2, .L19+4
  81 0040 9342     		cmp	r3, r2
  82 0042 01D9     		bls	.L3
  83              		.loc 1 126 0 is_stmt 0 discriminator 1
  84 0044 584A     		ldr	r2, .L19+8
  85 0046 00E0     		b	.L4
  86              	.L3:
  87              		.loc 1 126 0 discriminator 2
  88 0048 584A     		ldr	r2, .L19+12
  89              	.L4:
 124:Generated_Source\PSoC4/CyFlash.c ****                          (uint32) (CY_FLASH_PAGE_LATCH_START_ADDR             << CY_FLASH_PARAM_ADD
  90              		.loc 1 124 0 is_stmt 1
  91 004a 0C23     		movs	r3, #12
  92 004c FB18     		adds	r3, r7, r3
  93 004e 1A60     		str	r2, [r3]
 127:Generated_Source\PSoC4/CyFlash.c ****                          CY_FLASH_KEY_ONE;
 128:Generated_Source\PSoC4/CyFlash.c ****         parameters[1u] = CY_FLASH_SIZEOF_ROW - 1u;
  94              		.loc 1 128 0
  95 0050 0C23     		movs	r3, #12
ARM GAS  C:\Users\diego\AppData\Local\Temp\ccQgq9yq.s 			page 5


  96 0052 FB18     		adds	r3, r7, r3
  97 0054 7F22     		movs	r2, #127
  98 0056 5A60     		str	r2, [r3, #4]
 129:Generated_Source\PSoC4/CyFlash.c **** 
 130:Generated_Source\PSoC4/CyFlash.c ****         CY_FLASH_CPUSS_SYSARG_REG = (uint32) &parameters[0u];
  99              		.loc 1 130 0
 100 0058 554B     		ldr	r3, .L19+16
 101 005a 0C22     		movs	r2, #12
 102 005c BA18     		adds	r2, r7, r2
 103 005e 1A60     		str	r2, [r3]
 131:Generated_Source\PSoC4/CyFlash.c ****         CY_FLASH_CPUSS_SYSREQ_REG = CY_FLASH_CPUSS_REQ_START | CY_FLASH_API_OPCODE_LOAD;
 104              		.loc 1 131 0
 105 0060 544B     		ldr	r3, .L19+20
 106 0062 554A     		ldr	r2, .L19+24
 107 0064 1A60     		str	r2, [r3]
 132:Generated_Source\PSoC4/CyFlash.c ****         CY_NOP;
 108              		.loc 1 132 0
 109              		.syntax divided
 110              	@ 132 "Generated_Source\PSoC4\CyFlash.c" 1
 111 0066 C046     		NOP
 112              	
 113              	@ 0 "" 2
 133:Generated_Source\PSoC4/CyFlash.c ****         retValue = CY_FLASH_API_RETURN;
 114              		.loc 1 133 0
 115              		.thumb
 116              		.syntax unified
 117 0068 514B     		ldr	r3, .L19+16
 118 006a 1B68     		ldr	r3, [r3]
 119 006c 1B0F     		lsrs	r3, r3, #28
 120 006e 1A07     		lsls	r2, r3, #28
 121 0070 F023     		movs	r3, #240
 122 0072 1B06     		lsls	r3, r3, #24
 123 0074 9A42     		cmp	r2, r3
 124 0076 04D1     		bne	.L5
 125              		.loc 1 133 0 is_stmt 0 discriminator 1
 126 0078 4D4B     		ldr	r3, .L19+16
 127 007a 1B68     		ldr	r3, [r3]
 128 007c FF22     		movs	r2, #255
 129 007e 1340     		ands	r3, r2
 130 0080 0DE0     		b	.L6
 131              	.L5:
 132              		.loc 1 133 0 discriminator 2
 133 0082 4B4B     		ldr	r3, .L19+16
 134 0084 1B68     		ldr	r3, [r3]
 135 0086 1B0F     		lsrs	r3, r3, #28
 136 0088 1A07     		lsls	r2, r3, #28
 137 008a A023     		movs	r3, #160
 138 008c 1B06     		lsls	r3, r3, #24
 139 008e 9A42     		cmp	r2, r3
 140 0090 04D0     		beq	.L7
 141              		.loc 1 133 0 discriminator 4
 142 0092 474B     		ldr	r3, .L19+16
 143 0094 1B68     		ldr	r3, [r3]
 144 0096 FF22     		movs	r2, #255
 145 0098 1340     		ands	r3, r2
 146 009a 00E0     		b	.L6
 147              	.L7:
ARM GAS  C:\Users\diego\AppData\Local\Temp\ccQgq9yq.s 			page 6


 148              		.loc 1 133 0 discriminator 5
 149 009c 0023     		movs	r3, #0
 150              	.L6:
 151              		.loc 1 133 0 discriminator 8
 152 009e 9822     		movs	r2, #152
 153 00a0 BA18     		adds	r2, r7, r2
 154 00a2 1360     		str	r3, [r2]
 134:Generated_Source\PSoC4/CyFlash.c **** 
 135:Generated_Source\PSoC4/CyFlash.c ****         if(retValue == CY_SYS_FLASH_SUCCESS)
 155              		.loc 1 135 0 is_stmt 1 discriminator 8
 156 00a4 9823     		movs	r3, #152
 157 00a6 FB18     		adds	r3, r7, r3
 158 00a8 1B68     		ldr	r3, [r3]
 159 00aa 002B     		cmp	r3, #0
 160 00ac 00D0     		beq	.LCB106
 161 00ae 6FE0     		b	.L17	@long jump
 162              	.LCB106:
 136:Generated_Source\PSoC4/CyFlash.c ****         {
 137:Generated_Source\PSoC4/CyFlash.c ****             /***************************************************************
 138:Generated_Source\PSoC4/CyFlash.c ****             * Mask all the exceptions to guarantee that Flash write will
 139:Generated_Source\PSoC4/CyFlash.c ****             * occur in the atomic way. It will not affect system call
 140:Generated_Source\PSoC4/CyFlash.c ****             * execution (flash row write) since it is executed in the NMI
 141:Generated_Source\PSoC4/CyFlash.c ****             * context.
 142:Generated_Source\PSoC4/CyFlash.c ****             ***************************************************************/
 143:Generated_Source\PSoC4/CyFlash.c ****             interruptState = CyEnterCriticalSection();
 163              		.loc 1 143 0
 164 00b0 9F23     		movs	r3, #159
 165 00b2 FC18     		adds	r4, r7, r3
 166 00b4 FFF7FEFF 		bl	CyEnterCriticalSection
 167 00b8 0300     		movs	r3, r0
 168 00ba 2370     		strb	r3, [r4]
 144:Generated_Source\PSoC4/CyFlash.c **** 
 145:Generated_Source\PSoC4/CyFlash.c ****             clkCnfRetValue = CySysFlashClockBackup();
 169              		.loc 1 145 0
 170 00bc FFF7FEFF 		bl	CySysFlashClockBackup
 171 00c0 0300     		movs	r3, r0
 172 00c2 9422     		movs	r2, #148
 173 00c4 BA18     		adds	r2, r7, r2
 174 00c6 1360     		str	r3, [r2]
 146:Generated_Source\PSoC4/CyFlash.c **** 
 147:Generated_Source\PSoC4/CyFlash.c ****         #if(CY_IP_SPCIF_SYNCHRONOUS)
 148:Generated_Source\PSoC4/CyFlash.c ****             if(clkCnfRetValue == CY_SYS_FLASH_SUCCESS)
 175              		.loc 1 148 0
 176 00c8 9423     		movs	r3, #148
 177 00ca FB18     		adds	r3, r7, r3
 178 00cc 1B68     		ldr	r3, [r3]
 179 00ce 002B     		cmp	r3, #0
 180 00d0 05D1     		bne	.L10
 149:Generated_Source\PSoC4/CyFlash.c ****             {
 150:Generated_Source\PSoC4/CyFlash.c ****                 retValue = CySysFlashClockConfig();
 181              		.loc 1 150 0
 182 00d2 FFF7FEFF 		bl	CySysFlashClockConfig
 183 00d6 0300     		movs	r3, r0
 184 00d8 9822     		movs	r2, #152
 185 00da BA18     		adds	r2, r7, r2
 186 00dc 1360     		str	r3, [r2]
 187              	.L10:
ARM GAS  C:\Users\diego\AppData\Local\Temp\ccQgq9yq.s 			page 7


 151:Generated_Source\PSoC4/CyFlash.c ****             }
 152:Generated_Source\PSoC4/CyFlash.c ****         #endif  /* (CY_IP_SPCIF_SYNCHRONOUS) */
 153:Generated_Source\PSoC4/CyFlash.c **** 
 154:Generated_Source\PSoC4/CyFlash.c ****             if(retValue == CY_SYS_FLASH_SUCCESS)
 188              		.loc 1 154 0
 189 00de 9823     		movs	r3, #152
 190 00e0 FB18     		adds	r3, r7, r3
 191 00e2 1B68     		ldr	r3, [r3]
 192 00e4 002B     		cmp	r3, #0
 193 00e6 32D1     		bne	.L11
 155:Generated_Source\PSoC4/CyFlash.c ****             {
 156:Generated_Source\PSoC4/CyFlash.c ****                 /* Write Row */
 157:Generated_Source\PSoC4/CyFlash.c ****                 parameters[0u]  = (uint32) (((uint32) CY_FLASH_KEY_TWO(CY_FLASH_API_OPCODE_WRITE_RO
 194              		.loc 1 157 0
 195 00e8 0C23     		movs	r3, #12
 196 00ea FB18     		adds	r3, r7, r3
 197 00ec 334A     		ldr	r2, .L19+28
 198 00ee 1A60     		str	r2, [r3]
 158:Generated_Source\PSoC4/CyFlash.c ****                 parameters[0u] |= (uint32)(rowNum << 16u);
 199              		.loc 1 158 0
 200 00f0 0C23     		movs	r3, #12
 201 00f2 FB18     		adds	r3, r7, r3
 202 00f4 1A68     		ldr	r2, [r3]
 203 00f6 7B68     		ldr	r3, [r7, #4]
 204 00f8 1B04     		lsls	r3, r3, #16
 205 00fa 1A43     		orrs	r2, r3
 206 00fc 0C23     		movs	r3, #12
 207 00fe FB18     		adds	r3, r7, r3
 208 0100 1A60     		str	r2, [r3]
 159:Generated_Source\PSoC4/CyFlash.c **** 
 160:Generated_Source\PSoC4/CyFlash.c ****                 CY_FLASH_CPUSS_SYSARG_REG = (uint32) &parameters[0u];
 209              		.loc 1 160 0
 210 0102 2B4B     		ldr	r3, .L19+16
 211 0104 0C22     		movs	r2, #12
 212 0106 BA18     		adds	r2, r7, r2
 213 0108 1A60     		str	r2, [r3]
 161:Generated_Source\PSoC4/CyFlash.c ****                 CY_FLASH_CPUSS_SYSREQ_REG = CY_FLASH_CPUSS_REQ_START | CY_FLASH_API_OPCODE_WRITE_RO
 214              		.loc 1 161 0
 215 010a 2A4B     		ldr	r3, .L19+20
 216 010c 2C4A     		ldr	r2, .L19+32
 217 010e 1A60     		str	r2, [r3]
 162:Generated_Source\PSoC4/CyFlash.c ****                 CY_NOP;
 218              		.loc 1 162 0
 219              		.syntax divided
 220              	@ 162 "Generated_Source\PSoC4\CyFlash.c" 1
 221 0110 C046     		NOP
 222              	
 223              	@ 0 "" 2
 163:Generated_Source\PSoC4/CyFlash.c ****                 retValue = CY_FLASH_API_RETURN;
 224              		.loc 1 163 0
 225              		.thumb
 226              		.syntax unified
 227 0112 274B     		ldr	r3, .L19+16
 228 0114 1B68     		ldr	r3, [r3]
 229 0116 1B0F     		lsrs	r3, r3, #28
 230 0118 1A07     		lsls	r2, r3, #28
 231 011a F023     		movs	r3, #240
ARM GAS  C:\Users\diego\AppData\Local\Temp\ccQgq9yq.s 			page 8


 232 011c 1B06     		lsls	r3, r3, #24
 233 011e 9A42     		cmp	r2, r3
 234 0120 04D1     		bne	.L12
 235              		.loc 1 163 0 is_stmt 0 discriminator 1
 236 0122 234B     		ldr	r3, .L19+16
 237 0124 1B68     		ldr	r3, [r3]
 238 0126 FF22     		movs	r2, #255
 239 0128 1340     		ands	r3, r2
 240 012a 0DE0     		b	.L13
 241              	.L12:
 242              		.loc 1 163 0 discriminator 2
 243 012c 204B     		ldr	r3, .L19+16
 244 012e 1B68     		ldr	r3, [r3]
 245 0130 1B0F     		lsrs	r3, r3, #28
 246 0132 1A07     		lsls	r2, r3, #28
 247 0134 A023     		movs	r3, #160
 248 0136 1B06     		lsls	r3, r3, #24
 249 0138 9A42     		cmp	r2, r3
 250 013a 04D0     		beq	.L14
 251              		.loc 1 163 0 discriminator 4
 252 013c 1C4B     		ldr	r3, .L19+16
 253 013e 1B68     		ldr	r3, [r3]
 254 0140 FF22     		movs	r2, #255
 255 0142 1340     		ands	r3, r2
 256 0144 00E0     		b	.L13
 257              	.L14:
 258              		.loc 1 163 0 discriminator 5
 259 0146 0023     		movs	r3, #0
 260              	.L13:
 261              		.loc 1 163 0 discriminator 8
 262 0148 9822     		movs	r2, #152
 263 014a BA18     		adds	r2, r7, r2
 264 014c 1360     		str	r3, [r2]
 265              	.L11:
 164:Generated_Source\PSoC4/CyFlash.c ****             }
 165:Generated_Source\PSoC4/CyFlash.c **** 
 166:Generated_Source\PSoC4/CyFlash.c ****             #if (CY_FLASH_CHECKSUM_WORKAROUND)
 167:Generated_Source\PSoC4/CyFlash.c **** 
 168:Generated_Source\PSoC4/CyFlash.c ****                 if ((retValue == CYRET_SUCCESS) && (needChecksumWorkaround != 0u))
 169:Generated_Source\PSoC4/CyFlash.c ****                 {
 170:Generated_Source\PSoC4/CyFlash.c ****                     (void)memset((void *)&parameters[2u], 0, CY_FLASH_SIZEOF_ROW);
 171:Generated_Source\PSoC4/CyFlash.c ****                     parameters[savedIndex] = savedValue;
 172:Generated_Source\PSoC4/CyFlash.c **** 
 173:Generated_Source\PSoC4/CyFlash.c ****                     /* Load Flash Bytes */
 174:Generated_Source\PSoC4/CyFlash.c ****                     parameters[0u] = (uint32) (CY_FLASH_GET_MACRO_FROM_ROW(rowNum)        << CY_FLA
 175:Generated_Source\PSoC4/CyFlash.c ****                                      (uint32) (CY_FLASH_PAGE_LATCH_START_ADDR             << CY_FLA
 176:Generated_Source\PSoC4/CyFlash.c ****                                      (uint32) (CY_FLASH_KEY_TWO(CY_FLASH_API_OPCODE_LOAD) << CY_FLA
 177:Generated_Source\PSoC4/CyFlash.c ****                                      CY_FLASH_KEY_ONE;
 178:Generated_Source\PSoC4/CyFlash.c ****                     parameters[1u] = CY_FLASH_SIZEOF_ROW - 1u;
 179:Generated_Source\PSoC4/CyFlash.c **** 
 180:Generated_Source\PSoC4/CyFlash.c ****                     CY_FLASH_CPUSS_SYSARG_REG = (uint32) &parameters[0u];
 181:Generated_Source\PSoC4/CyFlash.c ****                     CY_FLASH_CPUSS_SYSREQ_REG = CY_FLASH_CPUSS_REQ_START | CY_FLASH_API_OPCODE_LOAD
 182:Generated_Source\PSoC4/CyFlash.c ****                     CY_NOP;
 183:Generated_Source\PSoC4/CyFlash.c ****                     retValue = CY_FLASH_API_RETURN;
 184:Generated_Source\PSoC4/CyFlash.c **** 
 185:Generated_Source\PSoC4/CyFlash.c **** 
 186:Generated_Source\PSoC4/CyFlash.c ****                     if(retValue == CY_SYS_FLASH_SUCCESS)
ARM GAS  C:\Users\diego\AppData\Local\Temp\ccQgq9yq.s 			page 9


 187:Generated_Source\PSoC4/CyFlash.c ****                     {
 188:Generated_Source\PSoC4/CyFlash.c ****                         /* Program Row */
 189:Generated_Source\PSoC4/CyFlash.c ****                         parameters[0u]  =
 190:Generated_Source\PSoC4/CyFlash.c ****                             (uint32) (((uint32) CY_FLASH_KEY_TWO(CY_FLASH_API_OPCODE_PROGRAM_ROW) <
 191:Generated_Source\PSoC4/CyFlash.c ****                                                     CY_FLASH_PARAM_KEY_TWO_OFFSET) | CY_FLASH_KEY_O
 192:Generated_Source\PSoC4/CyFlash.c ****                         parameters[0u] |= (uint32)(rowNum << 16u);
 193:Generated_Source\PSoC4/CyFlash.c **** 
 194:Generated_Source\PSoC4/CyFlash.c ****                         CY_FLASH_CPUSS_SYSARG_REG = (uint32) &parameters[0u];
 195:Generated_Source\PSoC4/CyFlash.c ****                         CY_FLASH_CPUSS_SYSREQ_REG = CY_FLASH_CPUSS_REQ_START | CY_FLASH_API_OPCODE_
 196:Generated_Source\PSoC4/CyFlash.c ****                         CY_NOP;
 197:Generated_Source\PSoC4/CyFlash.c ****                         retValue = CY_FLASH_API_RETURN;
 198:Generated_Source\PSoC4/CyFlash.c ****                     }
 199:Generated_Source\PSoC4/CyFlash.c ****                 }
 200:Generated_Source\PSoC4/CyFlash.c ****             #endif  /* (CY_FLASH_CHECKSUM_WORKAROUND) */
 201:Generated_Source\PSoC4/CyFlash.c **** 
 202:Generated_Source\PSoC4/CyFlash.c ****             if(clkCnfRetValue == CY_SYS_FLASH_SUCCESS)
 266              		.loc 1 202 0 is_stmt 1
 267 014e 9423     		movs	r3, #148
 268 0150 FB18     		adds	r3, r7, r3
 269 0152 1B68     		ldr	r3, [r3]
 270 0154 002B     		cmp	r3, #0
 271 0156 10D1     		bne	.L16
 203:Generated_Source\PSoC4/CyFlash.c ****             {
 204:Generated_Source\PSoC4/CyFlash.c ****                 clkCnfRetValue = CySysFlashClockRestore();
 272              		.loc 1 204 0
 273 0158 FFF7FEFF 		bl	CySysFlashClockRestore
 274 015c 0300     		movs	r3, r0
 275 015e 9422     		movs	r2, #148
 276 0160 BA18     		adds	r2, r7, r2
 277 0162 1360     		str	r3, [r2]
 205:Generated_Source\PSoC4/CyFlash.c **** 
 206:Generated_Source\PSoC4/CyFlash.c ****                 if(clkCnfRetValue != CY_SYS_FLASH_SUCCESS)
 278              		.loc 1 206 0
 279 0164 9423     		movs	r3, #148
 280 0166 FB18     		adds	r3, r7, r3
 281 0168 1B68     		ldr	r3, [r3]
 282 016a 002B     		cmp	r3, #0
 283 016c 05D0     		beq	.L16
 207:Generated_Source\PSoC4/CyFlash.c ****                 {
 208:Generated_Source\PSoC4/CyFlash.c ****                     retValue = clkCnfRetValue;
 284              		.loc 1 208 0
 285 016e 9423     		movs	r3, #148
 286 0170 FB18     		adds	r3, r7, r3
 287 0172 1B68     		ldr	r3, [r3]
 288 0174 9822     		movs	r2, #152
 289 0176 BA18     		adds	r2, r7, r2
 290 0178 1360     		str	r3, [r2]
 291              	.L16:
 209:Generated_Source\PSoC4/CyFlash.c ****                 }
 210:Generated_Source\PSoC4/CyFlash.c ****             }
 211:Generated_Source\PSoC4/CyFlash.c **** 
 212:Generated_Source\PSoC4/CyFlash.c ****             CyExitCriticalSection(interruptState);
 292              		.loc 1 212 0
 293 017a 9F23     		movs	r3, #159
 294 017c FB18     		adds	r3, r7, r3
 295 017e 1B78     		ldrb	r3, [r3]
 296 0180 1800     		movs	r0, r3
ARM GAS  C:\Users\diego\AppData\Local\Temp\ccQgq9yq.s 			page 10


 297 0182 FFF7FEFF 		bl	CyExitCriticalSection
 135:Generated_Source\PSoC4/CyFlash.c ****         {
 298              		.loc 1 135 0
 299 0186 03E0     		b	.L17
 300              	.L2:
 213:Generated_Source\PSoC4/CyFlash.c ****         }
 214:Generated_Source\PSoC4/CyFlash.c ****     }
 215:Generated_Source\PSoC4/CyFlash.c ****     else
 216:Generated_Source\PSoC4/CyFlash.c ****     {
 217:Generated_Source\PSoC4/CyFlash.c ****         retValue = CY_SYS_FLASH_INVALID_ADDR;
 301              		.loc 1 217 0
 302 0188 0423     		movs	r3, #4
 303 018a 9822     		movs	r2, #152
 304 018c BA18     		adds	r2, r7, r2
 305 018e 1360     		str	r3, [r2]
 306              	.L17:
 218:Generated_Source\PSoC4/CyFlash.c ****     }
 219:Generated_Source\PSoC4/CyFlash.c **** 
 220:Generated_Source\PSoC4/CyFlash.c ****     return (retValue);
 307              		.loc 1 220 0
 308 0190 9823     		movs	r3, #152
 309 0192 FB18     		adds	r3, r7, r3
 310 0194 1B68     		ldr	r3, [r3]
 221:Generated_Source\PSoC4/CyFlash.c **** }
 311              		.loc 1 221 0
 312 0196 1800     		movs	r0, r3
 313 0198 BD46     		mov	sp, r7
 314 019a 29B0     		add	sp, sp, #164
 315              		@ sp needed
 316 019c 90BD     		pop	{r4, r7, pc}
 317              	.L20:
 318 019e C046     		.align	2
 319              	.L19:
 320 01a0 FF030000 		.word	1023
 321 01a4 FF010000 		.word	511
 322 01a8 B6D70001 		.word	16832438
 323 01ac B6D70000 		.word	55222
 324 01b0 08001040 		.word	1074790408
 325 01b4 04001040 		.word	1074790404
 326 01b8 04000080 		.word	-2147483644
 327 01bc B6D80000 		.word	55478
 328 01c0 05000080 		.word	-2147483643
 329              		.cfi_endproc
 330              	.LFE2:
 331              		.size	CySysFlashWriteRow, .-CySysFlashWriteRow
 332              		.section	.text.CySysFlashSetWaitCycles,"ax",%progbits
 333              		.align	2
 334              		.global	CySysFlashSetWaitCycles
 335              		.code	16
 336              		.thumb_func
 337              		.type	CySysFlashSetWaitCycles, %function
 338              	CySysFlashSetWaitCycles:
 339              	.LFB3:
 222:Generated_Source\PSoC4/CyFlash.c **** 
 223:Generated_Source\PSoC4/CyFlash.c **** 
 224:Generated_Source\PSoC4/CyFlash.c **** 
 225:Generated_Source\PSoC4/CyFlash.c **** #if (CY_IP_FLASH_PARALLEL_PGM_EN && (CY_IP_FLASH_MACROS > 1u))
ARM GAS  C:\Users\diego\AppData\Local\Temp\ccQgq9yq.s 			page 11


 226:Generated_Source\PSoC4/CyFlash.c **** /*******************************************************************************
 227:Generated_Source\PSoC4/CyFlash.c **** * Function Name: CySysFlashStartWriteRow
 228:Generated_Source\PSoC4/CyFlash.c **** ****************************************************************************//**
 229:Generated_Source\PSoC4/CyFlash.c **** *
 230:Generated_Source\PSoC4/CyFlash.c **** * Initiates a write to a row of Flash. A call to this API is non-blocking. 
 231:Generated_Source\PSoC4/CyFlash.c **** * Use CySysFlashResumeWriteRow() to resume flash writes and 
 232:Generated_Source\PSoC4/CyFlash.c **** * CySysFlashGetWriteRowStatus() to ascertain status of the write operation.
 233:Generated_Source\PSoC4/CyFlash.c **** *
 234:Generated_Source\PSoC4/CyFlash.c **** * The devices require HFCLK to be sourced by 48 MHz IMO during flash write.
 235:Generated_Source\PSoC4/CyFlash.c **** * This API will modify IMO configuration; it can be later restored to original
 236:Generated_Source\PSoC4/CyFlash.c **** * configuration by calling \ref CySysFlashGetWriteRowStatus().
 237:Generated_Source\PSoC4/CyFlash.c **** *
 238:Generated_Source\PSoC4/CyFlash.c **** * \note The non-blocking operation does not return success status 
 239:Generated_Source\PSoC4/CyFlash.c **** * CY_SYS_FLASH_SUCCESS until the last \ref CySysFlashResumeWriteRow API 
 240:Generated_Source\PSoC4/CyFlash.c **** * is complete. The CPUSS_SYSARG register will be reflecting the SRAM address 
 241:Generated_Source\PSoC4/CyFlash.c **** * during an ongoing non-blocking operation.
 242:Generated_Source\PSoC4/CyFlash.c **** *    
 243:Generated_Source\PSoC4/CyFlash.c **** * \param rowNum The flash row number. The number of the flash rows is defined by
 244:Generated_Source\PSoC4/CyFlash.c **** * the \ref CY_FLASH_NUMBER_ROWS macro for the selected device. Refer to the
 245:Generated_Source\PSoC4/CyFlash.c **** * device datasheet for the details.
 246:Generated_Source\PSoC4/CyFlash.c **** * \note The target flash array is calculated based on the specified flash row.
 247:Generated_Source\PSoC4/CyFlash.c **** *
 248:Generated_Source\PSoC4/CyFlash.c **** * \param rowData Array of bytes to write. The size of the array must be equal to
 249:Generated_Source\PSoC4/CyFlash.c **** * the flash row size. The flash row size for the selected device is defined by
 250:Generated_Source\PSoC4/CyFlash.c **** * the \ref CY_FLASH_SIZEOF_ROW macro. Refer to the device datasheet for the
 251:Generated_Source\PSoC4/CyFlash.c **** * details.
 252:Generated_Source\PSoC4/CyFlash.c **** *
 253:Generated_Source\PSoC4/CyFlash.c **** * \return \ref group_flash_status_codes
 254:Generated_Source\PSoC4/CyFlash.c **** *
 255:Generated_Source\PSoC4/CyFlash.c **** *******************************************************************************/
 256:Generated_Source\PSoC4/CyFlash.c **** uint32 CySysFlashStartWriteRow(uint32 rowNum, const uint8 rowData[])
 257:Generated_Source\PSoC4/CyFlash.c **** {
 258:Generated_Source\PSoC4/CyFlash.c ****     volatile uint32 retValue = CY_SYS_FLASH_SUCCESS;
 259:Generated_Source\PSoC4/CyFlash.c ****     volatile uint32 parameters[(CY_FLASH_SIZEOF_ROW + CY_FLASH_SRAM_ROM_DATA) / sizeof(uint32)];
 260:Generated_Source\PSoC4/CyFlash.c ****     uint8  interruptState;
 261:Generated_Source\PSoC4/CyFlash.c **** 
 262:Generated_Source\PSoC4/CyFlash.c **** #if(CY_IP_SPCIF_SYNCHRONOUS)
 263:Generated_Source\PSoC4/CyFlash.c ****     volatile uint32 clkCnfRetValue = CY_SYS_FLASH_SUCCESS;
 264:Generated_Source\PSoC4/CyFlash.c **** #endif  /* (CY_IP_SPCIF_SYNCHRONOUS) */    
 265:Generated_Source\PSoC4/CyFlash.c **** 
 266:Generated_Source\PSoC4/CyFlash.c ****     if ((rowNum < CY_FLASH_NUMBER_ROWS) && (rowData != 0u))
 267:Generated_Source\PSoC4/CyFlash.c ****     {
 268:Generated_Source\PSoC4/CyFlash.c ****         /* Copy data to be written into internal variable */
 269:Generated_Source\PSoC4/CyFlash.c ****         (void)memcpy((void *)&parameters[2u], rowData, CY_FLASH_SIZEOF_ROW);
 270:Generated_Source\PSoC4/CyFlash.c **** 
 271:Generated_Source\PSoC4/CyFlash.c ****         /* Load Flash Bytes */
 272:Generated_Source\PSoC4/CyFlash.c ****         parameters[0u] = (uint32) (CY_FLASH_GET_MACRO_FROM_ROW(rowNum)        << CY_FLASH_PARAM_MAC
 273:Generated_Source\PSoC4/CyFlash.c ****                          (uint32) (CY_FLASH_PAGE_LATCH_START_ADDR             << CY_FLASH_PARAM_ADD
 274:Generated_Source\PSoC4/CyFlash.c ****                          (uint32) (CY_FLASH_KEY_TWO(CY_FLASH_API_OPCODE_LOAD) << CY_FLASH_PARAM_KEY
 275:Generated_Source\PSoC4/CyFlash.c ****                          CY_FLASH_KEY_ONE;
 276:Generated_Source\PSoC4/CyFlash.c ****         parameters[1u] = CY_FLASH_SIZEOF_ROW - 1u;
 277:Generated_Source\PSoC4/CyFlash.c **** 
 278:Generated_Source\PSoC4/CyFlash.c ****         CY_FLASH_CPUSS_SYSARG_REG = (uint32) &parameters[0u];
 279:Generated_Source\PSoC4/CyFlash.c ****         CY_FLASH_CPUSS_SYSREQ_REG = CY_FLASH_CPUSS_REQ_START | CY_FLASH_API_OPCODE_LOAD;
 280:Generated_Source\PSoC4/CyFlash.c ****         CY_NOP;
 281:Generated_Source\PSoC4/CyFlash.c ****         retValue = CY_FLASH_API_RETURN;
 282:Generated_Source\PSoC4/CyFlash.c **** 
ARM GAS  C:\Users\diego\AppData\Local\Temp\ccQgq9yq.s 			page 12


 283:Generated_Source\PSoC4/CyFlash.c ****         if(retValue == CY_SYS_FLASH_SUCCESS)
 284:Generated_Source\PSoC4/CyFlash.c ****         {
 285:Generated_Source\PSoC4/CyFlash.c ****             /***************************************************************
 286:Generated_Source\PSoC4/CyFlash.c ****             * Mask all the exceptions to guarantee that Flash write will
 287:Generated_Source\PSoC4/CyFlash.c ****             * occur in the atomic way. It will not affect system call
 288:Generated_Source\PSoC4/CyFlash.c ****             * execution (flash row write) since it is executed in the NMI
 289:Generated_Source\PSoC4/CyFlash.c ****             * context.
 290:Generated_Source\PSoC4/CyFlash.c ****             ***************************************************************/
 291:Generated_Source\PSoC4/CyFlash.c ****             interruptState = CyEnterCriticalSection();
 292:Generated_Source\PSoC4/CyFlash.c **** 
 293:Generated_Source\PSoC4/CyFlash.c ****         #if(CY_IP_SPCIF_SYNCHRONOUS)
 294:Generated_Source\PSoC4/CyFlash.c ****             clkCnfRetValue = CySysFlashClockBackup();
 295:Generated_Source\PSoC4/CyFlash.c ****             
 296:Generated_Source\PSoC4/CyFlash.c ****             if(clkCnfRetValue == CY_SYS_FLASH_SUCCESS)
 297:Generated_Source\PSoC4/CyFlash.c ****             {
 298:Generated_Source\PSoC4/CyFlash.c ****                 retValue = CySysFlashClockConfig();
 299:Generated_Source\PSoC4/CyFlash.c ****             }
 300:Generated_Source\PSoC4/CyFlash.c ****         #else
 301:Generated_Source\PSoC4/CyFlash.c ****             (void)CySysFlashClockBackup();
 302:Generated_Source\PSoC4/CyFlash.c ****         #endif  /* (CY_IP_SPCIF_SYNCHRONOUS) */
 303:Generated_Source\PSoC4/CyFlash.c **** 
 304:Generated_Source\PSoC4/CyFlash.c ****             if(retValue == CY_SYS_FLASH_SUCCESS)
 305:Generated_Source\PSoC4/CyFlash.c ****             {
 306:Generated_Source\PSoC4/CyFlash.c ****                 /* Non-blocking Write Row */
 307:Generated_Source\PSoC4/CyFlash.c ****                 parameters[0u]  = (uint32) (((uint32) CY_FLASH_KEY_TWO(CY_FLASH_API_OPCODE_NON_BLOC
 308:Generated_Source\PSoC4/CyFlash.c ****                                                         CY_FLASH_PARAM_KEY_TWO_OFFSET) | CY_FLASH_K
 309:Generated_Source\PSoC4/CyFlash.c ****                 parameters[0u] |= (uint32)(rowNum << 16u);
 310:Generated_Source\PSoC4/CyFlash.c **** 
 311:Generated_Source\PSoC4/CyFlash.c ****                 CY_FLASH_CPUSS_SYSARG_REG = (uint32) &parameters[0u];
 312:Generated_Source\PSoC4/CyFlash.c ****                 CY_FLASH_CPUSS_SYSREQ_REG = CY_FLASH_CPUSS_REQ_START | CY_FLASH_API_OPCODE_NON_BLOC
 313:Generated_Source\PSoC4/CyFlash.c ****                 CY_NOP;
 314:Generated_Source\PSoC4/CyFlash.c ****                 retValue = CY_FLASH_API_RETURN;
 315:Generated_Source\PSoC4/CyFlash.c ****             }
 316:Generated_Source\PSoC4/CyFlash.c **** 
 317:Generated_Source\PSoC4/CyFlash.c ****             CyExitCriticalSection(interruptState);
 318:Generated_Source\PSoC4/CyFlash.c ****         }
 319:Generated_Source\PSoC4/CyFlash.c ****     }
 320:Generated_Source\PSoC4/CyFlash.c ****     else
 321:Generated_Source\PSoC4/CyFlash.c ****     {
 322:Generated_Source\PSoC4/CyFlash.c ****         retValue = CY_SYS_FLASH_INVALID_ADDR;
 323:Generated_Source\PSoC4/CyFlash.c ****     }
 324:Generated_Source\PSoC4/CyFlash.c **** 
 325:Generated_Source\PSoC4/CyFlash.c ****     return (retValue);
 326:Generated_Source\PSoC4/CyFlash.c **** }
 327:Generated_Source\PSoC4/CyFlash.c **** 
 328:Generated_Source\PSoC4/CyFlash.c **** 
 329:Generated_Source\PSoC4/CyFlash.c **** /*******************************************************************************
 330:Generated_Source\PSoC4/CyFlash.c **** * Function Name: CySysFlashGetWriteRowStatus
 331:Generated_Source\PSoC4/CyFlash.c **** ****************************************************************************//**
 332:Generated_Source\PSoC4/CyFlash.c **** *
 333:Generated_Source\PSoC4/CyFlash.c **** * Returns the current status of the flash write operation.
 334:Generated_Source\PSoC4/CyFlash.c **** *
 335:Generated_Source\PSoC4/CyFlash.c **** ** \note The non-blocking operation does not return success status 
 336:Generated_Source\PSoC4/CyFlash.c **** * CY_SYS_FLASH_SUCCESS until the last \ref CySysFlashResumeWriteRow API 
 337:Generated_Source\PSoC4/CyFlash.c **** * is complete. The CPUSS_SYSARG register will be reflecting the SRAM address 
 338:Generated_Source\PSoC4/CyFlash.c **** * during an ongoing non-blocking operation.
 339:Generated_Source\PSoC4/CyFlash.c **** * Calling this API before starting a non-blocking write row operation 
ARM GAS  C:\Users\diego\AppData\Local\Temp\ccQgq9yq.s 			page 13


 340:Generated_Source\PSoC4/CyFlash.c **** * using the \ref CySysFlashStartWriteRow() API will cause improper operation.
 341:Generated_Source\PSoC4/CyFlash.c **** *
 342:Generated_Source\PSoC4/CyFlash.c **** * \return \ref group_flash_status_codes
 343:Generated_Source\PSoC4/CyFlash.c **** *
 344:Generated_Source\PSoC4/CyFlash.c **** *******************************************************************************/
 345:Generated_Source\PSoC4/CyFlash.c **** uint32 CySysFlashGetWriteRowStatus(void)
 346:Generated_Source\PSoC4/CyFlash.c **** {
 347:Generated_Source\PSoC4/CyFlash.c ****     volatile uint32 retValue = CY_SYS_FLASH_SUCCESS;
 348:Generated_Source\PSoC4/CyFlash.c **** 
 349:Generated_Source\PSoC4/CyFlash.c ****     CY_NOP;
 350:Generated_Source\PSoC4/CyFlash.c ****     retValue = CY_FLASH_API_RETURN;
 351:Generated_Source\PSoC4/CyFlash.c **** 
 352:Generated_Source\PSoC4/CyFlash.c ****     (void) CySysFlashClockRestore();
 353:Generated_Source\PSoC4/CyFlash.c **** 
 354:Generated_Source\PSoC4/CyFlash.c ****     return (retValue);
 355:Generated_Source\PSoC4/CyFlash.c **** }
 356:Generated_Source\PSoC4/CyFlash.c **** 
 357:Generated_Source\PSoC4/CyFlash.c **** 
 358:Generated_Source\PSoC4/CyFlash.c **** /*******************************************************************************
 359:Generated_Source\PSoC4/CyFlash.c **** * Function Name: CySysFlashResumeWriteRow
 360:Generated_Source\PSoC4/CyFlash.c **** ****************************************************************************//**
 361:Generated_Source\PSoC4/CyFlash.c **** *
 362:Generated_Source\PSoC4/CyFlash.c **** * This API must be called, once the SPC interrupt is triggered to complete the
 363:Generated_Source\PSoC4/CyFlash.c **** * non-blocking operation. It is advised not to prolong calling this API for
 364:Generated_Source\PSoC4/CyFlash.c **** * more than 25 ms.
 365:Generated_Source\PSoC4/CyFlash.c **** *
 366:Generated_Source\PSoC4/CyFlash.c **** * The non-blocking write row API \ref CySysFlashStartWriteRow() requires that
 367:Generated_Source\PSoC4/CyFlash.c **** * this API be called 3 times to complete the write. This can be done by
 368:Generated_Source\PSoC4/CyFlash.c **** * configuring SPCIF interrupt and placing a call to this API.
 369:Generated_Source\PSoC4/CyFlash.c **** *
 370:Generated_Source\PSoC4/CyFlash.c **** * For CM0 based device, a non-blocking call to program a row of macro 0
 371:Generated_Source\PSoC4/CyFlash.c **** * requires the user to set the CPUSS_CONFIG.VECS_IN_RAM bit so that the
 372:Generated_Source\PSoC4/CyFlash.c **** * interrupt vector for the SPC is fetched from the SRAM rather than the FLASH.
 373:Generated_Source\PSoC4/CyFlash.c **** *
 374:Generated_Source\PSoC4/CyFlash.c **** * For CM0+ based device, if the user wants to keep the vector table in flash
 375:Generated_Source\PSoC4/CyFlash.c **** * when performing non-blocking flash write then they need to make sure the
 376:Generated_Source\PSoC4/CyFlash.c **** * vector table is placed in the flash macro which is not getting programmed by
 377:Generated_Source\PSoC4/CyFlash.c **** * configuring the VTOR register.
 378:Generated_Source\PSoC4/CyFlash.c **** *
 379:Generated_Source\PSoC4/CyFlash.c **** * \note The non-blocking operation does not return success status 
 380:Generated_Source\PSoC4/CyFlash.c **** * CY_SYS_FLASH_SUCCESS until the last Resume API is complete. 
 381:Generated_Source\PSoC4/CyFlash.c **** * The CPUSS_SYSARG register will be reflecting the SRAM address during an 
 382:Generated_Source\PSoC4/CyFlash.c **** * ongoing non-blocking operation.
 383:Generated_Source\PSoC4/CyFlash.c **** *
 384:Generated_Source\PSoC4/CyFlash.c **** * \return \ref group_flash_status_codes
 385:Generated_Source\PSoC4/CyFlash.c **** *
 386:Generated_Source\PSoC4/CyFlash.c **** *******************************************************************************/
 387:Generated_Source\PSoC4/CyFlash.c **** uint32 CySysFlashResumeWriteRow(void)
 388:Generated_Source\PSoC4/CyFlash.c **** {
 389:Generated_Source\PSoC4/CyFlash.c ****     volatile uint32 retValue = CY_SYS_FLASH_SUCCESS;
 390:Generated_Source\PSoC4/CyFlash.c ****     static volatile uint32 parameters[1u];
 391:Generated_Source\PSoC4/CyFlash.c **** 
 392:Generated_Source\PSoC4/CyFlash.c ****     /* Resume */
 393:Generated_Source\PSoC4/CyFlash.c ****     parameters[0u] = (uint32) (((uint32) CY_FLASH_KEY_TWO(CY_FLASH_API_OPCODE_RESUME_NON_BLOCKING) 
 394:Generated_Source\PSoC4/CyFlash.c ****                                          CY_FLASH_PARAM_KEY_TWO_OFFSET) | CY_FLASH_KEY_ONE);
 395:Generated_Source\PSoC4/CyFlash.c ****     CY_FLASH_CPUSS_SYSARG_REG = (uint32) &parameters[0u];
 396:Generated_Source\PSoC4/CyFlash.c ****     CY_FLASH_CPUSS_SYSREQ_REG = CY_FLASH_CPUSS_REQ_START | CY_FLASH_API_OPCODE_RESUME_NON_BLOCKING;
ARM GAS  C:\Users\diego\AppData\Local\Temp\ccQgq9yq.s 			page 14


 397:Generated_Source\PSoC4/CyFlash.c ****     
 398:Generated_Source\PSoC4/CyFlash.c ****     CY_NOP;
 399:Generated_Source\PSoC4/CyFlash.c ****     retValue = CY_FLASH_API_RETURN;
 400:Generated_Source\PSoC4/CyFlash.c ****     
 401:Generated_Source\PSoC4/CyFlash.c ****     return (retValue);
 402:Generated_Source\PSoC4/CyFlash.c **** }
 403:Generated_Source\PSoC4/CyFlash.c **** 
 404:Generated_Source\PSoC4/CyFlash.c **** #endif /* (CY_IP_FLASH_PARALLEL_PGM_EN && (CY_IP_FLASH_MACROS > 1u)) */
 405:Generated_Source\PSoC4/CyFlash.c **** 
 406:Generated_Source\PSoC4/CyFlash.c **** 
 407:Generated_Source\PSoC4/CyFlash.c **** /*******************************************************************************
 408:Generated_Source\PSoC4/CyFlash.c **** * Function Name: CySysFlashSetWaitCycles
 409:Generated_Source\PSoC4/CyFlash.c **** ****************************************************************************//**
 410:Generated_Source\PSoC4/CyFlash.c **** *
 411:Generated_Source\PSoC4/CyFlash.c **** * Sets the number of clock cycles the cache will wait before it samples data
 412:Generated_Source\PSoC4/CyFlash.c **** * coming back from Flash. This function must be called before increasing the
 413:Generated_Source\PSoC4/CyFlash.c **** * SYSCLK clock frequency. It can optionally be called after lowering SYSCLK
 414:Generated_Source\PSoC4/CyFlash.c **** * clock frequency in order to improve the CPU performance.
 415:Generated_Source\PSoC4/CyFlash.c **** *
 416:Generated_Source\PSoC4/CyFlash.c **** * \param freq The System clock frequency in MHz.
 417:Generated_Source\PSoC4/CyFlash.c **** *
 418:Generated_Source\PSoC4/CyFlash.c **** * \note Invalid frequency will be ignored in Release mode and the CPU will be
 419:Generated_Source\PSoC4/CyFlash.c **** * halted if project is compiled in Debug mode.
 420:Generated_Source\PSoC4/CyFlash.c **** *
 421:Generated_Source\PSoC4/CyFlash.c **** *******************************************************************************/
 422:Generated_Source\PSoC4/CyFlash.c **** void CySysFlashSetWaitCycles(uint32 freq)
 423:Generated_Source\PSoC4/CyFlash.c **** {
 340              		.loc 1 423 0
 341              		.cfi_startproc
 342              		@ args = 0, pretend = 0, frame = 16
 343              		@ frame_needed = 1, uses_anonymous_args = 0
 344 0000 90B5     		push	{r4, r7, lr}
 345              		.cfi_def_cfa_offset 12
 346              		.cfi_offset 4, -12
 347              		.cfi_offset 7, -8
 348              		.cfi_offset 14, -4
 349 0002 85B0     		sub	sp, sp, #20
 350              		.cfi_def_cfa_offset 32
 351 0004 00AF     		add	r7, sp, #0
 352              		.cfi_def_cfa_register 7
 353 0006 7860     		str	r0, [r7, #4]
 424:Generated_Source\PSoC4/CyFlash.c ****     uint8  interruptState;
 425:Generated_Source\PSoC4/CyFlash.c **** 
 426:Generated_Source\PSoC4/CyFlash.c ****     interruptState = CyEnterCriticalSection();
 354              		.loc 1 426 0
 355 0008 0F23     		movs	r3, #15
 356 000a FC18     		adds	r4, r7, r3
 357 000c FFF7FEFF 		bl	CyEnterCriticalSection
 358 0010 0300     		movs	r3, r0
 359 0012 2370     		strb	r3, [r4]
 427:Generated_Source\PSoC4/CyFlash.c **** 
 428:Generated_Source\PSoC4/CyFlash.c ****     #if (CY_IP_CPUSS)
 429:Generated_Source\PSoC4/CyFlash.c **** 
 430:Generated_Source\PSoC4/CyFlash.c ****         if ( freq <= CY_FLASH_SYSCLK_BOUNDARY_MHZ )
 431:Generated_Source\PSoC4/CyFlash.c ****         {
 432:Generated_Source\PSoC4/CyFlash.c ****             CY_SYS_CLK_SELECT_REG &= (uint32)(~CY_FLASH_WAIT_STATE_EN);
 433:Generated_Source\PSoC4/CyFlash.c ****         }
ARM GAS  C:\Users\diego\AppData\Local\Temp\ccQgq9yq.s 			page 15


 434:Generated_Source\PSoC4/CyFlash.c ****         else
 435:Generated_Source\PSoC4/CyFlash.c ****         {
 436:Generated_Source\PSoC4/CyFlash.c ****             CY_SYS_CLK_SELECT_REG |= CY_FLASH_WAIT_STATE_EN;
 437:Generated_Source\PSoC4/CyFlash.c ****         }
 438:Generated_Source\PSoC4/CyFlash.c ****     #else
 439:Generated_Source\PSoC4/CyFlash.c ****         #if (CY_IP_CPUSS_FLASHC_PRESENT)
 440:Generated_Source\PSoC4/CyFlash.c ****             /* CY_IP_FM and CY_IP_FS */
 441:Generated_Source\PSoC4/CyFlash.c ****             if (freq <= CY_FLASH_CTL_WS_0_FREQ_MAX)
 360              		.loc 1 441 0
 361 0014 7B68     		ldr	r3, [r7, #4]
 362 0016 102B     		cmp	r3, #16
 363 0018 06D8     		bhi	.L22
 442:Generated_Source\PSoC4/CyFlash.c ****             {
 443:Generated_Source\PSoC4/CyFlash.c ****                 CY_FLASH_CTL_REG = (CY_FLASH_CTL_REG & ~CY_FLASH_CTL_WS_MASK) | CY_FLASH_CTL_WS_0_V
 364              		.loc 1 443 0
 365 001a 164B     		ldr	r3, .L26
 366 001c 154A     		ldr	r2, .L26
 367 001e 1268     		ldr	r2, [r2]
 368 0020 0321     		movs	r1, #3
 369 0022 8A43     		bics	r2, r1
 370 0024 1A60     		str	r2, [r3]
 371 0026 1AE0     		b	.L23
 372              	.L22:
 444:Generated_Source\PSoC4/CyFlash.c ****             } else
 445:Generated_Source\PSoC4/CyFlash.c ****             if (freq <= CY_FLASH_CTL_WS_1_FREQ_MAX)
 373              		.loc 1 445 0
 374 0028 7B68     		ldr	r3, [r7, #4]
 375 002a 202B     		cmp	r3, #32
 376 002c 08D8     		bhi	.L24
 446:Generated_Source\PSoC4/CyFlash.c ****             {
 447:Generated_Source\PSoC4/CyFlash.c ****                 CY_FLASH_CTL_REG = (CY_FLASH_CTL_REG & ~CY_FLASH_CTL_WS_MASK) | CY_FLASH_CTL_WS_1_V
 377              		.loc 1 447 0
 378 002e 114B     		ldr	r3, .L26
 379 0030 104A     		ldr	r2, .L26
 380 0032 1268     		ldr	r2, [r2]
 381 0034 0321     		movs	r1, #3
 382 0036 8A43     		bics	r2, r1
 383 0038 0121     		movs	r1, #1
 384 003a 0A43     		orrs	r2, r1
 385 003c 1A60     		str	r2, [r3]
 386 003e 0EE0     		b	.L23
 387              	.L24:
 448:Generated_Source\PSoC4/CyFlash.c ****             } else
 449:Generated_Source\PSoC4/CyFlash.c ****             #if (CY_IP_FMLT || CY_IP_FSLT)
 450:Generated_Source\PSoC4/CyFlash.c ****                 if (freq <= CY_FLASH_CTL_WS_2_FREQ_MAX)
 388              		.loc 1 450 0
 389 0040 7B68     		ldr	r3, [r7, #4]
 390 0042 302B     		cmp	r3, #48
 391 0044 08D8     		bhi	.L25
 451:Generated_Source\PSoC4/CyFlash.c ****                 {
 452:Generated_Source\PSoC4/CyFlash.c ****                     CY_FLASH_CTL_REG = (CY_FLASH_CTL_REG & ~CY_FLASH_CTL_WS_MASK) | CY_FLASH_CTL_WS
 392              		.loc 1 452 0
 393 0046 0B4B     		ldr	r3, .L26
 394 0048 0A4A     		ldr	r2, .L26
 395 004a 1268     		ldr	r2, [r2]
 396 004c 0321     		movs	r1, #3
 397 004e 8A43     		bics	r2, r1
ARM GAS  C:\Users\diego\AppData\Local\Temp\ccQgq9yq.s 			page 16


 398 0050 0221     		movs	r1, #2
 399 0052 0A43     		orrs	r2, r1
 400 0054 1A60     		str	r2, [r3]
 401 0056 02E0     		b	.L23
 402              	.L25:
 453:Generated_Source\PSoC4/CyFlash.c ****                 }
 454:Generated_Source\PSoC4/CyFlash.c ****                 else
 455:Generated_Source\PSoC4/CyFlash.c ****             #endif  /* (CY_IP_FMLT || CY_IP_FSLT) */
 456:Generated_Source\PSoC4/CyFlash.c ****         #endif /* (CY_IP_CPUSS_FLASHC_PRESENT) */
 457:Generated_Source\PSoC4/CyFlash.c ****         {
 458:Generated_Source\PSoC4/CyFlash.c ****             /* Halt CPU in debug mode if frequency is invalid */
 459:Generated_Source\PSoC4/CyFlash.c ****             CYASSERT(0u != 0u);
 403              		.loc 1 459 0 discriminator 1
 404 0058 0020     		movs	r0, #0
 405 005a FFF7FEFF 		bl	CyHalt
 406              	.L23:
 460:Generated_Source\PSoC4/CyFlash.c ****         }
 461:Generated_Source\PSoC4/CyFlash.c **** 
 462:Generated_Source\PSoC4/CyFlash.c ****     #endif  /* (CY_IP_CPUSS) */
 463:Generated_Source\PSoC4/CyFlash.c **** 
 464:Generated_Source\PSoC4/CyFlash.c ****     CyExitCriticalSection(interruptState);
 407              		.loc 1 464 0
 408 005e 0F23     		movs	r3, #15
 409 0060 FB18     		adds	r3, r7, r3
 410 0062 1B78     		ldrb	r3, [r3]
 411 0064 1800     		movs	r0, r3
 412 0066 FFF7FEFF 		bl	CyExitCriticalSection
 465:Generated_Source\PSoC4/CyFlash.c **** }
 413              		.loc 1 465 0
 414 006a C046     		nop
 415 006c BD46     		mov	sp, r7
 416 006e 05B0     		add	sp, sp, #20
 417              		@ sp needed
 418 0070 90BD     		pop	{r4, r7, pc}
 419              	.L27:
 420 0072 C046     		.align	2
 421              	.L26:
 422 0074 30001040 		.word	1074790448
 423              		.cfi_endproc
 424              	.LFE3:
 425              		.size	CySysFlashSetWaitCycles, .-CySysFlashSetWaitCycles
 426              		.section	.text.CySysSFlashWriteUserRow,"ax",%progbits
 427              		.align	2
 428              		.global	CySysSFlashWriteUserRow
 429              		.code	16
 430              		.thumb_func
 431              		.type	CySysSFlashWriteUserRow, %function
 432              	CySysSFlashWriteUserRow:
 433              	.LFB4:
 466:Generated_Source\PSoC4/CyFlash.c **** 
 467:Generated_Source\PSoC4/CyFlash.c **** 
 468:Generated_Source\PSoC4/CyFlash.c **** #if (CY_SFLASH_XTRA_ROWS)
 469:Generated_Source\PSoC4/CyFlash.c **** /*******************************************************************************
 470:Generated_Source\PSoC4/CyFlash.c **** * Function Name: CySysSFlashWriteUserRow
 471:Generated_Source\PSoC4/CyFlash.c **** ****************************************************************************//**
 472:Generated_Source\PSoC4/CyFlash.c **** *
 473:Generated_Source\PSoC4/CyFlash.c **** * Writes data to a row of SFlash user configurable area.
ARM GAS  C:\Users\diego\AppData\Local\Temp\ccQgq9yq.s 			page 17


 474:Generated_Source\PSoC4/CyFlash.c **** *
 475:Generated_Source\PSoC4/CyFlash.c **** * This API is applicable for PSoC 4100 BLE, PSoC 4200 BLE, PSoC 4100M,
 476:Generated_Source\PSoC4/CyFlash.c **** * PSoC 4200M, and PSoC 4200L family of devices.
 477:Generated_Source\PSoC4/CyFlash.c **** *
 478:Generated_Source\PSoC4/CyFlash.c **** * \param rowNum The flash row number. The flash row number. The number of the
 479:Generated_Source\PSoC4/CyFlash.c **** * flash rows is defined by the CY_SFLASH_NUMBER_USERROWS macro for the selected
 480:Generated_Source\PSoC4/CyFlash.c **** * device. Valid range is 0-3. Refer to the device TRM for details.
 481:Generated_Source\PSoC4/CyFlash.c **** *
 482:Generated_Source\PSoC4/CyFlash.c **** * \param rowData Array of bytes to write. The size of the array must be equal to
 483:Generated_Source\PSoC4/CyFlash.c **** * the flash row size. The flash row size for the selected device is defined by
 484:Generated_Source\PSoC4/CyFlash.c **** * the \ref CY_SFLASH_SIZEOF_USERROW macro. Refer to the device TRM for the
 485:Generated_Source\PSoC4/CyFlash.c **** * details.
 486:Generated_Source\PSoC4/CyFlash.c **** *
 487:Generated_Source\PSoC4/CyFlash.c **** * \return \ref group_flash_status_codes
 488:Generated_Source\PSoC4/CyFlash.c **** *
 489:Generated_Source\PSoC4/CyFlash.c **** *******************************************************************************/
 490:Generated_Source\PSoC4/CyFlash.c **** uint32 CySysSFlashWriteUserRow(uint32 rowNum, const uint8 rowData[])
 491:Generated_Source\PSoC4/CyFlash.c **** {
 434              		.loc 1 491 0
 435              		.cfi_startproc
 436              		@ args = 0, pretend = 0, frame = 160
 437              		@ frame_needed = 1, uses_anonymous_args = 0
 438 0000 90B5     		push	{r4, r7, lr}
 439              		.cfi_def_cfa_offset 12
 440              		.cfi_offset 4, -12
 441              		.cfi_offset 7, -8
 442              		.cfi_offset 14, -4
 443 0002 A9B0     		sub	sp, sp, #164
 444              		.cfi_def_cfa_offset 176
 445 0004 00AF     		add	r7, sp, #0
 446              		.cfi_def_cfa_register 7
 447 0006 7860     		str	r0, [r7, #4]
 448 0008 3960     		str	r1, [r7]
 492:Generated_Source\PSoC4/CyFlash.c ****     volatile uint32 retValue = CY_SYS_FLASH_SUCCESS;
 449              		.loc 1 492 0
 450 000a 0023     		movs	r3, #0
 451 000c 9822     		movs	r2, #152
 452 000e BA18     		adds	r2, r7, r2
 453 0010 1360     		str	r3, [r2]
 493:Generated_Source\PSoC4/CyFlash.c ****     volatile uint32 clkCnfRetValue = CY_SYS_FLASH_SUCCESS;
 454              		.loc 1 493 0
 455 0012 0023     		movs	r3, #0
 456 0014 9422     		movs	r2, #148
 457 0016 BA18     		adds	r2, r7, r2
 458 0018 1360     		str	r3, [r2]
 494:Generated_Source\PSoC4/CyFlash.c ****     volatile uint32 parameters[(CY_FLASH_SIZEOF_ROW + CY_FLASH_SRAM_ROM_DATA)/4u];
 495:Generated_Source\PSoC4/CyFlash.c ****     uint8  interruptState;
 496:Generated_Source\PSoC4/CyFlash.c **** 
 497:Generated_Source\PSoC4/CyFlash.c **** 
 498:Generated_Source\PSoC4/CyFlash.c ****     if ((rowNum < CY_SFLASH_NUMBER_USERROWS) && (rowData != 0u))
 459              		.loc 1 498 0
 460 001a 7B68     		ldr	r3, [r7, #4]
 461 001c 032B     		cmp	r3, #3
 462 001e 00D9     		bls	.LCB375
 463 0020 A0E0     		b	.L29	@long jump
 464              	.LCB375:
 465              		.loc 1 498 0 is_stmt 0 discriminator 1
ARM GAS  C:\Users\diego\AppData\Local\Temp\ccQgq9yq.s 			page 18


 466 0022 3B68     		ldr	r3, [r7]
 467 0024 002B     		cmp	r3, #0
 468 0026 00D1     		bne	.LCB378
 469 0028 9CE0     		b	.L29	@long jump
 470              	.LCB378:
 499:Generated_Source\PSoC4/CyFlash.c ****     {
 500:Generated_Source\PSoC4/CyFlash.c ****         /* Load Flash Bytes */
 501:Generated_Source\PSoC4/CyFlash.c ****         parameters[0u] = (uint32) (CY_FLASH_GET_MACRO_FROM_ROW(rowNum)        << CY_FLASH_PARAM_MAC
 502:Generated_Source\PSoC4/CyFlash.c ****                          (uint32) (CY_FLASH_PAGE_LATCH_START_ADDR             << CY_FLASH_PARAM_ADD
 503:Generated_Source\PSoC4/CyFlash.c ****                          (uint32) (CY_FLASH_KEY_TWO(CY_FLASH_API_OPCODE_LOAD) << CY_FLASH_PARAM_KEY
 471              		.loc 1 503 0 is_stmt 1
 472 002a 7B68     		ldr	r3, [r7, #4]
 473 002c 534A     		ldr	r2, .L46
 474 002e 9342     		cmp	r3, r2
 475 0030 01D9     		bls	.L30
 476              		.loc 1 503 0 is_stmt 0 discriminator 1
 477 0032 534A     		ldr	r2, .L46+4
 478 0034 00E0     		b	.L31
 479              	.L30:
 480              		.loc 1 503 0 discriminator 2
 481 0036 534A     		ldr	r2, .L46+8
 482              	.L31:
 501:Generated_Source\PSoC4/CyFlash.c ****                          (uint32) (CY_FLASH_PAGE_LATCH_START_ADDR             << CY_FLASH_PARAM_ADD
 483              		.loc 1 501 0 is_stmt 1
 484 0038 0C23     		movs	r3, #12
 485 003a FB18     		adds	r3, r7, r3
 486 003c 1A60     		str	r2, [r3]
 504:Generated_Source\PSoC4/CyFlash.c ****                          CY_FLASH_KEY_ONE;
 505:Generated_Source\PSoC4/CyFlash.c ****         parameters[1u] = CY_FLASH_SIZEOF_ROW - 1u;
 487              		.loc 1 505 0
 488 003e 0C23     		movs	r3, #12
 489 0040 FB18     		adds	r3, r7, r3
 490 0042 7F22     		movs	r2, #127
 491 0044 5A60     		str	r2, [r3, #4]
 506:Generated_Source\PSoC4/CyFlash.c **** 
 507:Generated_Source\PSoC4/CyFlash.c ****         (void)memcpy((void *)&parameters[2u], rowData, CY_FLASH_SIZEOF_ROW);
 492              		.loc 1 507 0
 493 0046 3968     		ldr	r1, [r7]
 494 0048 0C23     		movs	r3, #12
 495 004a FB18     		adds	r3, r7, r3
 496 004c 0833     		adds	r3, r3, #8
 497 004e 8022     		movs	r2, #128
 498 0050 1800     		movs	r0, r3
 499 0052 FFF7FEFF 		bl	memcpy
 508:Generated_Source\PSoC4/CyFlash.c ****         CY_FLASH_CPUSS_SYSARG_REG = (uint32) &parameters[0u];
 500              		.loc 1 508 0
 501 0056 4C4B     		ldr	r3, .L46+12
 502 0058 0C22     		movs	r2, #12
 503 005a BA18     		adds	r2, r7, r2
 504 005c 1A60     		str	r2, [r3]
 509:Generated_Source\PSoC4/CyFlash.c ****         CY_FLASH_CPUSS_SYSREQ_REG = CY_FLASH_CPUSS_REQ_START | CY_FLASH_API_OPCODE_LOAD;
 505              		.loc 1 509 0
 506 005e 4B4B     		ldr	r3, .L46+16
 507 0060 4B4A     		ldr	r2, .L46+20
 508 0062 1A60     		str	r2, [r3]
 510:Generated_Source\PSoC4/CyFlash.c ****         CY_NOP;
 509              		.loc 1 510 0
ARM GAS  C:\Users\diego\AppData\Local\Temp\ccQgq9yq.s 			page 19


 510              		.syntax divided
 511              	@ 510 "Generated_Source\PSoC4\CyFlash.c" 1
 512 0064 C046     		NOP
 513              	
 514              	@ 0 "" 2
 511:Generated_Source\PSoC4/CyFlash.c ****         retValue = CY_FLASH_API_RETURN;
 515              		.loc 1 511 0
 516              		.thumb
 517              		.syntax unified
 518 0066 484B     		ldr	r3, .L46+12
 519 0068 1B68     		ldr	r3, [r3]
 520 006a 1B0F     		lsrs	r3, r3, #28
 521 006c 1A07     		lsls	r2, r3, #28
 522 006e F023     		movs	r3, #240
 523 0070 1B06     		lsls	r3, r3, #24
 524 0072 9A42     		cmp	r2, r3
 525 0074 04D1     		bne	.L32
 526              		.loc 1 511 0 is_stmt 0 discriminator 1
 527 0076 444B     		ldr	r3, .L46+12
 528 0078 1B68     		ldr	r3, [r3]
 529 007a FF22     		movs	r2, #255
 530 007c 1340     		ands	r3, r2
 531 007e 0DE0     		b	.L33
 532              	.L32:
 533              		.loc 1 511 0 discriminator 2
 534 0080 414B     		ldr	r3, .L46+12
 535 0082 1B68     		ldr	r3, [r3]
 536 0084 1B0F     		lsrs	r3, r3, #28
 537 0086 1A07     		lsls	r2, r3, #28
 538 0088 A023     		movs	r3, #160
 539 008a 1B06     		lsls	r3, r3, #24
 540 008c 9A42     		cmp	r2, r3
 541 008e 04D0     		beq	.L34
 542              		.loc 1 511 0 discriminator 4
 543 0090 3D4B     		ldr	r3, .L46+12
 544 0092 1B68     		ldr	r3, [r3]
 545 0094 FF22     		movs	r2, #255
 546 0096 1340     		ands	r3, r2
 547 0098 00E0     		b	.L33
 548              	.L34:
 549              		.loc 1 511 0 discriminator 5
 550 009a 0023     		movs	r3, #0
 551              	.L33:
 552              		.loc 1 511 0 discriminator 8
 553 009c 9822     		movs	r2, #152
 554 009e BA18     		adds	r2, r7, r2
 555 00a0 1360     		str	r3, [r2]
 512:Generated_Source\PSoC4/CyFlash.c **** 
 513:Generated_Source\PSoC4/CyFlash.c ****         if(retValue == CY_SYS_FLASH_SUCCESS)
 556              		.loc 1 513 0 is_stmt 1 discriminator 8
 557 00a2 9823     		movs	r3, #152
 558 00a4 FB18     		adds	r3, r7, r3
 559 00a6 1B68     		ldr	r3, [r3]
 560 00a8 002B     		cmp	r3, #0
 561 00aa 5FD1     		bne	.L44
 514:Generated_Source\PSoC4/CyFlash.c ****         {
 515:Generated_Source\PSoC4/CyFlash.c ****             /***************************************************************
ARM GAS  C:\Users\diego\AppData\Local\Temp\ccQgq9yq.s 			page 20


 516:Generated_Source\PSoC4/CyFlash.c ****             * Mask all the exceptions to guarantee that Flash write will
 517:Generated_Source\PSoC4/CyFlash.c ****             * occur in the atomic way. It will not affect system call
 518:Generated_Source\PSoC4/CyFlash.c ****             * execution (flash row write) since it is executed in the NMI
 519:Generated_Source\PSoC4/CyFlash.c ****             * context.
 520:Generated_Source\PSoC4/CyFlash.c ****             ***************************************************************/
 521:Generated_Source\PSoC4/CyFlash.c ****             interruptState = CyEnterCriticalSection();
 562              		.loc 1 521 0
 563 00ac 9F23     		movs	r3, #159
 564 00ae FC18     		adds	r4, r7, r3
 565 00b0 FFF7FEFF 		bl	CyEnterCriticalSection
 566 00b4 0300     		movs	r3, r0
 567 00b6 2370     		strb	r3, [r4]
 522:Generated_Source\PSoC4/CyFlash.c **** 
 523:Generated_Source\PSoC4/CyFlash.c ****             clkCnfRetValue = CySysFlashClockBackup();
 568              		.loc 1 523 0
 569 00b8 FFF7FEFF 		bl	CySysFlashClockBackup
 570 00bc 0300     		movs	r3, r0
 571 00be 9422     		movs	r2, #148
 572 00c0 BA18     		adds	r2, r7, r2
 573 00c2 1360     		str	r3, [r2]
 524:Generated_Source\PSoC4/CyFlash.c **** 
 525:Generated_Source\PSoC4/CyFlash.c ****         #if(CY_IP_SPCIF_SYNCHRONOUS)
 526:Generated_Source\PSoC4/CyFlash.c ****             if(clkCnfRetValue == CY_SYS_FLASH_SUCCESS)
 574              		.loc 1 526 0
 575 00c4 9423     		movs	r3, #148
 576 00c6 FB18     		adds	r3, r7, r3
 577 00c8 1B68     		ldr	r3, [r3]
 578 00ca 002B     		cmp	r3, #0
 579 00cc 05D1     		bne	.L37
 527:Generated_Source\PSoC4/CyFlash.c ****             {
 528:Generated_Source\PSoC4/CyFlash.c ****                 retValue = CySysFlashClockConfig();
 580              		.loc 1 528 0
 581 00ce FFF7FEFF 		bl	CySysFlashClockConfig
 582 00d2 0300     		movs	r3, r0
 583 00d4 9822     		movs	r2, #152
 584 00d6 BA18     		adds	r2, r7, r2
 585 00d8 1360     		str	r3, [r2]
 586              	.L37:
 529:Generated_Source\PSoC4/CyFlash.c ****             }
 530:Generated_Source\PSoC4/CyFlash.c ****         #endif  /* (CY_IP_SPCIF_SYNCHRONOUS) */
 531:Generated_Source\PSoC4/CyFlash.c **** 
 532:Generated_Source\PSoC4/CyFlash.c ****             if(retValue == CY_SYS_FLASH_SUCCESS)
 587              		.loc 1 532 0
 588 00da 9823     		movs	r3, #152
 589 00dc FB18     		adds	r3, r7, r3
 590 00de 1B68     		ldr	r3, [r3]
 591 00e0 002B     		cmp	r3, #0
 592 00e2 2DD1     		bne	.L38
 533:Generated_Source\PSoC4/CyFlash.c ****             {
 534:Generated_Source\PSoC4/CyFlash.c ****                 /* Write User Sflash Row */
 535:Generated_Source\PSoC4/CyFlash.c ****                 parameters[0u]  = (uint32) (((uint32) CY_FLASH_KEY_TWO(CY_FLASH_API_OPCODE_WRITE_SF
 593              		.loc 1 535 0
 594 00e4 0C23     		movs	r3, #12
 595 00e6 FB18     		adds	r3, r7, r3
 596 00e8 2A4A     		ldr	r2, .L46+24
 597 00ea 1A60     		str	r2, [r3]
 536:Generated_Source\PSoC4/CyFlash.c ****                 parameters[1u] = (uint32) rowNum;
ARM GAS  C:\Users\diego\AppData\Local\Temp\ccQgq9yq.s 			page 21


 598              		.loc 1 536 0
 599 00ec 0C23     		movs	r3, #12
 600 00ee FB18     		adds	r3, r7, r3
 601 00f0 7A68     		ldr	r2, [r7, #4]
 602 00f2 5A60     		str	r2, [r3, #4]
 537:Generated_Source\PSoC4/CyFlash.c **** 
 538:Generated_Source\PSoC4/CyFlash.c ****                 CY_FLASH_CPUSS_SYSARG_REG = (uint32) &parameters[0u];
 603              		.loc 1 538 0
 604 00f4 244B     		ldr	r3, .L46+12
 605 00f6 0C22     		movs	r2, #12
 606 00f8 BA18     		adds	r2, r7, r2
 607 00fa 1A60     		str	r2, [r3]
 539:Generated_Source\PSoC4/CyFlash.c ****                 CY_FLASH_CPUSS_SYSREQ_REG = CY_FLASH_CPUSS_REQ_START | CY_FLASH_API_OPCODE_WRITE_SF
 608              		.loc 1 539 0
 609 00fc 234B     		ldr	r3, .L46+16
 610 00fe 264A     		ldr	r2, .L46+28
 611 0100 1A60     		str	r2, [r3]
 540:Generated_Source\PSoC4/CyFlash.c ****                 CY_NOP;
 612              		.loc 1 540 0
 613              		.syntax divided
 614              	@ 540 "Generated_Source\PSoC4\CyFlash.c" 1
 615 0102 C046     		NOP
 616              	
 617              	@ 0 "" 2
 541:Generated_Source\PSoC4/CyFlash.c ****                 retValue = CY_FLASH_API_RETURN;
 618              		.loc 1 541 0
 619              		.thumb
 620              		.syntax unified
 621 0104 204B     		ldr	r3, .L46+12
 622 0106 1B68     		ldr	r3, [r3]
 623 0108 1B0F     		lsrs	r3, r3, #28
 624 010a 1A07     		lsls	r2, r3, #28
 625 010c F023     		movs	r3, #240
 626 010e 1B06     		lsls	r3, r3, #24
 627 0110 9A42     		cmp	r2, r3
 628 0112 04D1     		bne	.L39
 629              		.loc 1 541 0 is_stmt 0 discriminator 1
 630 0114 1C4B     		ldr	r3, .L46+12
 631 0116 1B68     		ldr	r3, [r3]
 632 0118 FF22     		movs	r2, #255
 633 011a 1340     		ands	r3, r2
 634 011c 0DE0     		b	.L40
 635              	.L39:
 636              		.loc 1 541 0 discriminator 2
 637 011e 1A4B     		ldr	r3, .L46+12
 638 0120 1B68     		ldr	r3, [r3]
 639 0122 1B0F     		lsrs	r3, r3, #28
 640 0124 1A07     		lsls	r2, r3, #28
 641 0126 A023     		movs	r3, #160
 642 0128 1B06     		lsls	r3, r3, #24
 643 012a 9A42     		cmp	r2, r3
 644 012c 04D0     		beq	.L41
 645              		.loc 1 541 0 discriminator 4
 646 012e 164B     		ldr	r3, .L46+12
 647 0130 1B68     		ldr	r3, [r3]
 648 0132 FF22     		movs	r2, #255
 649 0134 1340     		ands	r3, r2
ARM GAS  C:\Users\diego\AppData\Local\Temp\ccQgq9yq.s 			page 22


 650 0136 00E0     		b	.L40
 651              	.L41:
 652              		.loc 1 541 0 discriminator 5
 653 0138 0023     		movs	r3, #0
 654              	.L40:
 655              		.loc 1 541 0 discriminator 8
 656 013a 9822     		movs	r2, #152
 657 013c BA18     		adds	r2, r7, r2
 658 013e 1360     		str	r3, [r2]
 659              	.L38:
 542:Generated_Source\PSoC4/CyFlash.c ****             }
 543:Generated_Source\PSoC4/CyFlash.c **** 
 544:Generated_Source\PSoC4/CyFlash.c ****             if(clkCnfRetValue == CY_SYS_FLASH_SUCCESS)
 660              		.loc 1 544 0 is_stmt 1
 661 0140 9423     		movs	r3, #148
 662 0142 FB18     		adds	r3, r7, r3
 663 0144 1B68     		ldr	r3, [r3]
 664 0146 002B     		cmp	r3, #0
 665 0148 05D1     		bne	.L43
 545:Generated_Source\PSoC4/CyFlash.c ****             {
 546:Generated_Source\PSoC4/CyFlash.c ****                 clkCnfRetValue = CySysFlashClockRestore();
 666              		.loc 1 546 0
 667 014a FFF7FEFF 		bl	CySysFlashClockRestore
 668 014e 0300     		movs	r3, r0
 669 0150 9422     		movs	r2, #148
 670 0152 BA18     		adds	r2, r7, r2
 671 0154 1360     		str	r3, [r2]
 672              	.L43:
 547:Generated_Source\PSoC4/CyFlash.c ****             }
 548:Generated_Source\PSoC4/CyFlash.c ****             CyExitCriticalSection(interruptState);
 673              		.loc 1 548 0
 674 0156 9F23     		movs	r3, #159
 675 0158 FB18     		adds	r3, r7, r3
 676 015a 1B78     		ldrb	r3, [r3]
 677 015c 1800     		movs	r0, r3
 678 015e FFF7FEFF 		bl	CyExitCriticalSection
 513:Generated_Source\PSoC4/CyFlash.c ****         {
 679              		.loc 1 513 0
 680 0162 03E0     		b	.L44
 681              	.L29:
 549:Generated_Source\PSoC4/CyFlash.c ****         }
 550:Generated_Source\PSoC4/CyFlash.c ****     }
 551:Generated_Source\PSoC4/CyFlash.c ****     else
 552:Generated_Source\PSoC4/CyFlash.c ****     {
 553:Generated_Source\PSoC4/CyFlash.c ****         retValue = CY_SYS_FLASH_INVALID_ADDR;
 682              		.loc 1 553 0
 683 0164 0423     		movs	r3, #4
 684 0166 9822     		movs	r2, #152
 685 0168 BA18     		adds	r2, r7, r2
 686 016a 1360     		str	r3, [r2]
 687              	.L44:
 554:Generated_Source\PSoC4/CyFlash.c ****     }
 555:Generated_Source\PSoC4/CyFlash.c **** 
 556:Generated_Source\PSoC4/CyFlash.c ****     return (retValue);
 688              		.loc 1 556 0
 689 016c 9823     		movs	r3, #152
 690 016e FB18     		adds	r3, r7, r3
ARM GAS  C:\Users\diego\AppData\Local\Temp\ccQgq9yq.s 			page 23


 691 0170 1B68     		ldr	r3, [r3]
 557:Generated_Source\PSoC4/CyFlash.c **** }
 692              		.loc 1 557 0
 693 0172 1800     		movs	r0, r3
 694 0174 BD46     		mov	sp, r7
 695 0176 29B0     		add	sp, sp, #164
 696              		@ sp needed
 697 0178 90BD     		pop	{r4, r7, pc}
 698              	.L47:
 699 017a C046     		.align	2
 700              	.L46:
 701 017c FF010000 		.word	511
 702 0180 B6D70001 		.word	16832438
 703 0184 B6D70000 		.word	55222
 704 0188 08001040 		.word	1074790408
 705 018c 04001040 		.word	1074790404
 706 0190 04000080 		.word	-2147483644
 707 0194 B6EB0000 		.word	60342
 708 0198 18000080 		.word	-2147483624
 709              		.cfi_endproc
 710              	.LFE4:
 711              		.size	CySysSFlashWriteUserRow, .-CySysSFlashWriteUserRow
 712              		.section	.text.CySysFlashClockBackup,"ax",%progbits
 713              		.align	2
 714              		.code	16
 715              		.thumb_func
 716              		.type	CySysFlashClockBackup, %function
 717              	CySysFlashClockBackup:
 718              	.LFB5:
 558:Generated_Source\PSoC4/CyFlash.c **** #endif /* (CY_SFLASH_XTRA_ROWS) */
 559:Generated_Source\PSoC4/CyFlash.c **** 
 560:Generated_Source\PSoC4/CyFlash.c **** 
 561:Generated_Source\PSoC4/CyFlash.c **** /*******************************************************************************
 562:Generated_Source\PSoC4/CyFlash.c **** * Function Name: CySysFlashClockBackup
 563:Generated_Source\PSoC4/CyFlash.c **** ****************************************************************************//**
 564:Generated_Source\PSoC4/CyFlash.c **** *
 565:Generated_Source\PSoC4/CyFlash.c **** * Backups the device clock configuration.
 566:Generated_Source\PSoC4/CyFlash.c **** *
 567:Generated_Source\PSoC4/CyFlash.c **** * \return The same as \ref CySysFlashWriteRow().
 568:Generated_Source\PSoC4/CyFlash.c **** *
 569:Generated_Source\PSoC4/CyFlash.c **** *******************************************************************************/
 570:Generated_Source\PSoC4/CyFlash.c **** static cystatus CySysFlashClockBackup(void)
 571:Generated_Source\PSoC4/CyFlash.c **** {
 719              		.loc 1 571 0
 720              		.cfi_startproc
 721              		@ args = 0, pretend = 0, frame = 16
 722              		@ frame_needed = 1, uses_anonymous_args = 0
 723 0000 80B5     		push	{r7, lr}
 724              		.cfi_def_cfa_offset 8
 725              		.cfi_offset 7, -8
 726              		.cfi_offset 14, -4
 727 0002 84B0     		sub	sp, sp, #16
 728              		.cfi_def_cfa_offset 24
 729 0004 00AF     		add	r7, sp, #0
 730              		.cfi_def_cfa_register 7
 572:Generated_Source\PSoC4/CyFlash.c ****     cystatus retValue = CY_SYS_FLASH_SUCCESS;
 731              		.loc 1 572 0
ARM GAS  C:\Users\diego\AppData\Local\Temp\ccQgq9yq.s 			page 24


 732 0006 0023     		movs	r3, #0
 733 0008 FB60     		str	r3, [r7, #12]
 573:Generated_Source\PSoC4/CyFlash.c **** #if(!CY_IP_FM)
 574:Generated_Source\PSoC4/CyFlash.c ****     #if !(CY_PSOC4_4000)
 575:Generated_Source\PSoC4/CyFlash.c ****         #if (CY_IP_SPCIF_SYNCHRONOUS)
 576:Generated_Source\PSoC4/CyFlash.c ****             volatile uint32   parameters[2u];
 577:Generated_Source\PSoC4/CyFlash.c ****         #endif /* (CY_IP_SPCIF_SYNCHRONOUS) */
 578:Generated_Source\PSoC4/CyFlash.c ****     #endif  /* !(CY_PSOC4_4000) */
 579:Generated_Source\PSoC4/CyFlash.c **** #endif  /* (!CY_IP_FM) */
 580:Generated_Source\PSoC4/CyFlash.c **** 
 581:Generated_Source\PSoC4/CyFlash.c **** #if(CY_IP_FM)
 582:Generated_Source\PSoC4/CyFlash.c **** 
 583:Generated_Source\PSoC4/CyFlash.c ****     /***************************************************************
 584:Generated_Source\PSoC4/CyFlash.c ****     * Preserve IMO configuration that could be changed during
 585:Generated_Source\PSoC4/CyFlash.c ****     * system call execution (Cypress ID #150448).
 586:Generated_Source\PSoC4/CyFlash.c ****     ***************************************************************/
 587:Generated_Source\PSoC4/CyFlash.c ****     cySysFlashBackup.imoConfigReg = CY_SYS_CLK_IMO_CONFIG_REG;
 588:Generated_Source\PSoC4/CyFlash.c **** 
 589:Generated_Source\PSoC4/CyFlash.c **** #else   /* (CY_IP_FMLT) */
 590:Generated_Source\PSoC4/CyFlash.c **** 
 591:Generated_Source\PSoC4/CyFlash.c ****     #if (CY_PSOC4_4000)
 592:Generated_Source\PSoC4/CyFlash.c **** 
 593:Generated_Source\PSoC4/CyFlash.c ****         /***************************************************************************
 594:Generated_Source\PSoC4/CyFlash.c ****         * Perform firmware clock settings backup for the PSOC4 4000 devices (the
 595:Generated_Source\PSoC4/CyFlash.c ****         * corresponding system call is not available).
 596:Generated_Source\PSoC4/CyFlash.c ****         ***************************************************************************/
 597:Generated_Source\PSoC4/CyFlash.c **** 
 598:Generated_Source\PSoC4/CyFlash.c ****         /***************************************************************************
 599:Generated_Source\PSoC4/CyFlash.c ****         * The registers listed below are modified by CySysFlashClockConfig().
 600:Generated_Source\PSoC4/CyFlash.c ****         *
 601:Generated_Source\PSoC4/CyFlash.c ****         * The registers to be saved:
 602:Generated_Source\PSoC4/CyFlash.c ****         * - CY_SYS_CLK_IMO_CONFIG_REG - IMO enable state.
 603:Generated_Source\PSoC4/CyFlash.c ****         * - CY_SYS_CLK_SELECT_REG     - HFCLK source, divider, pump source. Save
 604:Generated_Source\PSoC4/CyFlash.c ****         *                               entire register as it can be directly
 605:Generated_Source\PSoC4/CyFlash.c ****         *                               written on restore (no special
 606:Generated_Source\PSoC4/CyFlash.c ****         *                               requirements).
 607:Generated_Source\PSoC4/CyFlash.c ****         * - CY_SYS_CLK_IMO_SELECT_REG - Save IMO frequency.
 608:Generated_Source\PSoC4/CyFlash.c ****         *
 609:Generated_Source\PSoC4/CyFlash.c ****         * The registers not to be saved:
 610:Generated_Source\PSoC4/CyFlash.c ****         * - CY_SYS_CLK_IMO_TRIM1_REG  - No need to save. Function of frequency.
 611:Generated_Source\PSoC4/CyFlash.c ****         *                               Restored by CySysClkWriteImoFreq().
 612:Generated_Source\PSoC4/CyFlash.c ****         * - CY_SYS_CLK_IMO_TRIM3_REG  - No need to save. Function of frequency.
 613:Generated_Source\PSoC4/CyFlash.c ****         *                               Restored by CySysClkWriteImoFreq().
 614:Generated_Source\PSoC4/CyFlash.c ****         * - REG_CPUSS_FLASH_CTL       - Flash wait cycles. Unmodified due to system
 615:Generated_Source\PSoC4/CyFlash.c ****         *                               clock 16 MHz limit.
 616:Generated_Source\PSoC4/CyFlash.c ****         ***************************************************************************/
 617:Generated_Source\PSoC4/CyFlash.c **** 
 618:Generated_Source\PSoC4/CyFlash.c ****         cySysFlashBackup.clkSelectReg = CY_SYS_CLK_SELECT_REG;
 619:Generated_Source\PSoC4/CyFlash.c ****         cySysFlashBackup.clkImoEna    = CY_SYS_CLK_IMO_CONFIG_REG & CY_SYS_CLK_IMO_CONFIG_ENABLE;
 620:Generated_Source\PSoC4/CyFlash.c ****         cySysFlashBackup.clkImoFreq   = CY_SYS_CLK_IMO_MIN_FREQ_MHZ + (CY_SYS_CLK_IMO_SELECT_REG <<
 621:Generated_Source\PSoC4/CyFlash.c **** 
 622:Generated_Source\PSoC4/CyFlash.c ****     #else
 623:Generated_Source\PSoC4/CyFlash.c **** 
 624:Generated_Source\PSoC4/CyFlash.c ****         #if (CY_IP_SPCIF_SYNCHRONOUS)
 625:Generated_Source\PSoC4/CyFlash.c ****             /* FM-Lite Clock Backup System Call */
 626:Generated_Source\PSoC4/CyFlash.c ****             parameters[0u] =
 734              		.loc 1 626 0
ARM GAS  C:\Users\diego\AppData\Local\Temp\ccQgq9yq.s 			page 25


 735 000a 3B1D     		adds	r3, r7, #4
 736 000c 164A     		ldr	r2, .L54
 737 000e 1A60     		str	r2, [r3]
 627:Generated_Source\PSoC4/CyFlash.c ****                 (uint32) ((CY_FLASH_KEY_TWO(CY_FLASH_API_OPCODE_CLK_BACKUP) <<  CY_FLASH_PARAM_KEY_
 628:Generated_Source\PSoC4/CyFlash.c ****                             CY_FLASH_KEY_ONE);
 629:Generated_Source\PSoC4/CyFlash.c ****             parameters[1u] = (uint32) &cySysFlashBackup.clockSettings[0u];
 738              		.loc 1 629 0
 739 0010 164A     		ldr	r2, .L54+4
 740 0012 3B1D     		adds	r3, r7, #4
 741 0014 5A60     		str	r2, [r3, #4]
 630:Generated_Source\PSoC4/CyFlash.c ****             CY_FLASH_CPUSS_SYSARG_REG = (uint32) &parameters[0u];
 742              		.loc 1 630 0
 743 0016 164B     		ldr	r3, .L54+8
 744 0018 3A1D     		adds	r2, r7, #4
 745 001a 1A60     		str	r2, [r3]
 631:Generated_Source\PSoC4/CyFlash.c ****             CY_FLASH_CPUSS_SYSREQ_REG = CY_FLASH_CPUSS_REQ_START | CY_FLASH_API_OPCODE_CLK_BACKUP;
 746              		.loc 1 631 0
 747 001c 154B     		ldr	r3, .L54+12
 748 001e 164A     		ldr	r2, .L54+16
 749 0020 1A60     		str	r2, [r3]
 632:Generated_Source\PSoC4/CyFlash.c ****             CY_NOP;
 750              		.loc 1 632 0
 751              		.syntax divided
 752              	@ 632 "Generated_Source\PSoC4\CyFlash.c" 1
 753 0022 C046     		NOP
 754              	
 755              	@ 0 "" 2
 633:Generated_Source\PSoC4/CyFlash.c ****             retValue = CY_FLASH_API_RETURN;
 756              		.loc 1 633 0
 757              		.thumb
 758              		.syntax unified
 759 0024 124B     		ldr	r3, .L54+8
 760 0026 1B68     		ldr	r3, [r3]
 761 0028 1B0F     		lsrs	r3, r3, #28
 762 002a 1A07     		lsls	r2, r3, #28
 763 002c F023     		movs	r3, #240
 764 002e 1B06     		lsls	r3, r3, #24
 765 0030 9A42     		cmp	r2, r3
 766 0032 04D1     		bne	.L49
 767              		.loc 1 633 0 is_stmt 0 discriminator 1
 768 0034 0E4B     		ldr	r3, .L54+8
 769 0036 1B68     		ldr	r3, [r3]
 770 0038 FF22     		movs	r2, #255
 771 003a 1340     		ands	r3, r2
 772 003c 0DE0     		b	.L50
 773              	.L49:
 774              		.loc 1 633 0 discriminator 2
 775 003e 0C4B     		ldr	r3, .L54+8
 776 0040 1B68     		ldr	r3, [r3]
 777 0042 1B0F     		lsrs	r3, r3, #28
 778 0044 1A07     		lsls	r2, r3, #28
 779 0046 A023     		movs	r3, #160
 780 0048 1B06     		lsls	r3, r3, #24
 781 004a 9A42     		cmp	r2, r3
 782 004c 04D0     		beq	.L51
 783              		.loc 1 633 0 discriminator 4
 784 004e 084B     		ldr	r3, .L54+8
ARM GAS  C:\Users\diego\AppData\Local\Temp\ccQgq9yq.s 			page 26


 785 0050 1B68     		ldr	r3, [r3]
 786 0052 FF22     		movs	r2, #255
 787 0054 1340     		ands	r3, r2
 788 0056 00E0     		b	.L50
 789              	.L51:
 790              		.loc 1 633 0 discriminator 5
 791 0058 0023     		movs	r3, #0
 792              	.L50:
 793              		.loc 1 633 0 discriminator 8
 794 005a FB60     		str	r3, [r7, #12]
 634:Generated_Source\PSoC4/CyFlash.c ****         #endif /* (CY_IP_SPCIF_SYNCHRONOUS) */
 635:Generated_Source\PSoC4/CyFlash.c **** 
 636:Generated_Source\PSoC4/CyFlash.c ****     #endif  /* (CY_PSOC4_4000) */
 637:Generated_Source\PSoC4/CyFlash.c **** 
 638:Generated_Source\PSoC4/CyFlash.c **** #endif  /* (CY_IP_FM) */
 639:Generated_Source\PSoC4/CyFlash.c **** 
 640:Generated_Source\PSoC4/CyFlash.c ****     return (retValue);
 795              		.loc 1 640 0 is_stmt 1 discriminator 8
 796 005c FB68     		ldr	r3, [r7, #12]
 641:Generated_Source\PSoC4/CyFlash.c **** }
 797              		.loc 1 641 0 discriminator 8
 798 005e 1800     		movs	r0, r3
 799 0060 BD46     		mov	sp, r7
 800 0062 04B0     		add	sp, sp, #16
 801              		@ sp needed
 802 0064 80BD     		pop	{r7, pc}
 803              	.L55:
 804 0066 C046     		.align	2
 805              	.L54:
 806 0068 B6E90000 		.word	59830
 807 006c 04000000 		.word	cySysFlashBackup+4
 808 0070 08001040 		.word	1074790408
 809 0074 04001040 		.word	1074790404
 810 0078 16000080 		.word	-2147483626
 811              		.cfi_endproc
 812              	.LFE5:
 813              		.size	CySysFlashClockBackup, .-CySysFlashClockBackup
 814              		.section	.text.CySysFlashClockConfig,"ax",%progbits
 815              		.align	2
 816              		.code	16
 817              		.thumb_func
 818              		.type	CySysFlashClockConfig, %function
 819              	CySysFlashClockConfig:
 820              	.LFB6:
 642:Generated_Source\PSoC4/CyFlash.c **** 
 643:Generated_Source\PSoC4/CyFlash.c **** 
 644:Generated_Source\PSoC4/CyFlash.c **** #if(CY_IP_SPCIF_SYNCHRONOUS)
 645:Generated_Source\PSoC4/CyFlash.c **** /*******************************************************************************
 646:Generated_Source\PSoC4/CyFlash.c **** * Function Name: CySysFlashClockConfig
 647:Generated_Source\PSoC4/CyFlash.c **** ****************************************************************************//**
 648:Generated_Source\PSoC4/CyFlash.c **** *
 649:Generated_Source\PSoC4/CyFlash.c **** * Configures the device clocks for the flash writing.
 650:Generated_Source\PSoC4/CyFlash.c **** *
 651:Generated_Source\PSoC4/CyFlash.c **** * \return The same as \ref CySysFlashWriteRow().
 652:Generated_Source\PSoC4/CyFlash.c **** *
 653:Generated_Source\PSoC4/CyFlash.c **** *******************************************************************************/
 654:Generated_Source\PSoC4/CyFlash.c **** static cystatus CySysFlashClockConfig(void)
ARM GAS  C:\Users\diego\AppData\Local\Temp\ccQgq9yq.s 			page 27


 655:Generated_Source\PSoC4/CyFlash.c **** {
 821              		.loc 1 655 0
 822              		.cfi_startproc
 823              		@ args = 0, pretend = 0, frame = 8
 824              		@ frame_needed = 1, uses_anonymous_args = 0
 825 0000 80B5     		push	{r7, lr}
 826              		.cfi_def_cfa_offset 8
 827              		.cfi_offset 7, -8
 828              		.cfi_offset 14, -4
 829 0002 82B0     		sub	sp, sp, #8
 830              		.cfi_def_cfa_offset 16
 831 0004 00AF     		add	r7, sp, #0
 832              		.cfi_def_cfa_register 7
 656:Generated_Source\PSoC4/CyFlash.c ****     cystatus retValue = CY_SYS_FLASH_SUCCESS;
 833              		.loc 1 656 0
 834 0006 0023     		movs	r3, #0
 835 0008 7B60     		str	r3, [r7, #4]
 657:Generated_Source\PSoC4/CyFlash.c **** 
 658:Generated_Source\PSoC4/CyFlash.c ****     /***************************************************************************
 659:Generated_Source\PSoC4/CyFlash.c ****     * The FM-Lite IP uses the IMO at 48MHz for the pump clock and SPC timer
 660:Generated_Source\PSoC4/CyFlash.c ****     * clock. The PUMP_SEL and HF clock must be set to IMO before calling Flash
 661:Generated_Source\PSoC4/CyFlash.c ****     * write or erase operation.
 662:Generated_Source\PSoC4/CyFlash.c ****     ***************************************************************************/
 663:Generated_Source\PSoC4/CyFlash.c **** #if (CY_PSOC4_4000)
 664:Generated_Source\PSoC4/CyFlash.c **** 
 665:Generated_Source\PSoC4/CyFlash.c ****     /***************************************************************************
 666:Generated_Source\PSoC4/CyFlash.c ****     * Perform firmware clock settings setup for the PSOC4 4000 devices (the
 667:Generated_Source\PSoC4/CyFlash.c ****     * corresponding system call is not reliable):
 668:Generated_Source\PSoC4/CyFlash.c ****     * - The IMO frequency should be 48 MHz
 669:Generated_Source\PSoC4/CyFlash.c ****     * - The IMO should be source for the HFCLK
 670:Generated_Source\PSoC4/CyFlash.c ****     * - The IMO should be the source for the charge pump clock
 671:Generated_Source\PSoC4/CyFlash.c ****     *
 672:Generated_Source\PSoC4/CyFlash.c ****     * Note The structure members used below are initialized by
 673:Generated_Source\PSoC4/CyFlash.c ****     * the CySysFlashClockBackup() function.
 674:Generated_Source\PSoC4/CyFlash.c ****     ***************************************************************************/
 675:Generated_Source\PSoC4/CyFlash.c ****     if ((cySysFlashBackup.clkImoFreq != 48u) ||
 676:Generated_Source\PSoC4/CyFlash.c ****         ((cySysFlashBackup.clkSelectReg & CY_SYS_CLK_SELECT_DIRECT_SEL_MASK) != CY_SYS_CLK_HFCLK_IM
 677:Generated_Source\PSoC4/CyFlash.c ****         (((cySysFlashBackup.clkSelectReg >> CY_SYS_CLK_SELECT_PUMP_SEL_SHIFT) & CY_SYS_CLK_SELECT_P
 678:Generated_Source\PSoC4/CyFlash.c ****             CY_SYS_CLK_SELECT_PUMP_SEL_IMO))
 679:Generated_Source\PSoC4/CyFlash.c ****     {
 680:Generated_Source\PSoC4/CyFlash.c ****         /***********************************************************************
 681:Generated_Source\PSoC4/CyFlash.c ****          Set HFCLK divider to divide-by-4 to ensure that System clock frequency
 682:Generated_Source\PSoC4/CyFlash.c ****         * is within the valid limit (16 MHz for the PSoC4 4000).
 683:Generated_Source\PSoC4/CyFlash.c ****         ***********************************************************************/
 684:Generated_Source\PSoC4/CyFlash.c ****         CySysClkWriteHfclkDiv(CY_SYS_CLK_HFCLK_DIV_4);
 685:Generated_Source\PSoC4/CyFlash.c **** 
 686:Generated_Source\PSoC4/CyFlash.c ****         /* The IMO frequency should be 48 MHz */
 687:Generated_Source\PSoC4/CyFlash.c ****         if (cySysFlashBackup.clkImoFreq != 48u)
 688:Generated_Source\PSoC4/CyFlash.c ****         {
 689:Generated_Source\PSoC4/CyFlash.c ****             CySysClkWriteImoFreq(48u);
 690:Generated_Source\PSoC4/CyFlash.c ****         }
 691:Generated_Source\PSoC4/CyFlash.c ****         CySysClkImoStart();
 692:Generated_Source\PSoC4/CyFlash.c **** 
 693:Generated_Source\PSoC4/CyFlash.c ****         /* The IMO should be source for the HFCLK */
 694:Generated_Source\PSoC4/CyFlash.c ****         CySysClkWriteHfclkDirect(CY_SYS_CLK_HFCLK_IMO);
 695:Generated_Source\PSoC4/CyFlash.c **** 
 696:Generated_Source\PSoC4/CyFlash.c ****         /* The IMO should be the source for the charge pump clock */
ARM GAS  C:\Users\diego\AppData\Local\Temp\ccQgq9yq.s 			page 28


 697:Generated_Source\PSoC4/CyFlash.c ****         CY_SYS_CLK_SELECT_REG =  (CY_SYS_CLK_SELECT_REG &
 698:Generated_Source\PSoC4/CyFlash.c ****             ((uint32)~(uint32)(CY_SYS_CLK_SELECT_PUMP_SEL_MASK << CY_SYS_CLK_SELECT_PUMP_SEL_SHIFT)
 699:Generated_Source\PSoC4/CyFlash.c ****             ((uint32)((uint32)1u << CY_SYS_CLK_SELECT_PUMP_SEL_SHIFT));
 700:Generated_Source\PSoC4/CyFlash.c ****     }
 701:Generated_Source\PSoC4/CyFlash.c **** 
 702:Generated_Source\PSoC4/CyFlash.c **** #else
 703:Generated_Source\PSoC4/CyFlash.c **** 
 704:Generated_Source\PSoC4/CyFlash.c ****     /* FM-Lite Clock Configuration */
 705:Generated_Source\PSoC4/CyFlash.c ****     CY_FLASH_CPUSS_SYSARG_REG =
 836              		.loc 1 705 0
 837 000a 144B     		ldr	r3, .L62
 838 000c 144A     		ldr	r2, .L62+4
 839 000e 1A60     		str	r2, [r3]
 706:Generated_Source\PSoC4/CyFlash.c ****         (uint32) ((CY_FLASH_KEY_TWO(CY_FLASH_API_OPCODE_CLK_CONFIG) <<  CY_FLASH_PARAM_KEY_TWO_OFFS
 707:Generated_Source\PSoC4/CyFlash.c ****                     CY_FLASH_KEY_ONE);
 708:Generated_Source\PSoC4/CyFlash.c ****     CY_FLASH_CPUSS_SYSREQ_REG = CY_FLASH_CPUSS_REQ_START | CY_FLASH_API_OPCODE_CLK_CONFIG;
 840              		.loc 1 708 0
 841 0010 144B     		ldr	r3, .L62+8
 842 0012 154A     		ldr	r2, .L62+12
 843 0014 1A60     		str	r2, [r3]
 709:Generated_Source\PSoC4/CyFlash.c ****     CY_NOP;
 844              		.loc 1 709 0
 845              		.syntax divided
 846              	@ 709 "Generated_Source\PSoC4\CyFlash.c" 1
 847 0016 C046     		NOP
 848              	
 849              	@ 0 "" 2
 710:Generated_Source\PSoC4/CyFlash.c ****     retValue = CY_FLASH_API_RETURN;
 850              		.loc 1 710 0
 851              		.thumb
 852              		.syntax unified
 853 0018 104B     		ldr	r3, .L62
 854 001a 1B68     		ldr	r3, [r3]
 855 001c 1B0F     		lsrs	r3, r3, #28
 856 001e 1A07     		lsls	r2, r3, #28
 857 0020 F023     		movs	r3, #240
 858 0022 1B06     		lsls	r3, r3, #24
 859 0024 9A42     		cmp	r2, r3
 860 0026 04D1     		bne	.L57
 861              		.loc 1 710 0 is_stmt 0 discriminator 1
 862 0028 0C4B     		ldr	r3, .L62
 863 002a 1B68     		ldr	r3, [r3]
 864 002c FF22     		movs	r2, #255
 865 002e 1340     		ands	r3, r2
 866 0030 0DE0     		b	.L58
 867              	.L57:
 868              		.loc 1 710 0 discriminator 2
 869 0032 0A4B     		ldr	r3, .L62
 870 0034 1B68     		ldr	r3, [r3]
 871 0036 1B0F     		lsrs	r3, r3, #28
 872 0038 1A07     		lsls	r2, r3, #28
 873 003a A023     		movs	r3, #160
 874 003c 1B06     		lsls	r3, r3, #24
 875 003e 9A42     		cmp	r2, r3
 876 0040 04D0     		beq	.L59
 877              		.loc 1 710 0 discriminator 4
 878 0042 064B     		ldr	r3, .L62
ARM GAS  C:\Users\diego\AppData\Local\Temp\ccQgq9yq.s 			page 29


 879 0044 1B68     		ldr	r3, [r3]
 880 0046 FF22     		movs	r2, #255
 881 0048 1340     		ands	r3, r2
 882 004a 00E0     		b	.L58
 883              	.L59:
 884              		.loc 1 710 0 discriminator 5
 885 004c 0023     		movs	r3, #0
 886              	.L58:
 887              		.loc 1 710 0 discriminator 8
 888 004e 7B60     		str	r3, [r7, #4]
 711:Generated_Source\PSoC4/CyFlash.c **** 
 712:Generated_Source\PSoC4/CyFlash.c **** #endif  /* (CY_PSOC4_4000) */
 713:Generated_Source\PSoC4/CyFlash.c **** 
 714:Generated_Source\PSoC4/CyFlash.c ****     return (retValue);
 889              		.loc 1 714 0 is_stmt 1 discriminator 8
 890 0050 7B68     		ldr	r3, [r7, #4]
 715:Generated_Source\PSoC4/CyFlash.c **** }
 891              		.loc 1 715 0 discriminator 8
 892 0052 1800     		movs	r0, r3
 893 0054 BD46     		mov	sp, r7
 894 0056 02B0     		add	sp, sp, #8
 895              		@ sp needed
 896 0058 80BD     		pop	{r7, pc}
 897              	.L63:
 898 005a C046     		.align	2
 899              	.L62:
 900 005c 08001040 		.word	1074790408
 901 0060 B6E80000 		.word	59574
 902 0064 04001040 		.word	1074790404
 903 0068 15000080 		.word	-2147483627
 904              		.cfi_endproc
 905              	.LFE6:
 906              		.size	CySysFlashClockConfig, .-CySysFlashClockConfig
 907              		.section	.text.CySysFlashClockRestore,"ax",%progbits
 908              		.align	2
 909              		.code	16
 910              		.thumb_func
 911              		.type	CySysFlashClockRestore, %function
 912              	CySysFlashClockRestore:
 913              	.LFB7:
 716:Generated_Source\PSoC4/CyFlash.c **** #endif  /* (CY_IP_SPCIF_SYNCHRONOUS) */
 717:Generated_Source\PSoC4/CyFlash.c **** 
 718:Generated_Source\PSoC4/CyFlash.c **** 
 719:Generated_Source\PSoC4/CyFlash.c **** /*******************************************************************************
 720:Generated_Source\PSoC4/CyFlash.c **** * Function Name: CySysFlashClockRestore
 721:Generated_Source\PSoC4/CyFlash.c **** ****************************************************************************//**
 722:Generated_Source\PSoC4/CyFlash.c **** *
 723:Generated_Source\PSoC4/CyFlash.c **** * Restores the device clock configuration.
 724:Generated_Source\PSoC4/CyFlash.c **** *
 725:Generated_Source\PSoC4/CyFlash.c **** * \return The same as \ref CySysFlashWriteRow().
 726:Generated_Source\PSoC4/CyFlash.c **** *
 727:Generated_Source\PSoC4/CyFlash.c **** *******************************************************************************/
 728:Generated_Source\PSoC4/CyFlash.c **** static cystatus CySysFlashClockRestore(void)
 729:Generated_Source\PSoC4/CyFlash.c **** {
 914              		.loc 1 729 0
 915              		.cfi_startproc
 916              		@ args = 0, pretend = 0, frame = 16
ARM GAS  C:\Users\diego\AppData\Local\Temp\ccQgq9yq.s 			page 30


 917              		@ frame_needed = 1, uses_anonymous_args = 0
 918 0000 80B5     		push	{r7, lr}
 919              		.cfi_def_cfa_offset 8
 920              		.cfi_offset 7, -8
 921              		.cfi_offset 14, -4
 922 0002 84B0     		sub	sp, sp, #16
 923              		.cfi_def_cfa_offset 24
 924 0004 00AF     		add	r7, sp, #0
 925              		.cfi_def_cfa_register 7
 730:Generated_Source\PSoC4/CyFlash.c ****     cystatus retValue = CY_SYS_FLASH_SUCCESS;
 926              		.loc 1 730 0
 927 0006 0023     		movs	r3, #0
 928 0008 FB60     		str	r3, [r7, #12]
 731:Generated_Source\PSoC4/CyFlash.c **** #if(!CY_IP_FM)
 732:Generated_Source\PSoC4/CyFlash.c ****     #if !(CY_PSOC4_4000)
 733:Generated_Source\PSoC4/CyFlash.c ****         #if (CY_IP_SPCIF_SYNCHRONOUS)
 734:Generated_Source\PSoC4/CyFlash.c ****             volatile uint32   parameters[2u];
 735:Generated_Source\PSoC4/CyFlash.c ****         #endif /* (CY_IP_SPCIF_SYNCHRONOUS) */
 736:Generated_Source\PSoC4/CyFlash.c ****     #endif  /* !(CY_PSOC4_4000) */
 737:Generated_Source\PSoC4/CyFlash.c **** #endif  /* (!CY_IP_FM) */
 738:Generated_Source\PSoC4/CyFlash.c **** 
 739:Generated_Source\PSoC4/CyFlash.c **** #if(CY_IP_FM)
 740:Generated_Source\PSoC4/CyFlash.c **** 
 741:Generated_Source\PSoC4/CyFlash.c ****     /***************************************************************
 742:Generated_Source\PSoC4/CyFlash.c ****     * Restore IMO configuration that could be changed during
 743:Generated_Source\PSoC4/CyFlash.c ****     * system call execution (Cypress ID #150448).
 744:Generated_Source\PSoC4/CyFlash.c ****     ***************************************************************/
 745:Generated_Source\PSoC4/CyFlash.c ****     CY_SYS_CLK_IMO_CONFIG_REG = cySysFlashBackup.imoConfigReg;
 746:Generated_Source\PSoC4/CyFlash.c **** 
 747:Generated_Source\PSoC4/CyFlash.c **** #else
 748:Generated_Source\PSoC4/CyFlash.c **** 
 749:Generated_Source\PSoC4/CyFlash.c ****     #if (CY_PSOC4_4000)
 750:Generated_Source\PSoC4/CyFlash.c **** 
 751:Generated_Source\PSoC4/CyFlash.c ****         /***************************************************************************
 752:Generated_Source\PSoC4/CyFlash.c ****         * Perform firmware clock settings restore for the PSOC4 4000 devices (the
 753:Generated_Source\PSoC4/CyFlash.c ****         * corresponding system call is not available).
 754:Generated_Source\PSoC4/CyFlash.c ****         ***************************************************************************/
 755:Generated_Source\PSoC4/CyFlash.c **** 
 756:Generated_Source\PSoC4/CyFlash.c ****         /* Restore clock settings */
 757:Generated_Source\PSoC4/CyFlash.c ****         if ((cySysFlashBackup.clkImoFreq != 48u) ||
 758:Generated_Source\PSoC4/CyFlash.c ****             ((cySysFlashBackup.clkSelectReg & CY_SYS_CLK_SELECT_DIRECT_SEL_MASK) != CY_SYS_CLK_HFCL
 759:Generated_Source\PSoC4/CyFlash.c ****             (((cySysFlashBackup.clkSelectReg >> CY_SYS_CLK_SELECT_PUMP_SEL_SHIFT) & CY_SYS_CLK_SELE
 760:Generated_Source\PSoC4/CyFlash.c ****                 CY_SYS_CLK_SELECT_PUMP_SEL_IMO))
 761:Generated_Source\PSoC4/CyFlash.c ****         {
 762:Generated_Source\PSoC4/CyFlash.c ****             /* Restore IMO frequency if needed */
 763:Generated_Source\PSoC4/CyFlash.c ****             if (cySysFlashBackup.clkImoFreq != 48u)
 764:Generated_Source\PSoC4/CyFlash.c ****             {
 765:Generated_Source\PSoC4/CyFlash.c ****                 CySysClkWriteImoFreq(cySysFlashBackup.clkImoFreq);
 766:Generated_Source\PSoC4/CyFlash.c ****             }
 767:Generated_Source\PSoC4/CyFlash.c **** 
 768:Generated_Source\PSoC4/CyFlash.c ****             /* Restore HFCLK clock source */
 769:Generated_Source\PSoC4/CyFlash.c ****             CySysClkWriteHfclkDirect(cySysFlashBackup.clkSelectReg & CY_SYS_CLK_SELECT_DIRECT_SEL_M
 770:Generated_Source\PSoC4/CyFlash.c **** 
 771:Generated_Source\PSoC4/CyFlash.c ****             /* Restore HFCLK divider and source for pump  */
 772:Generated_Source\PSoC4/CyFlash.c ****             CY_SYS_CLK_SELECT_REG = cySysFlashBackup.clkSelectReg;
 773:Generated_Source\PSoC4/CyFlash.c **** 
 774:Generated_Source\PSoC4/CyFlash.c ****             /* Stop IMO if needed */
ARM GAS  C:\Users\diego\AppData\Local\Temp\ccQgq9yq.s 			page 31


 775:Generated_Source\PSoC4/CyFlash.c ****             if (0u == cySysFlashBackup.clkImoEna)
 776:Generated_Source\PSoC4/CyFlash.c ****             {
 777:Generated_Source\PSoC4/CyFlash.c ****                 CySysClkImoStop();
 778:Generated_Source\PSoC4/CyFlash.c ****             }
 779:Generated_Source\PSoC4/CyFlash.c ****         }
 780:Generated_Source\PSoC4/CyFlash.c **** 
 781:Generated_Source\PSoC4/CyFlash.c ****     #else
 782:Generated_Source\PSoC4/CyFlash.c **** 
 783:Generated_Source\PSoC4/CyFlash.c ****         #if (CY_IP_SPCIF_SYNCHRONOUS)
 784:Generated_Source\PSoC4/CyFlash.c ****             /* FM-Lite Clock Restore */
 785:Generated_Source\PSoC4/CyFlash.c ****             parameters[0u] =
 929              		.loc 1 785 0
 930 000a 3B1D     		adds	r3, r7, #4
 931 000c 164A     		ldr	r2, .L70
 932 000e 1A60     		str	r2, [r3]
 786:Generated_Source\PSoC4/CyFlash.c ****                 (uint32) ((CY_FLASH_KEY_TWO(CY_FLASH_API_OPCODE_CLK_RESTORE) <<  CY_FLASH_PARAM_KEY
 787:Generated_Source\PSoC4/CyFlash.c ****                             CY_FLASH_KEY_ONE);
 788:Generated_Source\PSoC4/CyFlash.c ****             parameters[1u] = (uint32) &cySysFlashBackup.clockSettings[0u];
 933              		.loc 1 788 0
 934 0010 164A     		ldr	r2, .L70+4
 935 0012 3B1D     		adds	r3, r7, #4
 936 0014 5A60     		str	r2, [r3, #4]
 789:Generated_Source\PSoC4/CyFlash.c ****             CY_FLASH_CPUSS_SYSARG_REG = (uint32) &parameters[0u];
 937              		.loc 1 789 0
 938 0016 164B     		ldr	r3, .L70+8
 939 0018 3A1D     		adds	r2, r7, #4
 940 001a 1A60     		str	r2, [r3]
 790:Generated_Source\PSoC4/CyFlash.c ****             CY_FLASH_CPUSS_SYSREQ_REG = CY_FLASH_CPUSS_REQ_START | CY_FLASH_API_OPCODE_CLK_RESTORE;
 941              		.loc 1 790 0
 942 001c 154B     		ldr	r3, .L70+12
 943 001e 164A     		ldr	r2, .L70+16
 944 0020 1A60     		str	r2, [r3]
 791:Generated_Source\PSoC4/CyFlash.c ****             CY_NOP;
 945              		.loc 1 791 0
 946              		.syntax divided
 947              	@ 791 "Generated_Source\PSoC4\CyFlash.c" 1
 948 0022 C046     		NOP
 949              	
 950              	@ 0 "" 2
 792:Generated_Source\PSoC4/CyFlash.c ****             retValue = CY_FLASH_API_RETURN;
 951              		.loc 1 792 0
 952              		.thumb
 953              		.syntax unified
 954 0024 124B     		ldr	r3, .L70+8
 955 0026 1B68     		ldr	r3, [r3]
 956 0028 1B0F     		lsrs	r3, r3, #28
 957 002a 1A07     		lsls	r2, r3, #28
 958 002c F023     		movs	r3, #240
 959 002e 1B06     		lsls	r3, r3, #24
 960 0030 9A42     		cmp	r2, r3
 961 0032 04D1     		bne	.L65
 962              		.loc 1 792 0 is_stmt 0 discriminator 1
 963 0034 0E4B     		ldr	r3, .L70+8
 964 0036 1B68     		ldr	r3, [r3]
 965 0038 FF22     		movs	r2, #255
 966 003a 1340     		ands	r3, r2
 967 003c 0DE0     		b	.L66
ARM GAS  C:\Users\diego\AppData\Local\Temp\ccQgq9yq.s 			page 32


 968              	.L65:
 969              		.loc 1 792 0 discriminator 2
 970 003e 0C4B     		ldr	r3, .L70+8
 971 0040 1B68     		ldr	r3, [r3]
 972 0042 1B0F     		lsrs	r3, r3, #28
 973 0044 1A07     		lsls	r2, r3, #28
 974 0046 A023     		movs	r3, #160
 975 0048 1B06     		lsls	r3, r3, #24
 976 004a 9A42     		cmp	r2, r3
 977 004c 04D0     		beq	.L67
 978              		.loc 1 792 0 discriminator 4
 979 004e 084B     		ldr	r3, .L70+8
 980 0050 1B68     		ldr	r3, [r3]
 981 0052 FF22     		movs	r2, #255
 982 0054 1340     		ands	r3, r2
 983 0056 00E0     		b	.L66
 984              	.L67:
 985              		.loc 1 792 0 discriminator 5
 986 0058 0023     		movs	r3, #0
 987              	.L66:
 988              		.loc 1 792 0 discriminator 8
 989 005a FB60     		str	r3, [r7, #12]
 793:Generated_Source\PSoC4/CyFlash.c ****         #endif /* (CY_IP_SPCIF_SYNCHRONOUS) */
 794:Generated_Source\PSoC4/CyFlash.c **** 
 795:Generated_Source\PSoC4/CyFlash.c ****     #endif  /* (CY_PSOC4_4000) */
 796:Generated_Source\PSoC4/CyFlash.c **** 
 797:Generated_Source\PSoC4/CyFlash.c **** #endif  /* (CY_IP_FM) */
 798:Generated_Source\PSoC4/CyFlash.c **** 
 799:Generated_Source\PSoC4/CyFlash.c ****     return (retValue);
 990              		.loc 1 799 0 is_stmt 1 discriminator 8
 991 005c FB68     		ldr	r3, [r7, #12]
 800:Generated_Source\PSoC4/CyFlash.c **** }
 992              		.loc 1 800 0 discriminator 8
 993 005e 1800     		movs	r0, r3
 994 0060 BD46     		mov	sp, r7
 995 0062 04B0     		add	sp, sp, #16
 996              		@ sp needed
 997 0064 80BD     		pop	{r7, pc}
 998              	.L71:
 999 0066 C046     		.align	2
 1000              	.L70:
 1001 0068 B6EA0000 		.word	60086
 1002 006c 04000000 		.word	cySysFlashBackup+4
 1003 0070 08001040 		.word	1074790408
 1004 0074 04001040 		.word	1074790404
 1005 0078 17000080 		.word	-2147483625
 1006              		.cfi_endproc
 1007              	.LFE7:
 1008              		.size	CySysFlashClockRestore, .-CySysFlashClockRestore
 1009              		.text
 1010              	.Letext0:
 1011              		.file 2 "Generated_Source\\PSoC4\\cytypes.h"
 1012              		.file 3 "Generated_Source\\PSoC4\\CyFlash.h"
