ARM GAS  C:\Users\diego\AppData\Local\Temp\ccCmGIWq.s 			page 1


   1              		.syntax unified
   2              		.cpu cortex-m0
   3              		.fpu softvfp
   4              		.eabi_attribute 20, 1
   5              		.eabi_attribute 21, 1
   6              		.eabi_attribute 23, 3
   7              		.eabi_attribute 24, 1
   8              		.eabi_attribute 25, 1
   9              		.eabi_attribute 26, 1
  10              		.eabi_attribute 30, 6
  11              		.eabi_attribute 34, 0
  12              		.eabi_attribute 18, 4
  13              		.thumb
  14              		.syntax unified
  15              		.file	"led_verde_PM.c"
  16              		.text
  17              	.Ltext0:
  18              		.cfi_sections	.debug_frame
  19              		.bss
  20              		.align	2
  21              	led_verde_backup:
  22 0000 00000000 		.space	12
  22      00000000 
  22      00000000 
  23              		.section	.text.led_verde_Sleep,"ax",%progbits
  24              		.align	2
  25              		.global	led_verde_Sleep
  26              		.code	16
  27              		.thumb_func
  28              		.type	led_verde_Sleep, %function
  29              	led_verde_Sleep:
  30              	.LFB0:
  31              		.file 1 "Generated_Source\\PSoC4\\led_verde_PM.c"
   1:Generated_Source\PSoC4/led_verde_PM.c **** /*******************************************************************************
   2:Generated_Source\PSoC4/led_verde_PM.c **** * File Name: led_verde.c  
   3:Generated_Source\PSoC4/led_verde_PM.c **** * Version 2.20
   4:Generated_Source\PSoC4/led_verde_PM.c **** *
   5:Generated_Source\PSoC4/led_verde_PM.c **** * Description:
   6:Generated_Source\PSoC4/led_verde_PM.c **** *  This file contains APIs to set up the Pins component for low power modes.
   7:Generated_Source\PSoC4/led_verde_PM.c **** *
   8:Generated_Source\PSoC4/led_verde_PM.c **** * Note:
   9:Generated_Source\PSoC4/led_verde_PM.c **** *
  10:Generated_Source\PSoC4/led_verde_PM.c **** ********************************************************************************
  11:Generated_Source\PSoC4/led_verde_PM.c **** * Copyright 2015, Cypress Semiconductor Corporation.  All rights reserved.
  12:Generated_Source\PSoC4/led_verde_PM.c **** * You may use this file only in accordance with the license, terms, conditions, 
  13:Generated_Source\PSoC4/led_verde_PM.c **** * disclaimers, and limitations in the end user license agreement accompanying 
  14:Generated_Source\PSoC4/led_verde_PM.c **** * the software package with which this file was provided.
  15:Generated_Source\PSoC4/led_verde_PM.c **** *******************************************************************************/
  16:Generated_Source\PSoC4/led_verde_PM.c **** 
  17:Generated_Source\PSoC4/led_verde_PM.c **** #include "cytypes.h"
  18:Generated_Source\PSoC4/led_verde_PM.c **** #include "led_verde.h"
  19:Generated_Source\PSoC4/led_verde_PM.c **** 
  20:Generated_Source\PSoC4/led_verde_PM.c **** static led_verde_BACKUP_STRUCT  led_verde_backup = {0u, 0u, 0u};
  21:Generated_Source\PSoC4/led_verde_PM.c **** 
  22:Generated_Source\PSoC4/led_verde_PM.c **** 
  23:Generated_Source\PSoC4/led_verde_PM.c **** /*******************************************************************************
  24:Generated_Source\PSoC4/led_verde_PM.c **** * Function Name: led_verde_Sleep
ARM GAS  C:\Users\diego\AppData\Local\Temp\ccCmGIWq.s 			page 2


  25:Generated_Source\PSoC4/led_verde_PM.c **** ****************************************************************************//**
  26:Generated_Source\PSoC4/led_verde_PM.c **** *
  27:Generated_Source\PSoC4/led_verde_PM.c **** * \brief Stores the pin configuration and prepares the pin for entering chip 
  28:Generated_Source\PSoC4/led_verde_PM.c **** *  deep-sleep/hibernate modes. This function applies only to SIO and USBIO pins.
  29:Generated_Source\PSoC4/led_verde_PM.c **** *  It should not be called for GPIO or GPIO_OVT pins.
  30:Generated_Source\PSoC4/led_verde_PM.c **** *
  31:Generated_Source\PSoC4/led_verde_PM.c **** * <b>Note</b> This function is available in PSoC 4 only.
  32:Generated_Source\PSoC4/led_verde_PM.c **** *
  33:Generated_Source\PSoC4/led_verde_PM.c **** * \return 
  34:Generated_Source\PSoC4/led_verde_PM.c **** *  None 
  35:Generated_Source\PSoC4/led_verde_PM.c **** *  
  36:Generated_Source\PSoC4/led_verde_PM.c **** * \sideeffect
  37:Generated_Source\PSoC4/led_verde_PM.c **** *  For SIO pins, this function configures the pin input threshold to CMOS and
  38:Generated_Source\PSoC4/led_verde_PM.c **** *  drive level to Vddio. This is needed for SIO pins when in device 
  39:Generated_Source\PSoC4/led_verde_PM.c **** *  deep-sleep/hibernate modes.
  40:Generated_Source\PSoC4/led_verde_PM.c **** *
  41:Generated_Source\PSoC4/led_verde_PM.c **** * \funcusage
  42:Generated_Source\PSoC4/led_verde_PM.c **** *  \snippet led_verde_SUT.c usage_led_verde_Sleep_Wakeup
  43:Generated_Source\PSoC4/led_verde_PM.c **** *******************************************************************************/
  44:Generated_Source\PSoC4/led_verde_PM.c **** void led_verde_Sleep(void)
  45:Generated_Source\PSoC4/led_verde_PM.c **** {
  32              		.loc 1 45 0
  33              		.cfi_startproc
  34              		@ args = 0, pretend = 0, frame = 0
  35              		@ frame_needed = 1, uses_anonymous_args = 0
  36 0000 80B5     		push	{r7, lr}
  37              		.cfi_def_cfa_offset 8
  38              		.cfi_offset 7, -8
  39              		.cfi_offset 14, -4
  40 0002 00AF     		add	r7, sp, #0
  41              		.cfi_def_cfa_register 7
  46:Generated_Source\PSoC4/led_verde_PM.c ****     #if defined(led_verde__PC)
  47:Generated_Source\PSoC4/led_verde_PM.c ****         led_verde_backup.pcState = led_verde_PC;
  42              		.loc 1 47 0
  43 0004 034B     		ldr	r3, .L2
  44 0006 1A68     		ldr	r2, [r3]
  45 0008 034B     		ldr	r3, .L2+4
  46 000a 1A60     		str	r2, [r3]
  48:Generated_Source\PSoC4/led_verde_PM.c ****     #else
  49:Generated_Source\PSoC4/led_verde_PM.c ****         #if (CY_PSOC4_4200L)
  50:Generated_Source\PSoC4/led_verde_PM.c ****             /* Save the regulator state and put the PHY into suspend mode */
  51:Generated_Source\PSoC4/led_verde_PM.c ****             led_verde_backup.usbState = led_verde_CR1_REG;
  52:Generated_Source\PSoC4/led_verde_PM.c ****             led_verde_USB_POWER_REG |= led_verde_USBIO_ENTER_SLEEP;
  53:Generated_Source\PSoC4/led_verde_PM.c ****             led_verde_CR1_REG &= led_verde_USBIO_CR1_OFF;
  54:Generated_Source\PSoC4/led_verde_PM.c ****         #endif
  55:Generated_Source\PSoC4/led_verde_PM.c ****     #endif
  56:Generated_Source\PSoC4/led_verde_PM.c ****     #if defined(CYIPBLOCK_m0s8ioss_VERSION) && defined(led_verde__SIO)
  57:Generated_Source\PSoC4/led_verde_PM.c ****         led_verde_backup.sioState = led_verde_SIO_REG;
  58:Generated_Source\PSoC4/led_verde_PM.c ****         /* SIO requires unregulated output buffer and single ended input buffer */
  59:Generated_Source\PSoC4/led_verde_PM.c ****         led_verde_SIO_REG &= (uint32)(~led_verde_SIO_LPM_MASK);
  60:Generated_Source\PSoC4/led_verde_PM.c ****     #endif  
  61:Generated_Source\PSoC4/led_verde_PM.c **** }
  47              		.loc 1 61 0
  48 000c C046     		nop
  49 000e BD46     		mov	sp, r7
  50              		@ sp needed
  51 0010 80BD     		pop	{r7, pc}
ARM GAS  C:\Users\diego\AppData\Local\Temp\ccCmGIWq.s 			page 3


  52              	.L3:
  53 0012 C046     		.align	2
  54              	.L2:
  55 0014 08000440 		.word	1074003976
  56 0018 00000000 		.word	led_verde_backup
  57              		.cfi_endproc
  58              	.LFE0:
  59              		.size	led_verde_Sleep, .-led_verde_Sleep
  60              		.section	.text.led_verde_Wakeup,"ax",%progbits
  61              		.align	2
  62              		.global	led_verde_Wakeup
  63              		.code	16
  64              		.thumb_func
  65              		.type	led_verde_Wakeup, %function
  66              	led_verde_Wakeup:
  67              	.LFB1:
  62:Generated_Source\PSoC4/led_verde_PM.c **** 
  63:Generated_Source\PSoC4/led_verde_PM.c **** 
  64:Generated_Source\PSoC4/led_verde_PM.c **** /*******************************************************************************
  65:Generated_Source\PSoC4/led_verde_PM.c **** * Function Name: led_verde_Wakeup
  66:Generated_Source\PSoC4/led_verde_PM.c **** ****************************************************************************//**
  67:Generated_Source\PSoC4/led_verde_PM.c **** *
  68:Generated_Source\PSoC4/led_verde_PM.c **** * \brief Restores the pin configuration that was saved during Pin_Sleep(). This 
  69:Generated_Source\PSoC4/led_verde_PM.c **** * function applies only to SIO and USBIO pins. It should not be called for
  70:Generated_Source\PSoC4/led_verde_PM.c **** * GPIO or GPIO_OVT pins.
  71:Generated_Source\PSoC4/led_verde_PM.c **** *
  72:Generated_Source\PSoC4/led_verde_PM.c **** * For USBIO pins, the wakeup is only triggered for falling edge interrupts.
  73:Generated_Source\PSoC4/led_verde_PM.c **** *
  74:Generated_Source\PSoC4/led_verde_PM.c **** * <b>Note</b> This function is available in PSoC 4 only.
  75:Generated_Source\PSoC4/led_verde_PM.c **** *
  76:Generated_Source\PSoC4/led_verde_PM.c **** * \return 
  77:Generated_Source\PSoC4/led_verde_PM.c **** *  None
  78:Generated_Source\PSoC4/led_verde_PM.c **** *  
  79:Generated_Source\PSoC4/led_verde_PM.c **** * \funcusage
  80:Generated_Source\PSoC4/led_verde_PM.c **** *  Refer to led_verde_Sleep() for an example usage.
  81:Generated_Source\PSoC4/led_verde_PM.c **** *******************************************************************************/
  82:Generated_Source\PSoC4/led_verde_PM.c **** void led_verde_Wakeup(void)
  83:Generated_Source\PSoC4/led_verde_PM.c **** {
  68              		.loc 1 83 0
  69              		.cfi_startproc
  70              		@ args = 0, pretend = 0, frame = 0
  71              		@ frame_needed = 1, uses_anonymous_args = 0
  72 0000 80B5     		push	{r7, lr}
  73              		.cfi_def_cfa_offset 8
  74              		.cfi_offset 7, -8
  75              		.cfi_offset 14, -4
  76 0002 00AF     		add	r7, sp, #0
  77              		.cfi_def_cfa_register 7
  84:Generated_Source\PSoC4/led_verde_PM.c ****     #if defined(led_verde__PC)
  85:Generated_Source\PSoC4/led_verde_PM.c ****         led_verde_PC = led_verde_backup.pcState;
  78              		.loc 1 85 0
  79 0004 034A     		ldr	r2, .L5
  80 0006 044B     		ldr	r3, .L5+4
  81 0008 1B68     		ldr	r3, [r3]
  82 000a 1360     		str	r3, [r2]
  86:Generated_Source\PSoC4/led_verde_PM.c ****     #else
  87:Generated_Source\PSoC4/led_verde_PM.c ****         #if (CY_PSOC4_4200L)
ARM GAS  C:\Users\diego\AppData\Local\Temp\ccCmGIWq.s 			page 4


  88:Generated_Source\PSoC4/led_verde_PM.c ****             /* Restore the regulator state and come out of suspend mode */
  89:Generated_Source\PSoC4/led_verde_PM.c ****             led_verde_USB_POWER_REG &= led_verde_USBIO_EXIT_SLEEP_PH1;
  90:Generated_Source\PSoC4/led_verde_PM.c ****             led_verde_CR1_REG = led_verde_backup.usbState;
  91:Generated_Source\PSoC4/led_verde_PM.c ****             led_verde_USB_POWER_REG &= led_verde_USBIO_EXIT_SLEEP_PH2;
  92:Generated_Source\PSoC4/led_verde_PM.c ****         #endif
  93:Generated_Source\PSoC4/led_verde_PM.c ****     #endif
  94:Generated_Source\PSoC4/led_verde_PM.c ****     #if defined(CYIPBLOCK_m0s8ioss_VERSION) && defined(led_verde__SIO)
  95:Generated_Source\PSoC4/led_verde_PM.c ****         led_verde_SIO_REG = led_verde_backup.sioState;
  96:Generated_Source\PSoC4/led_verde_PM.c ****     #endif
  97:Generated_Source\PSoC4/led_verde_PM.c **** }
  83              		.loc 1 97 0
  84 000c C046     		nop
  85 000e BD46     		mov	sp, r7
  86              		@ sp needed
  87 0010 80BD     		pop	{r7, pc}
  88              	.L6:
  89 0012 C046     		.align	2
  90              	.L5:
  91 0014 08000440 		.word	1074003976
  92 0018 00000000 		.word	led_verde_backup
  93              		.cfi_endproc
  94              	.LFE1:
  95              		.size	led_verde_Wakeup, .-led_verde_Wakeup
  96              		.text
  97              	.Letext0:
  98              		.file 2 "Generated_Source\\PSoC4\\cytypes.h"
  99              		.file 3 "Generated_Source\\PSoC4\\led_verde.h"
